:020000040800F2
:10000000009A01209D010008351D0008D91A00083A
:10001000311D000825150008212A000800000000F5
:10002000000000000000000000000000AF01000818
:10003000A118000800000000B3010008B501000885
:10004000B7010008B7010008B7010008B7010008B0
:10005000B7010008B7010008B7010008B7010008A0
:10006000B7010008B7010008B7010008B701000890
:10007000B7010008B7010008B7010008B701000880
:10008000B7010008B7010008B7010008B701000870
:10009000B7010008B7010008B7010008B701000860
:1000A000B7010008B7010008B7010008B701000850
:1000B00081270008B7010008B7010008B701000850
:1000C000B7010008B7010008B7010008B701000830
:1000D000B7010008B7010008B7010008B701000820
:1000E000B7010008B7010008B7010008B701000810
:1000F000B7010008B7010008B7010008B701000800
:10010000B7010008B7010008A5270008B7010008DB
:10011000B7010008B7010008B7010008B7010008DF
:10012000B7010008B7010008B7010008B7010008CF
:10013000B7010008B7010008B7010008B7010008BF
:10014000B7010008B7010008B7010008B7010008AF
:10015000B7010008B7010008B7010008B70100089F
:10016000B7010008B7010008B7010008B70100088F
:10017000B7010008B7010008B7010008B70100087F
:10018000B7010008B7010008DFF80CD000F0D8FF75
:100190000048004745340008009A0120064880477F
:1001A00006480047FEE7FEE7FEE7FEE7FEE7FEE75C
:1001B000FEE7FEE7FEE7FEE71927000889010008D1
:1001C0009FED3A0A5FEA920C53D000BFF0EC010AAF
:1001D0000B1DB0EC011A60EEA00A41EE010AF5EE2B
:1001E000C00AF1EE10FAC6BFB1EEE01A81ED001AB6
:1001F00081ED000AF0EC010A191DB0EC011A60EE65
:10020000A00A41EE010AF5EEC00AF1EE10FAC6BFEF
:10021000B1EEE01A83ED001A83ED000AF0EC010A5A
:100220000B1DB0EC011A60EEA00A41EE010AF5EEDA
:10023000C00AF1EE10FAC6BFB1EEE01A81ED001A65
:1002400081ED000AF0EC010A191DB0EC011A60EE14
:10025000A00A41EE010AF5EEC00AF1EE10FAC6BF9F
:10026000B1EEE01A83ED001A83ED000ABCF1010C37
:10027000ACD112F0030208BF704700BFF0EC010AD6
:100280000B46B0EC011A091D60EEA00A41EE010A0E
:10029000F5EEC00AF1EE10FAC6BFB1EEE01A83ED3A
:1002A000001A83ED000A521EE8D1704700000000DA
:1002B0002DE9F04F8D082DED048B82B00026AC4661
:1002C0003446019506EB0C0909EB0C0A0AEB0C0805
:1002D00000EBC60700EBC90900EBCA0A00EBC8082F
:1002E00097ED003AD9ED003ADAED006A98ED006A30
:1002F00097ED010ADAED014A33EE265A73EE860ACB
:1003000099ED014AD8ED015A30EE241A4FEA440B18
:1003100002EBCB0E70EE644A74EE251A35EE200A1D
:100320009EED002ADEED012A87ED000A31EE210A5A
:1003300073EEC63A34EE656A87ED010A35EE600A5F
:1003400033EE663A71EE610A02EBC40774EEE35ACB
:1003500033EE064A97ED005A73EEA41AD7ED014A20
:1003600033EE461A24EE056A0BEB040725EE855A98
:1003700002EBC70760EE026A65EEA45A24EE244A37
:1003800097ED003AD7ED013A60EEA24A20EE822ABC
:1003900021EE037A20EE220A61EEA30A21EE833ACF
:1003A00061EE231A76EEA42A32EE400A36EE251AC2
:1003B00075EE443AC9ED002A77EE200A89ED010A6C
:1003C00073EE611A8AED001ACAED013AC8ED000A0F
:1003D000761CC8ED011A1C446D1E7FF473AF4FF6F6
:1003E000FF7404EA830B019B0093042B7DD96646BE
:1003F0004FEA9C0C4FF00008C146ACF1010E00BF63
:100400004FEA480303EB080402EBC30302EBC80501
:1004100093ED003AD3ED014A02EBC40395ED005A87
:10042000D5ED015A93ED006A93ED014AD8444B464D
:1004300003EB0C0404EB0C0707EB0C0A00EBC30501
:1004400000EBC70700EBC40400EBCA0AD5ED003A85
:1004500097ED007AD4ED008A9AED008A95ED010AB5
:10046000D4ED010AD7ED017ADAED011A33EEC72A8D
:1004700070EE676A70EEE12A33EE877A78EE883A9A
:1004800030EE270A38EEC81A70EEA11A72EE227A00
:1004900032EE622A77EE232A70EE618A36EEC18A46
:1004A00030EE210A77EE630A31EE261AC5ED002AF6
:1004B00085ED010A28EE050A67EE856A28EE258A91
:1004C00020EE837A20EEA49A68EE831A62EE062A62
:1004D00061EE063A62EE040A67EEA57A68EEA48A37
:1004E00021EE041A36EE882A00E027E077EE286A2B
:1004F00071EEC91A30EE670AC4ED006A32EE811A55
:10050000C4ED011A73EEE00A87ED002A87ED010AB7
:100510008AED001A3344CAED010A8B4288D309F1EF
:100520000109F1457FF66CAF4FF6FF7303EA8B0BC1
:10053000009B9B080093042B3FF659AFDDF8041095
:1005400090ED000AD0ED042A90ED025A90ED031AC6
:10055000D0ED064A90ED073A30EE222AD0ED011A8E
:10056000D0ED050A75EE243A31EE034A30EE620A08
:1005700071EEA02A31EE431A32EE233A71EEE00A10
:1005800075EE641A72EE844A32EE632A72EEC43A51
:1005900080ED003A70EE012AC0ED014A30EEE14AEA
:1005A00080ED022A30EE410AC0ED033A71EEA00A56
:1005B000C0ED042A80ED054A80ED060AC0ED070A69
:1005C0002030491EBCD102B0BDEC048BBDE8F08FD9
:1005D0002DE9F04F4FEA910A2DED048B82B00024F3
:1005E000D446A046CDF804A004EB0C0505EB0C06A0
:1005F00006EB0C0900EBC40700EBC60600EBC505D3
:1006000000EBC909D7ED011AD6ED012A95ED006A74
:10061000D9ED006AD7ED005A96ED007AD5ED010AC2
:1006200099ED011A36EE262A71EEA23A35EE873A96
:1006300071EEE21A30EE815A70EEC12A4FEA480B91
:1006400002EBCB0E73EE020A9EED004ADEED014A8C
:10065000C7ED000A73EE850A36EE666A75EEC75A74
:10066000C7ED010A33EE422A02EBC80731EE861AC3
:1006700033EEC53A71EEC61A97ED006A97ED015A4E
:1006800075EEE20A0BEB080702EBC70775EEA22A2C
:10069000D7ED005AD7ED013A60EE866A22EE047A71
:1006A00062EEA57A23EE044A21EE066A61EEA55AAF
:1006B00060EE850A23EE243A22EE242A21EE051A62
:1006C00061EEA31A62EEA32A76EE203A37EE433AA1
:1006D00074EE020A36EEC11A85ED003A77EEE11AA1
:1006E000C5ED010A35EEA22A86ED001AC6ED013AE3
:1006F000C9ED001A641C89ED012A9844BAF1010A77
:100700007FF472AF4FF6FF7404EA830B019B0093F2
:10071000042B7CD966464FEA9C0C4FF00008C1467A
:10072000ACF1010E4FEA480303EB080402EBC303EC
:1007300002EBC805D3ED003A93ED017A02EBC40356
:10074000D5ED006AD5ED015AD3ED004A93ED013A9B
:10075000D8444B4603EB0C0404EB0C0707EB0C0AE4
:1007600000EBC30500EBC70700EBC40400EBCA0AAB
:1007700095ED012A97ED018A95ED001AD4ED008AD6
:10078000D4ED017A97ED009ADAED001ADAED010A5C
:1007900032EE485A71EE492A38EEE14A32EE082A22
:1007A00037EEA08A37EEE06A78EEA11A31EE091A28
:1007B00075EE048A72EEC67A72EE862A71EE610ACE
:1007C00031EE211A35EE444A32EE489A85ED001A90
:1007D00032EE081A28EEA66A27EEA65A68EEA58A17
:1007E00085ED011A20EEA31A69EE231A22EEA42A3F
:1007F00024EE248A67EEA57A29EE079A60EE870A2E
:1008000024EE034A62EE832A35EE685A00E027E0C0
:1008100036EE276A71EE497A31EEA01A72EE440A7A
:10082000C4ED007A84ED011A78EE221A87ED005AA1
:1008300087ED016ACAED000A3344CAED011A8B4202
:1008400088D309F10109F1457FF66CAF4FF6FF73CC
:1008500003EA8B0B009B9B080093042B3FF65AAFD7
:10086000DDF8041090ED003AD0ED044AD0ED032AF3
:1008700090ED071A90ED024AD0ED061AD0ED013A3C
:10088000D0ED050A33EE242A72EE815A33EE643A33
:1008900034EE215A73EEA04A73EEE03A32EEC11AFA
:1008A00074EE610A32EE454A72EE052A74EEA51A1C
:1008B00034EEE55A73EE414A33EEA02A33EE011AC4
:1008C00033EEE03A62EE805A61EE800A64EE003A5E
:1008D00065EE002AC0ED005A64EE801AC0ED010AF0
:1008E00022EE002AC0ED023A21EE004AC0ED032AB2
:1008F00023EE001AC0ED041A80ED052A80ED064AA9
:1009000080ED071A2030491EACD102B0BDEC048B3B
:10091000BDE8F08F70B504460D4680782188A38924
:10092000626801280ED02846FFF7C2FCE078012853
:1009300018BF70BDE28921882846A368BDE87040D1
:1009400000F066B894ED040A2846FFF741FEEDE793
:1009500010B40180234C446082704FF0000CC370CF
:10096000B1F5807F20D004DC10292FD0402906D19A
:1009700022E0B1F5806F0FD0B1F5805F04D04FF069
:10098000FF3C10BC6046704701218181C18116493E
:100990009FED160A816016E004218181C18114490E
:1009A0009FED140A81600EE010218181C1811249FE
:1009B0009FED120A816006E040218181C1811049CA
:1009C0009FED100A816080ED040ADAE74FF4807130
:1009D0008181C1810C499FED0D0A816080ED040A7F
:1009E000CFE70000FC430008FC3B00080000803912
:1009F000023C00080000803A1A3C00080000803BDE
:100A00007A3C00080000803CFA3D00080000803D70
:100A10002DE9F0014E0801244FF0000C04EB5107C2
:100A20006146A6F102082CE061452AD200EBCC0514
:100A300000EBC104D5ED000A94ED000AC4ED000AF4
:100A400085ED000AD5ED010A94ED010AC4ED010A15
:100A500085ED010ACC1900EBC4050CEB070400EB93
:100A6000C40495ED000AD4ED000AC5ED000A84ED3A
:100A7000000AD4ED010A95ED010AC5ED010A84EDE5
:100A8000010A00EBC104B44400EBCC0C94ED020A63
:100A9000DCED000A891CC4ED020A8CED000ADCEDD5
:100AA000010A94ED030AC4ED030A8CED010AB3F8C0
:100AB00000C089B203EB42034145B5D9BDE8F0015E
:100AC00070472DE9F00701254C0805EB51064FF062
:100AD000000C651E6146002D88BFA8462ED8BDE8D3
:100AE000F0077047614529D250F8315050F83C70FA
:100AF00040F8317040F83C5000EBC10700EBCC09E6
:100B00007D68D9F804A0C7F804A0C9F804508D196D
:100B10000CEB060750F8359050F837A040F835A098
:100B200040F8379000EBC50500EBC707D5F80490F7
:100B3000D7F804A0C5F804A0C7F8049000EBC105DD
:100B4000A444AF6850F83C90C5F8089040F83C7059
:100B500000EBCC0CEF68DCF80490C5F80C90CCF8F6
:100B60000470B3F800C0891C03EB42034145B9D3BC
:100B7000BDE8F00770472DE9F00F01244D084FF054
:100B8000000C04EB5107012D9CBFBDE8F00F70472E
:100B9000014600EB870400264FEA550815E000BF28
:100BA000BCEB460F11D950F82CA0D1F80090C1F839
:100BB00000A040F82C900CEB0709D4F800A050F8E6
:100BC00029B0C4F800B040F829A0AC44D1F8049092
:100BD00050F82CA0C1F804A040F82C90B3F800C045
:100BE00008310834761C03EB4203B8F10108D7D171
:100BF000BDE8F00F70472DE9FE4F81EA030404F0D1
:100C0000004421F0004100944FF0000B23F000431A
:100C100050EA01045ED052EA03045BD0C3F30A54E5
:100C2000C1F30A552C44A4F2F3340194A0FB0254FE
:100C3000C1F3130141F48011C3F3130343F4801390
:100C400001FB024400FB034E840A970A44EA8154E4
:100C500047EA8357A4FB076802958D0A05FB0785C1
:100C60004FEA932C04FB0C542705029D4FEA0658CB
:100C700047EA1637B5EB08056EEB070C870E920EA8
:100C800047EA811742EA8312A7FB0201B6EB0B0188
:100C900064EB00042B0D43EA0C335E1844EB1C504C
:100CA000DA465146E7FB0201C5F313044FEA0B3362
:100CB00043EA14534FEA0432019C43EA0603A4F1C9
:100CC0000C040294009CCDE900B400F014F903B0C8
:100CD000BDE8F08F00200146F9E72DE9F04D81EAEB
:100CE000030404F0004B21F0004514464FF0000AC5
:100CF00023F0004150EA050220D054EA01021DD041
:100D0000C5F30A570246C5F31303C1F31300C1F339
:100D10000A5640F4801543F48013A7EB0608101B15
:100D2000D64608F2FD3873EB050002D308F101083E
:100D300001E092185B41B8F1000F03DA0020014690
:100D4000BDE8F08D00204FF48011064684460EE089
:100D5000171B73EB050705D3121B63EB0503064353
:100D60004CEA010C49084FEA300092185B4150EA06
:100D70000107EDD152EA030012D082EA040083EAAF
:100D80000501084305D0101BAB4106D20122002308
:100D900006E000224FF0004302E06FF00102531022
:100DA0001AEB06004CEB085110EB0A0041EB0B016B
:100DB000BDE8F04D00F090B80EB540F2334102911D
:100DC0000021CDE900110A460B4600F094F803B06B
:100DD00000BDC1F30A5210B5C1F3130140F2FF3355
:100DE00041F480119A4201DA002010BD40F23343F1
:100DF0009A42A2F2334203DC524200F05DF810BD89
:100E0000904010BD00F0004230F000400AD0C10D0B
:100E100001F56071C0F3160042EA0151C2084007B3
:100E20001143704700200146704730B50B4601461C
:100E300000202022012409E021FA02F59D4205D379
:100E400003FA02F5491B04FA02F52844151EA2F123
:100E50000102F1DC30BD2DE9F05F0546002092462D
:100E60009B4688460646814640241BE0284641466C
:100E70004746224600F020F853465A46C01A914190
:100E800010D311461846224600F06CF92D1A67EB74
:100E900001084F4622460120002100F063F917EBBC
:100EA00000094E41201EA4F10104DFDC4846314612
:100EB0002A464346BDE8F09F202A04DB203A21FA67
:100EC00002F00021704721FA02F3D040C2F1200263
:100ED000914008431946704710B5141E73F1000481
:100EE00008DA401C41F1000192185B411A4301D11C
:100EF00020F0010010BD2DE9F04D92469B4611B146
:100F0000B1FA81F202E0B0FA80F22032904600F0AD
:100F100029F904460F4640EA0A0041EA0B0153460C
:100F20005A46084313D0114653EA010019D0C8F1BC
:100F300040025046FFF7C0FF05460E465046594650
:100F4000424600F00FF9084305D0012004E0204696
:100F50003946BDE8F08D0020054346EAE0762C4393
:100F600037430A986305E40AA0EB08000022FD0A53
:100F700044EA47540A3002D500200146E9E701055A
:100F800010196941DDE9084500196941BDE8F04DD6
:100F9000A2E72DE9FE4F804681EA0300C00F0C4610
:100FA000009021F0004123F00045B8EB0200A94178
:100FB00005D24046214690461C460B46024623F089
:100FC0000040104347D0270DC7F30A00C3F30A516E
:100FD0000290401A019040286BDAC3F3130040F4EA
:100FE000801B0098924620B10023D2EB030A63EBEA
:100FF0000B0B01985946C0F14002504600F0B2F880
:1010000006460D4650465946019A00F0BAF810EBD4
:1010100008006141002487EA115284EAE7731A4309
:1010200040D0009A62B3019A012A4FEA075215DCB8
:10103000001B61EB02014FF0004202EA0752CDE9CA
:101040000042001C41F5801132462B46FFF753FF4A
:1010500003B0BDE8F08F40462146F9E7001B61EB85
:101060000201001C41F5801300185B412018A2F515
:10107000001747EB030140EAD570B6196D4111E046
:101080006D084FEA360645EAC0754FEA0752001B65
:1010900061EB0201001C41F5801149084FEA300064
:1010A0000019514132462B4603B0BDE8F04FFFF71F
:1010B00013BF0098012240000023D0EB020263EB33
:1010C000E073009821464FEAE074B8EB000061EB52
:1010D0000401E9E783F000435BE781F0004158E752
:1010E000C1F30A52C1F3130140F2FF3341F48011FE
:1010F0009A4202DA00200146704740F233439A4296
:10110000A2F2334202DC5242FFF7D6BE00F02AB808
:1011100030B5041E71F1000404DB4FF0004440427E
:1011200064EB0101141E73F1000405DB1C464FF053
:101130000043524263EB0403994208BF904230BD22
:10114000064C074D06E0E06840F0010394E8070014
:1011500098471034AC42F6D3FFF71AF8FCC30008E6
:101160001CC40008202A04DB203A00FA02F1002007
:1011700070479140C2F1200320FA03F319439040D5
:101180007047202A06DBCB17203A41FA02F043EAE7
:10119000E07306E041FA02F3D040C2F12002914030
:1011A00008431946704700002DE9F04190B004460D
:1011B0000D4617461E46DDF858801C48844204D967
:1011C0000121880501F01AF903E00121480501F029
:1011D00015F9204600F05AFA00BF204600F002FB45
:1011E0000028FAD10195029703960490CDF8148057
:1011F00006904FF480600790400008900990C0105E
:101200000A9000020B9000200C9003200D9000200B
:101210000E900F9001A9204600F0EEFA0121204621
:1012200000F028FA10B0BDE8F08100000064024030
:1012300021B1826842F00102826003E0826822F0FC
:1012400001028260704700000021084A1168084AC4
:101250001140D0E900231A4383681A43C3681A4334
:101260001143044AC2F804137047000004230140EC
:10127000E030FCFF0020014021B1826842F480721E
:10128000826003E0826822F480728260704721B13C
:10129000826842F40072826003E0826822F4007285
:1012A0008260704730B50246002000235068104C21
:1012B00020400D790C6844EA052420435060906872
:1012C0000C4C2040D1E903542C438D682C434D79BC
:1012D00044EA450420439060D06A20F470000C7DFD
:1012E000641EE4B2234340EA0350D06230BD0000E4
:1012F000FFFEFFFCFDF7FFC0F0B504460D460020E1
:101300000021092D11DDE068A5F10A0606EB46076C
:10131000072606FA07F18843A5F10A0606EB4606FA
:1013200003FA06F10843E0600CE0206905EB45078D
:10133000072606FA07F1884305EB450603FA06F18E
:1013400008432061072A0FDA606B561E06EB8607FA
:101350001F2606FA07F18843561E06EB860605FA95
:1013600006F10843606322E00D2A0FDA206BD61FD6
:1013700006EB86071F2606FA07F18843D61F06EB01
:10138000860605FA06F10843206310E0E06AA2F140
:101390000D0606EB86071F2606FA07F18843A2F121
:1013A0000D0606EB860605FA06F10843E062F0BD7D
:1013B000816841F0804181607047000000B58DB0C8
:1013C0000121084601F01AF80121080201F046F84F
:1013D00002200B9003208DF8300000208DF83300A0
:1013E0000BA91F4800F00CFB0121080201F046F890
:1013F00000214FF4807001F041F8002007900A901E
:101400004FF4804009908000089007A8FFF71CFF68
:10141000002001908DF8080001208DF809000020BF
:101420000390059001208DF8180001A90D48FFF7E1
:1014300039FF0723012211460A48FFF75DFF01210A
:101440000848FFF7F5FE0748FFF7B2FF01210548FE
:10145000FFF71DFF01210348FFF70EFF0DB000BD90
:10146000000002400020014010B5044621465120F2
:1014700000F0B2FF10BD2DE9F04105460C461646BE
:101480001F46DDF81880E9B2582000F0A5FF2912A8
:10149000592000F0A1FFE1B25A2000F09DFFB8F101
:1014A000000F04D121125B2000F096FF05E08020A0
:1014B00040EA24215B2000F08FFFF9B25C2000F0AD
:1014C0008BFF39125D2000F087FFF1B25E2000F043
:1014D00083FF31125F2000F07FFFBDE8F081000044
:1014E00010B5012004490870502000F005FF80204D
:1014F00000F024FF10BD00003C00002010B50024C7
:1015000003E0B4F5FA7F00D105E000F0E1FD00F062
:1015100040004028F5D000BF00200149087010BDF0
:101520003C00002000BFFEE72DE9F04190B00446EA
:101530000D4617461E46DDF858802348844204D9DC
:101540000121880500F05AFF03E00121480500F061
:1015500055FF204600F09AF800BF204600F042F9FF
:101560000028FAD101950297039640200490CDF807
:101570001480002006904FF480600790400008908F
:101580000990C0100A9000020B9000200C900320DC
:101590000D9000200E900F9001A9204600F02CF92C
:1015A0000121204600F066F80121002000F00EF82D
:1015B0000021084600F04EF80121002000F01AF842
:1015C00010B0BDE8F08100000064024039B1084A63
:1015D0001268012383401A43054B1A6006E0044A4F
:1015E0001268012383409A43014B1A607047000040
:1015F0000074004041B1094A12684FF4805383409F
:101600001A43064B1A6007E0044A12684FF48053ED
:1016100083409A43014B1A607047000000740040F9
:1016200030B5002200230A4C226840F6FE74844044
:10163000A243D1E900452C438D682C43CD6844EA90
:10164000050303FA00F42243014C226030BD000080
:101650000074004008B500220092054A009200F193
:101660000802009B1A440092009A116008BD000015
:101670000074004021B1026842F00102026003E000
:10168000026822F00102026070470000016821F048
:10169000010101600021016041608160C160016160
:1016A000212141614A49884204D13D21484A103AEA
:1016B00091608CE046491831884205D14FF474613D
:1016C000434A103A916082E041493031884205D165
:1016D0004FF474113E4A103A916078E03C49483129
:1016E000884205D14FF07461394A103A91606EE03A
:1016F00037496031884204D13649354A103AD160C1
:1017000065E033497831884204D13349304A103A90
:10171000D1605CE02E499031884204D12F492C4A97
:10172000103AD16053E02A49A831884205D14FF0E0
:101730003D51274A103AD16049E02949884204D1F5
:101740003D21274A083A116041E025491831884275
:1017500005D14FF47461224A083A116037E02049FC
:101760003031884205D14FF474111D4A083A116096
:101770002DE01B494831884205D14FF07461184A69
:10178000083A116023E016496031884204D11149BA
:10179000134A121F11601AE011497831884204D1AE
:1017A0000D490F4A121F116011E00D499031884216
:1017B00004D10A490A4A121F116008E00849A831F9
:1017C000884204D14FF03D51054A121F1160704705
:1017D000106002403D000020400F002000003D202E
:1017E00010640240014600200A6802F001020AB1BA
:1017F000012000E00020704710B500220268134B62
:101800001A40CC680B6823434C6923438C692343FB
:10181000CC6923430C6A23434C6A23438C6A2343D9
:101820004C6B23438C6B23431A430260426922F0C2
:101830000702D1E90B3423431A4342610B69436029
:101840004B6883608B68C36010BD00003F801CF054
:1018500000B587B001F00EF80121084600F0CEFD7A
:101860000121480700F0EAFD1020059003208DF8C3
:10187000180002208DF81B0005A9084800F0C0F8E8
:10188000042001900020029003900220049001A9FE
:101890000020FFF7C5FE07B000BD000000000240B9
:1018A0007047000051B18200A2F1C042126842F0BC
:1018B00001038200A2F1C042136009E08200A2F19C
:1018C000C0421268034B1A408300A3F1C0431A6060
:1018D00070470000FEFF0F0030B5002100220023FA
:1018E0000468A400A4F1C0442168444C2140D0E91C
:1018F00001452C43C5682C4305692C4345692C439D
:1019000085692C43C5692C43056A2C43456A2C43E1
:10191000856A2C43C56A2C43056B2C43214304681C
:10192000A400A4F1C04421608468082C0BD1046891
:10193000A400A4F1C044246844F040050468A40055
:10194000A4F1C04425600468641CA400A4F1C04450
:10195000226802F04042446B2468456B6D6844EA9B
:101960000514456BAD6844EA0524456BAD8944EA2E
:101970000544456B2D8A44EA0554456B2D7D44EAA8
:101980000564456BAD692C4322430468641CA400C4
:10199000A4F1C0442260C46AB4F5804F24D1046825
:1019A000A400A4F1C044D4F8043103F04043846B94
:1019B0002468856B6D6844EA0514856BAD6844EA5C
:1019C0000524856B2D8A44EA0554856B2D7D44EAF8
:1019D0000564856BAD692C4323430468A400A4F11E
:1019E000C044C4F8043107E06FF070450468A400F7
:1019F000A4F1C044C4F8045130BD00008000F7FFDA
:101A0000F0B50A4600210023002400BF3DE0012577
:101A100005FA01F3156805EA03049C4234D1056810
:101A20004F000326BE40B543056015794E00B54012
:101A30000668354305601579012D02D01579022D10
:101A400016D185684F000326BE40B54385605579A1
:101A50004E00B540866835438560456801268E4056
:101A6000B5434560456896798E40B6B235434560CA
:101A7000C5684F000326BE40B543C560D5794E000A
:101A8000B540C6683543C560491C1029BFD3F0BDB9
:101A9000F0B5002300244D07ED0E02FA05F3CE1039
:101AA00000F1200555F826504E07F70E0F26BE40D0
:101AB000B543CF1000F1200646F82750CE1000F1B4
:101AC000200555F8265045EA0304CE1000F1200504
:101AD00045F82640F0BD000009A100200BE00A5C9B
:101AE000124B9A8000BF114A128802F04002002A6D
:101AF000F9D0421CD0B22A28F1D300BFFEE7000083
:101B00000D0A456E74657220486172644661756C99
:101B1000745F48616E646C65722C205379737465D0
:101B20006D2048616C742E0D0A0000000010014009
:101B300010B50446204600F0FFF810BD1CB5012189
:101B4000084600F06BFC0121582000F057FC0C22E5
:101B500000214A48FFF79CFF0C2201214748FFF76C
:101B600097FF0C2204214548FFF792FF0C22052124
:101B70004248FFF78DFF0C2208214048FFF788FFFD
:101B80000C2209213D48FFF783FF0C220A213B4824
:101B9000FFF77EFF0C220E213848FFF779FF0C2259
:101BA0000F213648FFF774FF4CF23370009002208B
:101BB0008DF8040003208DF8050000208DF8060044
:101BC0008DF8070069462D48FFF71AFF0C22042103
:101BD0002B48FFF75DFF0C2205212948FFF758FF2E
:101BE0000C2207212648FFF753FF0C220821244826
:101BF000FFF74EFF0C2209212148FFF749FF0C2275
:101C00000A211F48FFF744FF0C220B211C48FFF755
:101C10003FFF0C2211461A48FFF73AFF0C220D2114
:101C20001748FFF735FF0C220E211548FFF730FF4C
:101C30000C220F211248FFF72BFF4FF6B0700090D7
:101C400069460F48FFF7DCFE0C220D210B48FFF719
:101C50001FFF4FF40050009069460848FFF7D0FE80
:101C60000C2211460748FFF713FF4FF480500090F5
:101C700069460448FFF7C4FE1CBD0000000C02408A
:101C8000001002400018024000B59DB004200790EB
:101C9000002008900620099001200A9000200B9057
:101CA0000C900D90042000900020019008200290DC
:101CB00001200390002004900590069006200E90CD
:101CC00000200F901090102011900020129013907F
:101CD0001490159016904FF4805017900020189093
:101CE00019901A90CDF86CD007A81C900EA8FFF799
:101CF000F3FD01210620FFF7D5FD1DB000BD00005A
:101D000010B5FFF71BFFFFF7BFFF44F6206001F09F
:101D100001FB75200549088000F0A2F80020FFF7BC
:101D200007FFFF2000F0F8F910BD00003000002090
:101D300000BFFEE77047000038B504460020009061
:101D40000A4803880A4802880A4801880A48008825
:101D5000FFF791FB0C20FFF787FB204600F0BAFA53
:101D6000FFF7BEFBFFF7CAFB38BD000046000020AE
:101D70004400002042000020400000201CB518480C
:101D80000078012800D11CBD0120154908700320EE
:101D9000144908701A21602000F01EFB602000F03A
:101DA00085F904461A2C04D000F0DAF802200D4917
:101DB00008700121082000F021FB0820009000207D
:101DC0008DF8040003208DF8050000208DF8060032
:101DD0008DF8070069460448FFF712FE00BFD2E7FE
:101DE0004900002048000020000C0240002001E0D3
:101DF000411C88B241F288318842F9DB70470020EB
:101E000001E0411CC8B20A28FBDB70472DE9F0470E
:101E10008046894614461D46DDF820A000262B4644
:101E200022464946404600F011FA01200B4908704D
:101E3000022000F061FA574600BF04E037F8020BB9
:101E400000F09CFA761C04FB05F0B042F6D80020A6
:101E50000249087000F0FAF8BDE8F0873C00002065
:101E600010B5FFF78BFF4FF4F0703A4908804FF43C
:101E7000487039490880882000F03EFAFFF7BFFF1C
:101E80000C2000F05BFAFFF7B1FF892000F034FA74
:101E9000FFF7B5FF022000F051FAFFF7A7FF2F4828
:101EA0000078032804D10A21102000F095FA03E0FD
:101EB0000821102000F090FA8121042000F08CFA13
:101EC000FFF794FF6321142000F086FA002115200B
:101ED00000F082FA0321162000F07EFA0321172079
:101EE00000F07AFA0B21182000F076FADF21192091
:101EF00000F072FA01211A2000F06EFA1F211B2057
:101F000000F06AFA00211C2000F066FA16211D205C
:101F100000F062FA00211E2000F05EFA01211F206D
:101F200000F05AFA0121C72000F056FA8021012062
:101F300000F052FA002000F03BF90021412000F0AF
:101F40004BFA05480388034802880021084600F040
:101F50007DF910BD32000020340000204800002030
:101F60001CB501214FF4817000F048FA05220321CD
:101F70001B48FFF78DFD052204211948FFF788FD56
:101F8000052211461648FFF783FD02208DF8040054
:101F900001208DF8050000208DF806008DF807005F
:101FA0003820009069460E48FFF72AFD4FF4806004
:101FB0000C49088301208DF8040000208DF80600EC
:101FC00002208DF8050000208DF80700081500900C
:101FD00069460448FFF714FD00F006F81CBD000038
:101FE000000402400020024000B585B00121080332
:101FF00000F034FA0020ADF800004FF48270ADF824
:1020000002000020ADF804000220ADF80600012017
:10201000ADF808004002ADF80A002820ADF80C0029
:102020000020ADF80E000720ADF810006946064804
:1020300000F0C2FA0021044800F0A4FA012102488D
:1020400000F0A0FA05B000BD0030014010B5044812
:102050000388044802880021084600F0F7F810BD04
:10206000340000203200002010B50E48007802280D
:102070000ED140020C494883402000F0BBFA0020FA
:1020800000F0B8FA04464FF480600749088307E07F
:1020900004480078032803D14FF0D8400088C4B228
:1020A000204610BD480000200020024070B50446C4
:1020B000012006490870204600F01EF9FFF7D4FF02
:1020C0000546002001490870284670BD3C000020EC
:1020D00010B50E48007802280ED140020C49488302
:1020E000C02000F087FA002000F084FA04464FF484
:1020F00080600749088306E004480078032802D17D
:1021000004480088C4B2204610BD000048000020EA
:10211000002002400000086C10B5044644B90021BC
:102120008A2000F059F900218C2000F055F912E0C6
:10213000FF2C08D100218A2000F04EF900218C20CC
:1021400000F04AF907E083218A2000F045F9214692
:102150008B2000F041F910BD70B504460D461348C0
:102160000078012810DDE9B2462000F035F9291287
:10217000472000F031F9E1B2482000F02DF921129A
:10218000492000F029F90FE0E1B2462000F024F9DF
:102190002112472000F020F9E9B2482000F01CF994
:1021A0002912492000F018F970BD00003700002006
:1021B00070B5044600250120214908700CB908704B
:1021C00013E0012C04D105201D4908700C250CE0FA
:1021D000022C04D109201A490870042505E0032CBB
:1021E00003D10920164908700825154801784020B8
:1021F00000F0F2F82946202000F0EEF8012C0EDD68
:1022000010490988104A1288914207DA0D49088856
:102210000D4909880B4A11800B4908800EE00949D5
:102220000988094A1288914207DD0649088806494B
:102230000988044A11800449088000BF70BD00006D
:102240003D00002032000020340000202DE9F04144
:1022500004460D4617469846E1B2302000F0BCF81F
:102260002112312000F0B8F8E9B2322000F0B4F8C1
:102270002912332000F0B0F808EB0400401E86B2AB
:10228000F1B2342000F0A8F83112352000F0A4F8A3
:102290007819401E86B2F1B2362000F09DF8311256
:1022A000372000F099F829462046FFF755FF0548EA
:1022B000048005480580054807800548A0F800808F
:1022C000BDE8F081400000204200002044000020D2
:1022D0004600002010B50446E10A632000F07CF8B7
:1022E000C4F34511642000F077F804F01F01652065
:1022F00000F072F810BD000010B504460C480078DC
:1023000002280DD140020B494883802000F072F969
:10231000204600F06FF94FF480600649088305E01D
:1023200003480078032801D10348048010BD000051
:1023300048000020002002400000086C10B5044650
:102340000C48007802280DD140020B494883002038
:1023500000F050F9204600F04DF94FF48060064936
:10236000088306E003480078032802D14FF0D840E4
:10237000048010BD480000200020024010B5044633
:102380001348007802281AD14002124948830020DD
:1023900000F030F9201200F02DF94FF480600D4963
:1023A0000883088308834883002000F023F9E0B203
:1023B00000F020F94FF480600649088306E00448E5
:1023C0000078032802D14FF0D840048010BD0000EF
:1023D000480000200020024070B505460C46012050
:1023E000054908702846FFF787FF2046FFF7A6FF3C
:1023F00000200149087070BD3C00002029B1064A48
:1024000012680243044B1A6004E0034A12688243D4
:10241000014B1A60704700003038024029B1064A6B
:1024200012680243044B1A6004E0034A12688243B4
:10243000014B1A60704700003838024029B1064A43
:1024400012680243044B1A6004E0034A1268824394
:10245000014B1A60704700004038024029B1064A1B
:1024600012680243044B1A6004E0034A1268824374
:10247000014B1A60704700004438024029B1064AF7
:1024800012680243044B1A6004E0034A1268824354
:10249000014B1A607047000024380240F0B500215B
:1024A00000220024022500260223324F3F6807F055
:1024B0000C0121B1042905D0082937D105E02E4FA0
:1024C000076036E02D4F076033E02A4F3F1F3F681B
:1024D000C7F38056274F3F1F3F6807F03F036EB199
:1024E000264FB7FBF3F7DFF88CC0ACF1040CDCF837
:1024F00000C0CCF3881C07FB0CF40CE01E4FB7FBAC
:10250000F3F7DFF870C0ACF1040CDCF800C0CCF3DA
:10251000881C07FB0CF4174F3F1F3F68C7F30147A8
:102520007F1C7D00B4FBF5F7076002E0124F0760E7
:1025300000BF00BF0F4F3F6807F0F0010909104FBF
:102540007A5C0768D74047600A4F3F6807F4E0515C
:10255000890A0B4F7A5C4768D7408760054F3F6810
:1025600007F46041490B064F7A5C4768D740C76063
:10257000F0BD0000083802400024F40000127A0088
:102580000C00002021B1028842F04002028004E0E9
:1025900002884FF6BF731A4002807047024600203F
:1025A00013890B400BB1012000E000207047014669
:1025B000888970478181704710B50022028802F433
:1025C00041520B884C8823438C882343CC88234377
:1025D0000C8923434C8923438C892343CC8923438F
:1025E0001A430280838B4FF2FF74234083830B8A4C
:1025F000038210BD70B5044600BF02210A48FFF7F0
:10260000CDFF0028F9D021460748FFF7D3FF00BFD0
:1026100001210548FFF7C2FF0028F9D00248FFF763
:10262000C6FFC5B2284670BD003001400CB5002081
:10263000019000903448006840F4803032490860CE
:1026400000BF3148006800F4003000900198401C41
:102650000190009818B90198B0F5A04FF1D12A481F
:10266000006800F4003010B10120009001E000206B
:1026700000900098012846D123484030006840F07F
:1026800080502149403108602048006840F44040B3
:102690001E4908601C48083000681B490831086062
:1026A0000846006840F4004008600846006840F4AE
:1026B000A05008601648091F0860081F006840F015
:1026C0008070091F086000BF0F48006800F00070AC
:1026D0000028F9D040F205700E4908600A48083019
:1026E000006820F0030008490831086008460068C7
:1026F00040F00200086000BF03480830006800F0A6
:102700000C000828F8D10CBD0038024000700040D1
:1027100008544007003C024010B51548006840F4DA
:102720007000134908601348006840F00100114927
:10273000086000200F49083108600E4800680E4903
:1027400008400C4908600D48091D0860081F006812
:1027500020F48020091F0860002006490C31086021
:10276000FFF764FF4FF0006001498039086010BD39
:1027700088ED00E000380240FFFFF6FE1030002434
:1027800010B50121880700F0A1F840B104480068A5
:10279000401C034908600121880700F085F810BD3E
:1027A0000000002010B53048007800F080000028BC
:1027B00054D101212D4800F089F8D0B12A48007881
:1027C00000F04000A8B12848007800F03F003F2802
:1027D0000AD12548007840F08000234908704FF066
:1027E000FF302349086004E01F480078401C1E4960
:1027F000087002211D4800F069F878B31A48007883
:1028000000F0400078B11848007840F08000164988
:102810000870164800F057F8154908600021134861
:1028200000F065F81AE000200F49087010490860B0
:102830000D48007840F040000B49087001210B481A
:1028400000F035F80021094800F068F80221074837
:1028500000F04DF80121054800F029F80321034854
:1028600000F022F810BD000004000020000C004021
:102870000800002010B501211020FFF7DFFD002225
:102880000121084800F03CF840F2AE71054800F024
:1028900043F82021034800F036F80121014800F0F8
:1028A00006F810BD00100040CA430282704721B1F3
:1028B000028842F00102028004E002884FF6FE73B3
:1028C0001A40028070470146486B704730B5024697
:1028D000002000230024158A05EA0103958905EAF2
:1028E000010413B10CB1012000E0002030BD0A4604
:1028F0000021018C4FF6FD7319401143018470478C
:1029000001858282704782884FF68F731A408280D9
:1029100082880A4382807047C16270474162704773
:1029200001F40072B2F5007F00D100BFCA430280FB
:10293000704721B1828942F40052828104E0828989
:102940004DF6FF731A408281704700002DE9FF4762
:1029500005460E460024A14600BFA046B08900B13E
:1029600000BF2C8A24F44054F08804432C82AC89A4
:1029700041F20C608443B08831890843718908436F
:102980000443AC81AC8A24F44074B0890443AC8223
:102990006846FFF783FD2048854202D01F488542E4
:1029A00002D1DDF80C9001E0DDF80890A88900F470
:1029B000004040B109EBC90000EB09103168490043
:1029C000B0FBF1F707E009EBC90000EB0910316833
:1029D0008900B0FBF1F76420B7FBF0F00401200997
:1029E000642101FB1078A88900F4004040B1322036
:1029F00000EBC800B0FBF1F000F00700044308E072
:102A0000322000EB08106421B0FBF1F000F00F0061
:102A100004432C81BDE8FF870010014000140140F1
:102A200000BFFEE70FB41CB50A46521ECDE90002F6
:102A300007A9054B6A46069800F0CAF8009A0021DB
:102A400011701CBC5DF814FBFF32000802E008C8DE
:102A5000121F08C1002AFAD170477047002001E018
:102A600001C1121F002AFBD1704700002DE9FF5F52
:102A7000DDE90220010DDDF838B0024318D044F63C
:102A80001050A1F2FF3141430D140F98012820D0BE
:102A9000A5EB0B00401C5FEA000A4FF00004474E14
:102AA000DFF81C91A046504616D5CAF1000728E071
:102AB0000F98012443A2012808D0002100980F9B01
:102AC000C0E90021C0E90243BDE8FF9F6FEA0B01A6
:102AD000F4E7CBF10000DEE7074612E0F80707D085
:102AE0002246334640464946FEF785F880468946E9
:102AF0002246334610461946FEF77DF804460E4638
:102B00007F10002FEAD1DDE90201BAF1000F424641
:102B10004B4602DAFEF76FF801E0FEF7DEF80446F6
:102B20000E460022284BFEF7F3FA03D84FF0FF3091
:102B3000014607E00022254B20463146FEF729FAE0
:102B4000FEF7CEFA102409E0002C0ADB0A2200234B
:102B5000FEF781F9019B30321A55641E50EA0102DA
:102B6000F2D1641C019AC4F1110314440F9A012A92
:102B700003D0012208430DD10AE0084304D000200D
:102B80004FF0110B0F9080E7A3EB0B056D1E0DE0CE
:102B90005B4504DD4FF0000205F1010504E003DAB6
:102BA0004FF00002A5F10105002AECD000980F9922
:102BB000C0E90231C0E9004586E70000000024407A
:102BC0000000F03F300000000000F0430000E03F54
:102BD0002DE9FF4F95B09B468946064600250FE23A
:102BE000252877D100242746F84A0121059400E0E2
:102BF000044316F8013F203B01FA03F01042F7D1DD
:102C000030782A2811D06FF02F033078A0F13002ED
:102C1000092A16D8059A44F0020402EB820203EB5B
:102C200042021044761C0590EFE759F8042B0592F8
:102C3000002A03DA504244F40054059044F00204A0
:102C4000761C30782E2816D116F8010F44F00404B3
:102C50002A280DD06FF02F023078A0F13003092B15
:102C600009D807EB870302EB4303C718761CF3E789
:102C700059F8047B761C30786C280FD006DC4C2881
:102C800017D068280DD06A2814D104E0742810D019
:102C90007A280FD10DE044F400140AE044F48014C3
:102CA00001E044F440147278824202D104F58014A9
:102CB000761C761C307866280BD013DC582877D029
:102CC00009DC002875D04528F6D04628F4D04728DE
:102CD0001AD19DE118E0632835D0642879D06528A1
:102CE00012D195E1702873D008DC6728F1D06928EB
:102CF0006FD06E280DD06F2806D1B5E073282CD088
:102D0000752875D0782874D05A46179990476D1C4D
:102D100075E1C4F30250022809D003280DD0D9F878
:102D2000001004280DD00D6009F1040967E1D9F8FD
:102D30000010EA17C1E90052F6E7D9F800100D803B
:102D4000F2E70D70F0E719F8041B8DF80010002071
:102D50008DF80100EA46012003E059F804AB4FF07A
:102D6000FF3061074FF0000102D40DE008F10101CE
:102D70008846B9420FDA8045F8DB1AF808100029B6
:102D8000F4D108E008F1010188468142FADB1AF823
:102D900008100029F6D105985B46A0EB08072146EC
:102DA0003846179A00F094FA284400EB080507E02B
:102DB0004DE029E10DE01AF8010B5A4617999047AA
:102DC000B8F10108F7D25B4621463846179A13E15D
:102DD00042E00A220092C4F302524FF0000A022A93
:102DE00008D059F804CB032A4FEAEC710AD00DE061
:102DF00029E02AE009F1070121F00702F2E802C107
:102E0000914609E00FFA8CFC4FEAEC71042A03D1D9
:102E10004FFA8CFC4FEAEC71002907DA0A460021D0
:102E2000DCF1000C61EB02012D2202E0220504D549
:102E30002B228DF80420012203E0E20701D020229A
:102E4000F7E7904659E00A2102E010220DE0102138
:102E50004FF0000A00910BE010224FF0000A44F0FE
:102E600004040827009203E008224FF0000A0092B1
:102E7000C4F30252022A05D059F804CB0021032AD8
:102E800008D009E009F1070121F00702F2E802C1C8
:102E9000914605E01FFA8CFC042A01D10CF0FF0CCE
:102EA0004FF00008220728D5702806D0009B83F039
:102EB000100353EA0A0305D00EE040228DF80420E7
:102EC000012208E05CEA010206D030228DF80420DD
:102ED0008DF8050002229046009B83F0080353EA18
:102EE0000A030AD15CEA010201D1620705D530224A
:102EF0008DF804204FF001087F1E582804D034A01C
:102F000003900EA802900DE036A0F9E75346604604
:102F1000009AFDF7A0FF84460398825C0298401E49
:102F2000029002705CEA0100F0D1029806A9081A2A
:102F300000F1200A600702D524F4803400E0012764
:102F4000574502DDA7EB0A0000E0002000EB0A0174
:102F5000009005984144401A0590E00306D45B4672
:102F60002146179A059800F0B3F90544002706E0BA
:102F700001A85A46C05D179990476D1C7F1C4745B4
:102F8000F6DBE0030CD55B462146179A059800F066
:102F90009FF9054404E030205A46179990476D1C6C
:102FA0000099481E00900029F5DC08E0029802997B
:102FB0005A460078491C0291179990476D1CBAF146
:102FC0000001AAF1010AF1DC65E100000928010015
:102FD000303132333435363738396162636465668F
:102FE0000000000030313233343536373839414251
:102FF000434445460000000000F058F90544761CA3
:10300000307800287FF4ECAD19B02846BDE8F08F89
:10301000620700D4062709F1070222F0070CFCE83A
:103020000223E14603F000485FEA080C02D00FF2E9
:10303000702C0DE05FEA045C02D50FF2682C07E00B
:103040005FEAC47C02D00FF2602C01E0AFF2700C9A
:103050004FF0FF3823F00043CDF850C065280CD066
:1030600006DC452809D046281DD047283DD13DE043
:10307000662818D067287ED138E00021112F01DBA7
:10308000112000E0781CCDE9000106A90EA8FFF789
:10309000EDFCDDE90F010E9A03910021009207F18A
:1030A000010A04914DE04FF000400097CDE9011076
:1030B00006A90EA8FFF7DAFCDDE90F0203920E9BCA
:1030C00011990022DDF80CA00093049211B9791C2B
:1030D00000EB010AB7EB0A0004D4C0F1FF3007F19E
:1030E000010A0490AAEB0700019044E0012F00DAE6
:1030F00001270021112F01DD112000E03846CDE924
:10310000000106A90EA8FFF7B1FCDDE90F010E9A38
:103110000391002104910092BA4621070CD403992F
:10312000514500DA8A46BAF1010F05DD009AAAF18D
:103130000101515C302908D0B84202DA10F1040FC5
:1031400006DA0121CDE9011015E0AAF10101E9E754
:10315000002805DC049901440491AAEB000102E077
:10316000411C514500DD8A460499401A401C0190DB
:103170004FF000400290200704D40198504501DB35
:10318000CDF8048000208DF84F0002980DF14F0714
:10319000B0F1004F25D02B200E9002984FF002087E
:1031A00000280CDA404202902D200E9007E00A2100
:1031B0000298FDF73AFE3031029007F8011DB8F190
:1031C0000001A8F10108F2DC02980028EFD1791E75
:1031D0000E980870307800F0200040F0450007F8A5
:1031E000020D12A8C01B00F107081498007800B166
:1031F000012000EB0A01019801EBE07105984144C0
:10320000401A401E0590E00306D45B462146179AFB
:10321000059800F05DF805441498007818B15A46F6
:10322000179990476D1CE00324D55B462146179AF9
:10323000059800F04DF805441CE00498002807DBD1
:10324000DDE90301884203DD0098405C179901E045
:10325000179930205A469047049805F10105401C03
:1032600004900198401E019004D12E205A461799CF
:1032700090476D1CBAF10001AAF1010ADDDC05E0FE
:1032800017F8010B5A46179990476D1CB8F10001C9
:10329000A8F10108F4DC5B462146179A0598ABE6D5
:1032A0002D0000002B000000200000002DE9F0415F
:1032B000044600251E461746880404D405E0394616
:1032C0002020B0476D1C641EF9D52846BDE8F0816A
:1032D0002DE9F041044600251E469046C80301D55D
:1032E000302700E02027880404D505E04146384611
:1032F000B0476D1C641EF9D52846BDE8F0814A68C8
:10330000002A06D00A68531C0B6010704868401EE3
:103310004860704770B5034600220F4D2D680F4E70
:10332000B5FBF6F505FB03F400BF0D4D696810E031
:103330000B4D686888420CD0884202D9451A2A444D
:1033400003E0C1F1FF3505442A440146A24200D3FF
:1033500000E0EDE700BF70BD1C00002040420F0000
:10336000001000E010B501210803FFF747F800F056
:1033700005F800F017F8FEF7C3FC10BD0748006819
:1033800040F0807005490860002005494860084603
:10339000006840F00100086070470000FCED00E0AC
:1033A000001000E000B587B001210220FFF726F8E9
:1033B00001211020FFF752F8072206211F48FEF7CF
:1033C00067FB072211461D48FEF762FB00208DF8BF
:1033D0001A0001208DF81B0002208DF818004020F3
:1033E000059002208DF8190005A91448FEF708FB86
:1033F00002208DF818008020059005A90F48FEF7DF
:10340000FFFA4FF4E13001900020ADF80800ADF86C
:103410000A00ADF80C00ADF810000C20ADF80E005D
:1034200001A90748FFF792FA01210548FFF781FA41
:1034300040210348FFF774FA07B000BD00040240C2
:10344000001001402DED048B82B0002600BF00BFAC
:1034500000BF00BF00BF00BF0025FFF75DF9FFF709
:1034600081FFFDF7ABFF4FF40050FE4BFE4A0021F9
:103470000090FE48FDF798FEFEF7EAF94FF4805001
:10348000FB4BFC4A4FF060610090FB48FEF74CF8A4
:10349000012300221903F948FDF75AFA4FF6FF708D
:1034A000FEF74AFC7EE300242AE06000ED4931F893
:1034B000100000EE100AB8EE400AF14901EBC4001A
:1034C00080ED000A9FEDEF0A6000401C01EB8000D8
:1034D00080ED000A6100E34A32F81100FDF76CFC50
:1034E00041EC190B9FEDE80B53EC102BFDF7F5FBAE
:1034F00041EC180BFDF76DFCE54921F81400641C44
:10350000B4F5805FD1D3DE49DC48FDF703FA4FF410
:103510008052E049DA48FCF753FEDE4890ED080A95
:10352000DFEDDD0A30EE600A80ED080A00240AE0D3
:10353000D84800EB840090ED000AD84800EB8400E6
:1035400080ED000A641CB4F5006FF1D3002407E09D
:10355000BFEE000AD24800EB840080ED000A641C34
:10356000642CF5D3002404E00020CE4921F8140097
:10357000641C642CF8D3002594E001241CE0C848A6
:1035800000EB850090ED000AC44800EB8400D0ED0C
:10359000000AB4EEE00AF1EE10FA0CD2BF4800EBDC
:1035A000840090ED000ABE4800EB850080ED000A23
:1035B000BC4921F81540641CB4F5006FDFD3BFEEA1
:1035C000000AB84931F81510081F002801DB014630
:1035D00000E04142B14A02EB810181ED000ABFEEF9
:1035E000000AB04931F81510C81E002801DB014659
:1035F00000E04142A94A02EB810181ED000ABFEEE1
:10360000000AA84931F81510881E002801DB014680
:1036100000E04142A14A02EB810181ED000ABFEEC8
:10362000000AA04931F81510481E002801DB0146A8
:1036300000E04142994A02EB810181ED000ABFEEB0
:10364000000A984830F81500114601EB800080ED23
:10365000000ABFEE000A934830F81500401C01EB49
:10366000800080ED000ABFEE000A8E4830F8150099
:10367000801C01EB800080ED000ABFEE000A894843
:1036800030F81500C01C01EB800080ED000ABFEE91
:10369000000A844830F81500001D01EB800080ED21
:1036A000000A6D1C642DFFF468AF00240BE07D4818
:1036B00030F814007C4921F814004FF6FE707B4965
:1036C00021F81400641C642CF1D3002426E00025AA
:1036D0000FE0764830F81400734931F8151088422D
:1036E00006DD714830F81500704921F81400EEB27B
:1036F0006D1C642DEDD36C4830F81600654901EB64
:10370000800090ED000A6A4800EB840080ED000A1A
:103710004FF6FF70644921F81600641C642CD6D360
:103720006248038863A24FF420516348FFF77AF997
:103730005E4843885FA24FF420516048FFF772F95A
:103740005A4883885BA24FF420515D48FFF76AF91D
:103750005648C38857A24FF420515A48FFF762F9E0
:103760005248038953A24FF420515748FFF75AF9A2
:103770004E4843894FA24FF420515448FFF752F965
:103780004A4883894BA24FF420515148FFF74AF928
:103790004648C38947A24FF420514E48FFF742F9EB
:1037A0004248038A43A24FF420514B48FFF73AF9AD
:1037B0003E48438A3FA24FF420514848FFF732F970
:1037C0003B4890ED000A10EE101A0846FDF71AFB70
:1037D00041EC180B8DED008B41A24FF42051414874
:1037E000FFF720F9324890ED010A10EE101A084652
:1037F000FDF708FB41EC180B8DED008B38A24FF460
:1038000020513948FFF70EF9294890ED020A10EED1
:10381000101A0846FDF7F6FA41EC180B8DED008BF7
:103820002FA24FF420513148FFF7FCF8204890EDCB
:10383000030A10EE101A0846FDF7E4FA41EC180BE3
:103840008DED008B26A24FF420512948FFF7EAF8AE
:10385000174890ED040A10EE101A0846FDF7D2FA48
:1038600048E0000074E000204C2001401064024059
:103870007420012008740040886002404CC0002081
:103880004C0000200000000000000000000020406C
:1038900074C000204C8000200060EA467470012053
:1038A0008490012014920120DC92012034950120A3
:1038B000A49301202564200074480120744901204C
:1038C000744A0120744B0120744C0120744D012076
:1038D000744E0120744F0120745001207451012056
:1038E0002566200074520120745301207454012075
:1038F0007455012041EC180B8DED008BAFF22002C6
:103900004FF42051A848FFF78DF8A84890ED050A1C
:1039100010EE101A0846FDF775FA41EC180B8DED04
:10392000008BAFF244024FF42051A148FFF77AF820
:103930009E4890ED060A10EE101A0846FDF762FA4E
:1039400041EC180B8DED008BAFF26C024FF420515F
:103950009848FFF767F8954890ED070A10EE101A9F
:103960000846FDF74FFA41EC180B8DED008BAFF2D6
:1039700090024FF420519048FFF754F88B4890ED97
:10398000080A10EE101A0846FDF73CFA41EC180B35
:103990008DED008BAFF2B8024FF420518748FFF74E
:1039A00041F8824890ED090A10EE101A0846FDF71A
:1039B00029FA41EC180B8DED008BAFF2DC024FF4CD
:1039C00020517F48FFF72EF87E490888FDF7F4F96B
:1039D00041EC190B9FED7C0B53EC102BFDF70BF911
:1039E00041EC180B8DED008BAFF20C124FF420510F
:1039F0007748FFF717F873494888FDF7DDF941EC80
:103A0000190B9FED710B53EC102BFDF7F4F841EC03
:103A1000180B8DED008BAFF238124FF420516D482A
:103A2000FFF700F867498888FDF7C6F941EC190BE4
:103A30009FED650B53EC102BFDF7DDF841EC180BF7
:103A40008DED008BAFF268124FF420516248FEF703
:103A5000E9FF5C49C888FDF7AFF941EC190B9FED10
:103A60005A0B53EC102BFDF7C6F841EC180B8DEDFB
:103A7000008BAFF294124FF420515848FEF7D2FF5A
:103A800050490889FDF798F941EC190B9FED4E0B51
:103A900053EC102BFDF7AFF841EC180B8DED008BBC
:103AA000AFF2C4124FF420514D48FEF7BBFF454919
:103AB0004889FDF781F941EC190B9FED430B53EC5D
:103AC000102BFDF798F841EC180B8DED008BAFF241
:103AD000F0124FF420514348FEF7A4FF394988897A
:103AE000FDF76AF941EC190B9FED370B53EC102BE6
:103AF000FDF781F841EC180B8DED008BAFF2202221
:103B00004FF420513848FEF78DFF2E49C889FDF744
:103B100053F941EC190B9FED2C0B53EC102BFDF7D7
:103B20006AF841EC180B8DED008BAFF24C224FF48C
:103B300020512E48FEF776FF2249088AFDF73CF90E
:103B400041EC190B9FED200B53EC102BFDF753F8B4
:103B500041EC180B8DED008BAFF27C224FF420511D
:103B60002348FEF75FFF1749488AFDF725F941EC26
:103B7000190B9FED150B53EC102BFDF73CF841ECA6
:103B8000180B8DED008BAFF2A8224FF4205119488D
:103B9000FEF748FF1848C823782200210090084605
:103BA000FEF734F97FE4000074560120A49301204D
:103BB000745701207458012074590120745A01204F
:103BC000745B012014920120F7065F984CD51440D5
:103BD000745C0120745D0120745E0120745F01201B
:103BE00074600120746101207462012074630120FB
:103BF000746401207465012074C000200004000278
:103C00000006000100050003000780008004800218
:103C10008006800180058003800740004004400248
:103C200040064001400540034007C000C004C002F8
:103C3000C006C001C005C003C00720002004200248
:103C400020062001200520032007A000A004A002D8
:103C5000A006A001A005A003A00760006004600208
:103C600060066001600560036007E000E004E002B8
:103C7000E006E001E005E003E00710001004100298
:103C80001006100110051003100790009004900218
:103C90009006900190059003900750005004500248
:103CA00050065001500550035007D000D004D002F8
:103CB000D006D001D005D003D00730003004300248
:103CC00030063001300530033007B000B004B002D8
:103CD000B006B001B005B003B00770007004700208
:103CE00070067001700570037007F000F004F002B8
:103CF000F006F001F005F003F007080008040802E0
:103D000008060801080508030807880088048802D7
:103D10008806880188058803880748004804480207
:103D200048064801480548034807C800C804C802B7
:103D3000C806C801C805C803C80728002804280207
:103D400028062801280528032807A800A804A80297
:103D5000A806A801A805A803A807680068046802C7
:103D600068066801680568036807E800E804E80277
:103D7000E806E801E805E803E80718001804180257
:103D800018061801180518031807980098049802D7
:103D90009806980198059803980758005804580207
:103DA00058065801580558035807D800D804D802B7
:103DB000D806D801D805D803D80738003804380207
:103DC00038063801380538033807B800B804B80297
:103DD000B806B801B805B803B807780078047802C7
:103DE00078067801780578037807F800F804F80277
:103DF000F806F801F805F803F807040004040402C3
:103E000004060401040504030407840084048402F6
:103E10008406840184058403840744004404440226
:103E200044064401440544034407C400C404C402D6
:103E3000C406C401C405C403C40724002404240226
:103E400024062401240524032407A400A404A402B6
:103E5000A406A401A405A403A407640064046402E6
:103E600064066401640564036407E400E404E40296
:103E7000E406E401E405E403E40714001404140276
:103E800014061401140514031407940094049402F6
:103E90009406940194059403940754005404540226
:103EA00054065401540554035407D400D404D402D6
:103EB000D406D401D405D403D40734003404340226
:103EC00034063401340534033407B400B404B402B6
:103ED000B406B401B405B403B407740074047402E6
:103EE00074067401740574037407F400F404F40296
:103EF000F406F401F405F403F4070C000C040C02BE
:103F00000C060C010C050C030C078C008C048C02B5
:103F10008C068C018C058C038C074C004C044C02E5
:103F20004C064C014C054C034C07CC00CC04CC0295
:103F3000CC06CC01CC05CC03CC072C002C042C02E5
:103F40002C062C012C052C032C07AC00AC04AC0275
:103F5000AC06AC01AC05AC03AC076C006C046C02A5
:103F60006C066C016C056C036C07EC00EC04EC0255
:103F7000EC06EC01EC05EC03EC071C001C041C0235
:103F80001C061C011C051C031C079C009C049C02B5
:103F90009C069C019C059C039C075C005C045C02E5
:103FA0005C065C015C055C035C07DC00DC04DC0295
:103FB000DC06DC01DC05DC03DC073C003C043C02E5
:103FC0003C063C013C053C033C07BC00BC04BC0275
:103FD000BC06BC01BC05BC03BC077C007C047C02A5
:103FE0007C067C017C057C037C07FC00FC04FC0255
:103FF000FC06FC01FC05FC03FC07020002040202B3
:104000000206020102050203020782008204820204
:104010008206820182058203820742004204420234
:1040200042064201420542034207C200C204C202E4
:10403000C206C201C205C203C20722002204220234
:1040400022062201220522032207A200A204A202C4
:10405000A206A201A205A203A207620062046202F4
:1040600062066201620562036207E200E204E202A4
:10407000E206E201E205E203E20712001204120284
:104080001206120112051203120792009204920204
:104090009206920192059203920752005204520234
:1040A00052065201520552035207D200D204D202E4
:1040B000D206D201D205D203D20732003204320234
:1040C00032063201320532033207B200B204B202C4
:1040D000B206B201B205B203B207720072047202F4
:1040E00072067201720572037207F200F204F202A4
:1040F000F206F201F205F203F2070A000A040A02CC
:104100000A060A010A050A030A078A008A048A02C3
:104110008A068A018A058A038A074A004A044A02F3
:104120004A064A014A054A034A07CA00CA04CA02A3
:10413000CA06CA01CA05CA03CA072A002A042A02F3
:104140002A062A012A052A032A07AA00AA04AA0283
:10415000AA06AA01AA05AA03AA076A006A046A02B3
:104160006A066A016A056A036A07EA00EA04EA0263
:10417000EA06EA01EA05EA03EA071A001A041A0243
:104180001A061A011A051A031A079A009A049A02C3
:104190009A069A019A059A039A075A005A045A02F3
:1041A0005A065A015A055A035A07DA00DA04DA02A3
:1041B000DA06DA01DA05DA03DA073A003A043A02F3
:1041C0003A063A013A053A033A07BA00BA04BA0283
:1041D000BA06BA01BA05BA03BA077A007A047A02B3
:1041E0007A067A017A057A037A07FA00FA04FA0263
:1041F000FA06FA01FA05FA03FA07060006040602AF
:1042000006060601060506030607860086048602E2
:104210008606860186058603860746004604460212
:1042200046064601460546034607C600C604C602C2
:10423000C606C601C605C603C60726002604260212
:1042400026062601260526032607A600A604A602A2
:10425000A606A601A605A603A607660066046602D2
:1042600066066601660566036607E600E604E60282
:10427000E606E601E605E603E60716001604160262
:1042800016061601160516031607960096049602E2
:104290009606960196059603960756005604560212
:1042A00056065601560556035607D600D604D602C2
:1042B000D606D601D605D603D60736003604360212
:1042C00036063601360536033607B600B604B602A2
:1042D000B606B601B605B603B607760076047602D2
:1042E00076067601760576037607F600F604F60282
:1042F000F606F601F605F603F6070E000E040E02AA
:104300000E060E010E050E030E078E008E048E02A1
:104310008E068E018E058E038E074E004E044E02D1
:104320004E064E014E054E034E07CE00CE04CE0281
:10433000CE06CE01CE05CE03CE072E002E042E02D1
:104340002E062E012E052E032E07AE00AE04AE0261
:10435000AE06AE01AE05AE03AE076E006E046E0291
:104360006E066E016E056E036E07EE00EE04EE0241
:10437000EE06EE01EE05EE03EE071E001E041E0221
:104380001E061E011E051E031E079E009E049E02A1
:104390009E069E019E059E039E075E005E045E02D1
:1043A0005E065E015E055E035E07DE00DE04DE0281
:1043B000DE06DE01DE05DE03DE073E003E043E02D1
:1043C0003E063E013E053E033E07BE00BE04BE0261
:1043D000BE06BE01BE05BE03BE077E007E047E0291
:1043E0007E067E017E057E037E07FE00FE04FE0241
:1043F000FE06FE01FE05FE03FE0701000000803FF1
:1044000000000000ECFF7F3FD40FC93AB1FF7F3FAF
:10441000C70F493B4EFF7F3FC1CB963BC4FE7F3F5A
:10442000890FC93B13FE7F3F3053FB3B39FD7F3F74
:1044300059CB163C39FC7F3F02ED2F3C11FB7F3FEF
:10444000900E493CC1F97F3F0030623C4AF87F3F03
:104450004B517B3CACF67F3F38398A3CE6F47F3FDA
:10446000B6C9963CF8F27F3F1C5AA33CE3F07F3F6D
:1044700069EAAF3CA7EE7F3F9B7ABC3C43EC7F3FB1
:10448000B00AC93CB8E97F3FA69AD53C05E77F3F13
:104490007B2AE23C2BE47F3F2DBAEE3C29E17F3FB3
:1044A000B949FB3C00DE7F3F90EC033DAFDA7F3F34
:1044B0002F340A3D37D77F3FB87B103D98D37F3FDD
:1044C0002CC3163DD1CF7F3F880A1D3DE2CB7F3FF5
:1044D000CC51233DCCC77F3FF698293D8FC37F3F0A
:1044E00007E02F3D2ABF7F3FFC26363D9EBA7F3F27
:1044F000D56D3C3DEAB57F3F91B4423D0FB17F3F62
:104500002FFB483D0DAC7F3FAF414F3DE3A67F3FC2
:104510000E88553D91A17F3F4CCE5B3D189C7F3F5F
:104520006814623D78967F3F625A683DB1907F3F44
:1045300038A06E3DC28A7F3FE9E5743DAB847F3F82
:10454000742B7B3D6D7E7F3F6CB8803D08787F3F4C
:104550000ADB833D7B717F3F94FD863DC76A7F3FC9
:104560000A208A3DEC637F3F6A428D3DE95C7F3FD4
:10457000B464903DBF557F3FE786933D6D4E7F3FCE
:1045800005A9963DF4467F3F0ACB993D543F7F3FB6
:10459000F9EC9C3D8D377F3FCF0EA03D9D2F7F3F97
:1045A0008C30A33D87277F3F3052A63D491F7F3F78
:1045B000BA73A93DE4167F3F2B95AC3D580E7F3F63
:1045C00080B6AF3DA4057F3FBBD7B23DC9FC7E3F5F
:1045D000DAF8B53DC7F37E3FDD19B93D9DEA7E3F70
:1045E000C33ABC3D4CE17E3F8D5BBF3DD4D77E3F9F
:1045F000397CC23D34CE7E3FC69CC53D6DC47E3FF6
:1046000036BDC83D7FBA7E3F86DDCB3D69B07E3F7B
:10461000B7FDCE3D2DA67E3FC81DD23DC99B7E3F36
:10462000B93DD53D3D917E3F895DD83D8B867E3F2E
:10463000377DDB3DB17B7E3FC49CDE3DB0707E3F6D
:104640002EBCE13D88657E3F76DBE43D385A7E3FF7
:104650009AFAE73DC14E7E3F9A19EB3D23437E3FD8
:104660007638EE3D5E377E3F2E57F13D722B7E3F12
:10467000C075F43D5E1F7E3F2C94F73D24137E3FB2
:1046800073B2FA3DC2067E3F92D0FD3D38FA7D3FBF
:104690004577003E88ED7D3F2E06023EB1E07D3F2E
:1046A0000295033EB2D37D3FC223053E8CC67D3FBB
:1046B0006EB2063E40B97D3F0541083ECCAB7D3F22
:1046C00086CF093E309E7D3FF35D0B3E6E907D3F71
:1046D0004AEC0C3E85827D3F8B7A0E3E74747D3FA2
:1046E000B708103E3D667D3FCC96113EDE577D3FBC
:1046F000CA24133E59497D3FB2B2143EAC3A7D3FC5
:104700008340163ED82B7D3F3DCE173EDD1C7D3FBE
:10471000E05B193EBC0D7D3F6BE91A3E73FE7C3FAA
:10472000DE761C3E03EF7C3F38041E3E6CDF7C3F90
:104730007B911F3EAECF7C3FA51E213EC9BF7C3F73
:10474000B6AB223EBDAF7C3FAD38243E8A9F7C3F56
:104750008CC5253E318F7C3F5152273EB07E7C3F39
:10476000FCDE283E086E7C3F8D6B2A3E3A5D7C3F26
:1047700004F82B3E444C7C3F61842D3E283B7C3F1B
:10478000A2102F3EE5297C3FC99C303E7A187C3F21
:10479000D428323EE9067C3FC4B4333E31F57B3F3A
:1047A0009840353E53E37B3F50CC363E4DD17B3F66
:1047B000EC57383E20BF7B3F6CE3393ECDAC7B3FAE
:1047C000CF6E3B3E539A7B3F15FA3C3EB2877B3F10
:1047D0003E853E3EEA747B3F4910403EFC617B3F94
:1047E000379B413EE74E7B3F0726433EAB3B7B3F3B
:1047F000B9B0443E48287B3F4D3B463EBE147B3F0C
:10480000C2C5473E0E017B3F1850493E37ED7A3F07
:104810004FDA4A3E3AD97A3F67644C3E16C57A3F32
:1048200060EE4D3ECBB07A3F38784F3E599C7A3F90
:10483000F101513EC1877A3F898B523E02737A3F24
:104840000115543E1C5E7A3F589E553E10497A3FF2
:104850008F27573EDD337A3FA4B0583E841E7A3FFF
:1048600097395A3E04097A3F6AC25B3E5EF3793F4C
:104870001A4B5D3E91DD793FA8D35E3E9DC7793FDF
:10488000135C603E83B1793F5CE4613E439B793FBA
:10489000836C633EDC84793F86F4643E4E6E793FE0
:1048A000667C663E9A57793F2204683EC040793F55
:1048B000BA8B693EBF29793F2F136B3E9812793F1F
:1048C0007F9A6C3E4AFB783FAB216E3ED6E3783F41
:1048D000B2A86F3E3BCC783F942F713E7BB4783FBB
:1048E00051B6723E939C783FE83C743E8684783F94
:1048F0005AC3753E526C783FA649773EF853783FCD
:10490000CCCF783E773B783FCB557A3ED122783F6B
:10491000A4DB7B3E040A783F56617D3E10F1773F71
:10492000E1E67E3EF7D7773F2236803EB7BE773F3F
:10493000C0F8803E51A5773F4ABB813EC58B773F8B
:10494000C07D823E1372773F2240833E3A58773FC4
:104950007002843E3C3E773FAAC4843E1724773FD2
:10496000CE86853ECC09773FDF48863E5BEF763FBB
:10497000DA0A873EC4D4763FC1CC873E07BA763F79
:10498000938E883E249F763F5050893E1B84763F0D
:10499000F8118A3EEC68763F8AD38A3E974D763F7F
:1049A00007958B3E1B32763F6E568C3E7A16763FCD
:1049B000C0178D3EB3FA753FFCD88D3EC6DE753FFD
:1049C000229A8E3EB3C2753F325B8F3E7BA6753F07
:1049D0002C1C903E1C8A753F10DD903E976D753FF4
:1049E000DD9D913EED50753F945E923E1D34753FC6
:1049F000351F933E2717753FBFDF933E0BFA743F79
:104A000031A0943EC9DC743F8D60953E62BF743F17
:104A1000D220963ED5A1743F00E1963E2284743F99
:104A200017A1973E4966743F1661983E4B48743F04
:104A3000FE20993E272A743FCEE0993EDD0B743F5D
:104A400086A09A3E6EED733F27609B3ED9CE733FA2
:104A5000AF1F9C3E1FB0733F20DF9C3E3F91733FD2
:104A6000789E9D3E3972733FB85D9E3E0E53733FF4
:104A7000DF1C9F3EBE33733FEEDB9F3E4714733F08
:104A8000E59AA03EACF4723FC259A13EEBD4723F0E
:104A90008718A23E04B5723F33D7A23EF894723F06
:104AA000C595A33EC774723F3F54A43E7054723FF5
:104AB0009F12A53EF433723FE5D0A53E5213723FDC
:104AC000128FA63E8CF2713F254DA73E9FD1713FBC
:104AD0001F0BA83E8EB0713FFEC8A83E578F713F96
:104AE000C486A93EFB6D713F6F44AA3E7A4C713F6C
:104AF0000102AB3ED42A713F77BFAB3E0809713F3C
:104B0000D47CAC3E17E7703F153AAD3E02C5703F0E
:104B10003CF7AD3EC6A2703F49B4AE3E6680703FE2
:104B20003A71AF3EE15D703F102EB03E373B703FB3
:104B3000CBEAB03E6718703F6BA7B13E73F56F3F8D
:104B4000EF63B23E5AD26F3F5820B33E1BAF6F3F68
:104B5000A5DCB33EB88B6F3FD698B43E30686F3F4C
:104B6000EC54B53E83446F3FE610B63EB0206F3F35
:104B7000C3CCB63EBAFC6E3F8488B73E9ED86E3F2B
:104B80002A44B83E5DB46E3FB2FFB83EF88F6E3F28
:104B90001EBBB93E6D6B6E3F6E76BA3EBE466E3F33
:104BA000A031BB3EEB216E3FB6ECBB3EF2FC6D3F4D
:104BB000AFA7BC3ED5D76D3F8B62BD3E93B26D3F74
:104BC0004A1DBE3E2D8D6D3FEBD7BE3EA1676D3FAA
:104BD0006F92BF3EF2416D3FD54CC03E1D1C6D3FF4
:104BE0001E07C13E24F66C3F48C1C13E07D06C3F52
:104BF000557BC23EC5A96C3F4435C33E5E836C3FC6
:104C000015EFC33ED45C6C3FC8A8C43E24366C3F4D
:104C10005C62C53E500F6C3FD21BC63E58E86B3FEE
:104C200029D5C63E3BC16B3F628EC73EFB996B3FA9
:104C30007C47C83E95726B3F7700C93E0C4B6B3F7B
:104C400053B9C93E5E236B3F1072CA3E8CFB6A3F6C
:104C5000AE2ACB3E95D36A3F2CE3CB3E7BAB6A3F7B
:104C60008B9BCC3E3C836A3FCA53CD3ED95A6A3FA8
:104C7000EA0BCE3E52326A3FEAC3CE3EA7096A3FF4
:104C8000CA7BCF3ED7E0693F8A33D03EE4B7693F65
:104C90002AEBD03ECC8E693FAAA2D13E9165693FF6
:104CA000095AD23E323C693F4811D33EAE12693FA9
:104CB00067C8D33E07E9683F647FD43E3CBF683F86
:104CC0004136D53E4C95683FFDECD53E396B683F8B
:104CD00099A3D63E0341683F135AD73EA816683FB2
:104CE0006B10D83E2AEC673FA3C6D83E87C1673F0A
:104CF000B97CD93EC196673FAD32DA3ED86B673F8B
:104D000080E8DA3ECA40673F319EDB3E9915673F37
:104D1000C153DC3E45EA663F2E09DD3ECCBE663F10
:104D200079BEDD3E3093663FA273DE3E7167663F1B
:104D3000A928DF3E8E3B663F8DDDDF3E880F663F54
:104D40004F92E03E5EE3653FEE46E13E10B7653FC1
:104D50006AFBE13EA08A653FC4AFE23E0B5E653F61
:104D6000FA63E33E5431653F0E18E43E7904653F33
:104D7000FECBE43E7BD7643FCB7FE53E59AA643F40
:104D80007533E63E147D643FFBE6E63EAC4F643F80
:104D90005D9AE73E2122643F9C4DE83E73F4633FF9
:104DA000B700E93EA1C6633FAEB3E93EAC98633FAE
:104DB0008166EA3E956A633F3019EB3E5A3C633F99
:104DC000BBCBEB3EFC0D633F217EEC3E7BDF623FC5
:104DD0006330ED3ED7B0623F80E2ED3E1082623F2D
:104DE0007994EE3E2653623F4C46EF3E1A24623FD2
:104DF000FBF7EF3EEAF4613F85A9F03E98C5613FBD
:104E0000EA5AF13E2296613F290CF23E8A66613FE2
:104E100043BDF23ED036613F386EF33EF206613F4D
:104E2000071FF43EF2D6603FB1CFF43ECFA6603FFD
:104E30003580F53E8976603F9330F63E2146603FEF
:104E4000CBE0F63E9615603FDC90F73EE9E45F3F2D
:104E5000C840F83E19B45F3F8EF0F83E27835F3FAD
:104E60002DA0F93E12525F3FA54FFA3EDB205F3F77
:104E7000F7FEFA3E81EF5E3F22AEFB3E05BE5E3F8F
:104E8000275DFC3E678C5E3F040CFD3EA65A5E3FEC
:104E9000BBBAFD3EC3285E3F4A69FE3EBEF65D3F9B
:104EA000B217FF3E97C45D3FF3C5FF3E4D925D3F95
:104EB000063A003FE15F5D3FFF90003F532D5D3FAD
:104EC000E4E7003FA3FA5C3FB53E013FD1C75C3F3A
:104ED0007395013FDD945C3F1CEC013FC7615C3F73
:104EE000B142023F8E2E5C3F3299023F34FB5B3F62
:104EF0009FEF023FB8C75B3FF845033F1A945B3F03
:104F00003D9C033F5A605B3F6DF2033F792C5B3F52
:104F10008948043F75F85A3F919E043F50C45A3F58
:104F200084F4043F09905A3F624A053FA05B5A3F10
:104F30002CA0053F16275A3FE2F5053F6AF2593F7C
:104F4000824B063F9CBD593F0EA1063FAD88593F9D
:104F500086F6063F9C53593FE84B073F6A1E593F70
:104F600036A1073F17E9583F6FF6073FA1B3583FF7
:104F7000924B083F0B7E583FA1A0083F5348583F33
:104F80009BF5083F7912583F7F4A093F7FDC573F26
:104F90004E9F093F63A6573F09F4093F2670573FCC
:104FA000AD480A3FC739573F3D9D0A3F4803573F29
:104FB000B7F10A3FA7CC563F1C460B3FE595563F3D
:104FC0006B9A0B3F025F563FA5EE0B3FFE27563F05
:104FD000C9420C3FD9F0553FD7960C3F93B9553F86
:104FE000D0EA0C3F2C82553FB33E0D3FA44A553FBB
:104FF00081920D3FFB12553F38E60D3F31DB543FA8
:10500000DA390E3F47A3543F658D0E3F3B6B543F4B
:10501000DBE00E3F0F33543F3B340F3FC3FA533FA7
:1050200084870F3F55C2533FB8DA0F3FC789533FBC
:10503000D52D103F1851533FDC80103F4918533F86
:10504000CDD3103F59DF523FA726113F49A6523F0B
:105050006B79113F186D523F19CC113FC633523F47
:10506000B01E123F54FA513F3071123FC2C0513F3F
:105070009AC3123F1087513FEE15133F3D4D513FEC
:105080002A68133F4A13513F50BA133F37D9503F54
:105090005F0C143F039F503F585E143FAF64503F76
:1050A00039B0143F3B2A503F0402153FA8EF4F3F51
:1050B000B753153FF4B44F3F54A5153F1F7A4F3FE8
:1050C000D9F6153F2B3F4F3F4748163F17044F3F38
:1050D0009F99163FE4C84E3FDFEA163F908D4E3F42
:1050E000073C173F1C524E3F188D173F89164E3F05
:1050F00012DE173FD5DA4D3FF52E183F029F4D3F88
:10510000C07F183F10634D3F73D0183FFD264D3FC1
:105110000F21193FCBEA4C3F9471193F79AE4C3FB8
:1051200000C2193F08724C3F55121A3F78354C3F68
:1051300093621A3FC7F84B3FB8B21A3FF8BB4B3FD8
:10514000C6021B3F097F4B3FBB521B3FFA414B3FFF
:1051500099A21B3FCC044B3F5FF21B3F7FC74A3FE6
:105160000C421C3F138A4A3FA2911C3F874C4A3F86
:105170001FE11C3FDC0E4A3F84301D3F12D1493FE6
:10518000D17F1D3F2993493F06CF1D3F2155493F00
:10519000221E1E3FFA16493F266D1E3FB3D8483FD8
:1051A00012BC1E3F4E9A483FE50A1F3FCA5B483F6C
:1051B0009F591F3F271D483F41A81F3F65DE473FBE
:1051C000CBF61F3F849F473F3B45203F8560473FCD
:1051D0009393203F6721473FD2E1203F2AE2463F99
:1051E000F92F213FCEA2463F067E213F5463463F22
:1051F000FBCB213FBB23463FD719223F03E4453F6A
:105200009967223F2DA4453F43B5223F3964453F6E
:10521000D302233F2624453F4B50233FF5E3443F31
:10522000A99D233FA5A3443FEEEA233F3763443FB4
:105230001A38243FAB22443F2C85243F00E2433FF1
:1052400025D2243F38A1433F041F253F5160433FEF
:10525000CB6B253F4C1F433F77B8253F29DE423FAC
:105260000A05263FE89C423F8451263F895B423F26
:10527000E39D263F0B1A423F2AEA263F70D8413F62
:105280005636273FB796413F6882273FE154413F5A
:1052900061CE273FEC12413F401A283FDAD0403F11
:1052A0000566283FA98E403FB0B1283F5C4C403F87
:1052B00041FD283FF009403FB848293F67C73F3FBD
:1052C0001594293FC0843F3F57DF293FFC413F3FB2
:1052D000802A2A3F1BFF3E3F8E752A3F1BBC3E3F64
:1052E00082C02A3FFF783E3F5B0B2B3FC5353E3FD8
:1052F0001B562B3F6EF23D3FBFA02B3FF9AE3D3F0B
:105300004AEB2B3F676B3D3FB9352C3FB8273D3FFC
:105310000F802C3FECE33C3F49CA2C3F03A03C3FAD
:1053200069142D3FFC5B3C3F6F5E2D3FD9173C3F1E
:1053300059A82D3F98D33B3F29F22D3F3B8F3B3F50
:10534000DE3B2E3FC14A3B3F78852E3F29063B3F3F
:10535000F7CE2E3F75C13A3F5B182F3FA47C3A3FF2
:10536000A5612F3FB7373A3FD3AA2F3FACF2393F61
:10537000E6F32F3F85AD393FDE3C303F4268393F91
:10538000BB85303FE122393F7CCE303F65DD383F81
:105390002217313FCB97383FAD5F313F1652383F30
:1053A0001DA8313F430C383F71F0313F55C6373FA0
:1053B000AA38323F4A80373FC780323F233A373FCF
:1053C000C9C8323FDFF3363FAF10333F7FAD363FC2
:1053D0007A58333F0467363F29A0333F6C20363F6D
:1053E000BCE7333FB8D9353F342F343FE792353FE0
:1053F0008F76343FFB4B353FCFBD343FF304353F11
:10540000F304353FCFBD343FFB4B353F8F76343F00
:10541000E792353F342F343FB8D9353FBCE7333FAF
:105420006C20363F29A0333F0467363F7A58333F1C
:105430007FAD363FAF10333FDFF3363FC9C8323F51
:10544000233A373FC780323F4A80373FAA38323F3E
:1054500055C6373F71F0313F430C383F1DA8313FEF
:105460001652383FAD5F313FCB97383F2217313F5F
:1054700065DD383F7CCE303FE122393FBB85303F90
:105480004268393FDE3C303F85AD393FE6F32F3F80
:10549000ACF2393FD3AA2F3FB7373A3FA5612F3F30
:1054A000A47C3A3F5B182F3F75C13A3FF7CE2E3FA1
:1054B00029063B3F78852E3FC14A3B3FDE3B2E3FCE
:1054C0003B8F3B3F29F22D3F98D33B3F59A82D3FBF
:1054D000D9173C3F6F5E2D3FFC5B3C3F69142D3F6D
:1054E00003A03C3F49CA2C3FECE33C3F0F802C3FDC
:1054F000B8273D3FB9352C3F676B3D3F4AEB2B3F0B
:10550000F9AE3D3FBFA02B3F6EF23D3F1B562B3FF8
:10551000C5353E3F5B0B2B3FFF783E3F82C02A3FA5
:105520001BBC3E3F8E752A3F1BFF3E3F802A2A3F11
:10553000FC413F3F57DF293FC0843F3F1594293F3F
:1055400067C73F3FB848293FF009403F41FD283F2A
:105550005C4C403FB0B1283FA98E403F0566283FD4
:10556000DAD0403F401A283FEC12413F61CE273F3E
:10557000E154413F6882273FB796413F5636273F67
:1055800070D8413F2AEA263F0B1A423FE39D263F4F
:10559000895B423F8451263FE89C423F0A05263FF3
:1055A00029DE423F77B8253F4C1F433FCB6B253F59
:1055B0005160433F041F253F38A1433F25D2243F7C
:1055C00000E2433F2C85243FAB22443F1A38243F5E
:1055D0003763443FEEEA233FA5A3443FA99D233F01
:1055E000F5E3443F4B50233F2624453FD302233F5E
:1055F0003964453F43B5223F2DA4453F9967223F7B
:1056000003E4453FD719223FBB23463FFBCB213F55
:105610005463463F067E213FCEA2463FF92F213FED
:105620002AE2463FD2E1203F6721473F9393203F44
:105630008560473F3B45203F849F473FCBF61F3F58
:1056400065DE473F41A81F3F271D483F9F591F3F29
:10565000CA5B483FE50A1F3F4E9A483F12BC1E3FB7
:10566000B3D8483F266D1E3FFA16493F221E1E3F03
:105670002155493F06CF1D3F2993493FD17F1D3F0B
:1056800012D1493F84301D3FDC0E4A3F1FE11C3FD1
:10569000874C4A3FA2911C3F138A4A3F0C421C3F51
:1056A0007FC74A3F5FF21B3FCC044B3F99A21B3F91
:1056B000FA414B3FBB521B3F097F4B3FC6021B3F8A
:1056C000F8BB4B3FB8B21A3FC7F84B3F93621A3F43
:1056D00078354C3F55121A3F08724C3F00C2193FB3
:1056E00079AE4C3F9471193FCBEA4C3F0F21193FE3
:1056F000FD264D3F73D0183F10634D3FC07F183FCC
:10570000029F4D3FF52E183FD5DA4D3F12DE173F71
:1057100089164E3F188D173F1C524E3F073C173FCE
:10572000908D4E3FDFEA163FE4C84E3F9F99163FEB
:1057300017044F3F4748163F2B3F4F3FD9F6153FC1
:105740001F7A4F3F54A5153FF4B44F3FB753153F51
:10575000A8EF4F3F0402153F3B2A503F39B0143F9A
:10576000AF64503F585E143F039F503F5F0C143F9F
:1057700037D9503F50BA133F4A13513F2A68133F5D
:105780003D4D513FEE15133F1087513F9AC3123FD5
:10579000C2C0513F3071123F54FA513FB01E123F08
:1057A000C633523F19CC113F186D523F6B79113FF0
:1057B00049A6523FA726113F59DF523FCDD3103F94
:1057C0004918533FDC80103F1851533FD52D103FEF
:1057D000C789533FB8DA0F3F55C2533F84870F3F05
:1057E000C3FA533F3B340F3F0F33543FDBE00E3FD0
:1057F0003B6B543F658D0E3F47A3543FDA390E3F54
:1058000031DB543F38E60D3FFB12553F81920D3F8F
:10581000A44A553FB33E0D3F2C82553FD0EA0C3F82
:1058200093B9553FD7960C3FD9F0553FC9420C3F2D
:10583000FE27563FA5EE0B3F025F563F6B9A0B3F8C
:10584000E595563F1C460B3FA7CC563FB7F10A3FA4
:105850004803573F3D9D0A3FC739573FAD480A3F70
:105860002670573F09F4093F63A6573F4E9F093FF3
:105870007FDC573F7F4A093F7912583F9BF5083F2D
:105880005348583FA1A0083F0B7E583F924B083F1A
:10589000A1B3583F6FF6073F17E9583F36A1073FBE
:1058A0006A1E593FE84B073F9C53593F86F6063F17
:1058B000AD88593F0EA1063F9CBD593F824B063F24
:1058C0006AF2593FE2F5053F16275A3F2CA0053FE3
:1058D000A05B5A3F624A053F09905A3F84F4043F57
:1058E00050C45A3F919E043F75F85A3F8948043F7F
:1058F000792C5B3F6DF2033F5A605B3F3D9C033F59
:105900001A945B3FF845033FB8C75B3F9FEF023FE8
:1059100034FB5B3F3299023F8E2E5C3FB142023F27
:10592000C7615C3F1CEC013FDD945C3F7395013F18
:10593000D1C75C3FB53E013FA3FA5C3FE4E7003FBF
:10594000532D5D3FFF90003FE15F5D3F063A003F12
:105950004D925D3FF3C5FF3E97C45D3FB217FF3EDA
:10596000BEF65D3F4A69FE3EC3285E3FBBBAFD3EC0
:10597000A65A5E3F040CFD3E678C5E3F275DFC3EF1
:1059800005BE5E3F22AEFB3E81EF5E3FF7FEFA3E74
:10599000DB205F3FA54FFA3E12525F3F2DA0F93E3C
:1059A00027835F3F8EF0F83E19B45F3FC840F83E52
:1059B000E9E45F3FDC90F73E9615603FCBE0F63EB2
:1059C0002146603F9330F63E8976603F3580F53E54
:1059D000CFA6603FB1CFF43EF2D6603F071FF43E42
:1059E000F206613F386EF33ED036613F43BDF23E72
:1059F0008A66613F290CF23E2296613FEA5AF13EE7
:105A000098C5613F85A9F03EEAF4613FFBF7EF3EA0
:105A10001A24623F4C46EF3E2653623F7994EE3E95
:105A20001082623F80E2ED3ED7B0623F6330ED3ED0
:105A30007BDF623F217EEC3EFC0D633FBBCBEB3E48
:105A40005A3C633F3019EB3E956A633F8166EA3EFC
:105A5000AC98633FAEB3E93EA1C6633FB700E93EF1
:105A600073F4633F9C4DE83E2122643F5D9AE73E1C
:105A7000AC4F643FFBE6E63E147D643F7533E63E83
:105A800059AA643FCB7FE53E7BD7643FFECBE43E23
:105A90007904653F0E18E43E5431653FFA63E33EF6
:105AA0000B5E653FC4AFE23EA08A653F6AFBE13E04
:105AB00010B7653FEE46E13E5EE3653F4F92E03E44
:105AC000880F663F8DDDDF3E8E3B663FA928DF3EB7
:105AD0007167663FA273DE3E3093663F79BEDD3E5E
