:020000040800F2
:10000000A8BC00201D2F00088D2D00088F2D000892
:10001000BD2D0008BF2D0008C12D00080000000004
:10002000000000000000000000000000E1140008D3
:10003000C32D0008000000007D140008E50F000833
:10004000712F0008752F0008792F00087D2F0008F8
:10005000812F0008852F0008892F00088D2F0008A8
:10006000912F0008952F0008992F00089D2F000858
:10007000A12F0008A52F0008A92F0008AD2F000808
:10008000B12F0008B52F0008B92F0008BD2F0008B8
:10009000C12F0008C52F0008C92F0008CD2F000868
:1000A000D12F0008D52F0008D92F0008DD2F000818
:1000B00041280008E12F0008E52F0008E92F00087B
:1000C000ED2F0008F12F0008F52F0008F92F000888
:1000D000FD2F000801300008053000080930000835
:1000E0000D300008113000081530000819300008E4
:1000F0001D30000821300008253000082930000894
:100100002D30000831300008353000083930000843
:100110003D300008413000084530000849300008F3
:100120004D300008513000085530000859300008A3
:100130005D30000861300008653000086930000853
:100140006D30000871300008753000087930000803
:100150007D300008813000088530000889300008B3
:100160008D30000891300008953000089930000863
:100170009D300008A1300008A5300008A930000813
:10018000AD300008B13000082DE9FB4F82B01400FB
:100190000E9D0F9E109FDDF844803900200080B234
:1001A00000F0D0FC8246BAF1000F6ED0A4B2DAF8AB
:1001B000300010EB8400001F83465FEADB0B5FEA30
:1001C000CB0BA4B2009443462A000399504600F09A
:1001D000FBFB049A0299584600F0ACFECAF80000F6
:1001E000002E01D0C6F800A000F0E1FEDFF8D00735
:1001F0000068401CDFF8C8170860DFF83C09006899
:1002000000280BD1DFF83009C0F800A0DFF8B007F4
:100210000068012811D100F009FC0EE0DFF8A40706
:100220000068002809D1DFF810090068C06A85421B
:1002300003D3DFF80409C0F800A0DFF84408006821
:10024000401CDFF83C180860DFF834080068CAF882
:100250004400DFF830080068DAF82C10884204D235
:10026000DAF82C00DFF81C1808601AF10401DAF83B
:100270002C001422DFF8C43802FB003000F0EAFE44
:100280000120814600F0A0FE02E05FF0FF308146D1
:10029000B9F1010F0CD1DFF82C070068002807D056
:1002A000DFF894080068C06AA84201D200F076FE28
:1002B000484605B0BDE8F08F2DE9F04704000D0079
:1002C0005FF0000800F001F9DFF87408D0F8009042
:1002D0002068281806002068814507D220688642D9
:1002E0000BD2B14509D20120804606E02068864243
:1002F00001D3B14501D2012080462660B8F1000F3C
:1003000009D0DFF834080068001D00F0CCFE8246FA
:10031000300000F0EDFB00F0E0F80700002F01D105
:1003200000F03CFEBDE8F087F8B504000026002C84
:1003300013D000F0CAF8DFF808080068201805009C
:10034000DFF8F4070068001D00F0ADFE070028008C
:1003500000F0CEFB00F0C1F80600002E01D100F045
:100360001DFEF1BD38B5040000F021FE002C03D1C4
:10037000DFF8C407056800E02500281D00F093FEA3
:10038000A96A002903D015F1180000F08CFE291D80
:10039000DFF8940900F05EFE00F016FEDFF8980723
:1003A0000068854217D1DFF81C060068002802D0DB
:1003B00000F0F4FD16E0DFF870090068DFF80016C1
:1003C0000968884204D1DFF870070021016009E064
:1003D00000F0DEF906E0DFF8EC050068002801D047
:1003E00000F041FC31BD10B4010000200A00536947
:1003F000DFF83449A34209D1936ADFF8EC4AA342FB
:1004000004D0936A002B01D10123180010BC70475F
:1004100038B504002500002D2CD0DFF81C0700683B
:10042000854227D000F0C3FD2800FFF7DCFF01283C
:100430001ED1281D00F037FEDFF848160968EA6A69
:10044000914203D2E86ADFF83C160860291DE86A89
:100450001422DFF8E83602FB003000F0FBFDE86A0A
:10046000DFF8D4160968C96A884201D300F096FD06
:1004700000F0AAFD31BD1FB50020039000200290BE
:10048000002001900020009000238022DFF8AC19AA
:100490000FF21550FFF778FE0400012C02D100F096
:1004A0002DFE0400012C0FD101F010F8DFF8140527
:1004B00001210160DFF8880600210160DFF82C0AC5
:1004C0000021016000F04CFD1FBDDFF86C090068E1
:1004D000401CDFF864190860704770B5002500F013
:1004E00066FDDFF854090068401EDFF84C1908600B
:1004F000DFF844090068002858D1DFF8C404006818
:10050000002853D0DFF8E009006800282BD0DFF87E
:10051000D809C068C068040014F1180000F0C3FDD9
:100520000600201D00F0BFFDDFF858150968E26ADB
:10053000914203D2E06ADFF84C150860211DE06AA1
:100540001422DFF8F83502FB003000F083FDE06A8A
:10055000DFF8E4150968C96A8842D3D3DFF8940943
:1005600001210160CEE7DFF890090068002814D06F
:10057000DFF88409006800280FD000F078F8002820
:1005800003D0DFF8700901210160DFF86C09006811
:10059000401EDFF864190860EAE7DFF858090068D0
:1005A000012803D10120050000F0F8FC00F00CFD4B
:1005B000280070BD10B500F0FAFCDFF88405006873
:1005C000040000F001FD200010BD2DE9F041040001
:1005D0000D00160000275FF00508FFF776FFDFF833
:1005E000E003006885423CD3B8F1010801221420E1
:1005F000DFF8481500FB081114EB471000F0C5FAAE
:10060000C0190700B8F1000FEED10222DFF8F008A0
:10061000016814EB471000F0B8FAC0190700022275
:10062000DFF8E008016814EB471000F0AEFAC019DB
:1006300007000422DFF8B01414EB471000F0A5FA0D
:10064000C01907000322DFF8E01614EB471000F092
:100650009CFAC0190700002E03D0DFF8900800684C
:100660003060FFF73AFF01003800BDE8F0812DE966
:10067000F0410026DFF8C0070068002877D1DFF8D6
:10068000C0040068401CDFF8B8140860DFF8B0044C
:100690000768002F16D1DFF8680800688046DFF889
:1006A0006008DFF8601809680160DFF85808C0F8D2
:1006B0000080DFF854080068401CDFF84C18086020
:1006C00000F0D1FADFF844080068874240D3DFF831
:1006D000300800680068002805D1DFF830085FF0B6
:1006E000FF31016034E0DFF818080068C068C068B6
:1006F000040060680500AF4203D2DFF8100805600F
:1007000026E0201D00F0CFFCA16A002903D014F1DF
:10071000180000F0C8FCDFF86C030068E16A88424A
:1007200003D2E06ADFF85C130860211DE06A14223E
:10073000DFF8083402FB003000F08CFCE06ADFF8E0
:10074000F8130968C96A8842C1D301200600BEE7D0
:10075000DFF8E4030068C06A1421DFF8E02301FB3E
:1007600000200068022809D30120060006E0DFF817
:1007700088070068401CDFF880170860DFF87407FE
:100780000068002801D0012006003000BDE8F0819B
:10079000DFF8A4060068002804D0DFF8580701211C
:1007A00001604CE0DFF84C0700210160DFF86007D2
:1007B000DFF8381709680160DFF858070068DFF8CC
:1007C0005017096888420CD2DFF86C030068016D8D
:1007D000DFF83C2712685118DFF838271268891AA9
:1007E0000165DFF83007DFF8281709680160A548C0
:1007F00000681421DFF8442301FB00200068002872
:1008000005D1A0480068401E9E490860EFE79D4959
:1008100009681422DFF8243302FB01310800416823
:1008200049684160416810F10802914202D1416873
:10083000496841604068C068DFF8FC120860704792
:1008400070B504000D00DFF8F002006810F1180127
:10085000200000F00BFCDFF8E0020068001D00F053
:1008600022FC15F1010F08D1DFF8CC020068011D50
:10087000DFF8B40400F0EEFB07E0DFF8C402006824
:1008800028180600300000F033F970BDF8B50400F8
:100890000D00A948006810F11801200000F0DAFBF3
:1008A000A5480068001D00F0FEFB0700A448006892
:1008B00028180600300000F01BF9F1BD70B50400E7
:1008C000E068C068050015F1180000F0ECFBDFF8E7
:1008D00068150968002913D1281D00F0E4FB694957
:1008E0000968EA6A914202D2E86A66490860291DED
:1008F000E86A1422914B02FB003000F0ABFB05E0EC
:1009000015F11801DFF8E00500F0A4FB8A48006843
:10091000C06AE96A884206D201200600DFF8D405E1
:100920000121016001E000200600300070BDDFF809
:10093000D815096801608249096841607047F8B5B7
:1009400004000D0000F033FB7D480768286810F1B3
:10095000010F02D1002006001DE0DFF8AC050068A1
:100960002168884205D06068874202D301200600D2
:1009700011E06068381A296888420AD22868C01BCA
:100980006168081828602000FFF7D1FF00200600EA
:1009900001E00120060000F017FB3000F2BDDFF897
:1009A000540501210160704710B5040000F06CF897
:1009B000DFF8C40300680228F8D300F0EFFAF5E787
:1009C000687C0020747C00202DE9F84305000E00AF
:1009D00017009846089C00208146B9F1100F0CD2F0
:1009E00019EB050019F8061080F8341019F8060004
:1009F000002802D019F10109EFE7002085F8430033
:100A0000052F01D304200700EF62EF64281D00F0DA
:100A10001EFB15F1180000F01AFB2D61D7F105003F
:100A2000A8616D6200202865BDE8F18310B5002043
:100A30000400052C07D21420404900FB041000F0EC
:100A4000F7FA641CF5E7DFF8D00400F0F1FADFF8FC
:100A5000CC0400F0EDFADFF8900400F0E9FA224847
:100A600000F0E6FAB04800F0E3FADFF89404DFF8AB
:100A7000A8140160DFF88C04DFF8A014016010BD39
:100A8000847C0020707C002070B518480068002825
:100A900029D0FFF71AFD14480068002801D101246D
:100AA00000E00024E4B2FFF718FD002CEDD100F0C7
:100AB0007EFA0D48C068C0680500281D00F0F3FAF2
:100AC0000600DFF838040068401EDFF830140860C4
:100AD00006480068401E0549086000F075FA2800C5
:100AE00000F0B8F8D1E770BDE07B0020647C002006
:100AF00010B5040010480068446011480068844242
:100B000008D20D480068011DDFF8F803006800F006
:100B1000ADFA0FE008480068011DDFF8E403006843
:100B200000F0A4FADFF8E4030068844202D2DFF8A0
:100B3000DC03046010BD0000587C0020F07A002027
:100B40006C7C002070B504000D00542000F0EEFC19
:100B50000600002E17D0002D04D1A4B2A00000F092
:100B6000E5FC00E028003063306B002805D1300040
:100B700000F03EFD0020060005E0A4B2A200A52181
:100B8000306B00F07BFD300070BD2DE9F8430400B0
:100B90000D0016005FF00009286800284CD02800DE
:100BA000416849684160416810F10802914202D1F0
:100BB0004168496841604068C068804628004168D3
:100BC00049684160416810F10802914202D14168D0
:100BD000496841604068C06807005FEA49100751F2
:100BE00014EB491007F23401416014EB4910796CA1
:100BF000816014EB4910067314EB4910F96A016126
:100C0000F6B2032E06D1B86A002803D014EB4910BF
:100C10000221017314EB4910F96C416114EB491086
:100C2000396D8161386B00F00AF814EB4911888343
:100C300019F101094745C1D14846BDE8F2830100D9
:100C400000200A78A52A02D1491C401CF9E7800837
:100C500080B2704710B50400206B00F0C9FC200082
:100C600000F0C6FC10BDA64909680968002904D136
:100C7000A6495FF0FF320A6007E0A1490968C96828
:100C8000C96808004168A14A11607047A449096811
:100C90000800704796490968002902D1012108001F
:100CA00008E065490968002902D10221080001E035
:100CB00000210800704738B504002500002C32D010
:100CC000E86A97490968C96A88422CD2A86900284D
:100CD00005D493480068C06AD0F10500A86168692E
:100CE000E96A1422244B02FB0131884217D1281DE6
:100CF00000F0D9F98A490968C96AE962894909682D
:100D0000EA6A914202D2E86A86490860291DE86AC7
:100D10001422194B02FB003000F09CF903E08048DC
:100D20000068C06AE86231BDF47B002038B5040079
:100D30002500002C1FD0E86AE96C88421BD0281DD2
:100D400000F0B1F9E96CE962A969002903D4E86A05
:100D5000D0F10500A86173480068E96A884202D2B0
:100D6000E86A70490860291DE86A1422024B02FBF8
:100D7000003000F06FF931BDF07A002070B586B018
:100D80000400002020705D48006804905B48006803
:100D9000400100F0CBFB0500002D4AD00022049951
:100DA0002800FFF712FC0490002003900398049998
:100DB00088423BD2039815EB4010007B012806D0F7
:100DC00011D3032809D005D3042809D00BE0522001
:100DD00006000AE04220060007E05320060004E077
:100DE0004420060001E000200600039815EB4010A7
:100DF00080680290039815EB4010808B0190039857
:100E000015EB401000690090F6B23300039815EB23
:100E1000401042684449200000F04CFC200000F0E3
:100E200063FC04190398401C0390BFE7280000F0FE
:100E3000DFFB06B070BD0000887C0020602F00083A
:100E40007FB50400002020702C48006803902B48D8
:100E50000068400100F06AFB0500002D42D002AAA4
:100E600003992800FFF7B1FB039002986421B0FBBF
:100E7000F1F002900298002831D0002001900198F2
:100E8000039988422BD2019815EB40108069029992
:100E9000B0FBF1F00600002E0DD00096019815EB86
:100EA00040108369019815EB401042681F492000EB
:100EB00000F000FC0BE0019815EB401083690198ED
:100EC00015EB401042681A49200000F0F3FB2000A7
:100ED00000F00AFC04190198401C0190CFE728009B
:100EE00000F086FB7FBD0000CC7B0020A47C0020AE
:100EF000747C00207C7C0020787C0020687C0020B2
:100F00005C7C0020607C0020807C00205800002059
:100F1000907C00208C7C0020A47B0020B87B0020EB
:100F2000587C0020707C0020E82E0008FC2E000871
:100F30000C2F0008001F5FF080730360001F01602A
:100F4000001F0FF21503036014380260001F7FF0CA
:100F5000020303602038704780B500F0B7FAFEE75F
:100F600080B52C48006850F47F002A490860294861
:100F7000006850F07F402749086000F043F8264899
:100F80000021016000F0C5FA2448006850F040409C
:100F90002249086000F0B2FA002002BD20485FF04C
:100FA00080510160BFF34F8FBFF36F8F704780B5E3
:100FB00000F08CFA18480068401C17490860BFF31D
:100FC0004F8FBFF36F8F01BD80B513480068401E7F
:100FD0001149086010480068002802D1002000F084
:100FE0007CFA01BD10B500F071FA0400FFF73FFB79
:100FF000002803D00A485FF080510160002000F013
:101000006CFA10BD074808490160084807210160D3
:101010007047000020ED00E05400002034EF00E0B5
:1010200004ED00E014E000E03F90020010E000E07A
:1010300010F1080141605FF0FF31816010F108019B
:10104000C16010F1080101610021016070470021B9
:101050000161704742684A6093688B609368596089
:101060009160086103685B1C0360704710B40B68F3
:1010700013F1010F02D10469220008E010F1080405
:10108000220054682468A34201D35268F9E75468E7
:101090004C604C68A1608A60516008610468641CFF
:1010A000046010BC7047010008694A688B6893604F
:1010B0008A684B68536042688A4201D18A684260FC
:1010C00000220A610268521E02600068704710B474
:1010D00050F8041B81B102681218001D50F8043B3F
:1010E000DC0744BFA9F10104E31852F8044B43F8AC
:1010F000044B091FF9D1EBE710BC70471FB5002462
:1011000000F090F9DFF858030068002811D00020A3
:101110000390002002900020019005200090002301
:101120004FF4FA72DFF83C130FF2BD00FFF72CF812
:101130000400200004B010BD2DE9FE4304000D00A2
:1011400016001F00DDF828805FF00009C448006821
:10115000002822D0009501960294062D15DAFFF79B
:1011600099FD022808D10023424600A9BC48006826
:1011700000F036FB814610E00023002200A9B848A9
:10118000006800F02DFB814607E000233A0000A92B
:10119000B348006800F09BFB81464846BDE8FE83EB
:1011A000F8B504000D00B0480068C068C768381D75
:1011B000FFF779FFF969012911D123002A00B869E5
:1011C0000119380000F06FF8012808D100200090C4
:1011D0000023220000213800FFF7AEFF0600380090
:1011E000796A8847F1BD000038B5040000A800F016
:1011F0002FF805000099280000F003F800F07BF8B4
:10120000F4E7F8B504000D00FFF75FF900A800F05F
:1012100036F806000098002817D1002D09D1A64203
:1012200007D3FFF75AF9070031002000FFF7B8FF96
:101230000DE0A11B8A48006800F0CFFCFFF74DF9D4
:10124000002804D1FFF7AAFE01E0FFF746F9F1BD3F
:101250000100854A12681268002A01D1012200E0CB
:101260000022D2B20A600A68002A05D17E4A1268BA
:10127000D2681268100001E000221000704738B5F3
:101280000400FFF797F9050078480068854204D20A
:1012900000F08BF80120206001E0002020607348FE
:1012A0000560280032BD2DE9F04104000D00160054
:1012B0001F005FF0000865602461AE420CD3F01B94
:1012C000A169884202D30120804611E0211D6848AF
:1012D0000068FFF7CBFE0BE0BE4204D2BD4202D352
:1012E0000120804604E0211D5F480068FFF7BEFE34
:1012F0004046BDE8F08170B586B00023002201A908
:101300005748006800F01EFB00284CD001980028C8
:10131000F3D4039804006069002802D0201DFFF771
:10132000C2FE04A8FFF7ABFF0600019800280ED00C
:1013300002280CD00BD3042826D024D3062806D0AC
:101340002CD308281FD002D309281DD02AE0029BE5
:1013500032000298A16909182000FFF7A4FF0128B4
:1013600010D12000616A8847E06901280AD1002075
:10137000009000230298A1690A1800212000FFF7BD
:10138000DBFE0500B9E7B8E70298A0613300320040
:10139000A06981192000FFF786FFAEE7200000F06A
:1013A00027F9AAE7A9E706B070BD2DE9F8432E4852
:1013B0000068006800282AD02B480068C0680068D0
:1013C000040029480068C068C0680700381DFFF79E
:1013D0006AFE81463800796A8847F8690128E6D1B3
:1013E000B86900190500AC4207D27D603F61391D24
:1013F0001D480068FFF73AFED9E70020009000235F
:10140000220000213800FFF797FE8046CFE71648FC
:10141000006806001448164909680160144806600F
:10142000BDE8F18380B5FFF7C2FD0D4800680028D4
:1014300012D11048FFF7FCFD0F48FFF7F9FD0A48ED
:101440000C4901600A480C49016000220C218020EF
:1014500000F09CF902490860FFF7B6FD01BD0000ED
:101460009C7C0020682F0008947C0020A07C002039
:10147000987C0020087C00201C7C0020EFF3098071
:10148000BFF36F8F264B1A681EF0100F08BF20EDB8
:10149000108A20E9F04F106008B44FF0BF0080F3CD
:1014A0001188FFF775F94FF0000080F3118808BC30
:1014B00019680868B0E8F04F1EF0100F08BFB0ECD4
:1014C000108A80F30988BFF36F8F7047EFF31180A4
:1014D0004FF0BF0181F31188704780F31188704786
:1014E0000F4B19680868B0E8F04F80F30988BFF324
:1014F0006F8F4FF0000080F3118870470948006833
:10150000006880F3088862B6BFF34F8FBFF36F8F18
:1015100000DFDFF81400016841F4700101607047DA
:10152000587C002008ED00E088ED00E02DE9F04156
:1015300004005FF00008FEF7C8FF4A480068002872
:1015400004D100F077F8474801210160002C0CD04D
:101550004548008814FA80F414F00700002804D0ED
:1015600014F1080014F00701441A002C3BD047F294
:10157000F870844237D23D4806003C4800680500B8
:101580006868A04205D22868002802D02E002D6885
:10159000F6E73748854226D033480088316840183E
:1015A0008046286830603048008840006968091B20
:1015B000884212D2601907006868001B78606C606E
:1015C0007A681100294A1000026852688A4201D2E2
:1015D0000068F9E702683A600760264800686968B1
:1015E000401A24490860FEF778FF4046BDE8F081C4
:1015F000F8B504002600002C1BD01B480088404290
:1016000086193500FEF761FF69680F001749080069
:1016100001684968B94201D20068F9E701682960A8
:101620000560144800686968081812490860FEF7E8
:1016300054FFF1BD104AD208D20011000B4A1160CC
:101640000A4A002353600A4A47F2F8735360084A73
:1016500000231360080047F2F8724260044A0260F7
:1016600070470000507C0020BA1D0008407C00201C
:10167000487C0020500000206400002070B5040069
:101680000D0016002A003100200000F0CBFA2000E7
:1016900070BD50F8041B61B150F8042BD30744BF50
:1016A000A9F101039A18002342F8043B091FFAD15B
:1016B000EFE770470CB41CB5044604A801900094F1
:1016C00001AB0A4600A907487844183000F0DDFA5B
:1016D000009900220A7000285CBF0098001B16BC0D
:1016E0005DF80CFB3705000000F10103810704D011
:1016F00010F8011B89B18107FAD10268B2F10131FA
:10170000914311F0803F04BF50F8042FF6E710F822
:10171000011B11B110F8011BFBE7C01A704770B52F
:1017200004000D002600FFF742FCF06B316C3268BC
:1017300001FB002070600020B0633068B060F06B87
:10174000401E316C326801FB0020F0605FF0FF301A
:1017500070645FF0FF30B064002D0BD13069002859
:1017600010D016F11000FFF7A9F801280AD1FFF7F1
:1017700015FC07E016F11000FFF75AFC16F12400E3
:10178000FFF756FCFFF720FC012070BD2DE9F84360
:1017900004000D0016005FF00009002C1DD054203D
:1017A000FFF7C4FE0700002F17D005FB04F0401C14
:1017B00080464046FFF7BAFE38603868002809D0F6
:1017C000FC633D6401213800FFF7A9FF87F85060F2
:1017D000B94602E03800FFF70BFF4846BDE8F28348
:1017E0002DE9F44183B004000D001E000027A0463F
:1017F000FFF7DDFBD8F83800D8F83C10884201D359
:10180000022E14D132002900404600F039F9D8F8F0
:101810002400002807D018F12400FFF74FF8012812
:1018200001D1FFF7BBFBFFF7CFFB01204CE0039892
:10183000002803D1FFF7C8FB002045E0002F04D1AA
:1018400000A8FFF774F801200700FFF7BDFBFEF7C3
:101850003CFEFFF7ACFBD8F8440010F1010F02D1B9
:101860000020C8F84400D8F8480010F1010F02D158
:101870000020C8F84800FFF7A7FB03A900A8FFF75E
:101880005EF8002819D1404600F096F900280ED0E5
:10189000039918F11000FEF7D3FF404600F047F916
:1018A000FEF71BFE0028A3D1FFF778FBA0E7404618
:1018B00000F03DF9FEF711FE9AE7404600F037F9D7
:1018C000FEF70BFE0100002004B0BDE8F0812DE919
:1018D000F04704000D0016001F00A246FFF7F6FDBA
:1018E0008146DAF83800DAF83C10884201D3022F3A
:1018F00020D13A002900504600F0C2F8DAF848003A
:1019000010F1010F0ED1DAF8240000280FD01AF1DF
:101910002400FEF7D3FF002809D0002E07D00120B5
:10192000306004E0DAF84800401CCAF848000120A2
:10193000804601E0002080464846FFF7CEFD404645
:10194000BDE8F0872DE9F74304000D001E000027D5
:10195000A146FFF72CFBD9F83800002834D0D9F87D
:101960000C0080462900484600F0CBF8002E19D123
:10197000D9F83800401EC9F83800D9F8000000280E
:1019800003D1FFF783F9C9F80400D9F81000002843
:1019900016D019F11000FEF791FF012810D1FFF7C2
:1019A000FDFA0DE0C9F80C80D9F82400002807D012
:1019B00019F12400FEF782FF002801D0FFF7EEFAAC
:1019C000FFF702FB012059E00298002803D1FFF73E
:1019D000FBFA002052E0002F04D100A8FEF7A7FF79
:1019E00001200700FFF7F0FAFEF76FFDFFF7DFFABF
:1019F000D9F8440010F1010F02D10020C9F84400C9
:101A0000D9F8480010F1010F02D10020C9F84800B0
:101A1000FFF7DAFA02A900A8FEF791FF002826D105
:101A2000484600F0B9F800281BD0D9F8000000287B
:101A300007D1FFF7BCFAD9F80400FFF73CF9FFF72C
:101A4000C3FA029919F12400FEF7FAFE484600F0A5
:101A50006EF8FEF742FD00287FF47BAFFFF79EFA99
:101A600077E7484600F063F8FEF737FD71E7484630
:101A700000F05DF8FEF731FD01000020BDE8FE83B7
:101A800070B504000D001600206C002808D12068F5
:101A9000002832D16068FFF749F9002060602CE02F
:101AA000002E0FD1226C2900A06800F07BF9216C78
:101AB000A2688918A160A168626891421DD320685C
:101AC000A0601AE0226C2900E06800F06BF9216C3C
:101AD0004942E2688918E160E1682268914204D2D3
:101AE000206C404261684018E060022E05D1A06B76
:101AF000002802D0A06B401EA063A06B401CA06316
:101B000070BD38B504000D00206800280ED0206C90
:101B1000E1684018E060E0686168884201D32068AD
:101B2000E060226CE168280000F03CF931BD10B59E
:101B30000400FFF73CFAA06C01280EDB606A002865
:101B40000BD014F12400FEF7B9FE002801D0FEF7F7
:101B500026FFA06C401EA064EDE75FF0FF30A0649C
:101B6000FFF732FAFFF723FA606C01280EDB2069D9
:101B700000280BD014F11000FEF7A0FE002801D0C1
:101B8000FEF70DFF606C401E6064EDE75FF0FF3014
:101B90006064FFF719FA10BD38B50400FFF707FAC3
:101BA000A06B002802D10120050001E00020050003
:101BB000FFF70AFA280032BD38B50400FFF7F7F93D
:101BC000A06BE16B884202D10120050001E00020FA
:101BD0000500FFF7F9F9280032BD70B504000D00CB
:101BE0002600FFF7E4F9706C10F1010F01D100201D
:101BF0007064B06C10F1010F01D10020B064FFF7E8
:101C0000E3F9B06B002804D1290016F12400FEF797
:101C10003DFE3000FFF78BFF70BD0268531C036070
:101C20001170704762F30F2262F31F42401810F0E8
:101C3000030308D0C91A1FD3DB0748BF00F8012DE2
:101C400028BF20F8022D130030B414461546103971
:101C500028BF20E93C00FAD8490728BF20E90C003A
:101C600048BF40F8042D890028BF20F8022D48BF46
:101C700000F8012D30BC7047C91818BF00F8012DBD
:101C8000CB0728BF00F8012D70472DE9F04784B03D
:101C90008146884614461E460DF1000A04E014F8F9
:101CA000011B4046C8478046207810B904B0BDE803
:101CB000F0872528F3D1641C14F8015B252D6FD023
:101CC000582D51D0632D0ED0642D18BF692D10D022
:101CD0006F2D49D0702D4CD0732D50D0752D18BF5D
:101CE000782D41D0E0E73068011D31600168C9B24C
:101CF000D7E73068011D31600768002F03D52D211B
:101D00004046C84780466F2D08BF082105D045F0E2
:101D10002000782814BF0A2110210B203A46642D98
:101D200002D1002F48BF5242431E1846B2FBF1FCBD
:101D300001FB1C223032D2B23A2A24BFA5F1510E47
:101D4000724403F80A2062460AB10128ECDAC0F1B5
:101D50000B0500A947184046002DA4D017F8011B19
:101D6000C8476D1EFAD19EE73068011D31600768D3
:101D7000C9E73068011D316007687825C3E730681E
:101D8000011D316005682846FFF7AEFC0746404656
:101D9000002F88D015F8011BC8477F1EFAD182E7B3
:101DA00025217EE770B504000D00160032002900E1
:101DB000200000F003F8200070BD080062B38B071C
:101DC00008D0521E11F8013B00F8013B00F02480BE
:101DD0008B07F6D1830740F0208000BF103A07D36D
:101DE00030B4B1E83810103AA0E83810F9D230BC5D
:101DF000530724BFB1E80810A0E8081044BF51F809
:101E0000043B40F8043BD20724BF31F8022B20F8F2
:101E1000022B44BF0B7803707047083A07D3B1E830
:101E20000810083A40F8043B40F804CBF7D25307B7
:101E3000E4E7000010B50400DFF83002844208D166
:101E40000121012000F013FA0021012000F00FFA17
:101E5000ADE0B4F1804F08D10121012000F0F8F984
:101E60000021012000F0F4F9A1E0DFF8040284422F
:101E700008D10121022000F0EBF90021022000F03E
:101E8000E7F994E0DFF8EC01844208D10121042055
:101E900000F0DEF90021042000F0DAF987E0DFF835
:101EA000D801844208D10121082000F0D1F9002195
:101EB000082000F0CDF97AE0DFF8C001844208D1B3
:101EC0000121102000F0C4F90021102000F0C0F919
:101ED0006DE0DFF8AC01844208D10121202000F040
:101EE000B7F90021202000F0B3F960E0DFF8940199
:101EF000844208D10121022000F0B9F9002102201A
:101F000000F0B5F953E0DFF8800184420AD10121E5
:101F10005FF4803000F0ABF900215FF4803000F016
:101F2000A6F944E0DFF8640184420AD101215FF49C
:101F3000003000F09CF900215FF4003000F097F9C8
:101F400035E0DFF84C0184420AD101215FF48020A2
:101F500000F08DF900215FF4802000F088F926E080
:101F6000DFF83001844208D10121402000F070F9EF
:101F70000021402000F06CF919E0DFF81C018442D8
:101F800008D10121802000F063F90021802000F0B9
:101F90005FF90CE04148844209D101214FF480707F
:101FA00000F056F900214FF4807000F051F910BD97
:101FB000002203881A002D4B98420ED0314B9842D4
:101FC0000BD0B0F1804F08D0294B984205D0294B57
:101FD000984202D0284B984204D14FF68F731A4092
:101FE0004B881A43254B984207D0254B984204D082
:101FF0004FF6FF431A400B891A4302804B68C362B5
:102000000B880385194B984202D01E4B984201D190
:102010008B7A03860123838270475FF0FF31416032
:102020000021018000210181002141800021817275
:102030007047C9B2002904D0028852F080020280A1
:1020400004E002884FF67F731A4002807047C9B2DD
:10205000002904D0028852F00102028004E00288C4
:102060004FF6FE731A4002807047000000000140E6
:102070000004004000080040000C00400010004038
:1020800000140040000401400040014000440140B1
:102090000048014000180040001C004000200040A3
:1020A000D2B2002A03D083890B43838102E0838963
:1020B0008B438381704730B402000020002300244A
:1020C000158A0D402B0095890D402C009BB2002BEA
:1020D00005D0A4B2002C02D00125280001E0002583
:1020E0002800C0B230BC704789B2CA430282704730
:1020F000F0B4002100220023022400250226DFF88C
:102100008C713F6817F00C0739000F00002F04D0C6
:10211000042F06D0082F08D03CE0DFF87871076064
:102120003BE0DFF87471076037E0DFF864713F6807
:10213000C7F380573D00DFF858713F6817F03F073D
:102140003E00002D0DD0DFF85071B7FBF6F7DFF839
:1021500040C1DCF800C0CCF3881C0CFB07F73B0047
:102160000CE0DFF83071B7FBF6F7DFF824C1DCF8DC
:1021700000C0CCF3881C0CFB07F73B00DFF81071A4
:102180003F68C7F301477F1C7F003C00B3FBF4F7B7
:10219000076002E0DFF8FC700760DFF8F0703F686E
:1021A00017F0F00739000909DFF8F070CF5D3A0049
:1021B0000768D7404760DFF8D4703F6817F4E057EE
:1021C0003900890ADFF8D470CF5D3A004768D740FC
:1021D0008760DFF8B8703F6817F460473900490B33
:1021E000DFF8B870CF5D3A004768D740C760F0BCF1
:1021F0007047C9B2002907D0DFF8A4201268024353
:10220000DFF89C301A6004E0254A12688243244BB0
:102210001A607047C9B2002905D0224A12680243E9
:10222000204B1A6004E01F4A126882431D4B1A605B
:102230007047C9B2002905D01B4A126802431A4BE5
:102240001A6004E0184A12688243174B1A607047FC
:10225000C9B2002905D0154A12680243134B1A600F
:1022600004E0124A12688243104B1A607047C9B2E8
:10227000002905D00E4A126802430D4B1A6004E093
:102280000B4A126882430A4B1A60704708380240B2
:10229000043802400024F40040787D014000002012
:1022A0003038024040380240443802402038024072
:1022B00024380240DFF83C020068C00501D4012048
:1022C00000E000207047DFF830020068800401D48D
:1022D000012000E000207047DFF8180200680005C8
:1022E00001D4012000E000207047DFF810020068F0
:1022F000400701D4012000E000207047DFF8FC0116
:102300000068000701D4012000E000207047DFF8DA
:10231000F0010068000501D4012000E000207047B2
:10232000DFF8E0010068000601D4012000E0002091
:102330007047DFF8C8010068000401D4012000E004
:102340000020704780B5FFF7B5FF002805D0FFF7E4
:10235000BAFF002801D0012000E0002002BD80B5B6
:10236000FFF7A8FF002805D0FFF7ADFF002801D038
:10237000012000E0002002BD80B500F04CF800F024
:1023800001F801BD00B583B001214FF4F270FFF7F1
:1023900030FF00208DF8040000208DF8060000209A
:1023A0008DF8070002208DF805004FF48070009032
:1023B00000A9574800F0CAF84FF40050009000A957
:1023C000544800F0C3F84FF40060009000A9504852
:1023D00000F0BCF80420009000A94F4800F0B6F8C7
:1023E0000820009000A94C4800F0B0F84FF40060BD
:1023F000009000A9494800F0A9F88020009000A9A9
:10240000474800F0A3F84FF40040009000A942486C
:1024100000F09CF807BD3C4900228A723A4900222C
:10242000CA72394900220A7300210800C0B20A2882
:102430001FD2C0B2354911EB001164220A81C0B22B
:10244000324911EB001102220A71C0B22F4911EB7F
:10245000001100228A72C0B22C4911EB0011002237
:10246000CA72C0B2294911EB001100220A73401C44
:10247000DCE7264964220A872449052281F83B20AB
:1024800022496422A1F848202049052281F84B20E6
:102490001E496422A1F858201C49052281F85B20BE
:1024A0001A496422A1F868201849052281F86B2096
:1024B00016491C4A0A6015491B4A0A6113491B4AFE
:1024C0000A6212491A4A0A6310491A4A0A640F49F1
:1024D000194A0A650D49194A0A660C49184A0A67D9
:1024E0000A49184AC1F880200849174AC1F89020C3
:1024F000704700001020024010080240101C0240EB
:102500001014024010180240307C0020507A002045
:102510000020024000080240001C0240001402405B
:1025200000180240B5220008C7220008D92200087E
:10253000EB220008FD2200080F23000821230008D9
:1025400033230008452300085F230008F0B400226D
:102550000023002400252A00102A4AD20125954094
:102560002B000D681D402C009C4240D105680326BD
:102570001700FFB27F00BE40B543056005680E79C5
:102580001700FFB27F00BE40354305600D79012D75
:1025900002D00D79022D1AD1856803261700FFB2EB
:1025A0007F00BE40B543856085684E791700FFB255
:1025B0007F00BE4035438560456801269640B5439F
:1025C000456045688E799640B6B235434560C5682A
:1025D00003261700FFB27F00BE40B543C560C56843
:1025E000CE791700FFB27F00BE403543C560521C54
:1025F000B2E7F0BC7047F0B400230024D2B211F06F
:102600000705EDB2AD0012FA05F52B0089B2CD1029
:1026100010EB850589B2CE1010EB8606366A0F27BF
:1026200011F0070C5FFA8CFC5FEA8C0C17FA0CF7C0
:10263000BE432E6289B2CD1010EB85052D6A1D4375
:102640002C0089B2CD1010EB85052C62F0BC7047D0
:1026500080B500F0A9F800F051F800F0ADF8FDF7F2
:102660000AFFFEE770B50400FDF7A4FF00F2E830B2
:102670000600012000F053F9FDF79CFF301A050019
:1026800006F2E836B5F57A7FF3D82800FDF74CFE60
:10269000EFE738B504006425FDF78CFF00900220B9
:1026A00000F03DF9290000A8FDF706FEF7E710B598
:1026B00004000020FDF756FE032000F030F9F8E793
:1026C00038B504004FF47A75FDF774FF00902B487D
:1026D0000068FDF79DFE2A48FEF750FB284929486F
:1026E00000F058F92648FEF7ABFB2549254800F0D5
:1026F00051F9290000A8FDF7DFFDE8E700B585B036
:102700000020039000200290002001900120009002
:1027100000234FF4FA721C491C48FDF735FD0020D8
:1027200003900020029000200190022000900023DE
:102730004FF4FA7216491748FDF726FD0020039062
:10274000002002900D4801900320009000234FF4D8
:10275000FA7211491148FDF717FD0020039000207F
:102760000290002001900420009000234FF4FA72A0
:102770000B490C48FDF708FD05B000BD547C002056
:102780005C780020382F0008402F000865260008DC
:10279000482F000893260008502F0008AF26000895
:1027A000582F0008C126000880B500F005F9FFF792
:1027B000E3FD00F05BF801BD1FB501210120FFF72B
:1027C00029FD5FF08040FFF735FB01A8FFF725FCEE
:1027D00041F267000400200080B202900020ADF8B2
:1027E00004000020ADF80C000020ADF8060001A99F
:1027F0005FF08040FFF7DCFB01215FF08040FFF7D6
:1028000018FC4FF4407000F02DF91C208DF80000EA
:1028100000208DF8020000208DF8010001208DF8C5
:10282000030000A800F023F9012201215FF080409D
:10283000FFF736FC01215FF08040FFF708FC1FBD69
:1028400080B501215FF08040FFF735FC002809D0FA
:1028500005480068401C0449086001215FF0804081
:10286000FFF742FC01BD0000A47C002000B583B04E
:1028700001214FF49270FFF7BCFC012000F030F80A
:10288000022000F02DF8032000F02AF8042000F0C8
:1028900027F801208DF8040000208DF806000020A4
:1028A0008DF8070003208DF805004FF4806000903C
:1028B00000A92F48FFF74AFE8020009000A92D486C
:1028C000FFF744FE4FF48070009000A92948FFF7FD
:1028D0003DFE0420009000A92748FFF737FE07BD02
:1028E000401EC0B2002804D124494FF480620A80FF
:1028F00014E0C0B2012803D1214980220A800DE0F2
:10290000C0B2022804D11E494FF480720A8005E04B
:10291000C0B2032802D11B4904220A807047C0B20A
:10292000012806D11849096891F48061164A11609E
:102930001DE0C0B2022806D11449096891F0800157
:10294000124A116013E0C0B2032807D10F49096889
:102950004FF4807251400D4A116008E0C0B2042863
:1029600005D10B49096891F00401094A11607047CB
:1029700000200240001402400008024018200240DB
:102980001814024018080240142002401414024097
:10299000140802400EB400B582B003A9009100AB48
:1029A00002460121034878440A30FFF76EF906BC5D
:1029B0005DF810FB1105000000B587B00121012072
:1029C000FFF717FC01211020FFF733FC0722092134
:1029D0002248FFF710FE07220A212048FFF70BFECE
:1029E00000208DF8060001208DF8070002208DF8E8
:1029F00004004FF40070009002208DF8050000A93B
:102A00001648FFF7A3FD02208DF804004FF4806004
:102A1000009000A91148FFF799FD5FF4E1300290A2
:102A20000020ADF80C000020ADF80E000020ADF83D
:102A300010000020ADF814000C20ADF8120002A91F
:102A4000074800F053F80121054800F0CDF8402177
:102A5000034800F0EBF807B000BD00BF00000240E3
:102A6000001001401C4901431C4A11607047F0B43A
:102A7000002300210F22C478002C21D0174C246899
:102A800014F4E064D4F5E064240A2300D3F10404D0
:102A90002100D2B21A4144788C402300847814403B
:102AA00023431B0104780E4D6355047864110D4DCA
:102AB0000126077817F01F07BE4045F8246009E09B
:102AC00004786411084D0126077817F01F07BE40EF
:102AD00045F82460F0BC70470000FA050CED00E0FA
:102AE00000E400E000E100E080E100E02DE9F043D7
:102AF00085B004000D005FF00009002600275FF09C
:102B00000008A8890028208A814639F44059E888BD
:102B100050EA0909A4F81090A0898146314810EACA
:102B20000909A888298908436989084350EA0909DD
:102B3000A4F80C90A08A814639F44079A88950EA1B
:102B40000909A4F8149000A8FFF7D2FA2348844298
:102B500002D02348844202D10398060001E0029883
:102B60000600A089000408D5192000FB06F029689A
:102B70004900B0FBF1F0070007E0192000FB06F068
:102B800029688900B0FBF1F007006420B7FBF0F082
:102B9000000181465FEA1910642101FB1070804634
:102BA000A08900040AD55FEAC80032306421B0FB76
:102BB000F1F010F0070050EA090909E05FEA081097
:102BC00032306421B0FBF1F010F00F0050EA090937
:102BD000A4F8089005B0BDE8F083000000100140A3
:102BE00000140140F3E9FFFFC9B2002904D0828933
:102BF00052F40052828104E082894DF6FF731A403C
:102C000082817047CA05D20D828070470200002081
:102C10004FF4007389B2994213880B4202D001230A
:102C2000180001E000231800C0B2704789B28A057D
:102C300089B2CA430280704780B54848006850F4A2
:102C40007000464908604648006850F00100444959
:102C5000086044480021016041480068424908403A
:102C60003F4908604148424901603D48006830F4EE
:102C700080203B4908603F480021016000F005F8D2
:102C80003D485FF00061016001BD82B0002001900D
:102C9000002000903248006850F4803030490860CD
:102CA0002F48006810F4003000900198401C0190FB
:102CB0000098002803D10198B0F5A04FF0D1284822
:102CC0000068800302D50120009001E00020009000
:102CD000009801283ED12948006850F080502749CB
:102CE00008602748006850F44040254908601D48A6
:102CF0001C49096801601B48006850F400401949EC
:102D000008601848006850F4A05016490860174839
:102D10001C4901601248006850F08070104908603A
:102D20000F4800688001FBD5174840F2057101602B
:102D30000C480068800880000A490860094800685B
:102D400050F00200074908600648006810F00C00C7
:102D50000828F9D102B070470000000088ED00E0BB
:102D60000038024008380240FFFFF6FE04380240F7
:102D7000103000240C38024008ED00E040380240DA
:102D80000070004019544007003C0240704708485A
:102D900000221100C9B22A2909D2C9B20A5C054B26
:102DA0001A80054A12885206FBD5491CF2E7FEE755
:102DB000C42D00080410014000100140FEE7FEE7AA
:102DC000FEE770470D0A456E7465722048617264B3
:102DD0004661756C745F48616E646C65722C20533B
:102DE000797374656D2048616C742E0D0A000000C3
:102DF00010B5084979441C31074C7C441A34A1426F
:102E000006D0081D0A68511888470146A142F8D12A
:102E100010BD00BF300000005000000038B50400B5
:102E20000D002100C9B289B20548FFF7EBFE402131
:102E30000348FFF7EBFE0028F9D0200032BD000068
:102E4000001001404FE8FFFF4C7C00005C000020B8
:102E5000000000007BE2FFFF5C0000005802000061
:102E600000000020000000004EF68851CEF2000164
:102E7000086840F4700008604FF00070E1EE100A3E
:102E80007047000000F009F8002801D0FFF7B0FFFC
:102E90000020FFF7DDFB00F002F80120704700F092
:102EA00001B800000746384600F002F8FBE70000D2
:102EB00080B5C046C046024A11001820ABBEFBE7F1
:102EC0002600020038B504460D46284600F006F8F4
:102ED000A84218BF0024204632BD00000149FFF778
:102EE0009DBF00BF00000020257309092563092547
:102EF000750925750925750D0A0000002573090956
:102F000025750909257525250D0A00002573090970
:102F1000257509093C3125250D0A00000148804727
:102F200001480047392C00082D2F0008C046C04634
:102F3000FFF79AFFFFF7A6FF25730D0A00000000B8
:102F40005461736B203100005461736B20320000B8
:102F50005461736B203300005461736B20340000A4
:102F600049444C4500000000546D722053766300C4
:102F7000FFF7FEBFFFF7FEBFFFF7FEBFFFF7FEBF85
:102F8000FFF7FEBFFFF7FEBFFFF7FEBFFFF7FEBF75
:102F9000FFF7FEBFFFF7FEBFFFF7FEBFFFF7FEBF65
:102FA000FFF7FEBFFFF7FEBFFFF7FEBFFFF7FEBF55
:102FB000FFF7FEBFFFF7FEBFFFF7FEBFFFF7FEBF45
:102FC000FFF7FEBFFFF7FEBFFFF7FEBFFFF7FEBF35
:102FD000FFF7FEBFFFF7FEBFFFF7FEBFFFF7FEBF25
:102FE000FFF7FEBFFFF7FEBFFFF7FEBFFFF7FEBF15
:102FF000FFF7FEBFFFF7FEBFFFF7FEBFFFF7FEBF05
:10300000FFF7FEBFFFF7FEBFFFF7FEBFFFF7FEBFF4
:10301000FFF7FEBFFFF7FEBFFFF7FEBFFFF7FEBFE4
:10302000FFF7FEBFFFF7FEBFFFF7FEBFFFF7FEBFD4
:10303000FFF7FEBFFFF7FEBFFFF7FEBFFFF7FEBFC4
:10304000FFF7FEBFFFF7FEBFFFF7FEBFFFF7FEBFB4
:10305000FFF7FEBFFFF7FEBFFFF7FEBFFFF7FEBFA4
:10306000FFF7FEBFFFF7FEBFFFF7FEBFFFF7FEBF94
:10307000FFF7FEBFFFF7FEBFFFF7FEBFFFF7FEBF84
:10308000FFF7FEBFFFF7FEBFFFF7FEBFFFF7FEBF74
:10309000FFF7FEBFFFF7FEBFFFF7FEBFFFF7FEBF64
:1030A000FFF7FEBFFFF7FEBFFFF7FEBFFFF7FEBF54
:1030B000FFF7FEBF02040101547B0020A47B002027
:1030C000547B0020547B0020547B00203D000020D6
:1030D00024000020000000000000000000000000AC
:1030E00000000000000000000000000000000000E0
:1030F00000000000000000000102030401020304BC
:1031000006070809F8770000AAAAAAAAFFFFFFFF8E
:0400000508002F2D93
:00000001FF
