:020000040800F2
:10000000A0DC0120590200089D7400086561000809
:1000100099740008530B00080995000800000000BF
:100020000000000000000000000000009D0100082A
:10003000BB0D000800000000F1010008F18D000870
:1000400073020008730200087302000873020008BC
:1000500073020008730200087302000873020008AC
:10006000730200087302000873020008730200089C
:10007000730200087302000873020008730200088C
:10008000730200087302000873020008730200087C
:10009000730200087302000873020008730200086C
:1000A000730200087302000873020008730200085C
:1000B00081900008A59000087302000873020008F0
:1000C000730200087302000873020008730200083C
:1000D000730200087302000873020008730200082C
:1000E000730200087302000873020008730200081C
:1000F000730200087302000873020008730200080C
:1001000073020008730200087302000873020008FB
:1001100073020008730200087302000873020008EB
:1001200073020008730200087302000873020008DB
:1001300073020008730200087302000873020008CB
:1001400073020008730200087302000873020008BB
:1001500073020008730200087302000873020008AB
:10016000730200087302000873020008730200089B
:10017000730200087302000873020008730200088B
:100180007302000873020008DFF80CD000F0FAF8E0
:100190000048004731560108A0DC01202B4B1968AC
:1001A0000868B0E8F04F80F30988BFF36F8F4FF015
:1001B000000080F3118870470000000006480068C6
:1001C000006880F3088862B661B6BFF34F8FBFF353
:1001D0006F8F00DF00BF00BF08ED00E0DFF80C000C
:1001E000016841F470010160704700BF88ED00E0D4
:1001F000EFF30980BFF36F8F144B1A681EF0100FD6
:1002000008BF20ED108A20E9F04F106008B44FF0CD
:10021000500080F31188BFF34F8FBFF36F8F16F03C
:1002200021FF4FF0000080F3118808BC19680868AE
:10023000B0E8F04F1EF0100F08BFB0EC108A80F34A
:100240000988BFF36F8F704700BF00007C0000205B
:10025000EFF30580704700000648804706480047D6
:10026000FEE7FEE7FEE7FEE7FEE7FEE7FEE7FEE766
:10027000FEE7FEE7258E00088901000810B5431A45
:10028000934209D28318881803E010F8011D03F87F
:10029000011D521EF9D210BD40EA01039B0703D095
:1002A00009E008C9121F08C0042AFAD203E011F8B5
:1002B000013B00F8013B521EF9D210BDD2B201E061
:1002C00000F8012B491EFBD270470022F6E710B55B
:1002D00013460A4604461946FFF7F0FF204610BDB4
:1002E000421C10F8011B0029FBD1801A70470346FD
:1002F00011F8012B00F8012B002AF9D1184670479C
:100300002DE9F05F0546002092469B46884606464A
:10031000814640241BE0284641464746224600F0DD
:1003200020F853465A46C01A914110D31146184638
:10033000224600F039F82D1A67EB01084F46224695
:100340000120002100F030F817EB00094E41201E7B
:10035000A4F10104DFDC484631462A464346BDE8A5
:10036000F09F202A04DB203A21FA02F00021704796
:1003700021FA02F3D040C2F120029140084319460D
:1003800070470000064C074D06E0E06840F00103AE
:1003900094E8070098471034AC42F6D3FFF7F8FE14
:1003A000B81B0208D81B0208202A04DB203A00FAF6
:1003B00002F1002070479140C2F1200320FA03F3BC
:1003C00019439040704770B58C1810F8015B15F018
:1003D000070301D110F8013B2A1106D110F8012BB7
:1003E00003E010F8016B01F8016B5B1EF9D12B07DC
:1003F00005D40023521E0DD401F8013BFAE710F892
:10040000013BCB1A921C03E013F8015B01F8015B7E
:10041000521EF9D5A142D8D3002070BD1CB50020D2
:1004200000900346034A0A210190034802F016FE99
:100430001CBD000079420108D08001081CB50020D5
:1004400000900346034A0A210190034802F006FE89
:100450001CBD000091440108E88101081CB5002082
:1004600000900346034A0A210190034802F0F6FD7A
:100470001CBD0000A946010800830108002800DC1B
:10048000404270471FB500200423CDE900300290A0
:1004900003464FF4FA7223A10390244817F0C8F9D9
:1004A00000200323CDE90030029003464FF4FA7296
:1004B0001FA10390204817F0BBF900200223CDE9CB
:1004C0000030029003464FF4FA721CA103901C48BE
:1004D00017F0AEF900200123CDE900300290034669
:1004E0004FF4FA7217A10390184817F0A1F90020F1
:1004F0000523CDE90030029003464FF4FA7214A1AF
:100500000390154817F094F900200623CDE9003038
:10051000029003464FF4FA7210A10390124817F0AC
:1005200087F91FBD4E756D6265720000F5630108A5
:10053000546F7563680000004D6701084755490016
:10054000696701085072696E74000000F567010860
:1005500032344C30310000001D6801085443502FE4
:100560005365727665720000096A010810B5044689
:100570002146512007F04AFE10BD2DE9F041054605
:100580000C4616461F46DDF81880E9B2582007F0E1
:100590003DFE2912592007F039FEE1B25A2007F03A
:1005A00035FEB8F1000F04D121125B2007F02EFEBA
:1005B00005E0802040EA24215B2007F027FEF9B205
:1005C0005C2007F023FE39125D2007F01FFEF1B218
:1005D0005E2007F01BFE31125F2007F017FEBDE81A
:1005E000F081000010B5012004490870502007F088
:1005F000CBFD802007F0EAFD10BD00005C0100206B
:1006000010B500BF07F0ACFC00F040004028F9D066
:1006100000200149087010BD5C01002038B5456814
:1006200004460146284608F099FF00282BD0206890
:10063000304A11280DD006DC0B2825D00E2833D0E7
:100640000F2852D112E0282849D0B0F5107F4CD1A4
:1006500008E09268002A16D02146284601B0BDE87D
:1006600030401047214628465268F7E7284602F0F6
:1006700001FB0090406E0468684602F039FB002CD4
:1006800001D02846A04738BD284602F0F3FA009072
:10069000683002F045FA009803216C3002F04EFAFF
:1006A000684602F025FB20E0E168486809680D29EA
:1006B00002D0202913D105E0002810DD284610F0D3
:1006C000BDFB06E0002804DD2846BDE8384010F0F8
:1006D000B5BB2846BDE83840022110F0C5BBE06834
:1006E00018B90021284600F0C9F92046BDE8384075
:1006F00009F07EBB500200202DE9FF410AAF97E8C8
:100700007000002703958DE8D00000F003F804B0D6
:10071000BDE8F081F0B585B00DF1280C9CE8F00043
:100720004FF0000C8DE8F01000F024F805B0F0BD9B
:10073000F0B5044685B08069B4F90850668A002790
:10074000CDE90265CDE900170490B4F90C00B4F9C5
:100750001060C118B4F90A00B4F90E5010443346C1
:100760002A4600F007F80546616800F0A6F905B0D2
:100770002846F0BD2DE9F04F85B01F46DDE911B4E4
:10078000DDE90E5690468946824603F053FB164833
:100790004C34CDE90204CDE900563B464246494679
:1007A000504609F06DFA040018D002F063FA1022E6
:1007B0005946049009F01EF9049830220B49343050
:1007C000FFF75CFD094D04990C3D2868486604A8B4
:1007D00002F08EFA286841682046884704F0CEFB74
:1007E00005B02046BDE8F08F1D0600085C02002021
:1007F000F0B5044680688B4989B051F82050606894
:1008000000287DD0052804D006287AD0122879D176
:10081000AEE0E86900284FD095E80E008DE80F00A3
:1008200004F110010FC905F049F8002655F826001B
:1008300004F009F9A169E8690A1A216901446069AB
:10084000304402F0F9FFA169E8690A1A21690144FC
:10085000E069801B02F0F0FFE169E8690A1A61694A
:1008600001442069304403F09DF8E169E8690A1AFF
:1008700061690144A069801B03F094F8761C022E84
:10088000D4DBA86804F0DFF8E069E9696669431A17
:10089000206942183144801C521E03F007F9E169B7
:1008A000E869A2690B1A61690144101A401C921E82
:1008B00003F0FCF8EE6913E05FF0000655F826003F
:1008C00004F0C1F8E069831BA069821B606981198B
:1008D0002069304403F026F8761C022EEEDB022657
:1008E000D5E90301CDE900016169E06908444310DD
:1008F000A069891C821B2069304402F061FF02E07C
:1009000089E012E08AE0D5E90501CDE90001E3695B
:1009100060690121184401EB6001A0699B1E821BE4
:100920002069304402F04CFF78E0206802F0A2F920
:10093000049020680AF096FD40B1A06808B100203C
:1009400008E00498006F28B1012003E00498406F8C
:1009500000B10220049901EB8000C56E04A802F0EA
:10096000C7F900231A462846216802F0ADFC55E07D
:10097000206802F07FF90490866EEEB3B0F95C70E7
:10098000A168D1B3032942D05FF0000100EB8101DF
:10099000406D0C6C04F06EF8204604F054F805A885
:1009A00003F046F9BDF81410A88B0144ADF81410FB
:1009B000BDF81810081AADF81800BDF81600801C14
:1009C000ADF81600BDF81A00801EADF81A000498A4
:1009D000B0F96020B0F95E1005A803F08DFE04A800
:1009E00002F086F9022004F0CFF8304602F042F916
:1009F0003A4605A9079001E00BE006E002F068FD29
:100A00000DF11C0002F074F908E00121BEE702219B
:100A1000BCE704A8F6E720680AF0D6F909B0002080
:100A2000F0BD000094EF0108044A03491160044935
:100A30004A6A4862104670478C020020500200202B
:100A40005C02002000294FF0100101D008F015BE13
:100A500008F05CBD38B50D4604000ED003F0EAF98D
:100A6000204602F007F900904565684602F040F91B
:100A7000204609F09FFE04F081FA38BD4FF48072E1
:100A80000029114601D008F0F8BD08F03FBD08B5B7
:100A90000023009300F001F808BD70B516460C461F
:100AA000054619463046049A02F0F0FB02462146FC
:100AB0002846BDE8704000F02DB82DE9FF410E46F4
:100AC00005004FF0010421D003F0B4F9284602F0EC
:100AD000D1F80190876E01A8009702F009F931461C
:100AE000684605F0F1F978B100980024B84208D0C2
:100AF000284602F0BFF801900099816601A802F033
:100B0000F7F8284609F056FE04F038FA04B02046FB
:100B1000BDE8F081F8B515460C46060018D003F084
:100B200089F9304602F0A6F80090032C0BD200EBB6
:100B300084006C3001F0F4FF009800EB8400C5667F
:100B4000304609F037FE684602F0D2F804F016FA93
:100B5000F8BD00BFFEE700002DE9FF47044600682E
:100B600010B10AF07FFC68B10022314850F8221021
:100B700060680A2841D007DCF0B306280DD00728AA
:100B800054D106E00122F0E712280AD019284DD1ED
:100B900037E020460BF0F8FD48E020460CF0D2FF8D
:100BA00044E0206802F066F80290B0F9548090F8B2
:100BB0005650476C466B02A802F09AF8206800F085
:100BC00039F88146684609F031FABDF8001009EBA2
:100BD00005000844ADF80000246A304603F04AFFDF
:100BE000022003F0D1FF384603F02DFF424669464C
:100BF000204602F06DFC19E007E020460DF026FBD0
:100C000014E0886904B0BDE8F08720680AF0DCF8D9
:100C1000206802F02FF80390B0F90610B0F9022016
:100C2000891A491CC16703A802F062F80020E9E7AD
:100C3000A4EF010838B5044603F0FCF8204602F0A2
:100C400019F80090C46F684602F052F804F096F963
:100C5000204638BD044A034911600449CA69C86185
:100C600010467047180300201407002018070020C2
:100C700000B589B024216846FFF727FB19200190B1
:100C800003480068806841686846884709B000BD2D
:100C9000140700207CB509F0F7F905460020009004
:100CA0002B46044A15210190034802F0D7F9044667
:100CB00020467CBDD5480108847E010801480068B3
:100CC0007047000064030020F8B50546006801F095
:100CD000D1FF0090448ED0F88860684602F008F892
:100CE00006B1012604F0010428680AF0BBFB0EB12E
:100CF000002006E00CB1012003E008B1022000E072
:100D000003201B4951F82010686858B302280CD002
:100D1000052802D0122828D103E028460BF060FDF8
:100D200023E028460DF0D5FF1FE06A69E8694FF01F
:100D3000FF33801AA0F1080203EB6204421CAB6986
:100D4000001B4510A3EB6206C86903F07CFE06E0B9
:100D50003219311B284602F06FFD641E6D1C002CF9
:100D6000F6DA02E028680AF02FF80020F8BD00004B
:100D7000ACEF0108044A0349116004490A6B086397
:100D800010467047680300205407002058070020D1
:100D900038B50D46002401F06DFF0090C06B294668
:100DA00001F0D6FF0546684601F0A2FF1DB12846B6
:100DB00001F060FF0446204638BD70472DE9F0433E
:100DC00089B0984615460F4606004FF000042CD017
:100DD00000F0EAFB0446304600F0CDFB814603F00C
:100DE00029F803A9304600F082FDF80706D0BDF9C6
:100DF0001C008221001B401B401C08E0B807BDF905
:100E00001800284402D540F2022100E00221009699
:100E1000CDE9018123461A464946FFF76DFC044699
:100E20000021FFF70FFE04F0A9F809B02046BDE845
:100E3000F083000010B50523FFF7C0FF0446054A04
:100E40000021FFF724FE0449204609F07CFE2046DD
:100E500010BD00001DC60008C148010810B50723D9
:100E6000FFF7ACFF0446054A0021FFF710FE0449D6
:100E7000204609F068FE204610BD0000B5C60008F7
:100E8000494C010810B50823FFF798FF0446054AAE
:100E90000021FFF7FCFD0449204609F054FE2046DE
:100EA00010BD0000E5C600087F4C01082DE9F047A1
:100EB000456804468EB00027284601F0DBFE00900E
:100EC000B0F87CA0D0F86890D0F88080D0F8886026
:100ED000C06D00B10768684601F00AFF05E071685F
:100EE00020468847002841D13668002EF7D1206877
:100EF000172852D00CDC0F283BD004DC0B2874D010
:100F00000D283AD189E0112810D0142835D13AE0C3
:100F1000262845D004DC1E284FD020282DD188E07B
:100F20002A2814D0B0F5107F27D127E02846E6689C
:100F300001F0A0FE0190717A39B9317A012904D10A
:100F400030F87C1F41F48071018001A88EE02846B2
:100F500001F090FE0090E16811B1C0F8841002E049
:100F6000D0F88400E060684601F0C2FE0EB0BDE833
:100F7000F087002F7CD02846B84779E021462846E4
:100F800010F00EF8F2E705A9284600F0B0FCE06882
:100F90000699016007994160E8E7C4F80C90E5E71D
:100FA000E0680228E2D10C95E0680D9027200A90B5
:100FB0000AA9A0680AF07EFCD8E7E068012804D0FE
:100FC0000021284600F092FBD0E7404609F04DFC96
:100FD00060B1404609F072FE404609F017FB90B13F
:100FE0000121404608F049FB0DE04BE0484609F07E
:100FF000B9FE8046284601F03DFE0090C0F8808092
:10100000684601F075FE0121284600F06FFBB8F13B
:10101000000FABD10020E060A8E75FEA0A7027D498
:10102000E068C06820B3007A10B3284609F046FE95
:101030001EE0E668E6B1294670680AF0FCF920B1C6
:101040000121284611F00EFE12E00021284611F081
:1010500009FE294630680AF0DDF948B1284601F05A
:1010600009FE03903168C0F8801003A801F040FE2B
:101070002146284608F072FA00288DD0204608F054
:10108000B7FE73E7284601F0F5FD0090703001F0DF
:1010900047FD6846EAE7F0B587B0B0F908400DF1C2
:1010A0000C0C0C9E876945688CE8F000448A00258A
:1010B000CDE900150294B0F90C10B0F91050B0F958
:1010C0000E40B0F90A00194410442B46224600F0A5
:1010D00003F807B0F0BD00002DE9F04F8BB0984643
:1010E000DDE9155691468A468346149F1A9C02F004
:1010F000A1FE3348603445F48055CDE90204CDE9C2
:10110000007543464A465146584608F0B9FD04006A
:101110004FD001F0AFFD30220490179908F06AFC1F
:101120000498282227493430FFF7A8F80498199921
:10113000244F4166A0F87C600026C0F88060C66637
:10114000083FC0F888607968C16504A801F0D0FD47
:1011500005A9204600F0CBFB1B4841F282710396A3
:101160000094CDE90110BDF91E00BDF91A10BDF9BA
:101170001C20431ABDF918005B1C121A521C08F0FF
:101180007FFD06467868416820468847204601F082
:1011900071FD0490866604A801F0AAFD42F20400E5
:1011A000054202D1204608F0C3FE2046189900F0FF
:1011B00024FB03F0E3FE0BB02046BDE8F08F0000F7
:1011C000AD0E00082C040020F51B00082DE9F041AD
:1011D000044694B0006800F0B7F908B1D94D01E0B9
:1011E000D84D2C35606815281ED00CDC0B281FD07C
:1011F00004DC00287ED005287DD12FE10E287BD08D
:101200001228F9D141E1162806D0172808D018284D
:1012100008D01C28F0D109E0E86914B0BDE8F081DD
:10122000286AFAE7686AF8E7A86AF6E76869F4E7FF
:1012300020680B901C200C90206801F01BFD03908F
:10124000016D0BA88847064603A801F051FD022E48
:101250000FDB95E807008DE80700D4E90402334668
:10126000A16904F0F1FA20698719A069A0EB0608CA
:101270002CE0286803F0E7FB2169E8690A18521E90
:10128000606902F0D9FAA269E869111A491C60691B
:1012900002F0D2FAD4E904077F1C394602F01CFBA5
:1012A0003946A06902F018FB686803F0CCFB20699E
:1012B0003946401C02F010FBA0693946401E02F07E
:1012C0000BFBA0692769A0F10208BF1C286803F086
:1012D000BAFB42463946606902F0AEFA686803F02C
:1012E000B2FB606942463946401C02F0A5FA686AC2
:1012F000022802E015E1B0E000E10BDDA86803F090
:10130000A2FB61696A6A881C8B180146424638460E
:101310005B1E27E0296AB14226DD6069022E07467E
:1013200000F1020801DB374401E007F10207206900
:1013300001DB304401E000F1020022693B460A442F
:101340004146A2F1010202F0B1FB022E02DBA069CC
:10135000821B01E0A269921EA069E9693B46401A1E
:101360004146401C02F0A2FB022E02DB60690644EB
:1013700001E06669B61CE76928687F1E03F063FB1D
:101380003A463146206902F00DFB3A463146A069E3
:1013900002F008FBE7696868BF1E03F054FB206990
:1013A0003A463146401C02F0FDFAA0693A46314601
:1013B000401E02F0F7FAE869022802DC286A0228D7
:1013C00023DDA86A022802DDE1690F1A01E0E7695E
:1013D000BF1EA86803F037FBE969022909DD20690F
:1013E0003B46421800F1020C31466046521E02F0A4
:1013F0005DFB286A022808DDA269E8693B46101AED
:101400003146401C921E02F051FB286803F01BFB82
:10141000D4E90620216902F00FFA686803F013FB93
:10142000D4E906202169401E491C521E02F004FA2C
:10143000A86A022811DDA1692669E469A1F1020800
:10144000271AA41EB61C7F1CA86803F0FCFA2346CA
:1014500042463946304602F029FB71E0208A00B24C
:10146000ADF81400A18A09B2ADF81610228B12B2A1
:10147000ADF81820A38B1BB2ADF81A302C69ED68BB
:10148000CDE9005402F09CF95AE0208A298B0844E7
:10149000ADF81400A08AADF81600208B298B401AF5
:1014A000ADF81800A08BADF81A00206801F0E2FB3F
:1014B0000390006FF0B1022003F066FB039890F8F0
:1014C0007C10C1F3C00100EB8100006C03F0BBFA9B
:1014D0000398406B03F0CEFA0398006F01F0CAFB4B
:1014E00003990990B1F95A2005A901F0F1FF09A863
:1014F00001F0FEFB03A801F0FBFB21E0208AADF820
:101500001400A08AADF81600208BADF81800A08B4F
:10151000ADF81A00A86803F096FA05A802F0F2FAEE
:101520000EE0206801F0A6FB039030F85A1F41F04E
:101530000C01018003A801F0DBFB206809F044FCEA
:1015400000206AE66804002038B505004FF000046A
:101550000FD002F06FFC284601F08CFB009090F851
:101560007C00000700D50124684601F0C1FB03F0B0
:1015700005FD204638BD38B505004FF0000411D0F8
:1015800002F058FC284601F075FB0090C06D002168
:1015900080680268284690470446684601F0A8FB28
:1015A00003F0ECFC204638BD30B587B005004FF0A5
:1015B000000413D002F03EFC01A9284600F097F980
:1015C000284601F057FB0090B0F95440684601F0FE
:1015D0008FFB0CB9BDF9044003F0D0FC07B02046E6
:1015E00030BD10B5040008D002F024FC20460FF0F6
:1015F0004FFBBDE8104003F0C1BC10BD10B50400A6
:1016000008D002F017FC20460FF091FBBDE8104017
:1016100003F0B4BC10BD30B504468BB0006801F0D7
:1016200029FB009090F87C10246A006FC1F3C0057C
:1016300008B101F01FFB0690E0680290206903905A
:10164000A088401EADF81000E089ADF81200208996
:10165000401CADF81400608AADF81600BDF8080013
:10166000401CADF80800BDF80A00401CADF80A00A7
:10167000BDF80C00401EADF80C000098406B03F064
:10168000F9F9009808AA02A9B0F95A30069803F0AF
:101690003BFD009800EB8500806B05F07FFC009817
:1016A00000EB8500006C05F0B1FC08AB02AA04A9B0
:1016B000069808F0ABF8684601F01AFB069810B1DE
:1016C00006A801F015FB0BB0002030BD10B50400DA
:1016D0000BD002F0AFFB204611F04CFA204611F07F
:1016E0001DFABDE8104003F049BC10BD70B50D46B1
:1016F000040009D002F09EFB2946204611F0B2FA00
:10170000BDE8704003F03ABC70BDF8B515460C4614
:10171000060012D002F08EFB304601F0ABFA0090CA
:10172000022C05D200EB84008563304609F042F8B4
:10173000684601F0DDFA03F021FCF8BD074A0649CE
:10174000054B1160064A083BD16958601B68C2E925
:1017500006300846704700005C0400202804002082
:101760002C0400202DE9FC410D46804602F062FB6E
:101770005FEA080028D001F07DFA0190C16D8C6805
:1017800000F01CF907460198456301A801F0B0FA82
:1017900022680121404690470646226803214046C0
:1017A000904705462268002140469047044640463F
:1017B00000F0E9F92B46324639464046009400F0E5
:1017C00072F9404608F0F6FF03F0D8FBBDE8FC8153
:1017D00038B50C46054602F02DFB55B1284601F000
:1017E00049FA00900466684601F082FA284608F03B
:1017F000E1FFBDE8384003F0C1BB7CB50D460400F5
:101800001DD002F017FB204601F034FA0090006F63
:101810000190684601F06CFA294601A804F054FBD7
:1018200058B1204601F026FA0090019901676846F8
:1018300001F05EFA204608F0BDFF03F09FFB7CBD7F
:1018400038B50C46050013D002F0F4FA284601F032
:1018500011FA0090B0F95A10A14204D0A0F85A40F1
:10186000284608F0A7FF684601F042FA03F086FB1D
:1018700038BD2DE9FC470D465FEA00094FF0000432
:1018800032D002F0D7FA484601F0F4F90190B0F9ED
:101890005440A54223D000F091F8804601980121E0
:1018A000A0F85450C06D856848462A68904707469E
:1018B0002A6803214846904706462A680021484680
:1018C00090470546484600F05EF933463A464146A1
:1018D0004846009500F0E7F8484608F06BFF01A87D
:1018E00001F006FA03F04AFB2046BDE8FC872DE92B
:1018F000F34F85B000270C46B846059801F0BAF9B9
:101900000090C06D0121856805982A68904782463D
:101910002A6803210598904704902A6802210598B7
:10192000904703902A680021059890470646009842
:1019300009F016FC8346009809F019FC81460098CE
:1019400090F83210890601D5B0F9588000F036F8C9
:1019500005460098C06E10B108F075FC074625805A
:101960006780A4F804A0049AABEB020006EB08021F
:10197000401E2A4420813A44E280039BA9EB0302E3
:10198000521E6281A4F80CA020827019E681401ECC
:101990006082684601F0ACF9B4F90C000190B4F92A
:1019A0001000029002AA01A9059800F039F80198E8
:1019B000A0810298208207B0BDE8F08F10B50146E3
:1019C000002091F83220920607D5B1F95400002882
:1019D00003D1486B02F0D2F9801C10BD70B58AB0FB
:1019E0000C46054601F046F90990C06D866809A8C5
:1019F00001F07EF9009534B1012C06D0022C0BD0F9
:101A0000032C04D10AE0182000E016200190716830
:101A1000684688470AB070BD1520F7E71720F5E73C
:101A20002DE9FC4117468846044601F023F9009051
:101A3000C16D056868468E6801F05AF93268002168
:101A4000204690470646204608F045FB27E000BFA9
:101A500001F010F90190B0F900102AB2B0F9043089
:101A6000891A9A1AB0F90230A3EB2543B34210D178
:101A700090F82800000605D53868884209DB491E21
:101A8000396006E0D8F80000904202DC521CC8F829
:101A9000002001A801F02CF9204608F05FFB0400AB
:101AA000D6D1BDE8FC812DE9FF4F83B00E46074635
:101AB000DDF8409001F0DEF80190C16D8D68FFF710
:101AC0007DFF044601A801F013F92A680121384678
:101AD000904783462A6803213846904782462A6801
:101AE0000021384690470546B44207D105998B45F9
:101AF00004D106998A4501D14D4541D0A41B002649
:101B0000B046384608F0E7FA38E001F0B3F8009044
:101B1000806A010601D5800502E0810528D500060E
:101B2000002825DB24B122461146384608F031FF53
:101B3000009890F8280000060AD50698A5EB09023F
:101B4000A0EB0A0004FB16013846761C08F0D5FE0F
:101B50000098008D80050BD50599A5EB0902ABEB2C
:101B6000010004FB080108F10108384608F0C5FE31
:101B7000684601F0BDF8384608F0F0FA0700C4D115
:101B800007B0BDE8F08F70B586B0064601F072F878
:101B90000590D0E91A4505A801F0AAF854EA050015
:101BA00026D069463046FFF7A2FEACB1BDF906204B
:101BB000BDF90410204608F064FEBDF90A00BDF925
:101BC0000610421ABDF90800BDF90410521C411A52
:101BD0002046491C09F01CF9002D09D0BDF906006A
:101BE000BDF90210421ABDF90410284608F049FE5A
:101BF00006B070BD2DE9F0430446406885B0064646
:101C000008F0B9FA814601F035F80090D0F88080EC
:101C1000876C456E684601F06BF82068172859D02C
:101C200008DC0E2837D00F280BD0142852D01528E6
:101C30003AD14FE01E2818D01F2827D0222833D1B0
:101C400046E06FF07040874204D0384605F0A6F9B0
:101C500001F0B8F9002D12D0D4E902122068CDE9C4
:101C60000106CDE9031201A822E0E068002806D0B1
:101C70005FEA080006D0B04504D009F01FF805B0AF
:101C8000BDE8F083304609F06DF816E0214648467D
:101C900007F064FCF3E7E0684168002904DD0068B0
:101CA0000928EFD00A2805D0A5B12046C4F8049031
:101CB000A847E4E7304609F064F80446484600F0D7
:101CC000D9FF0090C0F88040684601F011F8D6E7CF
:101CD000E760D4E7204608F08BF8D0E751B18200E6
:101CE000A2F1C042126842F001038200A2F1C04298
:101CF000136009E08200A2F1C0421268034B1A404F
:101D00008300A3F1C0431A6070470000FEFF0F007C
:101D100030B50021002200230468A400A4F1C044CF
:101D20002168444C2140D0E901452C43C5682C432F
:101D300005692C4345692C4385692C43C5692C43AF
:101D4000056A2C43456A2C43856A2C43C56A2C439B
:101D5000056B2C4321430468A400A4F1C044216016
:101D60008468082C0BD10468A400A4F1C044246842
:101D700044F040050468A400A4F1C0442560046850
:101D8000641CA400A4F1C044226802F04042446BE9
:101D90002468456B6D6844EA0514456BAD6844EAF8
:101DA0000524456BAD8944EA0544456B2D8A44EA18
:101DB0000554456B2D7D44EA0564456BAD692C43A4
:101DC00022430468641CA400A4F1C0442260C46AD5
:101DD000B4F5804F24D10468A400A4F1C044D4F821
:101DE000043103F04043846B2468856B6D6844EADA
:101DF0000514856BAD6844EA0524856B2D8A44EA99
:101E00000554856B2D7D44EA0564856BAD692C43D3
:101E100023430468A400A4F1C044C4F8043107E0DB
:101E20006FF070450468A400A4F1C044C4F80451E4
:101E300030BD00008000F7FF2DE9F0430446C5687F
:101E400087B090468946002002F008FE064625B17C
:101E5000287910B146F0020001E026F0020002F0FD
:101E6000FDFD2069012558B1D4E902128DE8260054
:101E7000039563882288046841464846A0471EE0CF
:101E8000124F134B214638681B68427CE068984724
:101E900030B9E088012801D0002001E03868806B6B
:101EA000A288E388A1680095CDE90410CDE902324B
:101EB0000195638822884146484604F05BFC07B0E0
:101EC0003046BDE8F04302F0C9BD0000C00100206B
:101ED000B80100201CB50024019401AC009400F06E
:101EE000E7F81CBD2DE9FF4F83B0814606988A466E
:101EF000A0EB0A08109E00200090A2EB09043568B0
:101F0000934654EA080018D02046FEF7B7FA074671
:101F10004046FEF7B3FA87420BDA20464446804635
:101F20004846D14682465846DDF818B00690012052
:101F30000090002C07DD204606E007B04846BDE8CB
:101F4000F04F00F03BB96042A0420AD04846D94663
:101F50006442C8F1000883464FF0FF37DDF818A04F
:101F600000E001275148B8F1000F11D004EBD47103
:101F70004FEA610B01DACBF1000B4C480068807E20
:101F800088B3002F02DA30682044306000257BE0FF
:101F900000990029016821D0897E11B1002780466F
:101FA00015E007B05A4649465046BDE8F04F04F0E8
:101FB00043BD28466D1C10F01DFF38B9D8F800004D
:101FC00009EB0701406E4268504690477F1CA742CC
:101FD000EFDD6D1E356007B0BDE8F08F8A7E1AB167
:101FE0000027804617E019E0486E5A4651460368BC
:101FF00007B04846BDE8F04F184728466D1C10F062
:10200000F9FE38B9D8F8001009EB0700496E4A68A4
:10201000514690477F1CA742EFDDDAE700250FE02D
:1020200008FB05B090FBF4F101EB0A00009951B1F7
:102030001E4A09EB05011268526E526890476D1CEA
:10204000A542EDDDC7E7194909EB05030968496EAB
:102050004A6801461846F1E708FB05B090FBF4F129
:1020600001EB0A00019030683844306010F0C2FE85
:1020700048B9009890B10D4809EB05010068406E21
:102080004268019890476D1CA542E5DD3068002F3D
:1020900001DA20443060C01B30609CE7034909EB43
:1020A00005000968496E4A680199EBE7C001002004
:1020B0002DE9FF470F4640491646804609680C98AF
:1020C0001D460A7E012A1CD0A8EB0600791B50EAA7
:1020D00001031CD0A2F1010911F0A6FF00F58060F8
:1020E000824603F0E0FF00FB09F4504603F0E0FFF6
:1020F00000FB09F1002C0CDAC4F50070801240429C
:102100000AE00090324639464046FFF7EBFEBDE854
:10211000FF8704F50074A012002904DAC1F50071EC
:1021200089124C4202E001F500718C12002804DD96
:10213000411C01EBD171491003E000EBD071491053
:10214000401E00EBD0704210002C04DD601C00EB40
:10215000D070401003E004EBD4704010641E04EB18
:10216000D47308EB0104ADF800403C18ADF8024010
:10217000A8EB02045B10B21AADF80440ADF80820D9
:102180003144FC1AEA1AADF80C102844ADF80A20C4
:10219000ADF80E000023ADF806401A46042168464B
:1021A00000F07AF8394640460CF016FB29463046D6
:1021B0000CF012FBABE70000C0010020064A1368D8
:1021C0001A7E012A05D0521E02EBD272521000F084
:1021D00005B85A6E52681047C00100202DE9F05F23
:1021E0000646884640F2C32002FB00F14FF47A70A5
:1021F00091FBF0F702FB02F102EBD27001EB600BF6
:102200001446B118234A301B7F1C1268526E1368A3
:102210000A4641469847012538E000BF05FB05F016
:1022200004FB040159451CDDBC4219DD194B06EBCA
:10223000050AA6EB05091B68AAF1010208EB0401D7
:102240005B6E09F101001B689847124BAAF101026D
:10225000A8EB04011B6809F101005B6E1B6898473D
:10226000641E0C4B3219301B1B68924608EB0501AB
:102270005B6E81461B689847064B5246A8EB0501EA
:102280001B6848465B6E1B6898476D1CBD42C5DDE8
:10229000BDE8F09FC00100202DE9FF4F43F6FF7419
:1022A0000F46664283B09B46814600210BE000BF8B
:1022B00009EB8100B0F90200A04200DA0446B04206
:1022C00000DD0646491CB942F2DB674800684069F8
:1022D00000280DD0B0F906101A46A1EB0B01B1424F
:1022E00000DA0E46B0F90200801AA04200DD044672
:1022F000B4E0DFF878A100200546CAF8000088E0C5
:10230000781E854201DA6B1C00E0002309EB850C86
:1023100009EB8302BCF90200B2F90210A04244D1D9
:10232000A14215D139F92330059A39F9251003EB6B
:10233000020C4D4A05981268084404EB0B01526EDA
:102340006045136801DA62462AE00246604627E0EB
:102350002846A4464FF000087A1E0BE008B1401E44
:1023600000E0781E09EB8003B3F90230634504D125
:1023700008F101089045F1DB2346A34248D01A1B1F
:1023800039F92500A1EB040C059B92EA0C0F09D446
:10239000354A184404EB0B011268526E136802466A
:1023A000984735E009F0CCFB32E0A14230D001DBA8
:1023B000A04203DDA0422BDBA14229DCE04688429B
:1023C0000ADC0346A04223DC0846A14220DBB8F920
:1023D00000C0B2F9001008E00B46A14218DCA04290
:1023E00016DBB2F900C0B8F90010E21AA1EB0C013B
:1023F00051430029A0EB030202DD01EB620102E080
:10240000A1EB6201491CC01A91FBF0F06044C9E7DE
:102410006D1CBD42FFF674AF0598009004EB0B00F5
:10242000019000208046054613E01149B8F1000FE5
:1024300031F915A009D0009901EB0A0208440A49B4
:102440000968496E0B680199984788F00108504661
:102450006D1C064909688D42E7DB641CB4427FF7B6
:1024600048AF07B0BDE8F08FC00100207808002019
:102470006CD8012010B5002002F0DAFA6FF07F402E
:1024800002F0E1FA012002F061FB002002F06CFB97
:10249000002002F079FB002002F0E0FA0448006816
:1024A00002F0E8FABDE81040002002F021BB000075
:1024B000BC010020F0B50A4600210023002400BF23
:1024C0003DE0012505FA01F3156805EA03049C4285
:1024D00034D105684F000326BE40B5430560157929
:1024E0004E00B5400668354305601579012D02D0D0
:1024F0001579022D16D185684F000326BE40B543DD
:10250000856055794E00B5408668354385604568DD
:1025100001268E40B5434560456896798E40B6B237
:1025200035434560C5684F000326BE40B543C560CE
:10253000D5794E00B540C6683543C560491C1029A1
:10254000BFD3F0BDF0B5002300244D07ED0E02FA15
:1025500005F3CE1000F1200555F826504E07F70E72
:102560000F26BE40B543CF1000F1200646F8275095
:10257000CE1000F1200555F8265045EA0304CE1090
:1025800000F1200545F82640F0BD02460020136901
:102590000B400BB1012000E00020704741837047E1
:1025A0000183704710B50020054948706A2205492B
:1025B00040F2A26000F08CF801200149087010BDC3
:1025C000BC920020E00000201CB50122694640F2C8
:1025D000217000F04BF89DF8000000F0010050B9A8
:1025E0004FF0FF301C490860486000200872084620
:1025F00002F0C0F81CBD05220DF1010140F222706D
:1026000000F034F89DF80000144988709DF801002E
:10261000C8709DF803009DF8021000EB01200F49DF
:1026200088809DF805009DF8041000EB01200B49FF
:10263000C8800B480068084908600A48006848607C
:10264000094800780872084602F094F8002006490C
:10265000086000BFCEE7000070930020BC9200200D
:1026600004000020080000200C0000202DE9F041AB
:1026700005460E46174612F093FFBA2012F068FF87
:1026800012F0B8FF281212F063FF12F0B3FFE8B2A5
:1026900012F05EFF12F0AEFF12F082FFBB2012F0CC
:1026A00057FF12F0A7FF002406E012F02FFF30556D
:1026B00012F0DCFE601CC4B2781EA042F5DC12F001
:1026C00025FF305512F00EFF12F082FFBDE8F081B9
:1026D0002DE9F04104460E46174612F061FFBA207C
:1026E00012F036FF12F086FF201212F031FF12F0C6
:1026F00081FFE0B212F02CFF12F07CFF002506E013
:10270000705D12F025FF12F075FF681CC5B2BD4266
:10271000F6DB12F05DFFBDE8F08100002DE9F04F1F
:10272000DFF828B191B04FF0FF35DBF80030B3F996
:1027300022100691DE69B3F92490F469A1898142DF
:1027400006D8E289824203D3471AD4F8008012E007
:10275000D4E9018100296FD00A8882426CD84D8863
:10276000854269D3801A82B2486800EB8200B0F9D2
:102770000070B0F90250781C5ED0307EA17C10FB56
:1027800001FA217CCDE90701B3F92A60304604F053
:102790004FFCC0B20E90DBF8000007FB0A81A37C5F
:1027A000826B0127CDE90412CDE90273C069089A52
:1027B000C17E807ECDE90001DDE90603494603F0D4
:1027C000D9FF681C18D046F0020004F031FCDBF899
:1027D0000000A37C05FB0A81826BCDE90273CDE981
:1027E0000412C069089AC17E807ECDE90001DDE94E
:1027F0000603494603F0BEFFDBF800005D46C069F2
:10280000417E007E814214D9022E12D086F004004F
:1028100004F00EFC2868C069027EC37E12FB03919F
:10282000437E857E089A06984B4412FB050204F00D
:1028300069F90E9804F0FCFBDBF80000627C418C27
:102840001144418411B0BDE8F08F0000C0010020A8
:1028500004480068C069C06909B1027C0A60407C14
:1028600070470000C0010020022008807047C06946
:1028700082898A4202D8C2898A4210D2806880B195
:1028800002888A420DD843888B420AD3406800EB05
:102890008100A0EB8200B0F90000002801DB0120DC
:1028A00070470020704700002DE9F043304C03468C
:1028B00087B020681946B0F92A60C069C06900F085
:1028C00086F8002850D041680088181A01EBC0052E
:1028D0003046AF7804F0ACFB814620686A6801237B
:1028E000816BCDE90237CDE90421C169CB7E8A7EB7
:1028F000CDE900230B7EB0F924102A78B0F922002C
:1029000003F038FF2068C069417E027E91421FD9E2
:10291000C07E11FB00F812FB00F7022E18D001F068
:102920008CF9064601F052F902F08DF821682A78F8
:10293000CB69B1F92200DB7E12FB0302B1F924104E
:1029400001EB0803394404F0DDF8304602F07BF86F
:10295000484604F06DFB20686A78C369B0F922101C
:102960009B7E12FB0311418407B0BDE8F083000099
:10297000C001002030B50F4C05460B4620682946A3
:10298000C069C06900F023F8002812D041680088AF
:1029900024682A1A0120E46900EBC200085CA47EC6
:1029A00010FB04F0002B04D011F8321011FB04F1DD
:1029B000196030BDC001002001200880704700B5BB
:1029C000C06900F004F8002800D0012000BD06E036
:1029D00002888A4202D842888A4202D2806800284D
:1029E000F6D1704770B500250F4C19E020690F49EA
:1029F000C5EB051600EBC60070220968001DFDF747
:102A00003DFC2069002140F8361000EBC60000F1C3
:102A10000C018161011D0A1DC0E90F126D1C41648A
:102A2000A0688542E2DB70BDD0060020C001002016
:102A300070B50E490C480860084603F03DFA0B4C8F
:102A4000143CA068C0EB0010C500284600F084F8D4
:102A50002A460021206103F0A8FA4FF0FF302060E1
:102A6000BDE8704002F0C8BA510F0108E40600202A
:102A700010B5040009D001F0DDF9204609F0B8F8DE
:102A8000044602F07BFA204610BD002010BD38B588
:102A9000054601F0CFF92846FFF7EAFF040009D008
:102AA00000F0E8F82A460021009003F07EFA68461C
:102AB00000F01EF902F062FA204638BD024A1060AA
:102AC00021F0030050607047B8D6012010B5040013
:102AD00016D001F0AFF90B48006B10F8341059B163
:102AE000022909D2042101EBC4014158486809F0C8
:102AF00043F820460FF058FFBDE8104002F03EBA00
:102B000010BD0000FCD50120002805D0034A916BC0
:102B1000016001B14860906370470000FCD501205E
:102B200010B5044601F086F92068FFF7CFFF0020BA
:102B30002060BDE8104002F021BA000070B50D46DB
:102B40000646002405E000BF06EB8400FFF7E8FF1F
:102B5000641CAC42F8DB70BD2DE9F04104460DF079
:102B6000D5FF2848E41C24F00305C16B2D1DA942A4
:102B700000D90D46846B13E054F8042CAA420ED100
:102B800084B1216809B162684A60616809B122684C
:102B90000A60826BA24231D1216881632EE02468F1
:102BA000002CE9D18046416B80680F1857F8040C5F
:102BB0003E1A306838B100200FF060FF57F8040C5F
:102BC0003E1A3068D0B97068A84217DB3044441B05
:102BD0003046241D0FF00AFFD8F80810491BC8F82A
:102BE0000810D8F810102944C8F810107068401B5D
:102BF00002D0314608F0C0FF44F8045C2046BDE82E
:102C0000F0810000FCD5012010B500240DF07EFFFE
:102C10000C490F2001EBC002126C1AB101EBC0008D
:102C2000006C08E0401EF5D508E04168A14200D9DB
:102C30000C46806810B180680028F6D1A4F10C0021
:102C400010BD0000FCD50120002138B10449042248
:102C500002EBC000096B085841680C390846704700
:102C6000FCD5012002484169491C416170470000C0
:102C7000FCD5012005498A69521C8A61096B01EB68
:102C8000C0010A78521C0A7000F04AB8FCD5012035
:102C900010B501F0CFF8FFF7B7FF64220849B0F58F
:102CA000800F04D990FBF2F4C869444303E0C9697A
:102CB0004143B1FBF2F402F061F9204610BD00007F
:102CC000FCD501200549102805D94A68B0EB520F00
:102CD00002D3500800E0102088607047B8D6012069
:102CE00002484169491E416170470000FCD501203E
:102CF0000A4902680B6B52F8082C03EBC2021378E6
:102D0000022B03D38B690BB15B1E8B611178491EBB
:102D1000117000210160084670470000FCD50120B9
:102D2000002806D00349042202EBC000096B0858B2
:102D300008307047FCD5012038B5002430B1FFF7CA
:102D400099FF009004886846FFF7D2FF204638BDFF
:102D500038B50D46002448B1FFF78CFF2946009096
:102D600000F016F804466846FFF7C2FF204638BD5B
:102D700038B50D46002448B1FFF77CFF2946009086
:102D800000F018F804466846FFF7B2FF204638BD49
:102D900038B50D4601880024A94209D9406838B1E8
:102DA000FFF768FF009050F825406846FFF7A0FF46
:102DB000204638BD10B50024FFF7EAFF10B1FFF739
:102DC00059FF0446204610BD10B5136808290DD8D8
:102DD0005C18146000222270054A04E000F00F0421
:102DE0000009145D5C54491EC9B2F7D210BD000041
:102DF000741A02082DE9FC5F8946044601F01AF8AE
:102E0000484600F027FF2C4E09EB8907824656F80A
:102E10002700019029484FF00108016841B927496E
:102E2000C0F80080091D26480860084603F044F8F1
:102E3000214A09EB89015FEA0A0002EB81051BD0F8
:102E400001F0DEFD83464FF07F4001F0F1FD00F020
:102E5000B9F800221146206800F0F4FB206842888F
:102E60000188504601F026FE46F8274085F8058087
:102E7000584601F0C5FD17E046F8274085F8058063
:102E80002869464618B101F0F1FC0020286174B1B0
:102E90000096E868A1684B46421AA8686168411A22
:102EA000206801F03DFD2861484610F05BFA02F011
:102EB00065F80198BDE8FC9F34D70120000200208E
:102EC000050F010870B514460D46064600F0B2FF26
:102ED000204600F0BFFE0300174804EB840109D030
:102EE00050F8210041688068711A2A1A184601F0CA
:102EF000D1FD1CE000EB8104A268B24201D00122A6
:102F000000E00022E368AB4201D0012300E000238F
:102F10001A430CD0236943B150F8210081684068FE
:102F20006A1A311A184601F0C6FCC4E90265BDE808
:102F3000704002F023B8000034D701200248006836
:102F4000407C00F003B80000C001002010B504462A
:102F500000F070FF0A4804EB840100EB81030122BA
:102F60005A7150F8210030B1204610F0FBF9BDE84D
:102F7000104002F003B821460248FFF73BFFF6E796
:102F800034D7012038F2010810B5C2B2CBB2D21A40
:102F900000D5524293B25B43C0F30722C1F307242A
:102FA000121B00D55242000C92B2A0EB114002FB62
:102FB000023200B2002801DA404200B280B200FBC7
:102FC000002010BD10B50021084600F0EDFE43F6CC
:102FD000FF725042BDE8104013460146AFF3008037
:102FE0002DE9FC411C4615460E46074600F022FF1F
:102FF000042004F01DF880461248C068C16C006DC2
:103000000F4406440D440444ADF80070ADF804507C
:10301000ADF80260ADF80640684608F0AFF807E08A
:1030200023462A463146384603F06CFD08F05AF82C
:103030000028F5D1404603F0FBFF01F09FFFBDE8FB
:10304000FC810000B4010020B0F90630B0F9042082
:10305000B0F90210B0F90000FFF7C2BF2DE9F84344
:103060001C00DDE9089816460F46054602D107F018
:103070000BF8044600962E6843464A4621462846E9
:10308000B047060039D006F0F4FF8146698A304621
:1030900006F0F3FA304607F0EFFE484607F0ECFE84
:1030A0004FF000080CE000BFCDF8008055F81CCFB1
:1030B00000231A4649462846E04700B307F0DCFEE5
:1030C0007F1E002FF0DC1D21484607F01CFD601C10
:1030D00012D000F0AFFE07F00BF830B1FFF720FE82
:1030E0008469B44201D02000F8D1B44202D0304605
:1030F00007F038FE01F042FF3046BDE8F883304665
:1031000006F0AEFE0020F8E72DE9F0411C46164619
:103110000D460746022B02DB0020BDE8F0811C2093
:10312000FFF71AFD0028F8D00DB105610AE0094A41
:1031300052F8241009B905E011460A68002AFBD1AB
:103140000969016184618682002101604160C0E9F2
:103150000217E2E7D801002070B51D46FFF7D4FF43
:10316000040009D000F00EF8E068006820B90348B8
:10317000006800EB85008465204670BDC00100201A
:10318000FFF7C2BC70B590B38269022A30DA1E4CD8
:1031900054F8221019B944F8220032E019464B685D
:1031A000002BFBD106E0CB68C5681B682D68AB42DD
:1031B00003DD09680029F6D11AE0C1B1CB68C66801
:1031C0001B683668B3420CD1838A012B05D008E016
:1031D0001946DB681B68AB4203DB0B68002BF7D199
:1031E00029B14B6833B118604A68426004E0FFE7D8
:1031F000012070BD44F822004860884200D10021BF
:103200000160002070BD0000D801002010B503E06F
:103210000468FFF7B7FF20460028F9D110BD10F071
:1032200083BA00002DE9F0410026DFF834800D4F0D
:10323000354600BF58F8254009E0E0680068385C72
:1032400020B1204610F070FA266026462468002C33
:10325000F3D16D1C022DEDDB3046BDE8F08100009E
:10326000D8010020CC850108022801DB002070472E
:10327000054951F8200004E0C16809680029F6D02A
:1032800000680028F8D17047D8010020F8B507463B
:1032900015460E460C20FFF7FAFB04000FD000F095
:1032A000C9FD2046FFF7E6FC06490090C0E900177B
:1032B000068145816846FFF71BFD01F05FFE204651
:1032C000F8BD00006C1902082DE9F8431D461646AA
:1032D000884604000CD0FFF7CDFC0090006807681A
:1032E0006846FFF705FD2B46324641462046B84763
:1032F000BDE8F88338B504004FF000000AD020463E
:10330000FFF7B8FC0090006845686846FFF7F0FCDE
:103310002046A84738BD38B504004FF000000AD059
:103320002046FFF7A7FC0090006885686846FFF715
:10333000DFFC2046A84738BD2DE9F041044601F0E6
:1033400055FE06191EE000BF00F096FB052F00DDBC
:10335000052700F06FFD11480568FFF783FC2C007E
:1033600017D000BF01F00AFE641EFBD1384601F001
:1033700031FE1DB100F05EFD6D1EFBD1FFF7B0FC0C
:1033800001F0FCFD01F032FE371A002FDCDCBDE855
:10339000F081384601F01EFEF0E70000DC06002058
:1033A0002DE9FC4706005FD000F044FD00F06AFC08
:1033B0003C4C81462068B0F9228000F0C1FC2168B5
:1033C00007468A8CD01B888441E000BF47F6FF7116
:1033D000304602F007FC82460146304602F0D8FB38
:1033E0002168054691F82C0000F00300012841D027
:1033F00002283BD000204A8C101A4884ADF8000007
:103400006A1E1044ADF80400888CADF80200A9F1E2
:1034100001010844ADF806006A465146304602F004
:1034200023F82168BDF8020088845146304601F037
:1034300093FC064430780A281ED00D281CD0BDF815
:103440000000216828444884307818B1761C307810
:103450000028BBD12068818C39448184818D21F082
:103460000301818501F08AFDBDE8FC8705EBD5707D
:103470004010C0E72846BEE7206890F82C1001F005
:10348000030101290BD0022909D0018C4184317834
:103490000A29D9D1828C02EB09018184D4E7A0F8F2
:1034A0002280F4E7C001002070B514460D460646A0
:1034B00000F0C0FC05480068458484843046FFF76E
:1034C0006FFFBDE8704001F059BD0000C001002051
:1034D00047F6FF73AFF300802DE9FC411F4690468D
:1034E0000D4606004FF000041AD000F0A3FC65B1B1
:1034F000284607F0B1FC040007D00246294668467A
:1035000002F0DDFB684607F0A7FC3B464246294631
:10351000304602F001F8204607F09EFC01F02EFD37
:10352000BDE8FC812DE9FF4F87B090468946070032
:103530007DD000F07FFCD9F80040D9F8045021B2CA
:1035400028B2401A401C029000F09CFB064618F07E
:103550000C0F1ED038460A9A029901F019FD08F0A6
:103560000C01042904D0082902D00C2911D104E04F
:10357000291400FB1610401C09E02114C1EB254260
:1035800000FB1620401C00EBD07001EB600060F3E4
:103590001F44484607F060FC5FEA000B09D0024672
:1035A000494604A8CDE9044502F089FB04A807F0C8
:1035B00053FCA6F1010A38460A9A029902F0C4FCAB
:1035C00003900AEB244060F31F45CDE900453846DF
:1035D000039902F0DDFA18F003010ED001292CD076
:1035E00002290ED1B9F90420B9F90010521A101AA3
:1035F00000EBD07001EB600001E0B9F80000ADF81D
:1036000000006A463846039901F02EFF38460A9AB0
:10361000029902F08FFC074406EB244060F31F443C
:1036200038780028C7D1584607F016FC00E001E0C2
:1036300001F0A4FC0BB0BDE8F08FB9F80410081A33
:10364000401CDCE77CB514460D46064600F0F2FB54
:1036500011480068C16C006D0D4404443188681E37
:103660000844ADF80400ADF800507188601E0844AD
:10367000ADF80600ADF80240684607F07FFD06E0B1
:10368000224629463046FEF7D7FB07F02BFD0028DF
:10369000F6D101F073FC7CBDC00100201CB50A46C8
:1036A0000146684602F0FAFB00F0C4FB2548BDF86D
:1036B0000010006830F84C2F1144ADF80010BDF830
:1036C000021082881144ADF80210BDF8041002887F
:1036D0001144ADF80410BDF8061080880844ADF818
:1036E0000600684607F04AFD27E000BFBDF900402C
:1036F0000BE000BFBDF90210204603F069F9BDF9E7
:103700000610204603F064F9A41CBDF90400A04291
:10371000F0DABDF902400AE0BDF90000214603F0ED
:1037200057F9BDF90400214603F052F9A41CBDF974
:103730000600A042F0DA07F0D5FC0028D6D101F04F
:103740001DFC1CBDC00100202DE9F04F87B09B4639
:10375000DDE9109892460C46054600F06BFB1648D2
:103760000168C86C096D47190E1900EB0A0501EBD9
:103770000B04ADF81070ADF81450ADF81260ADF850
:10378000164004A807F0FAFC88B1DFF830B04FF01B
:10379000000ACDE90098CDE902BA2B462246394607
:1037A00030460AF037FE07F09DFC0028F1D101F009
:1037B000E5FB07B0BDE8F08FC0010020396A0008C2
:1037C0002DE9F04F87B09B46DDE9109892460C46F4
:1037D000054600F02FFB16480168C86C096D4719B3
:1037E0000E1900EB0A0501EB0B04ADF81070ADF8F3
:1037F0001450ADF81260ADF8164004A807F0BEFCF6
:1038000088B1DFF830B04FF0010ACDE90098CDE97A
:1038100002BA23462A46314638460AF0FBFD07F035
:1038200061FC0028F1D101F0A9FB07B0BDE8F08FE1
:10383000C0010020796900082DE9FC4114460D46BD
:10384000064600F0F7FA114F3968C86C096D054457
:1038500004440E44ADF80050ADF80440ADF80260E9
:10386000ADF80660684607F089FC08E03868224633
:103870003146406E03682846984707F033FC00281D
:10388000F4D101F07BFBBDE8FC810000C001002009
:103890002DE9F0411C4615460E46074600F0CAFACF
:1038A0000C480168C86C096D074405440E440C447B
:1038B000002007F063FC07E023462A4631463846DD
:1038C000FEF708FB07F00EFC0028F5D1BDE8F0413B
:1038D00001F054BBC00100207CB50C46064600F048
:1038E000A9FA0F4D2868C16C006D0E440444ADF870
:1038F0000460ADF80060ADF80640ADF802406846DF
:1039000007F03CFC07E028682146406E42683046DC
:10391000904707F0E7FB0028F5D101F02FFB7CBDB5
:10392000C00100202DE9FC411C4616460D46074605
:1039300000F080FA1A480168087ECA6C096D1744C5
:103940000D440C44401E391A1644ADF800103118CD
:10395000ADF80410291A2044ADF80600ADF80210A5
:10396000684607F00BFC15E032462946384603F05E
:1039700003F832462146384602F0FEFF621E691CFB
:10398000384603F059F8621E691C304603F054F8BB
:1039900007F0A8FB0028E7D101F0F0FABDE8FC81B0
:1039A000C00100207CB514460D46064600F042FAE0
:1039B0000F480068C16C006D0E4405440444ADF826
:1039C0000060ADF80460ADF80250ADF806406846FE
:1039D00007F0D4FB06E022462946304603F02CF8D7
:1039E00007F080FB0028F6D101F0C8FA7CBD00008A
:1039F000C001002070B50C46054600F035F910B145
:103A00000121C0E9001400F015FA284607F0ECFA8D
:103A1000BDE8704001F0B2BA10B5044601F0E0FA1A
:103A200004490968002903D02046BDE81040084732
:103A300010BD0000B806002030B59DB00D4604460C
:103A4000CDF870D06F220021684602F0AEFA6422F1
:103A50002146684608F06EFB6846FCF741FC1C995D
:103A60001CAA08441C900821284601F021FB684646
:103A7000FFF7D2FF1DB030BD10B5002400E00124D7
:103A800000F004F80028FAD1204610BD064810B511
:103A90000068002410B1804700B1012406F05AFAF2
:103AA00000B10124204610BDE00100202DE9FC41B9
:103AB0001C4615460E46074600F0BCF91048006843
:103AC000C16C006D0F4406440D440444ADF8007011
:103AD000ADF80450ADF80260ADF80640684607F056
:103AE0004DFB07E023462A463146384603F00AF8E4
:103AF00007F0F8FA0028F5D101F040FABDE8FC81A2
:103B0000C0010020B0F90630B0F90420B0F902106D
:103B1000B0F90000FFF7CABF08B50B46002805D072
:103B2000009281888268C08800F001F808BD10B555
:103B30000828029C30D008DC04FB01F401280AD0DC
:103B4000022813D0042804D11CE0102828D02028F3
:103B50002CD0002010BD04EBD30003F00701105C53
:103B6000C1F10701C84000F0010010BD04EB930053
:103B70000621105C01EA4301C1F10601C84000F0D2
:103B8000030010BD04EB5300D907105C02D000F015
:103B90000F0010BD000910BD04FB0130105C10BD0A
:103BA000481004FB003032F8100010BD881004FBF0
:103BB000003052F8200010BD034951F82000C168C0
:103BC0008A6A082110470000D801002010B500F0D3
:103BD00031F902F0C7FF03F065F8044601F0CEF9B1
:103BE000204610BD10B5044600F024F90548002118
:103BF0000068C069426820469047044601F0BEF95B
:103C0000204610BDC001002070B50C46054600F0EE
:103C100011F9064821460068C06942682846904765
:103C2000044601F0ABF9204670BD0000C001002041
:103C3000002801D006F0FAB9704710B500F0FAF884
:103C400002F098FF03F02EF8044601F097F92046A1
:103C500010BD00000021022802D2024951F82010B4
:103C600008467047C80600201FB500210191029147
:103C700003912A210091694606F036FF039804B0AB
:103C800010BD000010B500F0D5F804480068C06908
:103C9000447E01F073F9204610BD0000C0010020F1
:103CA00070B50D46044600F0C5F814B9094800681F
:103CB000C469294694F82000A87094F8220028715D
:103CC00094F82100E870A26820469047BDE8704053
:103CD00001F054B9C001002010B500F0ABF801F0BC
:103CE0004DFF044601F04AF9204610BD70B5144658
:103CF0000D46064600F09EF822462946304602F060
:103D000073FF10B1002028602060BDE8704001F012
:103D100035B970B50C46054600F08CF821462846AA
:103D200001F08AFFBDE8704001F028B910B50446E3
:103D300001F074FF01462046BDE8104001F028BFA5
:103D400010B5002400F076F80B48006890F82C10AD
:103D500001F00C01042904D0082906D00C2907D150
:103D600003E0C069047E641E02E0C069007E44086E
:103D700001F004F9204610BDC0010020017EC07E84
:103D800011FB00F070470000024951F82000006963
:103D900000687047D8010020024951F820000069EE
:103DA00040687047D801002070B50D46044600F009
:103DB00041F820460CF0DEFD044628460CF0E2FDFA
:103DC000044301F0DBF8204670BD0000134810B535
:103DD000016821F001010160114801218160114950
:103DE000016000681049884200D0FEE701F020FB26
:103DF0000E492E20087001F0FDF80D480CF038FE39
:103E000011F0EEFA04460021084600F07FFE06F0AD
:103E100027FCFEF7E7FD204610BD0000002000E073
:103E200000300240C2A507F4CDB5E8B5B4010020CA
:103E3000C4D6012070B5214CE06820B101F0D2F861
:103E40006168884204D001F017F901F0CBF8606096
:103E5000E068401CE06001282AD100250BE000BF8B
:103E600001F0C0F82269C5EB051152F8311081420A
:103E700005D0F1B16D1CA0688542F1DB00252068FA
:103E8000854215D0002812DBFFF7CCF92168C1EB81
:103E90000112216901EBC2025067C5EB0510084A07
:103EA00001EBC000011D1160406FFFF7AFF9256005
:103EB00070BDC5EB051142F83100E0E7D0060020E7
:103EC000C00100201CB5040004D10E480068046E37
:103ED000002C16D0FFF7AEFF2046FEF7CBFE009079
:103EE00044696846FEF704FF4CB12046FEF7C2FE67
:103EF000019081688968884701A8FEF7F9FE01F002
:103F00003DF81CBDC001002001490A4600F002B87E
:103F100001F0FFFF2DE9F04387B015460C465FEA3C
:103F2000000846D0FFF786FF002000F097FD81468D
:103F300021480068066E4046FEF79CFE009000682F
:103F4000806900F05DFD074640F6FF70001904D15E
:103F50000098B0F90440B0F906500098611E02893B
:103F6000ADF804401144ADF808104189681E0844BA
:103F7000ADF80650ADF80A0005F02AFE6846FEF7D7
:103F8000B7FE01A807F0FAF806E02A4621464046A7
:103F900000F068FB07F0A6F80028F6D1384600F0DC
:103FA0002FFD304600F074F9484600F057FD00F050
:103FB000E5FF07B0BDE8F083C00100202DE9FE4F0A
:103FC000984691468A46834600270C9EFFF732FFAB
:103FD000174818490068407C51F82040E16809689A
:103FE000042903D02468002CF8D100E014B9FFF7AD
:103FF0003BF904460121E068C26A2046904705006B
:1040000011D02469A0688047401C02D10A4C46F0B8
:1040100001060096CDE9015443464A4651465846AA
:1040200000F0CAF9074600F0A9FF3846BDE8FE8F48
:10403000C0010020D80100204C0A020838B5040055
:104040001CD0FFF7F7FE0E480068006EA04201D1B9
:1040500000F0C8FC2046FEF70DFE0090406908B154
:1040600000F075FF00980068FFF78AF86846FEF7D1
:104070003FFE2046FEF72AFD00F080FF38BD00001D
:10408000C00100202DE9FF4F0746464883B09946FE
:104090000068DDF840B08A46447C43480057012858
:1040A000204606DD02F0C8FD8046204602F0D0FD25
:1040B00005E002F0AFFD8046204602F0B1FD044667
:1040C00017B302A901A8FFF724FEB7F90060002E7C
:1040D00000DA0026B7F90250002D00DA0025019918
:1040E000B7F904004144491E0CF01DFE80460298B9
:1040F0000119B7F90600491E0CF015FEA8EB0602DF
:10410000441B521C641C02E0002635464246B9F1AD
:10411000000F01D1C4F10009002A01DD002C03DCED
:10412000002007B0BDE8F08F4B4629463046CDF859
:1041300000B0FFF743FF5FEA000909D000F062F822
:104140008046484600F0A4F80027DFF860B01FE082
:104150005146059888470120E3E7E11B414502DA13
:10416000484600F079F83FB1EA193146484600F078
:10417000B7F84846FFF7A6FE514605988847DBF892
:10418000001009B1002088474846FFF7BDFE4744AC
:10419000A742E2DB4846FFF751FF002000F078F825
:1041A000BEE70000C0010020F40100200C07002041
:1041B00038B505004FF0000411D0FFF73BFE28464C
:1041C000FEF758FD0090006800698068804703F0A2
:1041D00039F904466846FEF78BFD00F0CFFE204615
:1041E00038BD38B50446FFF725FE2046FEF742FDF0
:1041F00000F1180400906846FEF77AFD00F0BEFE5C
:10420000204638BD38B504460025FFF713FE1CB91B
:1042100008480068046E44B12046FEF72BFD00906C
:10422000B0F90A506846FEF763FD00F0A7FE284685
:1042300038BD0000C001002070B5054600242846A6
:1042400008F0A8F8641C18B1BDE8704000F07AB816
:10425000052CF4DB70BD000038B50C46050004D118
:104260000A480068056E002D0FD0FFF7E3FD2846D1
:10427000FEF700FD0090B0F90A10A14200DD448174
:104280006846FEF735FD00F079FE38BDC00100201C
:10429000F8B50546FFF7CEFD104E3068046ECDB17F
:1042A0000CB100F09FFB05F093FD2846FEF7E2FC01
:1042B000009031680D660068FEF764FF6846FEF7FF
:1042C00017FD02F027FF02F093FE00BF00F056FE3C
:1042D0002046F8BD00F086FBF8E70000C001002092
:1042E0007CB515460E46040004D115480068046EDE
:1042F000002C24D0FFF79EFD2046FEF7BBFC2DB21C
:104300000090C58034B2848002F072FE009840694B
:1043100080B1FEF7AFFC009A0190B2F908108180DD
:10432000B2F90A20C28011B10AB10480458001A807
:10433000FEF7DEFC6846FEF7DBFC00F01FFE7CBDEE
:10434000C001002001490A4600F002B801F0FFFF59
:104350007FB515460C4606002DD0FFF76BFD3046A5
:10436000FEF788FC40F6FF710190091903D1B0F9FE
:104370000440B0F906500289611E1144ADF80840AE
:10438000ADF80C104189681E0844ADF80E00ADF878
:104390000A5001A8FEF7ACFC02A806F0EFFE06E00A
:1043A0002A462146304600F045F906F09BFE0028DB
:1043B000F6D100F0E3FD7FBD2DE9FF4FDFF8E0B05F
:1043C00083B01C46DBF80010DDE910609246002740
:1043D0004B7C3A461299FEF797FE05005DD028699E
:1043E0008068804703F02EF881460AFB09F0C01D63
:1043F0004FEAD008FEF74CFCF10705D1C11700EBDE
:104400009170801000EB4000002C06DC1838B0FBE7
:10441000F8F06442A04200DC0446F00707D10090A7
:10442000DDE903012346524600F016FD0746002C45
:1044300003DC2846FEF7A4FE2FE004FB08F018304A
:10444000F10702D0FEF714FB01E0FEF720FB0600A7
:104450001CD0FEF70FFC0190056003998180049940
:10446000C180A0F808A04481C0F80C80C0E904977E
:1044700001A8FEF73DFC1298AE602861DBF8000051
:10448000407CA861304607B0BDE8F08F2846FEF7B3
:1044900077FE17B13846FEF719FB0020F3E700005E
:1044A000C00100202DE9F74F8EB0144689460E98C2
:1044B000FEF7E0FB0990B0F908B0B0F90A600068B7
:1044C000006940680C9009A8FEF712FC564D574F42
:1044D0002868407C57F82000C1688A6A0821904704
:1044E0000790182801D3202007902868407C57F8AF
:1044F00020000069069003C80B904D48814201D00E
:10450000012000E000200A90002000F0E0FD0028DB
:104510007DD1286809EB0B01B0F90C20891A491EDE
:10452000002902DDABEB010500E05D46B0F90810A3
:10453000494505DDA1EB090189446D1A089101E0A7
:1045400000210891002D6BDDB0F90E20A119891A08
:10455000491E002902DDA6EB010800E0B046B0F9D3
:104560000A00A04204DD061B3444A8EB060800E064
:104570000026B8F1000F53DD089801900DA95F46A1
:10458000DDF830A00E980091FFF72BFE774300EB8B
:10459000870101982B4601EB800200994846CDE93E
:1045A00000A1214601F068F80090002838D00A9850
:1045B000E8B1DDE906322946009800F087FEB0B97F
:1045C0000698009FDA46D0F810C0BCF1000F05D065
:1045D00004235A4639463846E04708E00B993868C4
:1045E000884701C7AAF101005FEA000AF6D10099E5
:1045F0000020079ACDE90301059001200090CDE944
:10460000010221460346641C2A46484600E007E0B2
:1046100002F0B0F8A8F10100761C5FEA0008ABD107
:1046200011B0BDE8F08F0000C0010020D8010020CB
:10463000C36C0008F8B515460E460746FEF71AFB90
:10464000009000681621C068426A00209047044626
:104650006846FEF74DFB002C03D02A46314638460B
:10466000A047F8BDF8B515460E460746FEF702FB13
:10467000009044696846FEF73BFB3846FFF798FD1B
:104680000346082800DD2CB12A46314638460FF093
:104690007FF8F8BD2A46314638460FF019FAF8BDC2
:1046A00010B5002821D009B30AB3B1F90040B2F91E
:1046B00000309C4200DA23460380B1F90240B2F98F
:1046C00002309C4200DA23464380B1F90440B2F93B
:1046D00004309C4200DD23468380B1F90610B2F914
:1046E0000620914200DC1146C18010BD11460A68C7
:1046F00002604968416010BD00280BD003880B445C
:104700000380838819448180418811444180C18895
:104710001144C1807047000070B50E4D0446D5E9C4
:104720000001884209D10C49884201D13C3000E0A7
:104730000C3807C884E8070006E090E80E0084E81B
:104740000E000CF027F92860207A002800D0012004
:1047500070BD00000C0200205CD701200448D0E9A5
:104760000010814201D101207047002070470000F5
:104770000C020020054A10B5034911600EF092FEAC
:10478000BDE8104000F010BA75A20008E401002056
:1047900070B50025FFF74EFB094CD4E9002082429A
:1047A0000AD0D2E9005610460CF00CF920603146D0
:1047B000284606F0B9F8012500F0E0FB284670BD58
:1047C000BC0600202DE9FC41154DDDE908742D687B
:1047D000B5F90860864200DD3046B5F90C609642B6
:1047E00000DA3246824219DBB5F90A608E4200DDFA
:1047F0003146B5F90E509D4200DA2B468B420DDB57
:1048000000E02C46E5682D6825B1042D02D025680E
:10481000002DF6D1CDE9007402F0D4FABDE8FC8198
:10482000C0010020B0F90220B1F906309A4213DC31
:10483000B1F90220B0F906309A420DDCB0F900203F
:10484000B1F904309A4207DCB1F90010B0F9040064
:10485000814201DC01207047002070470146024878
:1048600070220068FBF70ABDC001002038B50400C3
:1048700020D0FFF7DFFA20460EF0B6FE20460EF0FD
:104880001FFF2046FEF7F6F900900068FEF73CF99E
:104890000098C068FEF71AF90098C069FEF716F98B
:1048A0006846FEF725FA2046FEF710F9BDE83840C5
:1048B00000F064BB38BD70B515460E4604000AD042
:1048C000FFF7B8FA2A46314620460EF095FBBDE8C0
:1048D000704000F053BB70BD38B504001ED0FFF728
:1048E000A9FA2046FEF7C6F90090007C800710D494
:1048F00020460CF0B7F96846FEF7FAF920460EF0AC
:104900004DFD2046FEF7B6F90090018A41F0020104
:1049100001826846FEF7ECF900F030FB38BD00007C
:104920002DE9F84304460088089F91468846D8B38D
:104930006088C8B3E088082836D8E0688068002816
:1049400033D007F0010200212148FEF7DDFB05000E
:104950002AD02088860060884643FFF76BFA06F16C
:104960002000FEF794F8060021D03046AE60FEF736
:1049700081F9009007824461A0F80480A0F80690B5
:10498000238808EB0301491E018161884944491EBF
:10499000418105606846FEF7ABF92146304607F0D5
:1049A000FBFD40B100F0EAFA0020BDE8F88328469C
:1049B000FEF7E6FBF6E7B80705D530460CF052F9EE
:1049C00030460EF0EBFC00F0D9FA3046EDE700007F
:1049D00088F20108024970220968FBF74FBC000009
:1049E000C001002010B5FFF725FA02F0B7FA02F077
:1049F00091FB05F0EDF8BDE8104000F0BFBA0000F3
:104A000070B5094D04462868467CFFF713FA022C5E
:104A100003D228684474FFF7E5FF0448046000F0FF
:104A2000ADFA304670BD0000C001002048060020ED
:104A300010B50446FFF7FEF9204602F0AFFABDE8D4
:104A4000104000F09BBA10B50446FFF7F3F920467A
:104A500002F0DCFABDE8104000F090BA10B5044650
:104A6000FFF7E8F9204602F0E3FA044600F086FA80
:104A7000204610BD70B50446FFF7DCF90448006815
:104A8000C56904B1C46100F079FA284670BD000020
:104A9000C001002070B514460D460646FFF7CAF95E
:104AA00022462946304602F0DFFA044600F066FA54
:104AB000204670BD70B514460D460646FFF7BAF99C
:104AC00022462946304602F0E5FA044600F056FA3E
:104AD000204670BD70B50C460546FFF7ABF9214680
:104AE000284602F003FB044600F048FA204670BD59
:104AF00070B50546FFF79EF903480068847E857609
:104B000000F03CFA204670BDC001002070B50C4694
:104B10000546FFF78FF909482246058008480480BA
:104B200008480068417C084850F82100C1680B6AB9
:104B300029469847BDE8704000F020BAFC010020EB
:104B4000FE010020C0010020D801002070B50546FC
:104B5000FFF770F903480068047E057600F00EFA4E
:104B6000204670BDC001002070B50446FFF762F911
:104B700004480068B0F92C50848500F0FFF92846FD
:104B800070BD0000C001002070B50446FFF752F967
:104B900004480068B0F92A50448500F0EFF928462F
:104BA00070BD0000C001002002480068002800D04D
:104BB00000477047EC06002002498A6802B9886005
:104BC000FFF7F2BFBC06002010B504000ED0FFF7BF
:104BD00031F920460DF024FF20460EF07DFD2046E1
:104BE000FDF774FFBDE8104000F0C8B910BD38B53E
:104BF0000C46050011D0FFF71DF92846FEF73AF8DC
:104C000000908089204201D0012400E00024684601
:104C1000FEF76EF800F0B2F900E00124204638BD3E
:104C200038B50546002028600648046844B120468F
:104C3000FEF720F80090006928606846FEF758F8F3
:104C4000204638BD9C08002038B504004FF0000015
:104C50000D46086011D02046FEF70CF800908468DD
:104C600044B16846FEF744F82046FEF703F800908A
:104C7000006928606846FEF73BF8204638BD000012
:104C80002DE9F84FDFF898800546264F98F8180070
:104C90008B46410738680A9E9946407C924607D465
:104CA00001F0CAFF04463868407C01F0D1FF06E0FD
:104CB00001F0CEFF04463868407C01F0BDFF0027BC
:104CC00085B1441EB9EB060000D54042142806DB2E
:104CD0005146BBEB0A0000D54042142804DA0120FB
:104CE000BDE8F88F641EEDE70A464B465946384644
:104CF00000960BF0C2FF0C4F4B46524647F835006A
:104D00005946204600960BF0B8FF07EBC5014860F6
:104D10000EF0ACF801210020C8F81C10E0E70000FC
:104D200014020020C0010020A4D701202DE9F04189
:104D3000084E0446056830680168284688470746DB
:104D40003068416828468847284420603846BDE8D6
:104D5000F0810000C40100202DE9F0410C46064618
:104D60000025064F05E0386841683046884706440C
:104D70000544641EF7D22846BDE8F081C401002036
:104D80002DE9F0411E46069C1746884605463A46E0
:104D9000A8687F1C3346D0F804C041462846E04747
:104DA000641EF4D1BDE8F08170B5B0F90040091B74
:104DB000B0F904408C422CDD00F11404B0F902502B
:104DC0000069521B02FB0040CA1800EBE104521EAE
:104DD000D010B0EBE10501F007034FF0FF0102F046
:104DE000070221FA03F0C2F1070201FA02F1CEB282
:104DF00021780FD001436D1E04F8011B002D05DD45
:104E0000FF2229462046FBF759FA2C4420783043EC
:104E1000207070BD30400143217070BD10B5B0F9F5
:104E20000030B0F90240C91A00F114030069121BE6
:104E300002FB003000EBE10001F007030278802163
:104E4000D9400A43027010BDB0F9061002695143FF
:104E50001430FBF73ABA00002DE9F843804602F11E
:104E60000F000011470003FB07F01C46154689465A
:104E70001430FDF70CFE060018D0FEF7DBFF3046BD
:104E8000FDF7F8FE0090A0F80080A0F80290858061
:104E9000C480074981600121818107616846FDF76F
:104EA00027FF00F06BF83046BDE8F8830020FBE7F1
:104EB000D418020870B5B0F90660B0F904400B6868
:104EC00000F1140596421BDD0069A34202FB00506D
:104ED00000EBE30214DA641EE010A0EBE30512F825
:104EE000010B03F00704A040C4B206E045B108334B
:104EF00012F8014B23F007036D1E002CF6D004E0DE
:104F0000002070BD6006040E5B1C2006FAD5FF2C45
:104F100007D0184602E06406240E401C6606FAD448
:104F200000E0D81DC443640705D006E012F8014B29
:104F3000FF2C09D108306D1EF8D5C01A401C0B603B
:104F400070BD6206140E401C2206FAD4F5E738B58F
:104F50000546FEF76FFF2846FDF78CFE009081891D
:104F6000491E0CB284816846FDF7C2FE14B928467A
:104F7000FDF7ACFD00F002F838BD00000348C16841
:104F8000491EC16001D100F087B87047D0060020EB
:104F90002DE9F04116460F4605460024FEF74AFF6C
:104FA00032463946284600F0C5FF054408B1641C66
:104FB000F6E7FFF7E3FF2046BDE8F08110B54FF4B8
:104FC0008C310348FDF77AFD8020FDF77BFE10BD94
:104FD0007C93002010B50446204611F089FD10BDD9
:104FE0007047704710B512F0DBFC10BD10B512F021
:104FF000EDFC10BD7047000010B5012012F0F2F872
:105000001B4908600846006808B1012000E0002044
:1050100050B900BF502080F31188BFF34F8FBFF30A
:105020006F8F00BF00BFFEE703220021012012F0B6
:105030000BF9104908600846006830B100231A4691
:1050400019460C48006812F065FA0A48006808B171
:10505000012000E0002050B900BF502080F31188EB
:10506000BFF34F8FBFF36F8F00BF00BFFEE710BDD0
:105070006C0100207001002010B50648006808B9D6
:10508000FFF7BAFF00235A1E19460248006812F0C3
:1050900021F910BD6C01002010B500231A461946F5
:1050A0000248006812F036FA10BD00006C010020C2
:1050B00030B41368202403F8014B302403F8014B6B
:1050C000782403F8014B136030BCFDF77DBE0EB5AC
:1050D00008B102AA00E00022002301A9684600F0FE
:1050E000FFFC0EBD074910B5CC6818B10120C8609F
:1050F000801E03E00020C8606FF07F4001F078FA66
:10510000204610BD7C0800202DE9F0419846164647
:105110000C4688B3FEF70AFE074608F00300012894
:1051200025D0022817D0B4F9005000BFFEF7AAFD21
:10513000014608F00C0004282BD00C281DD0B4F92F
:10514000020035807080EA19521E0844B280401E69
:10515000F080BDE8F081B4F90400B4F90010401A01
:10516000C01B401C00EBD07001EB6005DEE7B4F91A
:105170000400C51B6D1CD9E710E0B4F90600B4F9B2
:105180000220801A401A401C00EBD07002EB600035
:10519000D7E7B4F90600401A401CD2E72068306017
:1051A00060687060D5E7000010B5082A0EDC034681
:1051B000012A18D0022A56D0042A76D010F8042BDF
:1051C00003F8012B491EF9D1012010BD102A08DC7B
:1051D0004FEA000230F8043B22F8023B491EF9D1A5
:1051E000F2E7002010BD10F8042BD207120E491E62
:1051F00034D010F8044B491E04F0010442EA841232
:105200002CD010F8044B491E04F0010442EA441269
:1052100024D010F8044B491E04F0010442EA0412A1
:105220001CD010F8044B491E04F0010442EAC402E9
:1052300014D010F8044B491E04F0010442EA840221
:105240000CD010F8044B491E04F0010442EA440259
:1052500004D010F8044B04F00104224303F8012B9E
:105260000029C0D1B0E710F8042B9207120E491E96
:1052700015D010F8044B491E04F0030442EA04124E
:105280000DD010F8044B491E04F0030442EA8402D6
:1052900005D010F8044B04F003042243491E03F820
:1052A000012B0029DFD18FE7FFE710F8042B12074D
:1052B000120E491E05D010F8044B04F00F042243CF
:1052C000491E03F8012B0029EFD17DE72DE9F041BC
:1052D0001E680D460446082A09DC0746012A1AD032
:1052E000022A5BD0042A7DD0082A13D18DE0102A2F
:1052F00007DCD3F810C00746BCF1000F04D002232E
:1053000089E00020BDE8F08101CCB04727F8020B0E
:105310006D1EF9D18AE001CCB047C0074FEA106892
:105320006D1E36D001CCB04748EA801000F0FF086F
:105330006D1E2ED001CCB04748EA401000F0FF08A7
:105340006D1E26D001CCB04748EA001000F0FF08DF
:105350006D1E1ED001CCB04748EAC00000F0FF0827
:105360006D1E16D001CCB04748EA800000F0FF085F
:105370006D1E0ED001CCB04748EA400000F0FF0897
:105380006D1E06D001CCB04740EA080000F0FF08CF
:105390006D1E07F8018B002DBDD147E001CCB04751
:1053A00080074FEA10686D1E16D001CCB04748EA5E
:1053B000001000F0FF086D1E0ED001CCB04748EA87
:1053C000800000F0FF086D1E06D001CCB04740EA17
:1053D000080000F0FF086D1E07F8018B002DDDD1DD
:1053E00024E0FFE701CCB04700074FEA10686D1ECC
:1053F00006D001CCB04740EA080000F0FF086D1E5F
:1054000007F8018B002DEDD110E0D3F810C0BCF1EE
:10541000000F05D001230A4601463846E04705E063
:1054200001CCB04707F8010B6D1EF9D1012069E7E7
:105430000B4810B58169002910D101218161FFF766
:10544000BDFDFDF7F5FA01F077FE054905481C3171
:105450000860BDE81040084600F02EBD10BD0000F9
:10546000B4010020D90E01087CB5064628480D4637
:10547000006868B1002005F081FE06E06A46294612
:10548000304607F04FF805F02DFE0028F6D17CBD20
:10549000106800901F4C506801902268BDF8000011
:1054A00032F84C1F0844ADF80000BDF802009188A6
:1054B0000844ADF80200BDF8040011880844ADF8B6
:1054C0000400BDF8060091880844ADF8060068465F
:1054D00005F054FE0EE000BF2068BDF800106A46DB
:1054E0004184BDF8021081842946304607F01AF83D
:1054F00005F0F8FD0028EFD1206830F8221F428D1A
:10550000891A01804188C28D891A41807CBD0000C2
:10551000F8010020C00100202DE9FF4F85B09A4618
:1055200090460D46FEF7AEFB4FF00009DDF814B0D3
:1055300006464C4625B1286800906868019002E054
:105540006846FEF775FB18F00C0F02D05546002791
:1055500013E0BDF902402DE029467F1C059800F0BC
:1055600041FB01466D1A0598FFF7F6FB05990844C3
:10557000059005A800F07AFB08B9002DECD108F0E1
:105580000C00042804D0082802D00C2812D105E011
:10559000BDF9060007FB1604641C0BE0BDF906000C
:1055A000BDF90210401A07FB1600401C00EBD0703A
:1055B00001EB60045546CDF814B043E02946059848
:1055C00000F010FB07460146ED1B059800F0E0FADD
:1055D00018F003010ED0012939D002290DD1BDF9EF
:1055E0000410BDF90020891A091A01EBD17102EBF0
:1055F000610101E0BDF900108946174A401E484488
:1056000012683946A2F822909484ADF80C00A019D3
:10561000401EADF80890ADF80E00ADF80A4002AAA1
:105620000598FFF721FF39460598FFF795FB059987
:1056300008440590FEF726FB044405A800F016FB7D
:10564000002801D1002DB9D109B0BDE8F08FBDF916
:105650000410091A491CCFE7C001002049B10028F5
:1056600002DAA0EB610001E000EB610090FBF1F0D9
:1056700070470020704700002DE9FF4F8DB00020DB
:10568000DDF86CA0164600901D4604460246CAF896
:10569000000008AB03A902A800F022FA18B100200C
:1056A00011B0BDE8F08F0898854200DD0546614FD6
:1056B0000B9561493868407C51F8201004910969C4
:1056C0000691FEF779FA05903868407CFEF764FB96
:1056D0005A498146884204D05949894501D0012060
:1056E00000E000200A9001CE1A9988478346000EF8
:1056F000079077D0009870BB0D9800EB04084D48D8
:105700000068B0F90800404503DDA0EB08078046BB
:1057100000E000270298049900EB840000EB87006A
:10572000CDE900010B990D98421809920E9B404655
:105730001946521EFFF746F80120009005981828D8
:105740000ADA0298DDE9052300EB840000EB87000C
:10575000E91B00F0E9F812E00A9880B1029800EB2A
:10576000840000EB87070998A0EB080849463868D1
:10577000884701C7A8F101005FEA0008F6D1314867
:10578000C06980B3DDE9020700EB840007EB840207
:10579000CDE902022B4C361F3046E4692B460299B4
:1057A000A047FF213068B1EB106F02D1029800686A
:1057B00004E0029A1268B1EB126F01D1039A1060F3
:1057C000029806F10406001D02900398001D039044
:1057D0006D1EE7D10397DAF8000040F00101CAF826
:1057E000001020E021E0FFE70798FF2811D0C0F16A
:1057F000FF02029850F82410584600F0F5FA039979
:1058000041F82400DAF8000040F00101CAF8001065
:1058100005E00298039950F8240041F82400641C24
:105820006D1E7FF460AF03983AE7039941F824B006
:10583000E8E70000C0010020D8010020C36C000888
:10584000C16C00084C0800202DE9F04F85B09B4644
:10585000DDE90F8792460C460546DDF83890FEF7E5
:10586000E9FA15480068C16C4E190D19016DABF1CC
:10587000010001EB0A04ADF810502044ADF80C60B3
:10588000ADF81200ADF80E4003A805F077FC0BE070
:10589000CDF80090CDE901875B4622462946304687
:1058A00009F0B0FB05F01EFC0028F1D1FFF766FB04
:1058B00005B0BDE8F08F0000C00100202DE9FF4FCA
:1058C00087B00C46DDE91698DDE914BA0546FEF707
:1058D000B1FA1448099A0168C86C096D471985180E
:1058E0000E190A98ADF810700C18ADF81450ADF8F8
:1058F0001260ADF8164004A805F040FC0BE0CDE9BD
:105900000298CDE900BA23462A463146384609F0C6
:10591000FDFB05F0E7FB0028F1D1FFF72FFB0BB0F3
:10592000BDE8F08FC00100202DE9F05F0C1E16DDF0
:105930005E68014600EB8405082A12DC611E012A1C
:1059400026D0022A47D0042A6AD0082A07D107198C
:1059500017F8010DB04745F8040D641EF8D1BDE8F5
:10596000F09F102AFBDC5F693FB12246BC46BDE8D0
:10597000F04F02235DF804EB604701EB440700BFE2
:1059800037F8020DB04745F8040D641EF8D1E6E77C
:1059900000EBE10001F0070710F801A98146802023
:1059A00020FA07F8B5F104050AEA0800C7F1070173
:1059B000C840B04745F804093FB14FEA48604FEA94
:1059C00010687F1E641EEFD1C9E719F801A90727E7
:1059D0004FF00108F6E700EBA10001F0030710F813
:1059E00001A981467900C02020FA01F84FF0060B8A
:1059F000B5F104050AEA0800ABEB4701C840B0471F
:105A000045F804093FB14FEA88604FEA10687F1EED
:105A1000641EEFD1A3E7032719F801A9B846F7E7F9
:105A200000EB6100012710F801A9A7438146B900E6
:105A3000F02020FA01F84FF0040B2D1F0AEA0800AD
:105A4000ABEB8701C840B04745F804093FB14FEAC6
:105A500008704FEA10687F1E641EEFD17FE719F8C7
:105A600001A901274FF00F08F6E700002DE9F04FDC
:105A700085B09B46DDE90F8716468A460446DDF869
:105A80003890FEF7D7F915480068C16C0D19016D03
:105A9000A81901EB0A04401EADF81000A019401E21
:105AA000ADF80C50ADF81200ADF80E4003A805F0AB
:105AB00065FB0BE0CDF80090CDE901875B463246EF
:105AC0002146284609F090FF05F00CFB0028F1D193
:105AD000FFF754FA05B0BDE8F08F0000C0010020C8
