:020000040800F2
:10000000584800207D0600087D0200087F02000895
:1000100083020008870200088B020008000000002D
:100020000000000000000000000000008F02000837
:1000300091020008000000009302000895020008E9
:10004000970600089706000897060008970600081C
:10005000970600089706000897060008970600080C
:1000600097060008970600089706000897060008FC
:1000700097060008970600089706000897060008EC
:1000800097060008970600089706000897060008DC
:1000900097060008970600089706000897060008CC
:1000A00097060008970600089706000897060008BC
:1000B00097060008970600089706000897060008AC
:1000C000970600089706000897060008970600089C
:1000D00097060008F1050008970600089706000833
:1000E000970600089706000897060008970600087C
:1000F000970600089706000897060008970600086C
:10010000970600089706000897060008970600085B
:10011000970600089706000897060008970600084B
:10012000970600089706000897060008970600083B
:1001300000F002F800F03AF80AA090E8000C8244BF
:100140008344AAF10107DA4501D100F02FF8AFF29C
:10015000090EBAE80F0013F0010F18BFFB1A43F0A5
:1001600001031847B4290000D4290000103A24BF25
:1001700078C878C1FAD8520724BF30C830C144BF0C
:1001800004680C607047000000230024002500264E
:10019000103A28BF78C1FBD8520728BF30C148BFEA
:1001A0000B6070471FB51FBD10B510BD01F056F9AB
:1001B0001146FFF7F7FF00F009F801F074F903B4F6
:1001C000FFF7F2FF03BC00F0B5F900001FB545E0F2
:1001D0004FF0000A00210C460D4600F04DF900BF1B
:1001E00026E01F4A1F4B2046294601F0A9FFCDE912
:1001F000000101F093FC064600221B4B01F010FDAC
:1002000080460022194B01F09BFFCDE9020101F06D
:100210003FFF174921F81A000022164B20462946B5
:1002200001F0FEFC04460D460AF101001FFA80FAB7
:1002300040F6FF708245D4DB4FF0000A0DE00C4819
:1002400030F81A000C4908600AF101001FFA80FA20
:10025000BAF1400F01D14FF0000AF0E7B8E7000013
:100260004AD8124DFB2109400000F03F00409F405A
:10027000302100200000A03F08740040704700BFFC
:10028000FEE700BFFEE700BFFEE700BFFEE77047E6
:1002900070477047704700000CB500200190009037
:1002A0006C48006840F480306A49086000BF6948C3
:1002B000006800F4003000900198401C0190009804
:1002C00018B90198B0F5A06FF1D16248006800F448
:1002D000003010B10120009001E000200090009853
:1002E000012843D15C48006840F010005A4908607A
:1002F0000846006820F0030008600846006840F0E7
:100300000200086053484068524948600846406807
:1003100048600846406840F480604860084640688D
:1003200020F47C1048600846406840F4E8104860BB
:100330000846006840F08070086000BF45480068CB
:1003400000F000700028F9D04248406820F0030017
:10035000404948600846406840F00200486000BFDD
:100360003C48406800F00C000828F9D10CBD10B5DD
:10037000FFF792FF10BD10B53648006840F001004D
:1003800034490860084640683449084031494860AB
:1003900008460068324908402E490860084600684F
:1003A00020F4802008600846406820F4FE00486081
:1003B0004FF41F008860FFF7DAFF4FF00060294913
:1003C000086010BD10B5002100200022214B5B68A1
:1003D00003F00C0121B1042906D0082928D107E037
:1003E000214B224C236027E01F4B204C236023E04D
:1003F000184B5B6803F47010164B5B6803F4803293
:10040000022303EB904022B9194B4343174C23605E
:100410000DE0104B5B6803F4003323B1144B4343EE
:10042000124C236003E0104B4343104C236003E065
:100430000D4B0E4C236000BF00BF064B5B68C3F33F
:1004400003130C4CE15C094B1B68CB40074C236049
:1004500010BD000000100240002002400000FFF824
:10046000FFFFF6FE08ED00E000127A000000002019
:1004700000093D000400002000B585B001210420E2
:1004800000F0A6FC0121480700F0AFFC1020ADF8F9
:10049000100000208DF8130003208DF8120004A92D
:1004A000214800F0D9F910211F4800F082FA0020FD
:1004B000009001900290022003906946002000F015
:1004C000FAFE0121002000F013FF0021084600F091
:1004D00070FF05B000BD2DE9F0470446204602F04C
:1004E00031F981461149484602F04AF881464FF0F9
:1004F0008B41484602F03AF9824602F015F8074669
:100500004FF066320A4B01F03BFC054601F056FB0A
:100510008146484602F0F6F885B22946002000F0F0
:1005200048FFBDE8F08700000008014000007A4461
:1005300066660A40014600BF704700BF4B4A1288FA
:1005400002F04002002AF9D0C2B2484B1B1D1A80AB
:10055000704710B586B00446012144F2040000F053
:1005600037FC424800F098FC4FF40070ADF81400DE
:1005700003208DF8160018208DF8170005A93C48B7
:1005800000F06AF94FF48060ADF8140004208DF893
:10059000170005A9364800F05FF925208DF8000006
:1005A00003208DF801008DF8020001208DF8030072
:1005B000684600F088F801940020ADF80800ADF816
:1005C0000A00ADF80C00ADF810000C20ADF80E00DC
:1005D00001A9264800F0A3FC012240F2255123483E
:1005E00000F035FD0121214800F025FD06B010BDC9
:1005F00010B540F225511D4800F00EFE10B31B4807
:1006000000F08AFDC4B21B48008800F40040C8B95D
:100610001848008800F4804060B10A2C03D0002004
:100620001449088020E01348008840F40040114934
:10063000088019E00D2C06D10E48008840F4804057
:100640000C49088010E00B480088C0F30D000A49EF
:100650000C5408480088401C064908800846008859
:10066000C72801DD0020088010BD000000380140CF
:100670000008014018000020304100200948804750
:1006800009480047FEE7FEE7FEE7FEE7FEE7FEE774
:10069000FEE7FEE7FEE7FEE704480549054A064B8C
:1006A000704700007703000831010008584200201D
:1006B0005848002058440020584400203149014344
:1006C000314A1160704770B5002100230F22C478B1
:1006D00004B32D4C246804F4E064C4F5E064210AFA
:1006E000C1F10403CA40447804FA03F18478144049
:1006F00021430901254C0678A155047804F01F0513
:100700000124AC4005786D11AD0005F1E025C5F878
:10071000004109E0047804F01F050124AC401C4DA1
:100720000678761145F8264070BD1A4A0A40024301
:10073000154B1B1F1A60704739B1134A121D1268FE
:100740000243114B1B1D1A6006E00F4A121D12686E
:1007500082430D4B1B1D1A607047042808D14FF0CF
:10076000E021096941F004014FF0E022116107E046
:100770004FF0E021096921F004014FF0E0221161FE
:10078000704700000000FA050CED00E000E400E016
:1007900080E100E080FFFF1F10B50446CC48844292
:1007A00008D10121042000F02DFB0021042000F0DD
:1007B00029FB46E0C748844208D10121082000F007
:1007C00021FB0021082000F01DFB3AE0C2488442D2
:1007D00008D10121102000F015FB0021102000F0AD
:1007E00011FB2EE0BD48844208D10121202000F0F9
:1007F00009FB0021202000F005FB22E0B8488442DC
:1008000008D10121402000F0FDFA0021402000F035
:10081000F9FA16E0B348844208D10121802000F0A3
:10082000F1FA0021802000F0EDFA0AE0AE4884429F
:1008300007D10121801500F0E5FA0021A01500F094
:10084000E1FA10BD10B50121084600F0DBFA0021E5
:10085000012000F0D7FA10BD2DE9F0410246002535
:100860000026002000230024002791F803C00CF08C
:100870000F0591F803C00CF0100CBCF1000F03D071
:1008800091F802C04CEA050591F800C0BCF1000FD8
:1008900031D0146800202BE04FF0010C0CFA00F36B
:1008A000B1F800C00CEA03069E4220D183004FF04D
:1008B0000F0C0CFA03F7BC4305FA03FC4CEA0404E2
:1008C00091F803C0BCF1280F06D14FF0010C0CFACF
:1008D00000FCC2F814C00AE091F803C0BCF1480F54
:1008E00005D14FF0010C0CFA00FCC2F810C0401CFE
:1008F0000828D1D31460B1F800C0BCF1FF0F34DD7B
:10090000546800202EE000F1080C4FF0010808FAAE
:100910000CF3B1F800C00CEA03069E4221D183001B
:100920004FF00F0C0CFA03F7BC4305FA03FC4CEA3A
:10093000040491F803C0BCF1280F05D100F1080CA4
:1009400008FA0CF8C2F8148091F803C0BCF1480F03
:1009500007D100F1080C4FF0010808FA0CF8C2F8B2
:100960001080401C0828CED35460BDE8F0814FF6BB
:10097000FF710180022181700421C170704702461D
:10098000002093680B400BB1012000E0002070476D
:100990000146886880B2704702460020D3680B4049
:1009A0000BB1012000E0002070470146C86880B20A
:1009B000704701617047416170470AB1016100E011
:1009C00041617047C16070474FF480320A438261D1
:1009D0008161826182698269704702460020434BCF
:1009E00018684FF68073184040EA021008433F4BE6
:1009F000186070473E49C8617047F0B50A46002349
:100A000000240021002500F00046B6F1004F02D17D
:100A1000364EF16901E0354E7168C0F3034583B28B
:100A200000F44016B6F5401F08D121F070612F4E3A
:100A3000766826F070662D4F7E6012E000F4801616
:100A4000B6F5801F06D1032606FA05F4A14341F04E
:100A5000706106E0460D360103FA06F6B14341F037
:100A6000706122B1460D360103FA06F6314300F0FB
:100A70000046B6F1004F02D11C4EF16101E01B4E61
:100A80007160F0BD30B500228B071C0F0F2303FAF5
:100A900004F2164B08338C1053F824309343134C54
:100AA00008348D1044F8253023468C1053F8243038
:100AB0008C07240F00FA04F423430C4C08348D10E7
:100AC00044F8253030BD0A49DC3108607047000029
:100AD00000080140000C01400010014000140140DA
:100AE00000180140001C01400020014000000140AE
:100AF00000002042DF48006840F00100DD49086046
:100B000008464068DC490840DA4948600846006801
:100B1000DA490840D74908600846006820F4802078
:100B200008600846406820F4FE0048604FF41F004B
:100B300088607047CF49096821F48031CD4A11603F
:100B40001146096821F480211160B0F5803F03D07F
:100B5000B0F5802F0ED106E0C649096841F4803116
:100B6000C44A116007E0C349096841F4A021C14AA1
:100B7000116000E000BF00BF704710B501460022C1
:100B8000002300204A11012A02D1BA4C236806E052
:100B9000022A02D1B74C236A01E0B64C636A01F025
:100BA0001F02012494401C400CB1012000E00020F1
:100BB00010BD38B5002000900024002500BF312072
:100BC000FFF7DBFF05460098401C00900098B0F549
:100BD000A06F01D0002DF2D03120FFF7CEFF08B179
:100BE000012400E00024204638BD01460020A14A2F
:100BF000106820F0F80040EAC10010607047A0497A
:100C000008607047024600209A4B586820F47C1018
:100C100042EA01031843974B5860704798490866A9
:100C2000704701460020934A506820F003000843B3
:100C3000506070478F48406800F00C0070470146D4
:100C400000208C4A506820F0F00008435060704744
:100C500001460020874A506820F4E0600843506055
:100C6000704701460020834A506820F4605040EAF3
:100C7000C1005060704729B17E4A527A02437D4BD1
:100C80005A7204E07B4A527A82437A4B5A72704716
:100C90007B49D8310860704701460020754A50688A
:100CA00020F440400843506070470021714A2032D0
:100CB0001170704A82F82010012802D004280AD14D
:100CC00004E001216B4A2032117005E00521694AD8
:100CD0002032117000E000BF00BF70476949086012
:100CE00070476449096A0143624A11627047654965
:100CF00044390860704730B50021002200240023E9
:100D00005C4D6D6805F00C0121B1042905D008295E
:100D100023D105E05C4D056022E05B4D05601FE0DE
:100D2000544D6D6805F47012524D6D6805F48034B1
:100D3000022505EB92421CB9544D554305600BE06A
:100D40004C4D6D6805F400351DB1504D554305609F
:100D500002E04D4D5543056002E04B4D056000BF7C
:100D600000BF444D6D6805F0F0010909484D6B5C0A
:100D70000568DD4045603F4D6D6805F4E061090A96
:100D8000434D6B5C4568DD4085603A4D6D6805F408
:100D90006051C90A3E4D6B5C4568DD40C560354D0C
:100DA0006D6805F44041890B3A4D6B5CC568B5FB35
:100DB000F3F5056130BD29B12E4A526902432D4B2E
:100DC0005A6104E02B4A526982432A4B5A617047A8
:100DD00029B1284A92690243264B9A6104E0254AC8
:100DE00092698243234B9A61704729B1214AD269A3
:100DF0000243204BDA6104E01E4AD26982431D4B54
:100E0000DA61704729B11B4AD2680243194BDA6094
:100E100004E0184AD2688243164BDA60704729B161
:100E2000144A12690243134B1A6104E0114A126911
:100E30008243104B1A61704712494039086070476D
:100E40000F49C86470470B49C87170470948406A28
:100E500040F0807007494862704701460020054A0B
:100E600092680A400AB1012000E000207047014961
:100E700088727047001002400000FFF8FFFFF6FE86
:100E8000000042428004424200127A0000093D0004
:100E90001A0000202A00002010B50446FB488442B6
:100EA00009D101218803FFF7ADFF00214FF48040F5
:100EB000FFF7A8FF32E0F648844209D10121480437
:100EC000FFF7ADFF00214FF40030FFF7A8FF25E04A
:100ED000F048844209D101218804FFF7A0FF0021D6
:100EE0004FF48020FFF79BFF18E0EB48844209D1C4
:100EF0000121C804FFF793FF00214FF40020FFF702
:100F00008EFF0BE0E548844208D101210805FFF778
:100F100086FF00214FF48010FFF781FF10BD2DE9FF
:100F2000F04786B005460E460024A24600BFA14603
:100F30000027B08900B100BF2F462C8A4CF6FF7005
:100F40000440F08804432C82AC894EF6F310044030
:100F5000B08831890843718908430443AC81AC8A65
:100F60004FF6FF400440B0890443AC8201A8FFF76C
:100F7000C2FEC648874202D1DDF810A001E0DDF8CC
:100F80000CA0A88900F4004040B10AEBCA0000EBB5
:100F90000A1031684900B0FBF1F807E00AEBCA001B
:100FA00000EB0A1031688900B0FBF1F86420B8FB4F
:100FB000F0F004012009642101FB1089A88900F4E4
:100FC000004040B1322000EBC900B0FBF1F000F06E
:100FD0000700044308E0322000EB09106421B0FB55
:100FE000F1F000F00F0004432C8106B0BDE8F0875B
:100FF0004FF41651016000218180C18001810C21D4
:10100000418100218181704710B502460020108A7D
:101010004FF2FF0318400B884C8823438C882343EE
:10102000CC8823431843108210BD002101804180E9
:101030008180C180704721B1828942F4005282814F
:1010400004E082894DF6FF731A4082817047F0B543
:101050000346002400260025002040F66A17B94206
:1010600000D100BF1846C1F3421401F01F0601274A
:1010700007FA06F5012C01D10C3004E0022C01D155
:10108000103000E014301AB107682F43076002E007
:101090000768AF430760F0BD1AB1838A0B438382B0
:1010A00002E0838A8B4383827047028A4FF6F07393
:1010B0001A400282028A0A430282704782894FF2F2
:1010C000FF731A40828182890A438281704721B16D
:1010D000828942F00202828104E082894FF6FD7328
:1010E0001A4082817047028A4FF6DF731A400282EB
:1010F000028A0A430282704721B1028A42F4804286
:10110000028204E0028A4BF6FF731A4002827047A3
:10111000C1F308028280704701468888C0F3080046
:101120007047818941F0010181817047028BD2B201
:101130000283028B42EA012202837047028B02F48F
:101140007F420283028B0A430283704721B1828A65
:1011500042F02002828204E0828A4FF6DF731A4056
:101160008282704721B1828A42F01002828204E0BA
:10117000828A4FF6EF731A408282704721B1828AC9
:1011800042F00802828204E0828A4FF6F7731A4026
:101190008282704721B1828942F40042828103E059
:1011A0008289C2F30E028281704721B1828A42F4A1
:1011B0000062828204E0828A4FF2FF731A408282C8
:1011C0007047828A4FF6FB731A408282828A0A43F2
:1011D0008282704721B1828A42F00202828204E058
:1011E000828A4FF6FD731A408282704702460020C1
:1011F000B1F5007F00D100BF13880B400BB1012077
:1012000000E00020704701F40072B2F5007F00D1C9
:1012100000BFCA430280704770B502460024002315
:101220000025002040F66A16B14200D100BFC1F38C
:10123000421501F01F03012606FA03F3012D02D126
:101240009689334006E0022D02D1168A334001E030
:10125000968A33400C12012606FA04F416883440AC
:1012600013B10CB1012000E0002070BD10B50022C8
:10127000002340F66A14A14200D100BF0A120124E3
:101280009440A3B2DC43048010BD0000003801404C
:101290000044004000480040004C00400050004026
:1012A00010B501214807FFF7BAFD00214FF00050AB
:1012B000FFF7B5FD10BD30B5002200235A4C22685F
:1012C00040F6FE748440A243D1E900452C438D686A
:1012D0002C43CD6844EA050303FA00F42243524C40
:1012E000226030BD0021016041608160C1607047B3
:1012F00039B14D4A1268012383401A434A4B1A60A0
:1013000006E0494A1268012383409A43464B1A601B
:10131000704741B1444A12684FF4805383401A43E6
:10132000414B1A6007E0404A12684FF480538340F3
:101330009A433D4B1A60704710B551B13A4A121D9D
:10134000126804090123A3401A43374B1B1D1A607E
:1013500009E0354A121D126804090123A3409A438B
:10136000314B1B1D1A6010BD40B12F49091D096882
:1013700041F003012C4A121D116007E02A49091DA2
:10138000096821F00301284A121D1160704710B549
:101390003AB1254B1B6801FA00F42343224C236029
:1013A00006E0214B1B6801FA00F4A3431E4C2360A6
:1013B00010BD08B5002200921B4A009200F10802FD
:1013C000009B1A440092009A116008BD08B50022E3
:1013D0000092154A009200F11402009B1A440092F8
:1013E000009A116008BD30B500240023082802D1FE
:1013F00042EA012401E042EA01440B4B00F12005DE
:101400002B441C6030BD08B5014600200090064802
:1014100000902C2000EB9100009A1044009000985E
:10142000006880B208BD000000740040704770473B
:1014300070477047704710B500F008F8006810BD9D
:1014400010B5044600F002F8046010BD0048704773
:10145000F841002000487047F84100207546FFF72A
:10146000F9FFAE4605006946534620F00700854661
:1014700018B020B5FFF710F9BDE820404FF0000686
:101480004FF000074FF000084FF0000B21F007016C
:10149000AC46ACE8C009ACE8C009ACE8C009ACE8AF
:1014A000C0098D4670470446AFF300802046FEF722
:1014B00086FE490050EAC12018BF04204A0D18BF1B
:1014C00040F0010040F2FF72B2EB515F08BF40F004
:1014D0000200012808BF0520704700002DE9F74FE2
:1014E000144694B00021C4E902111599079121F026
:1014F0000045C9498D4206DC1599C4E9000117B0C1
:101500000020BDE8F08FC549DFF814A3A9423CDDF7
:101510000799C44E0029C44FC44A1599534619DD92
:1015200000F018FF554506D0C14AC24B00F012FF2B
:10153000C4E900010AE04FF0D352BE4B00F00AFFAD
:1015400032463B4600F006FFC4E9000117B0012017
:10155000BDE8F08F00F064FB554506D0B44AB54BAA
:1015600000F05EFBC4E900010AE04FF0D352B14B3A
:1015700000F056FB32463B4600F052FBC4E9000146
:1015800017B04FF0FF30BDE8F08FAB49A942159975
:1015900078DB21F0004183468846A84AA84B00F03A
:1015A000CFFD0022A74B00F03BFB00F041FD09906E
:1015B00000F09BFD06460F469C4A534600F0C0FDD6
:1015C00043465A4600F0BAFE80468A46984A994BEE
:1015D0003046394600F0B4FD2A0D01250B924246F3
:1015E000534600F0ABFE032DC4E9000139D00B983F
:1015F000C1F30A51401A05EB45111139814230DA25
:101600009148C346784400EB0510CDF80CA00C902F
:10161000D0E900233046394600F092FD02460B46E1
:10162000049106905846039900F094FE80468A463D
:1016300002460B465846039900F08CFE049B069A1E
:1016400000F088FE83460C9803913946D0E90223C6
:10165000304600F075FD5A46039B00F07BFE6D1C82
:10166000BDE707980028A2BF099817B0BDE8F08F22
:10167000616881F000416160099817B04042BDE89F
:10168000F08FFFE784461598C1F31301C0F30A50A9
:10169000A0F2F5304FEA601800F01F06C6F12000F6
:1016A000139000200690079041F4801E05206D469F
:1016B00076B1664A08EB00017A4452F8213002EB19
:1016C0008101B3404A68139922FA01F1194305E0F8
:1016D0005F4908EB0002794451F82210A1FB0E2764
:1016E000A1FB0C131A449A4234BF0123002303EBDD
:1016F000070A05EB8003D3E901B70F448F4234BFDB
:101700000121002193448B4411B1934502D903E098
:10171000934501D2012100E00021C3E901B7514402
:1017200045F82010011EA0F10100C1DC0298059FC0
:1017300000F10050800F12900298DDE903568000FE
:1017400000F0D3FC834628460D9100F0E5FC6FF0D5
:101750001D0201F009F9CDE90E01304600F0DCFC74
:101760006FF03D0201F000F980468A46384600F0ED
:10177000D3FC6FF05D0201F0F7F80746424653468E
:10178000119100F04DFADDE90E2300F049FA5A46B6
:101790000D9B00F045FA00250E465A4628460D9B43
:1017A00000F0D8FDDDE90E2300F0D4FD424653469B
:1017B00000F0D0FD3A46119B00F0C0FDDFF898A084
:1017C000244A534600F0BCFC07468846234A244B73
:1017D0003146284600F0B4FC3A46434600F020FA71
:1017E000074688464FF0A84253463146284600F047
:1017F000A7FC3A46434600F013FA159A12F0004F40
:1018000004D0129A81F0004152421292C4E90001C0
:10181000129817B0BDE8F08FFB21E93F7CD9024058
:10182000FB21F93F7370032E8A19A33B000040543B
:101830003163621A61B4D03DFB21394183C8C96D5F
:10184000305FE43F0000E03F201400009C130000E4
:101850007E130000182D4454FB21F93D3326A611B8
:10186000460B113C2DE9FF4D21F0004807460C4680
:10187000B8F1795F08DA00F0DBFB002801BF002037
:10188000324904B0BDE8F08D3A4623461046194669
:1018900000F056FC054602462D480E460B46062132
:1018A000784400F05DF82A46334600F049FCDDE953
:1018B000022382468B463846214600F041FC04460E
:1018C0000F4652465B462846314600F039FC224618
:1018D0003B4600F03FFD07468A464FF0FF32284660
:1018E000314601F041F81B4A90450ADA3A46534620
:1018F00000F030FD04B00022BDE8F04D134B00F0C5
:101900001DBD154A4245A8BFA8F500154FF00004BB
:10191000B8BF124D22462B4600F01CFD06468846F5
:1019200022462B460020094900F014FD04460D46CE
:101930003A4653463046414600F00CFD04B022467C
:101940002B46BDE8F04D00F0F9BC00000000F03F70
:10195000541100003333D33F0000E93F0000D23F71
:101960002DE9F0414F1E00EBC7010446D1E900010B
:1019700015461E4637F006020DD02A46334600F0C3
:10198000DFFB7F1E04EBC703D3E9002300F048F917
:1019900037F00602F1D1022F25D0042F13D0062FE5
:1019A00018BFBDE8F0812A46334600F0C9FBD4E9F0
:1019B0000A2300F035F92A46334600F0C1FBD4E98A
:1019C000082300F02DF92A46334600F0B9FBD4E98C
:1019D000062300F025F92A46334600F0B1FBD4E98E
:1019E000042300F01DF92A46334600F0A9FBD4E990
:1019F000022300F015F92A46334600F0A1FBD4E992
:101A00000023BDE8F04100F00BB900002DE9FF4DC7
:101A1000054621F0004084B00C46B0F1795F0BDA46
:101A20002846FFF746FD042808BF00F06FF8284657
:101A300008B02146BDE8F08D2A460B46104600F05E
:101A40007FFB06460F462A46234600F079FB804678
:101A500026488A4632463B4605217844FFF780FFF8
:101A600083461098029160B3214A224B404651466A
:101A700000F066FBCDE900015A4640465146029B04
:101A800000F05EFB82468846DDE906014FF0FF323A
:101A900000F06AFF5246434600F05CFC32463B468B
:101AA00000F04EFBDDE9062300F054FCDDE90023E5
:101AB00000F050FC08B02A462346BDE8F04D00F087
:101AC0003DBC0B465A463046394600F039FB084AC1
:101AD000084B00F0A5F84246534600F031FB08B031
:101AE0002A462346BDE8F04D00F09AB89210000057
:101AF000495555555555C5BF012200F035BF002247
:101B000013461046114600F03BB90000024A00207F
:101B1000110700F029BF000001FDFFFF00B5254BB4
:101B200021F0004287B09A4203DC00221346009263
:101B30002BE0214B9A4208D140B94FF00100FFF74A
:101B40007FFCFFF7DCFF07B000BD03DBFFF7D4FF2E
:101B500007B000BD02AAFFF7C1FC10F003014FF06F
:101B600001000DD0012914D002291AD00DF1080C62
:101B70009CE80F00FFF776FE07B081F0004100BD42
:101B80000DF1080C00909CE80F00FFF73FFF07B035
:101B900000BD0DF1080C9CE80F00FFF763FE07B0D5
:101BA00000BD0DF1080C00909CE80F00FFF72EFF20
:101BB000E2E70000FB21E93F0000F07F21F0004256
:101BC000A2F16052B2F5801F01F0004328BFD2F1AC
:101BD0007F6C0BD95FEA001C43EAC20242EB5070F3
:101BE00018BF704728BF20F001007047B2F5801F72
:101BF000BCBF184670474FEA410C1CF5001F02D2CB
:101C0000084600F07ABE70B500F044FB0000008981
:101C1000FFF7F6BF4FF00040A0F5800070470000CE
:101C200010B591EA030F48BF83F0004300F19A8397
:101C3000841A71EB030C05D2121943EB0C03001B41
:101C400061EB0C01DFF824E14FEA1154A4EB135CC3
:101C50001EEA430F18BF9EEA445F73D023EA0E03C7
:101C6000DCF1200E21EA045143F4801332D322FA2E
:101C70000CFE10EB0E0023FA0CFE41EB0E01CCF132
:101C8000200E03FA0EFE10EB0E0051F10001B1F52B
:101C9000801FCCF1200E32D201EB045112FA0EF269
:101CA000BDE8104058BF7047401C38BF5FEA420291
:101CB00018BF7047002814BF20F0010041F1000157
:101CC0004FEA410313F5001F38BF7047A1F1C0412F
:101CD00000F02EBB012A43EB0302ACF1200CDCF137
:101CE0001F0E32BF4FF0000E23FA0CF310EB03006F
:101CF00041EB0451B4EB115FD0D0A1EB045101F5DD
:101D0000801149085FEA300001EB04510ED350F115
:101D1000000038BF12FA0EFE08D1BDE81040C9E736
:101D2000401C38BF5FEA4202CAD1C3E7BDE8104099
:101D30004FEA410313F5001F38BF7047A1F1C041BE
:101D400000F0F6BA9EEA445F08D011EA5E0FBDE8E3
:101D5000104004BF01F0004100207047BDE8104072
:101D600070B500F097FA00BF64FBBE3E0000E0FFD4
:101D700002494FF0000000F0C5BD00BF0000F87F31
:101D80002DE9C04130B4DFF8A0C23CEA111418BFFD
:101D90003CEA131400F0EC8081EA03051CEA1114FC
:101DA00044EAD57418BF1CEA131500F0C780A4EBF1
:101DB00005044FF0004545EAC12145EAC32341EA45
:101DC000505143EA525304F17F74994204F50034B0
:101DD0004FEAC0204FEAC22208BF904200F09C8028
:101DE0004FEA13650FF24016765D4FEA134506FB86
:101DF00005F7C7F1807706FB07F74FEAD737A7FB50
:101E000003687642C8F58038A7FB06CE38BFA8F134
:101E1000010807FB08E64FF0000EA6FB028CE6FB6C
:101E200003CEDCF1000CCEF1004E38BFAEF1010E56
:101E3000A6FB0C584FF000074FF00005E6FB0E879D
:101E4000A1FB08C6A0FB07CE16EB0E0645F1000568
:101E5000E1FB076515F1E04E7EBFA4F580345FEA33
:101E600046066D4116F1800745F100054FEA172738
:101E70004FEA066647EA0567A6F1DE46B6F1805FDF
:101E80004FEA15251FD9384624F0010C05EBC47123
:101E9000BCF1FE6F01EB0C1102D8F0BCBDE8008173
:101EA00024425CBF01F5801E9EEAC47F02D4F0BCD0
:101EB000BDE80081244238D4F0BCA1F1C041BDE8A6
:101EC000004100F035BA4FEAD22242EA43524FEACB
:101ED000D323A7FB02864FEAD02040EA415007FBFC
:101EE00003661EEA0E0F4FEAD12105FB026658BFBA
:101EF000A6EB0056B6EB00564FEA520E4EEAC37EF2
:101F000018EB0E0E56EB530EBDD518EB02085E41D2
:101F10007F1C55F10005B6E74FF480154FF0000720
:101F20004FF000064FF00008ADE7F0BC4FF00000A6
:101F300001F1C04101F00041BDE8008111EA0C1F30
:101F40000CEA131500D00CE013EA0C1F00F02580FA
:101F50004FF00000F0BC81EA030101F00041BDE850
:101F60000081F0BCBDE8004181EA030100F0E0B966
:101F7000F0BCBDE8004170B500F08CF9097EFC3E74
:101F800000F007B881EA03014FF0000001F00041C2
:101F9000704781EA030100F0CBB9F0BCBDE8004115
:101FA0004FF0000021497047FFFDFBF9F7F5F4F20F
:101FB000F0EEEDEBE9E8E6E4E3E1E0DEDDDBDAD8E4
:101FC000D7D5D4D3D1D0CFCDCCCBCAC8C7C6C5C442
:101FD000C2C1C0BFBEBDBCBBBAB9B8B7B6B5B4B359
:101FE000B2B1B0AFAEADACABAAA9A8A8A7A6A5A444
:101FF000A3A3A2A1A09F9F9E9D9C9C9B9A99999808
:102000009797969595949393929191908F8F8E8EAA
:102010008D8C8C8B8B8A8989888887878685858437
:1020200084838382828181800000FF070000F87F23
:102030004FEA41034FEA5353A3F58063D3F11E03E4
:10204000C8BFD3F1210C0CDD4FF0004242EAC1229F
:1020500042EA505232FA03FC8CEAE17CACEBE170CC
:102060007047102BC4BF0020704703F5787CBCF18B
:10207000FF3F04D06FF0004282EA2100704770B544
:1020800000F008F94992248000207047F2E7000030
:102090004FEA1153A3F58063D3F11E03A8BFD3F118
:1020A000200C08DB4FF0004242EAC12252EA5052B3
:1020B00032FA03F0704709420BD4102BC4BF002042
:1020C000704703F5787CBCF1FF3F05D04FF0FF303F
:1020D00070474FF00000704770B500F0DBF800BFAC
:1020E0004992248000207047F0E710F0004248BF7A
:1020F0004042B0FA80F310FA03F10AD0C3F11D0395
:1021000003F580634FEA415002EB035202EBD12109
:1021100070474FF000007047B0FA80F310FA03F1F7
:102120000AD0C3F11D0303F580634FEA41504FEA23
:10213000035202EBD12170474FF0000070470000BE
:10214000DFF848C170B51CEA111E1EBF1CEA13154A
:102150009EEA0C0F95EA0C0F00F06F8081EA0304F1
:1021600023EA4C134EEAD47E21EA4C1141F480114B
:1021700043F48013AE44A1FB024CA0FB0365AEF117
:102180007F7E361955EB0C05A1FB034C4CF1000387
:10219000A0FB021C16EB0C06654153F1000309423B
:1021A00018BF46F0010613F4007F0BD14FEA03314C
:1021B0004FEA0530340341EA155140EA16506FF0FA
:1021C00003020AE04FEAC3214FEAC520F40241EAC4
:1021D000555140EA56506FF0020202EB2E4201EBDD
:1021E000025585EACE710AD05FEA440C18BF24F08C
:1021F000004450F1000041F1000120EAD47040F2A7
:10220000FE7C624500D270BDA84214BF4FF08044EE
:102210004FF04044002E08BF0024BEF1806FA8BFDD
:10222000A1F1C041BDE8704080F282804FF0000013
:1022300001F1C04101F0004170479EEA0C0F0CEA29
:10224000131518BF95EA0C0F06D04FF0000081EA75
:10225000030E0EF0004170BD00F01CF88900013E35
:1022600000F007B800F009B84FEA430C5FEA5C5C85
:1022700008D081EA030100F05BB84FEA410C5FEA45
:102280005C5CF6D14FF00000014970470000FF0789
:102290000000F87F0EF1020E2EF0030E5EF8046BC4
:1022A000364205D4012A43EB030515F5001F12D869
:1022B000012841EB010C1CF5001F0CD80ED14FEA90
:1022C000D17C15F5001F0CEB4C0C0CF1020C08BF77
:1022D0004CEBD37C04E04FF0080C01E04FEAD37CD8
:1022E0000CEB4C0526FA05F606F00706B6F1040CD1
:1022F00006D20EEB860CBDE870404CF0010C604736
:10230000DFE80CF0090B02024FF000414FF0000033
:10231000A1F5002170BD19461046012851EB0104BA
:1023200018BFD4F5001484BF002001F0004170BD37
:102330000808A0F500114FEA3101704791EA030F38
:1023400010B581F000413FF573AC83F0004300F01D
:1023500009B8000010B591EA030F48BF83F00043AD
:102360003FF566AC841A71EB030C07D212198CF09E
:10237000004C43EB0C03001B61EB0C01DFF8A4E104
:102380004FEA1154A4EB135C1EEA430F18BF9EEAF8
:10239000445F00F0B08023EA6E03524221EA045108
:1023A000C3EB6E0338BF5B1EDCF1200E25D322FA8F
:1023B0000CFE10EB0E0043FA0CFE41EB0E01CCF1CB
:1023C000200E03FA0EFE10EB0E0051F10001CCF1CD
:1023D000200E29D412FA0EF201EB0451BDE8104090
:1023E00058BF7047401C1CBFB2F1004F7047002817
:1023F0000CBF491C20F00100704712EB020E43EBAA
:10240000030218BF4FF0010E4EEA4202ACF1200C5D
:10241000DCF11E0E54D943FA0CFE10EB0E0051F104
:10242000FF31CCF11E0ED5D50EF1010E12FA0EFEC3
:10243000404141EB010101EB445C5FEA5C5C10D977
:1024400010EBDE7001EB045138BFBEF1004FBDE868
:10245000104018BF704700280CBF491C20F0010035
:10246000704730D24FEAD42C11F5001124F40064E7
:102470001BD0B1FA81F20B3AA41AA41ED2F12003A8
:10248000914030FA03F31943904001EBCC71002CDA
:1024900001EB0451BDE81040A8BF704701F1C041F5
:1024A0004FF0000001F000417047B0FA80F310FADD
:1024B00003F100D110BDE41A173C4805C90AE4E74E
:1024C00001EB045110BD491001EB0451BDE810406F
:1024D0004FEA300002E04FF0000170474A0008BFA9
:1024E0000042F8D0B2F5001F28BF704701F000414C
:1024F0004FF0000070479EEA445F07D011EA5E0F7C
:10250000BDE8104004BF002100207047BDE8104026
:1025100070B5FFF7BFFE00BF40DFF63E83F000411D
:10252000104670470000E0FF43004FEAD30C4FEA2B
:102530003C0C43401FBF40070CF1605113F0FE4FAD
:1025400070471CF0006F03D100200CF00041704771
:102550000CF0004343EA507010B540EACC0000F0A4
:1025600086F900BF000000924FEA0001FFF7E0BECD
:102570004FF000414FF00000A1F50021704700002E
:102580004FF47F0C1CEAD0121EBF1CEAD11392EA52
:102590000C0F93EA0C0F00F0858090EA010F48BF02
:1025A00042F4807240F4000C41F400002CF07F41B2
:1025B00020F07F4000B58142A2EB03020FF2081C1D
:1025C000ACEB504EC0F100009EF800E04FEA4E0E1A
:1025D00000FB0EFC38BF49004FEA2C1C02F5FA0242
:1025E0000CFB0EF34FEACE1E4FEA112C4FEAC1212D
:1025F0000EEB635E42EB22420EFB0CFC4FEA1C53D7
:1026000000FB03114FEA112C4FEA01310EFB0CFCC9
:102610004FEADC4C00FB0C11C14228BF09184CEBFF
:1026200003335DF804EB10EB410143EBC250B2F50C
:102630007C0F38BF704729D512F0F00F1CBF00F196
:10264000C04000F000407047008182838485868707
:1026500088898B8C8D8E8F919293959697999A9C61
:102660009D9FA0A2A3A5A7A8AAACAEB0B2B3B5B7D0
:10267000B9BCBEC0C2C5C7C9CCCED1D4D7D9DCDFA6
:10268000E2E6E9ECF0F3F7FAFE0000004FEA400C56
:102690000CF1807CBCF17E4F28BF7047B0F1C04088
:1026A00000F02BB990EA010F0CEAD11348BF42F4B5
:1026B0008072624538BF634507D213F47F0F16D08E
:1026C00080EA010000F00040704710B500F0CFF83C
:1026D000097EFC3E00F005B880EA010000F00040F1
:1026E000704780EA010000F0004000F006B912F4E3
:1026F0007F0F04BF0248704780EA010000F0FDB878
:102700000000C07FC10DD1F19E0206DB4FEA00231D
:1027100043F0004323FA02F07047004207D54FEA26
:102720004001B1F1FE4F02D24FF00000704710B5EA
:1027300000F09DF849922480002070476FEA200045
:1027400070470000B0FA80F310FA03F2C3F19D0362
:102750000AD0D90501EB1220530638BF704700F1AB
:10276000010008BF20F00100704700004FF47F0C0B
:102770001CEAD0121EBF1CEAD11392EA0C0F93EA96
:102780000C0F00F0478090EA010F48BF42F48072BE
:102790004FF0004C4CEA00204CEA012102EB03020E
:1027A000A0FB0113A2F50002002918BF43F00103AA
:1027B0005B0028BF4FEA330342EB22425FEA132C4F
:1027C0004CEBC2502EBFBCEB436FB2F57C0F704791
:1027D0004FEA036CBCF1004F08BF20F00100B2F5D6
:1027E0007C0F38BF70470BD582F0FF0212F5803F97
:1027F000C8BF704700F1C040D8BF00F0004070472C
:1028000000F5000C5FEA4C0C48BF7047B0F1C040C7
:1028100000F073B890EA010F0CEAD11348BF42F4FC
:102820008072624538BF634504D280EA010000F03F
:102830000040704710B500F01AF800BF8900013E53
:1028400000F007B800F009B85FEA410C5FEA1C6CC1
:1028500008D080EA010000F050B85FEA400C5FEA5F
:102860001C6CF6D14FF00040A0F5800070470EF1CF
:10287000020E2EF0030E5EF8044B244204D44FEAFD
:102880004102B2F17F4F11D84FEA4003B3F17F4FBD
:102890000CD80ED14FEAD07CB2F17F4F0CEB4C0C30
:1028A0000CF1020C08BF4CEBD17C04E04FF0080C9B
:1028B00001E04FEAD17C0CEB4C0324FA03F404F062
:1028C0000704B4F1040C06D20EEB840CBDE81040F2
:1028D0004CF0010C6047DFE80CF0070802024FF0F3
:1028E0000040A0F5800010BD0846420018BFD2F19C
:1028F000807288BF00F0004010BDFF2141EAD05037
:10290000C00570470CF00F03092B08BF082000F02A
:1029100059800A2B0BD0082B18BF704708BF1CF03A
:10292000400F0AD04FF000004FF0000170471CF03C
:10293000400F18BF4FF0004070471CF0100F08D038
:1029400020F0704300F07F4242EAD3014FEA437027
:10295000704700F0604021F07F4242EA000201F03F
:102960007F4040EA727070474FF0FF0C4CF4E06C0F
:102970001CEA11531CBF9CEA030C9445C2BFDA4207
:1029800001EB02517047002B0DD0BCF1000F0FD0AE
:10299000002A01F00041A4BF41F0E04141F07F6115
:1029A0004FF00000704701F000414FF00000704709
:1029B00050EA01334FF09B0C18BF4CF0806C7FF451
:1029C000D7A970471CF4801F11D01CF4E02F03D04E
:1029D0006FEACC31490070474FF04050EFF300826E
:1029E00022F0704242EA000282F3008870474FF002
:1029F00000007047000000004C5555555555A53F47
:102A00007751C1166CC156BF9015CB19A001FA3E83
:102A1000AD529C804F7E92BEC4B1B4BD9EEE213EAD
:102A2000D43888BEE9FAA8BD00004054FB21F93F24
:102A30003163621A61B4D03D0000601A61B4D03DC8
:102A40007370032E8A19A33B0000002E8A19A33B42
:102A5000C14920259A837B39000000000000000056
:102A60006E83F9A22915444ED15727FCC0DD34F5F9
:102A7000999562DB4190433CAB6351FE61C5BBDE7F
:102A80003A6E24B7E0D24D42EA2E49061C92D10993
:102A90001CEB1DFE3EA729B1F53582E88444BB2E10
:102AA00026709CE9417E5FB439D69139F43953835D
:102AB0008B5F849C3B28F9BDFF97F81F0F9805DEBC
:102AC0008B112FEF1F6D0A5ACF7E366DB709CB27BA
:102AD000663F464F2DEA5F9EC7BA27757BF1E5EB4F
:102AE000F739073DEA92528AB15FFB6B085D8D1F93
:102AF000A6F810111111813FD561C119A0012ABF9B
:102B00007DFEB157E31DC73EEB9C2B8AE6E55ABE1E
:102B10007CD5CF5A3AD9E53D382B0008000000207B
:102B2000300000006C010008682B00083000002015
:102B3000284800008801000800A24A0400000000A4
:102B4000000000000102030406070809000000005D
:102B50000000000000000102030401020304060754
:082B6000080902040608000048
:0400000508000131BD
:00000001FF
