:020000040800F2
:10000000C0A80020CD100008750300087703000881
:100010007B0300087F030008830300080000000042
:10002000000000000000000000000000870300083E
:1000300089030008000000008B0300088D030008FE
:10004000E7100008E7100008E7100008E7100008B4
:10005000E7100008E7100008E7100008E7100008A4
:10006000E7100008E7100008E7100008E710000894
:10007000E7100008E7100008E7100008E710000884
:10008000E7100008E7100008E7100008E710000874
:10009000E7100008E7100008E7100008E710000864
:1000A000E7100008E7100008E7100008E710000854
:1000B000E710000827020008E7100008E710000812
:1000C000E7100008E7100008E7100008E710000834
:1000D000E710000841100008E7100008E7100008CA
:1000E000E7100008E7100008E7100008E710000814
:1000F000E7100008E7100008E7100008E710000804
:10010000E7100008E7100008E7100008E7100008F3
:10011000E7100008E7100008E7100008E7100008E3
:10012000E7100008E7100008E7100008E7100008D3
:1001300000F002F800F03FF80AA090E8000C8244BA
:100140008344AAF10107DA4501D100F034F8AFF297
:10015000090EBAE80F0013F0010F18BFFB1A43F0A5
:1001600001031847E452000004530000103A24BF72
:1001700078C878C1FAD8520724BF30C830C144BF0C
:1001800004680C607047000000230024002500264E
:10019000103A28BF78C1FBD8520728BF30C148BFEA
:1001A0000B607047642903F03784002070471FB547
:1001B0001FBD10B510BD03F00DFD1146FFF7F7FF91
:1001C00000F041F803F02BFD03B4FFF7F2FF03BC8E
:1001D00000F0D8FE7FB505460C460121022001F053
:1001E00032FEADF80850ADF804400020ADF80A002A
:1001F000ADF8060001A9504802F054F9012241214E
:100200004D4802F0C6FC1D208DF8000000208DF83E
:10021000010003208DF8020001208DF803006846DC
:1002200000F079FF7FBD10B50121434802F05FFF68
:1002300040B10121404802F06BFF40480068401C7B
:100240003E49086010BD002400F02CFE00F094FE32
:100250004FF4165000F0A5FE002140F28330FFF766
:10026000B9FF4FF48063364A3649374800F085FAC3
:1002700000F02EFA344800F0A7FA00F060FB00F01E
:10028000E9FA4FF480632E4A3049314800F00AFB06
:100290002F4800F044FB04E02E4820F81440601C76
:1002A00084B2FF2CF8DB00F063F98023294A4FF079
:1002B000D04125483C3000F0B6F923483C3000F0EE
:1002C000DCF9254A25494FF4806000F097FD31E0C4
:1002D00023491B4800F084FB0121174802F03EFC33
:1002E00000F038FC0021144802F038FC1348016883
:1002F0001CA003F051FB00201049086000F0CDFC69
:10030000002413E01848006804F028FE0646174948
:10031000096851F83400314604F022FD054604F026
:10032000FDFD134921F81400601C84B20E480068DA
:100330008442E7DBCCE7000000040040000000201E
:10034000580100204C24014008000240087400407D
:10035000300402405800002058910020581100201D
:100360000AD7233C25640A0020000020300000202A
:1003700058090020704700BFFEE700BFFEE700BF3E
:10038000FEE700BFFEE77047704770477047000008
:100390000CB50020019000906C48006840F480305B
:1003A0006A49086000BF6948006800F400300090A6
:1003B0000198401C0190009818B90198B0F5A06F01
:1003C000F1D16248006800F4003010B101200090C3
:1003D00001E0002000900098012843D15C480068AB
:1003E00040F010005A4908600846006820F00300F9
:1003F00008600846006840F0020008605348406802
:10040000524948600846406848600846406840F4E1
:10041000806048600846406820F47C1048600846C8
:10042000406840F4E81048600846006840F080707A
:10043000086000BF4548006800F000700028F9D04F
:100440004248406820F00300404948600846406840
:1004500040F00200486000BF3C48406800F00C00DB
:100460000828F9D10CBD10B5FFF792FF10BD10B5EB
:100470003648006840F0010034490860084640688A
:10048000344908403149486008460068324908400C
:100490002E4908600846006820F48020086008465D
:1004A000406820F4FE0048604FF41F008860FFF7AA
:1004B000DAFF4FF000602949086010BD10B5002137
:1004C00000200022214B5B6803F00C0121B10429BC
:1004D00006D0082928D107E0214B224C236027E0D1
:1004E0001F4B204C236023E0184B5B6803F4701013
:1004F000164B5B6803F48032022303EB904022B971
:10050000194B4343174C23600DE0104B5B6803F419
:10051000003323B1144B4343124C236003E0104BD0
:100520004343104C236003E00D4B0E4C236000BF8F
:1005300000BF064B5B68C3F303130C4CE15C094B33
:100540001B68CB40074C236010BD00000010024028
:10055000002002400000FFF8FFFFF6FE08ED00E07B
:1005600000127A000400002000093D00080000206D
:1005700000B597B001214FF4F07001F057FC012154
:10058000080201F046FC4FF63370ADF80000182069
:100590008DF8030003208DF802006946454801F0FC
:1005A00089F94FF68370ADF800006946424801F0C2
:1005B00081F94FF23F00ADF8000069463F4801F075
:1005C00079F940F23F40ADF8000069463C4801F03F
:1005D00071F9002001900290032003900020049004
:1005E00005900690079004200890002009900A903A
:1005F00010200B9000200C900E900D900F901090FA
:100600004FF480501190002012901390149001A884
:100610001590169008A800F033FE0121042000F088
:1006200097FF17B000BD2DE9F04107460D4616466D
:100630001C460121084601F0ECFB384602F06CFD37
:100640002048048020480560466010201E498860CC
:100650000846C460402008618020486140008861ED
:100660008000C86120200862C00148628000886262
:10067000384602F0F3FDBDE8F08110B504460021D4
:10068000204602F016FE0F480188104802F026FEB0
:100690000121204602F00DFE10BD10B506E00478E1
:1006A0004FF0D0435C54891C401C521E002AF6D1E6
:1006B00010BD00000014014000180140001C014062
:1006C000002001401800002068A1002044000240E2
:1006D00000B587B001214FF4017001F0A7FB4FF482
:1006E000004001F007FB0220ADF8040000208DF867
:1006F000070001A9534801F0DDF8534802F036FE27
:10070000002002908DF80C0001208DF80D004FF4B0
:10071000602004900020059001208DF8180002A9A7
:10072000494802F04AFE072301221146464802F0DA
:10073000DCFE0121444802F077FE0121424802F02C
:1007400068FE414802F087FE00BF3F4802F088FE85
:100750000028FAD13C4802F08DFE00BF3A4802F072
:100760008EFE0028FAD10121384802F0A2FD0121B5
:10077000354802F08EFE07B000BDF0B58BB00746DD
:100780000D4616461C460121084601F042FB304842
:100790000480384602F0C0FC0095019600200290CB
:1007A00003940490802005904000069080000790FC
:1007B00020200890C001099000200A906946384620
:1007C00002F04CFD0BB0F0BD10B5044600212046F0
:1007D00002F06FFD1E4801881C4802F07FFD0121D8
:1007E000204602F066FD10BD10B504460723012225
:1007F0002146154802F079FE0121134802F049FE16
:1008000000BF0221104802F0B5FF0028F9D00E48C1
:1008100002F0D2FE10BD2DE9F04107460C4600253E
:10082000002608E03846FFF7DFFF0544052000F00A
:1008300076FB701CC6B2A642F4DBB5FBF4F080B2C6
:10084000BDE8F0810008014000240140080002409A
:100850001A00002000B585B00121042001F0E6FA5D
:100860000121480701F0EFFA1020ADF81000002038
:100870008DF8130003208DF8120004A9524801F0EE
:1008800019F81021504801F0C2F80420009000200F
:1008900001900290022003906946002002F099FF27
:1008A00005B000BDF0B58BB007460D4616461C4698
:1008B0000121022001F0ADFA44480480384602F0DC
:1008C0002BFC0095019610200290039400200490C8
:1008D000802005904000069080000790202008901E
:1008E0000002099000200A906946384602F0B6FCE2
:1008F0000121384602F0DDFC0121002002F086FFD4
:100900000121002002F093FF01220221384602F06B
:10091000DCFC01212E4802F021F90BB0F0BD10B52E
:1009200004460021204602F0C4FC284801882948DA
:1009300002F0D4FC0121204602F0BBFC10BD0EB534
:100940000121102001F07FFA684602F0D7F8D72085
:10095000ADF804000620ADF800000020ADF8060058
:10096000ADF8020069461A4801F09CFD20211848A4
:1009700002F06DFB0EBD2DE9F0470446204604F061
:1009800005FB81461449484604F0EAF981464FF0D8
:100990008B41484604F00EFB824604F053F90746AB
:1009A0004FF066320D4B03F0A7FD054603F0C2FC85
:1009B0008146484604F0B2FA85B22946002002F08A
:1009C00086FFBDE8F0870000000801401C00002001
:1009D000001000403004024000007A4466660A407D
:1009E00070B505460E4600240EE035F8140004F0FC
:1009F000CDFAFA49096841F834000020F74909683E
:100A000001EBC4014860641CF54800688442ECDBDB
:100A100070BD2DE9FF474FF0000A00BF20E0F1480C
:100A2000006803F0F0FE04460D46504603F0EBFE6E
:100A3000ED4AEE4BCDE9000103F010FF06462246D9
:100A40002B4603F059FD804603F024FCCDE902015A
:100A500003F070FCE649096841F82A000AF1010A2E
:100A6000E44800688245DADDBDE8FF872DE9F04102
:100A70000546DB48006804F071FA0746294604F091
:100A800099FA064604F02EFA04466410D948006824
:100A9000844202DDD3480068041BD548006850F842
:100AA0002400BDE8F0812DE9F0410546CC480068FE
:100AB00004F054FA0746294604F07CFA064604F08E
:100AC00011FA04466410CB480068844208DAC94829
:100AD0000068001BC649096851F82000BDE8F08194
:100AE000C4480068201AC249096851F8200080F003
:100AF0000040F3E7FCB501460020B94F3E6806EB25
:100B0000D6777C10B64E3668751E00221FE08242F2
:100B100012DA01EBC007C0CFCDE9006701EBC006D8
:100B200001EBC20CDCE9007CC6E9007C01EBC206EB
:100B3000DDE9007CC6E9007C234604E0C01A1E46BD
:100B400003EBD6777B108342F8DD1844521CAA428F
:100B5000DDDBFCBD2DE9F04F8BB00027B846002649
:100B60000024A14600259D480068FFF7C3FF012728
:100B70008BE0012000FA07F94FEA6908002680E0BF
:100B8000404603F040FECDE90201304603F03BFE53
:100B9000CDE90001DDE9022303F0AEFCCDE904015B
:100BA00003F0C8FB82465046FFF760FF80F000402C
:100BB00009905046FFF777FF089034465CE004EB5D
:100BC0000805864A0999126802EBC502506804F0CC
:100BD000F1F98346814A0899126852F8350004F009
:100BE000E9F95946059004F0B1FA06907B4A089954
:100BF000126802EBC502506804F0DCF98346774ABC
:100C0000126852F83510099804F0D4F95946059045
:100C100004F044F80790714A0699126852F83400BB
:100C200004F094FA6D49096841F835006B4A079958
:100C3000126802EBC402506804F088FA6749096838
:100C400001EBC5014860654A0699126852F8340004
:100C500004F024F86149096841F834005F4A0799B3
:100C6000126802EBC402506804F018F85B49096886
:100C700001EBC40148604C445948006884429EDB43
:100C8000761C4645FFF67CAF7F1C5B4800688742B8
:100C90007FF76FAF0BB0BDE8F08F2DE9F04F8BB051
:100CA0000027B84600260024A14600254B480068CE
:100CB000FFF720FF012789E0012000FA07F94FEA3A
:100CC000690800267EE0404603F09DFDCDE9020163
:100CD000304603F098FDCDE90001DDE9022303F081
:100CE0000BFCCDE9040103F025FB82465046FFF7DB
:100CF000BDFE09905046FFF7D6FE089034465CE0F2
:100D000004EB0805354A0999126802EBC5025068E0
:100D100004F050F98346314A0899126852F83500B8
:100D200004F048F95946059004F010FA06902B4A51
:100D30000899126802EBC502506804F03BF983463B
:100D4000264A126852F83510099804F033F95946CA
:100D5000059003F0A3FF0790204A0699126852F805
:100D6000340004F0F3F91D49096841F835001B4AC5
:100D70000799126802EBC402506804F0E7F91749BA
:100D8000096801EBC5014860144A0699126852F8D7
:100D9000340003F083FF1149096841F834000F4A19
:100DA0000799126802EBC402506803F077FF0B4901
:100DB000096801EBC40148604C440948006884425A
:100DC0009EDB761C4645FFF67EAF7F1C0A48006816
:100DD00087427FF771AF0BB0BDE8F08F3000002085
:100DE0002000002028000020182D4454FB21094039
:100DF000340000202C000020240000202DE9F041C8
:100E000004460D4616464FF0000801271F480460AF
:100E100000201F49086000BF07E07F001C480068F1
:100E2000401C1B49086008F1010818480068874207
:100E3000F3DB1649086800EBD0714910154A1160C0
:100E400012490868C11700EB91718910124A1160AC
:100E50001248056012480660FFF7DBFDBDE8F0812F
:100E600010B50E48006830B10C48006802F06DFD06
:100E700000200A4908600A48006830B10848006844
:100E800002F063FD00200649086010BD200000202C
:100E900024000020280000202C000020300000202A
:100EA0003400002010B56FF0040000F07EF92E48E9
:100EB00000682E49B0FBF1F02D4908700846007813
:100EC00000EB4001C1EBC0104FF6FF7101EAC0001A
:100ED0002849088010BD0146254A12784A434FF040
:100EE000E0235A6100229A611A46126942F0010217
:100EF0001A6100BF4FF0E022106900F001021AB140
:100F000000F48032002AF5D04FF0E022126922F07E
:100F100001024FF0E0231A6100229A6170470146F6
:100F2000144A12884A434FF0E0235A6100229A6122
:100F30001A46126942F001021A6100BF4FF0E02226
:100F4000106900F001021AB100F48032002AF5D0D5
:100F50004FF0E022126922F001024FF0E0231A6103
:100F600000229A61704700000400002000127A00FD
:100F7000380000203A00002010B54FF4A06000F0C7
:100F8000C5F810BD014600BF704700BF4B4A12882C
:100F900002F04002002AF9D0C2B2484B1B1D1A8051
:100FA000704710B586B00446012144F2040000F0F9
:100FB0003DFF424800F09EFF4FF40070ADF8140072
:100FC00003208DF8160018208DF8170005A93C485D
:100FD00000F070FC4FF48060ADF8140004208DF830
:100FE000170005A9364800F065FC25208DF80000A3
:100FF00003208DF801008DF8020001208DF8030018
:10100000684600F088F801940020ADF80800ADF8BB
:101010000A00ADF80C00ADF810000C20ADF80E0081
:1010200001A9264800F0A9FF012240F225512348DA
:1010300001F03BF80121214801F02BF806B010BD6A
:1010400010B540F225511D4801F014F910B31B48AA
:1010500001F090F8C4B21B48008800F40040C8B901
:101060001848008800F4804060B10A2C03D00020AA
:101070001449088020E01348008840F400401149DA
:10108000088019E00D2C06D10E48008840F48040FD
:101090000C49088010E00B480088C0F30D000A4995
:1010A0000C5408480088401C0649088008460088FF
:1010B000C72801DD0020088010BD00000038014075
:1010C000000801404000002094A10020094880470A
:1010D00009480047FEE7FEE7FEE7FEE7FEE7FEE71A
:1010E000FEE7FEE7FEE7FEE704480549054A064B32
:1010F000704700006F04000831010008C0A2002002
:10110000C0A80020C0A40020C0A400203149014391
:10111000314A1160704770B5002100230F22C47856
:1011200004B32D4C246804F4E064C4F5E064210A9F
:10113000C1F10403CA40447804FA03F184781440EE
:1011400021430901254C0678A155047804F01F05B8
:101150000124AC4005786D11AD0005F1E025C5F81E
:10116000004109E0047804F01F050124AC401C4D47
:101170000678761145F8264070BD1A4A0A400243A7
:10118000154B1B1F1A60704739B1134A121D1268A4
:101190000243114B1B1D1A6006E00F4A121D126814
:1011A00082430D4B1B1D1A607047042808D14FF075
:1011B000E021096941F004014FF0E022116107E0EC
:1011C0004FF0E021096921F004014FF0E0221161A4
:1011D000704700000000FA050CED00E000E400E0BC
:1011E00080E100E080FFFF1F30B943F2DB028100A5
:1011F000A1F1C0410A6005E043F2D2028100A1F1F1
:10120000C0410A606FF07042411C8900A1F1C041E9
:101210000A608100A1F1C041C1F804217047102883
:101220000AD118214FF020421166402151664FF03B
:10123000FC319166D16610E01821F74A1160402117
:101240004FF02042C2F884104FF0FC31F24A0832CD
:1012500011604FF02042C2F88C1070471820EE4900
:101260002031086000200906C1F8A4004FF0FC30CE
:10127000E94928310860091D0860091D08607047A8
:10128000D0E901121143C268114302691143426956
:10129000114382691143C2691143026A1143426AD0
:1012A0001143826A1143C26A1143026B11430268FF
:1012B0009200A2F1C0421160816808290BD1016837
:1012C0008900A1F1C041096841F04002016889002C
:1012D000A1F1C0410A60416B0968426B526841EA62
:1012E0000211426B926841EA0221426B928941EA03
:1012F0000241426B128A41EA0251426B127D41EA7D
:101300000261426B926911430268521C9200A2F181
:10131000C0421160C16AB1F5804F1BD1816B096871
:10132000826B526841EA0211826B926841EA0221A3
:10133000826B128A41EA0251826B127D41EA02619C
:10134000826B9269114302689200A2F1C042C2F816
:10135000041107E06FF0704201688900A1F1C041FB
:10136000C1F80421704730B50021002200234468F1
:1013700044F0080485682C43C5682C4305692C4358
:10138000456944EA4524856944EA4531C4692468CD
:10139000C5696D6844EA0524C5692D8944EA054498
:1013A000C5692D7B44EA0562046A2468056A6D6894
:1013B00044EA0524056A2D8944EA0544056A2D7B23
:1013C00044EA05630468102C05D14FF020442166DF
:1013D000A266E36608E0904C21604FF02044C4F818
:1013E00088208D4C0C34236030BD016841F0100121
:1013F000426841EA4221826841EA4231864A20320B
:101400001160C1680968C268526841EA0221C26875
:10141000128941EA0241C268127B41EA02617E4AB6
:1014200028321160016909680269526841EA0221A3
:101430000269128941EA02410269127B41EA0261B2
:10144000754A2C321160416909684269526841EA63
:1014500002214269128941EA02414269127B41EA52
:1014600002614FF02042C2F8B010704700210160C5
:101470000221416000218160C1600161416181619F
:10148000C16101624FF480514162490081620021D3
:10149000C16201630F21426B1160426B5160FF21F9
:1014A000426B91600F21426BD160426B1161426BC4
:1014B00051610021426B91610F21826B1160826B3F
:1014C0005160FF21826B91600F21826BD160826B32
:1014D0001161826B51610021826B91617047102113
:1014E0000160002141608160C160016141618161F1
:1014F000FC21C2691160C2695160C2699160C26910
:10150000D160026A1160026A5160026A9160026AE7
:10151000D16070470021016041608160FC21C26898
:101520001160C2685160C2689160C268D16002698E
:10153000116002695160026991600269D16042697B
:10154000116042695160426991604269D16070479F
:1015500051B18200A2F1C042126842F00103820040
:10156000A2F1C042136009E08200A2F1C0421268F9
:101570002A4B1A408300A3F1C0431A60704799B107
:10158000102808D14FF02042126E42F004024FF0B2
:1015900020431A661DE0204A126842F004024FF010
:1015A0002043C3F8802014E0102809D14FF02042D6
:1015B000126E1A4BDB1E1A404FF020431A6608E0E9
:1015C000154A1268154BDB1E1A404FF02043C3F832
:1015D0008020704748B110492031096841F004016A
:1015E0004FF02042C2F8A01009E00B4920310968F1
:1015F0000A4AD21E11404FF02042C2F8A010704794
:10160000B9B110280CD14FF02042126E42F04002C6
:101610004FF020431A661FE0800000A0FEFF0F007D
:10162000724A126842F040024FF02043C3F8802013
:1016300012E0102808D14FF02042126E6C4B1A4075
:101640004FF020431A6607E0684A1268684B1A4058
:101650004FF02043C3F88020704701460020102936
:1016600003D14FF02042506F02E0604A14321068FC
:10167000704710B5F2B1102807D14FF020435B6ED0
:101680000B434FF02044636632E0B0F5807F08D111
:10169000564B1B1D1B680B434FF02044C4F884308D
:1016A00026E0524B24331B680B434FF02044C4F810
:1016B000A4301DE0102807D14FF020435B6E8B4310
:1016C0004FF02044636613E0B0F5807F08D1474BAC
:1016D0001B1D1B688B434FF02044C4F8843007E087
:1016E000424B24331B688B434FF02044C4F8A43092
:1016F00010BD10B5024600200023102A03D14FF080
:101700002044636E09E0B2F5807F03D1374C241D7D
:10171000236802E0354C2434236803EA01040CB149
:10172000012000E0002010BD102807D14FF020421A
:10173000526E8A434FF020435A6613E0B0F5807F23
:1017400008D12A4A121D12688A434FF02043C3F879
:10175000842007E0254A243212688A434FF0204350
:10176000C3F8A420704770B502460020002300246F
:101770000025102A03D14FF02046736E09E0B2F520
:10178000807F03D1194E361D336802E0174E243690
:10179000336803EA010403EAD10514B10DB1012055
:1017A00000E0002070BD102808D14FF02042526E9A
:1017B00022EAD1024FF020435A6615E0B0F5807F4F
:1017C00009D10A4A121D126822EAD1024FF02043C1
:1017D000C3F8842008E0054A2432126822EAD102C4
:1017E0004FF02043C3F8A42070470000800000A001
:1017F000BFFF0F0010B50446CC48844208D1012138
:10180000042000F02DFB0021042000F029FB46E01D
:10181000C748844208D10121082000F021FB0021A3
:10182000082000F01DFB3AE0C248844208D10121A3
:10183000102000F015FB0021102000F011FB2EE01D
:10184000BD48844208D10121202000F009FB00217D
:10185000202000F005FB22E0B848844208D1012195
:10186000402000F0FDFA0021402000F0F9FA16E0D7
:10187000B348844208D10121802000F0F1FA002110
:10188000802000F0EDFA0AE0AE48844207D1012141
:10189000801500F0E5FA0021A01500F0E1FA10BD76
:1018A00010B50121084600F0DBFA0021012000F00C
:1018B000D7FA10BD2DE9F041024600250026002090
:1018C00000230024002791F803C00CF00F0591F8C5
:1018D00003C00CF0100CBCF1000F03D091F802C053
:1018E0004CEA050591F800C0BCF1000F31D0146836
:1018F00000202BE04FF0010C0CFA00F3B1F800C00F
:101900000CEA03069E4220D183004FF00F0C0CFA24
:1019100003F7BC4305FA03FC4CEA040491F803C046
:10192000BCF1280F06D14FF0010C0CFA00FCC2F8F4
:1019300014C00AE091F803C0BCF1480F05D14FF084
:10194000010C0CFA00FCC2F810C0401C0828D1D3CE
:101950001460B1F800C0BCF1FF0F34DD5468002002
:101960002EE000F1080C4FF0010808FA0CF3B1F872
:1019700000C00CEA03069E4221D183004FF00F0CF9
:101980000CFA03F7BC4305FA03FC4CEA040491F893
:1019900003C0BCF1280F05D100F1080C08FA0CF8BF
:1019A000C2F8148091F803C0BCF1480F07D100F1D0
:1019B000080C4FF0010808FA0CF8C2F81080401C1F
:1019C0000828CED35460BDE8F0814FF6FF71018046
:1019D000022181700421C170704702460020936883
:1019E0000B400BB1012000E00020704701468868E1
:1019F00080B2704702460020D3680B400BB1012033
:101A000000E0002070470146C86880B2704701615D
:101A10007047416170470AB1016100E04161704760
:101A2000C16070474FF480320A43826181618261F4
:101A300082698269704702460020434B18684FF65E
:101A40008073184040EA021008433F4B186070470B
:101A50003E49C8617047F0B50A46002300240021C2
:101A6000002500F00046B6F1004F02D1364EF16974
:101A700001E0354E7168C0F3034583B200F44016AF
:101A8000B6F5401F08D121F070612F4E766826F020
:101A900070662D4F7E6012E000F48016B6F5801F50
:101AA00006D1032606FA05F4A14341F0706106E071
:101AB000460D360103FA06F6B14341F0706122B1DA
:101AC000460D360103FA06F6314300F00046B6F142
:101AD000004F02D11C4EF16101E01B4E7160F0BD60
:101AE00030B500228B071C0F0F2303FA04F2164BAC
:101AF00008338C1053F824309343134C08348D1062
:101B000044F8253023468C1053F824308C07240FDA
:101B100000FA04F423430C4C08348D1044F82530AB
:101B200030BD0A49DC310860704700000008014000
:101B3000000C014000100140001401400018014059
:101B4000001C014000200140000001400000204234
:101B5000DF48006840F00100DD4908600846406841
:101B6000DC490840DA49486008460068DA4908401C
:101B7000D74908600846006820F4802008600846BD
:101B8000406820F4FE0048604FF41F0088607047F2
:101B9000CF49096821F48031CD4A116011460968A6
:101BA00021F480211160B0F5803F03D0B0F5802F83
:101BB0000ED106E0C649096841F48031C44A11607B
:101BC00007E0C349096841F4A021C14A116000E05F
:101BD00000BF00BF704710B501460022002300205F
:101BE0004A11012A02D1BA4C236806E0022A02D126
:101BF000B74C236A01E0B64C636A01F01F0201246E
:101C000094401C400CB1012000E0002010BD38B50C
:101C1000002000900024002500BF3120FFF7DBFFEB
:101C200005460098401C00900098B0F5A06F01D0C8
:101C3000002DF2D03120FFF7CEFF08B1012400E0E3
:101C40000024204638BD01460020A14A106820F03B
:101C5000F80040EAC10010607047A0490860704772
:101C6000024600209A4B586820F47C1042EA010397
:101C70001843974B5860704798490866704701466B
:101C80000020934A506820F00300084350607047DA
:101C90008F48406800F00C007047014600208C4AD5
:101CA000506820F0F0000843506070470146002063
:101CB000874A506820F4E06008435060704701464E
:101CC0000020834A506820F4605040EAC100506010
:101CD000704729B17E4A527A02437D4B5A7204E022
:101CE0007B4A527A82437A4B5A7270477B49D83189
:101CF0000860704701460020754A506820F4404053
:101D00000843506070470021714A20321170704AB8
:101D100082F82010012802D004280AD104E0012111
:101D20006B4A2032117005E00521694A203211709A
:101D300000E000BF00BF7047694908607047644910
:101D4000096A0143624A1162704765494439086073
:101D5000704730B500210022002400235C4D6D68DF
:101D600005F00C0121B1042905D0082923D105E093
:101D70005C4D056022E05B4D05601FE0544D6D68D1
:101D800005F47012524D6D6805F48034022505EBA0
:101D900092421CB9544D554305600BE04C4D6D68A3
:101DA00005F400351DB1504D5543056002E04D4D21
:101DB0005543056002E04B4D056000BF00BF444D38
:101DC0006D6805F0F0010909484D6B5C0568DD4060
:101DD00045603F4D6D6805F4E061090A434D6B5C59
:101DE0004568DD4085603A4D6D6805F46051C90A6B
:101DF0003E4D6B5C4568DD40C560354D6D6805F452
:101E00004041890B3A4D6B5CC568B5FBF3F5056144
:101E100030BD29B12E4A526902432D4B5A6104E06C
:101E20002B4A526982432A4B5A61704729B1284A8A
:101E300092690243264B9A6104E0254A92698243E3
:101E4000234B9A61704729B1214AD2690243204B42
:101E5000DA6104E01E4AD26982431D4BDA617047A1
:101E600029B11B4AD2680243194BDA6004E0184AD0
:101E7000D2688243164BDA60704729B1144A12695E
:101E80000243134B1A6104E0114A12698243104B5A
:101E90001A61704712494039086070470F49C86499
:101EA00070470B49C87170470948406A40F080701C
:101EB00007494862704701460020054A92680A4077
:101EC0000AB1012000E00020704701498872704784
:101ED000001002400000FFF8FFFFF6FE0000424243
:101EE0008004424200127A0000093D0042000020B6
:101EF0005200002010B50446FB48844209D101215C
:101F00008803FFF7ADFF00214FF48040FFF7A8FFE3
:101F100032E0F648844209D101214804FFF7ADFFC1
:101F200000214FF40030FFF7A8FF25E0F04884427D
:101F300009D101218804FFF7A0FF00214FF4802080
:101F4000FFF79BFF18E0EB48844209D10121C80448
:101F5000FFF793FF00214FF40020FFF78EFF0BE007
:101F6000E548844208D101210805FFF786FF0021DA
:101F70004FF48010FFF781FF10BD2DE9F04786B0C8
:101F800005460E460024A24600BFA1460027B089A0
:101F900000B100BF2F462C8A4CF6FF700440F08839
:101FA00004432C82AC894EF6F3100440B08831898A
:101FB0000843718908430443AC81AC8A4FF6FF4063
:101FC0000440B0890443AC8201A8FFF7C2FEC648B2
:101FD000874202D1DDF810A001E0DDF80CA0A8894D
:101FE00000F4004040B10AEBCA0000EB0A1031686F
:101FF0004900B0FBF1F807E00AEBCA0000EB0A1059
:1020000031688900B0FBF1F86420B8FBF0F00401FE
:102010002009642101FB1089A88900F4004040B127
:10202000322000EBC900B0FBF1F000F007000443E0
:1020300008E0322000EB09106421B0FBF1F000F061
:102040000F0004432C8106B0BDE8F0874FF4165111
:10205000016000218180C18001810C21418100212A
:102060008181704710B502460020108A4FF2FF03AD
:1020700018400B884C8823438C882343CC88234307
:102080001843108210BD0021018041808180C180F1
:10209000704721B1828942F40052828104E0828932
:1020A0004DF6FF731A4082817047F0B50346002455
:1020B00000260025002040F66A17B94200D100BF73
:1020C0001846C1F3421401F01F06012707FA06F56E
:1020D000012C01D10C3004E0022C01D1103000E0C1
:1020E00014301AB107682F43076002E00768AF4356
:1020F0000760F0BD1AB1838A0B43838202E0838AB2
:102100008B4383827047028A4FF6F0731A40028233
:10211000028A0A430282704782894FF2FF731A4093
:10212000828182890A438281704721B1828942F08B
:102130000202828104E082894FF6FD731A40828197
:102140007047028A4FF6DF731A400282028A0A43FE
:102150000282704721B1028A42F48042028204E086
:10216000028A4BF6FF731A4002827047C1F30802DD
:102170008280704701468888C0F3080070478189D3
:1021800041F0010181817047028BD2B20283028B40
:1021900042EA012202837047028B02F47F420283EB
:1021A000028B0A430283704721B1828A42F02002E7
:1021B000828204E0828A4FF6DF731A40828270477F
:1021C00021B1828A42F01002828204E0828A4FF6B4
:1021D000EF731A408282704721B1828A42F008026E
:1021E000828204E0828A4FF6F7731A408282704737
:1021F00021B1828942F40042828103E08289C2F3E4
:102200000E028281704721B1828A42F4006282828A
:1022100004E0828A4FF2FF731A4082827047828AFA
:102220004FF6FB731A408282828A0A438282704789
:1022300021B1828A42F00202828204E0828A4FF651
:10224000FD731A408282704702460020B1F5007F7C
:1022500000D100BF13880B400BB1012000E000202B
:10226000704701F40072B2F5007F00D100BFCA438D
:102270000280704770B5024600240023002500202C
:1022800040F66A16B14200D100BFC1F3421501F019
:102290001F03012606FA03F3012D02D1968933406C
:1022A00006E0022D02D1168A334001E0968A3340BF
:1022B0000C12012606FA04F41688344013B10CB14E
:1022C000012000E0002070BD10B50022002340F680
:1022D0006A14A14200D100BF0A1201249440A3B2A3
:1022E000DC43048010BD0000003801400044004081
:1022F00000480040004C00400050004010B504462B
:10230000FE48844208D10121C014FFF7A9FD002135
:10231000E014FFF7A5FDC4E0B4F1804F08D101211E
:102320000846FFF7AAFD00210120FFF7A6FDB8E04F
:10233000F348844208D101210220FFF79EFD0021CD
:102340000220FFF79AFDACE0EE48844208D101215B
:102350000420FFF792FD00210420FFF78EFDA0E08E
:10236000E948844208D101210820FFF786FD0021B9
:102370000820FFF782FD94E0E448844208D101215F
:102380001020FFF77AFD00211020FFF776FD88E08E
:10239000DF48844208D101212020FFF76EFD002193
:1023A0002020FFF76AFD7CE0DA48844208D1012151
:1023B0004014FFF755FD00216014FFF751FD70E058
:1023C000D548844209D10121C804FFF749FD002105
:1023D0004FF40020FFF744FD63E0D048844209D168
:1023E00001210805FFF73CFD00214FF48010FFF7A5
:1023F00037FD56E0CA48844209D101214805FFF75C
:102400002FFD00214FF40010FFF72AFD49E0C548D9
:10241000844208D101214020FFF72FFD00214020F8
:10242000FFF72BFD3DE0C048844208D10121802008
:10243000FFF723FD00218020FFF71FFD31E0BB489F
:10244000844208D101218015FFF717FD0021A01556
:10245000FFF713FD25E0B648844209D101210804A5
:10246000FFF7FEFC00214FF48030FFF7F9FC18E085
:10247000B048844209D101214804FFF7F1FC002152
:102480004FF40030FFF7ECFC0BE0AB48844208D17E
:1024900001218804FFF7E4FC00214FF48020FFF7BE
:1024A000DFFC10BD00220288944B98420ED0994B5D
:1024B00098420BD0B0F1804F08D0914B984205D094
:1024C000904B984202D0904B984204D14FF68F73B4
:1024D0001A404B881A438D4B984207D08C4B984238
:1024E00004D04FF6FF431A40CB881A4302808B88F2
:1024F00083850B880385814B98420BD0854B98428E
:1025000008D08B4B984205D08A4B984202D08A4B18
:10251000984201D10B7A038601238382704770B5FC
:10252000002400220023058C4FF6FE7635400584FA
:10253000028C8388048B4FF68F752C40B51E2C407F
:102540000D882C43751E2A400D892A434D882A4345
:102550006A4DA8420BD06F4DA84208D0744DA842D6
:1025600005D0744DA84202D0734DA84213D14FF646
:10257000F7752A404D892A434FF6FB752A408D880E
:102580002A434FF6FF652B404FF6FF552B408D89B0
:102590002B43CD892B4383800483CD888586028499
:1025A00070BD70B5002400220023058C4FF6EF7635
:1025B00035400584028C8388048B48F6FF752C40D7
:1025C0004FF6FF452C400D884FF6FF7606EA0525AD
:1025D0002C434FF6DF752A400D8906EA05152A437C
:1025E0004D8806EA05152A43444DA84202D0494DBC
:1025F000A8421DD14FF67F752A404D894FF6FF76D0
:1026000006EA05152A434FF6BF752A408D8806EA6B
:1026100005152A434FF6FF352B404FF2FF752B402F
:102620008D8906EA85052B43CD8906EA85052B436E
:1026300083800483CD880587028470BD70B5002433
:1026400000220023058C4FF6FF6635400584028C7E
:102650008388848B4FF68F752C404FF6FC752C4089
:102660000D882C434FF6FF552A400D894FF6FF7613
:1026700006EA05252A434D8806EA05252A431F4D0B
:10268000A84202D0234DA8421DD14FF2FF752A4027
:102690004D894FF6FF7606EA05252A434FF6FF35AA
:1026A0002A408D8806EA05252A434EF6FF752B4001
:1026B0004DF6FF752B408D8906EA05152B43CD8914
:1026C00006EA05152B4383808483CD8885870284A1
:1026D00070BD70B5002200230024058C4EF6FF76F5
:1026E00035400584038C8488828B48F6FF752A4028
:1026F0004FF6FF452A400D8820E00000002C0140E5
:102700000004004000080040000C004000100040A1
:102710000014004000340140004C014000500140D2
:102720000054014000180040001C00400020004000
:102730000040014000440140004801404FF6FF7650
:1027400006EA05252A434DF6FF752B400D8906EA5A
:1027500005352B434D8806EA05352B43FA4DA84233
:1027600002D0FA4DA84208D14BF6FF752C408D8956
:102770004FF6FF7606EA85152C4384808283CD8848
:10278000A0F84050038470BD828B4FF2FF331A4093
:102790008283828B4FF6FF7303EA01231A438283FD
:1027A0007047F0B50C461546002200210026078C24
:1027B0004EF6FF7C07EA0C070784828B018C4FF6EC
:1027C000FF7707EA043640F6FF473A404FF6FF77B7
:1027D00007EA05273A434FF6FF7707EA03373A43FC
:1027E000D94FB8420ED0D94FB8420BD0B0F1804F7C
:1027F00008D0D74FB84205D0D64FB84202D0D64FF6
:10280000B84206D14DF6FF77394046F48057394338
:1028100005E047F6FF57394044F480573943828337
:102820000184F0BD828B4FF6F3731A408283828B52
:102830000A4382837047F0B50C46154600220021FA
:102840000026078C4FF6FF6C07EA0C070784828B83
:10285000018C4FF6FF7707EA04264FF60C773A40D3
:102860004FF6FF7707EA03172F433A43B64FB842B4
:102870000ED0B64FB8420BD0B0F1804F08D0B44F55
:10288000B84205D0B34FB84202D0B34FB84206D1D8
:102890004FF6FF57394046F48077394305E04FF251
:1028A000FF57394044F48077394382830184F0BD77
:1028B000028B4FF2FF331A400283028B4FF6FF73F5
:1028C00003EA01231A4302837047F0B50C4615460C
:1028D000002200210026078C4FF6EF7C07EA0C0748
:1028E0000784028B018C4FF6FF7707EA041640F647
:1028F000FF473A404FF6FF7707EA03373A434FF670
:10290000FF7707EA05273A438F4FB8420ED08F4F23
:10291000B8420BD0B0F1804F08D08D4FB84205D0EF
:102920008C4FB84202D08C4FB84206D14FF6DF77B9
:10293000394046F01007394305E04FF65F773940DC
:1029400044F01007394302830184F0BD028B4FF637
:10295000F3731A400283028B0A4302837047F0B577
:102960000C46154600220021068C4FF6FE773E40AD
:102970000684028B018C4FF60C7632407E1C06EAF0
:1029800003162E433243704EB0420ED06F4EB0420B
:102990000BD0B0F1804F08D06D4EB04205D06D4ED7
:1029A000B04202D06C4EB04206D14FF6FD763140B7
:1029B00044F00106314305E04FF6F576314044F02E
:1029C0000106314302830184F0BD70B505460C4613
:1029D0005D4885420ED05D4885420BD0B5F1804FF1
:1029E00008D05B48854205D05A48854202D05A48F3
:1029F000854200D100E000BF208850B92389A28819
:102A000061882846FFF7ABFFE1882846FFF79EFF65
:102A100025E0208804280AD12389A28861882846D5
:102A2000FFF753FFE1882846FFF742FF17E02088B1
:102A300008280AD12389A28861882846FFF7FBFE6F
:102A4000E1882846FFF7EEFE09E02389A288618825
:102A50002846FFF7A6FEE1882846FFF795FE70BDE1
:102A60002DE9F04105460C4600260127608808B98B
:102A7000022600E00026A088012801D1022700E0FC
:102A800001272088A0B92389A28861882846FFF7FA
:102A900066FFE1882846FFF759FF23893A46314609
:102AA0002846FFF712FFE1882846FFF701FF13E0F1
:102AB0002389A28861882846FFF707FFE188284616
:102AC000FFF7F6FE23893A4631462846FFF747FFCF
:102AD000E1882846FFF73AFFBDE8F0810A884B8875
:102AE0001A438B881A43CB881A430B891A434B89A4
:102AF0001A438B891A43A0F8442070474FF6FF71A0
:102B0000818000210180C1804180017270470021D5
:102B1000018041808180C180018141818181C181A9
:102B20007047002101804180012181800021C18006
:102B3000018170470021018041808180C180018135
:102B40004181818170470000002C01400034014028
:102B50000004004000080040000C004021B1028841
:102B600042F00102028004E002884FF6FE731A4030
:102B70000280704731B1B0F8442042F40042A0F81E
:102B8000442005E0B0F84420C2F30E02A0F844202F
:102B900070471AB183890B43838102E083898B4399
:102BA000838170478182704741EA0203A0F8483070
:102BB00070471AB183890B43838102E083898B4379
:102BC0008381704701894FF6F87211400181704787
:102BD0000A46002101894FF68F7319401143018184
:102BE000704730B504460D4629462046FFF7F0FFF2
:102BF000208940F00700208130BD2DE9F0410446D6
:102C00000D4616461F46602D06D13B460122314631
:102C10002046FFF75AFE05E03B460122314620469A
:102C2000FFF79DFE29462046FFF7D2FF208940F09E
:102C300007002081BDE8F08130B50C4600210189F4
:102C4000C9B24FF6FF7505EA03251543254329430D
:102C5000018130BD2DE9F04105460E4617469846E4
:102C6000002443463A4631462846FFF7E5FF2C89C3
:102C70004FF6F870044044F007044FF68F7004409C
:102C800044F070042C81BDE8F081F0B504460D4697
:102C900016461F463B46324629462046FFF7CCFFE4
:102CA000208940F480402081F0BD018582827047F8
:102CB0000A46002101884FF68F73194011430180A5
:102CC0007047F0B50C4615461E4600210022002331
:102CD0000189028B038C4FF6F877394021434FF678
:102CE000FC473A4040F201173A434FF6DD773B404C
:102CF0004FF6FF7707EA06172F433B430181028314
:102D00000384F0BD0A460021018B4FF68F731940F2
:102D10001143018370470A460021018B48F6FF7377
:102D200019404FF6FF7303EA0223194301837047EA
:102D30000A460021818B4FF68F731940114381831E
:102D400070470A460021818B48F6FF7319404FF601
:102D5000FF7303EA022319438183704721B102887C
:102D600042F08002028004E002884FF67F731A402E
:102D70000280704721B1828842F00402828004E020
:102D800082884FF6FB731A408280704721B1828897
:102D900042F00802828004E082884FF6F7731A40FE
:102DA0008280704721B1828842F00102828004E073
:102DB00082884FF6FE731A40828070470A460021CF
:102DC000018B4FF6F77319401143018370470A4690
:102DD0000021018B4FF2FF7319404FF6FF7303EA96
:102DE00002231943018370470A460021818B4FF665
:102DF000F77319401143818370470A460021818B84
:102E00004FF2FF7319404FF6FF7303EA0223194391
:102E1000818370470A460021018B4FF6FB731940EE
:102E20001143018370470A460021018B4FF6FF339F
:102E300019404FF6FF7303EA0223194301837047D9
:102E40000A460021818B4FF6FB73194011438183A1
:102E500070470A460021818B4FF6FF3319404FF629
:102E6000FF7303EA02231943818370470A46002156
:102E7000018B4FF67F7319401143018370470A4657
:102E80000021018BC1F30E014FF6FF7303EA022309
:102E90001943018370470A460021818B4FF67F73E7
:102EA00019401143818370470A460021818BC1F389
:102EB0000E014FF6FF7303EA022319438183704723
:102EC0000A460021018C4FF6FD731940114301841D
:102ED00070470A460021018C4FF6F77319401143E1
:102EE000018470470A460021018C4FF6DF731940B8
:102EF0004FF6FF7303EA02131943018470470A4631
:102F00000021018C4FF67F7319404FF6FF7303EADF
:102F100002131943018470470A460021018C4FF6C1
:102F2000FF5319404FF6FF7303EA0223194301844C
:102F300070470A460021018C4FF2FF7319404FF68B
:102F4000FF7303EA02231943018470470A460021F4
:102F5000018C4DF6FF7319404FF6FF7303EA0233FD
:102F600019430184704730B5002301248C40A3B27B
:102F7000048C9C430484048C02FA01F5ADB22C430A
:102F8000048430BD30B5002304248C40A3B2048CEB
:102F90009C430484048C02FA01F5ADB22C430484F2
:102FA00030BD70B5034600200024184618300125B6
:102FB0008D40ACB21D8CA5431D8409B1082909D1EF
:102FC00000EB6100056825F0700505600568154394
:102FD00005600EE00D1FC5F34E052844056825F475
:102FE000E045056005684FF6FF7606EA02263543A0
:102FF000056070BD21B1028842F00202028004E047
:1030000002884FF6FD731A400280704721B1028892
:1030100042F00402028004E002884FF6FB731A407B
:103020000280704721B1828842F08002828004E0F1
:1030300082884FF67F731A408280704702884FF66D
:10304000F7731A40028002880A4302807047828820
:103050004FF68F731A40828082880A4382807047BD
:1030600002894FF6F8731A40028102890A430281ED
:10307000704702894FF67F731A40028102890A4322
:1030800002817047818470478185704781867047CF
:103090000187704781877047A0F840107047028809
:1030A0004FF6FF431A40028002880A4302807047AD
:1030B0000146888E70470146088F70470146888F09
:1030C00070470146B1F8400070470146888C704750
:1030D0000146088D704702460020138A0B400BB151
:1030E000012000E000207047CA430282704730B5DB
:1030F0000246002000230024158A05EA0103958971
:1031000005EA010413B10CB1012000E0002030BD3C
:10311000CA4302827047000001684FF6FE721140F8
:1031200001600021016041608160C1608D49884279
:1031300008D18C490839496841F00F01894A083A99
:1031400051608AE087491431884208D1854908399D
:10315000496841F0F001834A083A51607DE08149B5
:103160002831884208D17F490839496841F47061A3
:103170007C4A083A516070E07A493C31884208D173
:1031800078490839496841F47041764A083A5160F3
:1031900063E074495031884208D17249083949685E
:1031A00041F470216F4A083A516056E06D4964312C
:1031B000884208D16B490839496841F47001694A6D
:1031C000083A516049E067497831884208D1654939
:1031D0000839496841F07061624A083A51603CE040
:1031E0006149884206D1011F096841F00F01021FA1
:1031F000116032E05C491431884208D15A49091FF4
:10320000096841F0F001584A121F116025E0564943
:103210002831884208D15449091F096841F4706176
:10322000514A121F116018E04F493C31884208D1C1
:103230004D49091F096841F470414B4A121F116042
:103240000BE049495031884207D14749091F0968B5
:1032500041F47021444A121F1160704710B50022DA
:10326000026847F6F0739A430C6A8B6823430C6933
:1032700023434C6923438C692343CC6923434C6A21
:1032800023438C6A23431A430260CB6843600B6874
:1032900083604B68C36010BD0021016041608160A4
:1032A000C160016141618161C1610162416281620C
:1032B000704721B1026842F00102026004E0026836
:1032C0004FF6FE731A40026070471AB103680B4351
:1032D000036002E003688B430360704741607047FE
:1032E0000146486880B2704701460020002201F084
:1032F00080531BB11C4B083B1A6802E0194B083B7A
:103300001A6802EA01030BB1012000E000207047B7
:1033100000F0805119B11449091F086002E01149F9
:1033200008394860704701460020002201F08053B0
:103330001BB10D4B083B1A6802E00A4B083B1A68A8
:1033400002EA01030BB1012000E00020704700F009
:10335000805119B10449091F086002E00149083988
:1033600048607047080002400804024010B5044657
:10337000FA48844208D101214015FEF771FD002171
:103380006015FEF76DFD17E0F548844208D1012174
:103390000015FEF765FD00212015FEF761FD0BE02D
:1033A000F048844208D10121C803FEF759FD0021ED
:1033B0004FF40040FEF754FD10BD30B5024600202A
:1033C00000235068E84C20400D790C6844EA05243D
:1033D000204350609068E54C2040D1E902542C43D2
:1033E0004D7944EA450420439060D06A20F470008F
:1033F0000C7C641EE4B2234340EA0350D06230BD2B
:1034000000210160017141718160C160012101747D
:10341000704721B1826842F00102826003E0826855
:1034200022F001028260704721B1826842F480720A
:10343000826003E0826822F480728260704710B577
:103440000023CBB21AB144681C43446002E04468D4
:103450009C43446010BD816841F008018160704761
:10346000014600208A6802F008020AB1012000E04B
:1034700000207047816841F0040181607047014677
:1034800000208A6802F004020AB1012000E0002056
:10349000704721B1826842F4A002826003E0826832
:1034A00022F4A00282607047014600208A6802F47C
:1034B00080020AB1012000E00020704710B50A46E2
:1034C00000210023416821F46041531E41EA433149
:1034D000416010BD21B1426842F40062426003E0E5
:1034E000426822F4006242607047F0B504460D461F
:1034F00000200021092D11DDE068A5F10A0606EB88
:103500004607072606FA07F18843A5F10A0606EBE7
:10351000460603FA06F10843E0600CE0206905EB7B
:103520004507072606FA07F1884305EB450603FA27
:1035300006F108432061072A0FDA606B561E06EB7E
:1035400086071F2606FA07F18843561E06EB8606F5
:1035500005FA06F10843606322E00D2A0FDA206BBA
:10356000D61F06EB86071F2606FA07F18843D61FEB
:1035700006EB860605FA06F10843206310E0E06AD0
:10358000A2F10D0606EB86071F2606FA07F188430F
:10359000A2F10D0606EB860605FA06F10843E06285
:1035A000F0BD21B1826842F48012826003E082683B
:1035B00022F48012826070470146C86C80B2704766
:1035C00066484C300068704721B1426842F480621E
:1035D000426003E0426822F480624260704721B199
:1035E000426842F48052426003E0426822F4805212
:1035F000426070470A460021816821F4E04111438E
:103600008160704721B1826842F40042826003E029
:10361000826822F400428260704721B1826842F4DD
:103620000212826003E0826822F402128260704714
:10363000014600208A6802F400120AB1012000E06D
:1036400000207047F0B504461546002000220026F1
:10365000092911DDE068A1F10A0707EB470C0727EC
:1036600007FA0CF29043A1F10A0707EB470703FAA8
:1036700007F21043E0600CE0206901EB410C0727E2
:1036800007FA0CF2904301EB410703FA07F21043EB
:103690002061A06BC0F30156EF1C06F1010CA7EBF3
:1036A0000C0707EB870C1F2707FA0CF29043EF1C5F
:1036B00006F1010CA7EB0C0707EB870701FA07F2ED
:1036C0001043A063F0BD10B50A4600210023816BB2
:1036D00021F44011531E41EA0351816310BD08B526
:1036E000002300930090009B0B440093009B1A6002
:1036F00008BD08B5024600200090009201F12800A4
:10370000009B184400900098006880B208BD0A46EB
:1037100000214168164B19401143416070474162D6
:10372000826270470A460021416821F01F0111435F
:103730004160704740B109490831096841F400010E
:10374000064A0832116007E004490831096821F48B
:103750000001024A08321160704700000024014055
:1037600000280140003C0140FFFEF0FFFDF7F1FFA3
:10377000FFFD3FFF0246002013680B400BB1012004
:1037800000E000207047CA430260704770B50246EF
:103790000020002300240B125568CEB205EA06046F
:1037A00015681D4015B10CB1012000E0002070BD6E
:1037B00000220A12D34303607047000010B50121B4
:1037C0004807FEF75AFB00214FF00050FEF755FB6B
:1037D00010BD30B5002200235A4C226840F6FE741A
:1037E0008440A243D1E900452C438D682C43CD6829
:1037F00044EA050303FA00F42243524C226030BD30
:103800000021016041608160C160704739B14D4A5B
:103810001268012383401A434A4B1A6006E0494A62
:103820001268012383409A43464B1A60704741B1A6
:10383000444A12684FF4805383401A43414B1A6044
:1038400007E0404A12684FF4805383409A433D4B4F
:103850001A60704710B551B13A4A121D1268040936
:103860000123A3401A43374B1B1D1A6009E0354A58
:10387000121D126804090123A3409A43314B1B1DFA
:103880001A6010BD40B12F49091D096841F00301BC
:103890002C4A121D116007E02A49091D096821F010
:1038A0000301284A121D1160704710B53AB1254B2B
:1038B0001B6801FA00F42343224C236006E0214BED
:1038C0001B6801FA00F4A3431E4C236010BD08B529
:1038D000002200921B4A009200F10802009B1A4449
:1038E0000092009A116008BD08B500220092154AA6
:1038F000009200F11402009B1A440092009A116099
:1039000008BD30B500240023082802D142EA012472
:1039100001E042EA01440B4B00F120052B441C60FE
:1039200030BD08B5014600200090064800902C20CC
:1039300000EB9100009A104400900098006880B25B
:1039400008BD000000740040704770B50446051FB4
:1039500000F0A2F80068002C14BF446870BD002C71
:1039600018BFAC423CBF20466468F8D301680A180F
:10397000AA4218BF456003D12A6805461144016078
:1039800028684119A1421CBF6C6070BD6168696004
:1039900021680844286070BD0FB4044910B503AA1B
:1039A000029800F0E1F810BC5DF814FB3C00002028
:1039B0002DE9F0410E460446002020622046E168D1
:1039C000884730B3252805D0D4E901219047206AE3
:1039D000401CF2E7E168204600278847050018D020
:1039E000A5F14100192802D820354FF4006732466E
:1039F000294620462760FCF7D5FB40B1012804D0BA
:103A0000F61D26F007060836D8E7361DD6E7284605
:103A1000DAE7206ABDE8F0812DE9F041064600248E
:103A200010687529314616A510D0AFF30080002824
:103A300002DA404213A507E031688A0701D512A5D2
:103A400002E0490704D511A5012401E0AFF300808D
:103A500000210A2206F1240709E0B0FBF2FCB0FBCA
:103A6000F2F302FB1C00303078541846491C002841
:103A7000F3D123462A463046BDE8F04100F01BB89A
:103A8000000000002D0000002B00000020000000BE
:103A900070477047704770470048704764A2002025
:103AA00010B500F077F8006810BD10B5044600F0BE
:103AB00071F8046010BD2DE9F0470D469946924615
:103AC000044600F124080168880604D5E06921F065
:103AD0001001216000E00120A84201DD471B00E049
:103AE0000027A1697A1902EB0900081AA061207861
:103AF000C00602D42046AFF30080002608E0D4E9D7
:103B000001211AF806009047206A401C761C2062AA
:103B10004E45F4DB2078C0060AD52046AFF300807E
:103B200006E0D4E9012130209047206A401C206241
:103B3000381EA7F10107F4DC07E0D4E9012118F8E9
:103B400005009047206A401C2062281EA5F101054F
:103B5000F3DC2046AFF300802078000602D5022077
:103B6000BDE8F0870120FBE7074B70B50D467B44AD
:103B700000F019F80446284600F028F810B14FF07C
:103B8000FF3070BD204670BD19D4FFFF004870475C
:103B90005CA20020004870475CA2002001694A1C1A
:103BA00002610878704700B58FB0CDE9013100217E
:103BB000059105497944CDE9031011466846FFF7A0
:103BC000F7FE0FB000BD0000E5FFFFFF007B00F037
:103BD000800070477546FFF7D9FFAE46050069467D
:103BE000534620F00700854618B020B5FDF77CFA53
:103BF000BDE820404FF000064FF000074FF00008EE
:103C00004FF0000B21F00701AC46ACE8C009ACE86E
:103C1000C009ACE8C009ACE8C0098D46704704464D
:103C2000AFF300802046FCF7CFFA490050EAC120EC
:103C300018BF04204A0D18BF40F0010040F2FF7287
:103C4000B2EB515F08BF40F00200012808BF052019
:103C5000704700002DE9F74F144694B00021C4E9E5
:103C600002111599079121F00045C9498D4206DCE2
:103C70001599C4E9000117B00020BDE8F08FC549CF
:103C8000DFF814A3A9423CDD0799C44E0029C44FB4
:103C9000C44A1599534619DD00F0EAFE554506D091
:103CA000C14AC24B00F0E4FEC4E900010AE04FF053
:103CB000D352BE4B00F0DCFE32463B4600F0D8FE4D
:103CC000C4E9000117B00120BDE8F08F00F064FBEB
:103CD000554506D0B44AB54B00F05EFBC4E900017F
:103CE0000AE04FF0D352B14B00F056FB32463B4650
:103CF00000F052FBC4E9000117B04FF0FF30BDE8FF
:103D0000F08FAB49A942159978DB21F00041834639
:103D10008846A84AA84B00F0A1FD0022A74B00F05E
:103D20003BFB00F041FD099000F06DFD06460F469B
:103D30009C4A534600F092FD43465A4600F08CFEE2
:103D400080468A46984A994B3046394600F086FDAF
:103D50002A0D01250B924246534600F07DFE032DAD
:103D6000C4E9000139D00B98C1F30A51401A05EBA0
:103D700045111139814230DA9148C346784400EB4D
:103D80000510CDF80CA00C90D0E900233046394640
:103D900000F064FD02460B460491069058460399D4
:103DA00000F066FE80468A4602460B465846039956
:103DB00000F05EFE049B069A00F05AFE83460C98C3
:103DC00003913946D0E90223304600F047FD5A46B8
:103DD000039B00F04DFE6D1CBDE707980028A2BFB5
:103DE000099817B0BDE8F08F616881F0004161600B
:103DF000099817B04042BDE8F08FFFE78446159858
:103E0000C1F31301C0F30A50A0F2F5304FEA601875
:103E100000F01F06C6F120001390002006900790C6
:103E200041F4801E05206D4676B1664A08EB00011C
:103E30007A4452F8213002EB8101B3404A68139969
:103E400022FA01F1194305E05F4908EB00027944C9
:103E500051F82210A1FB0E27A1FB0C131A449A4221
:103E600034BF0123002303EB070A05EB8003D3E9EA
:103E700001B70F448F4234BF0121002193448B448A
:103E800011B1934502D903E0934501D2012100E02D
:103E90000021C3E901B7514445F82010011EA0F1EB
:103EA0000100C1DC0298059F00F10050800F1290C4
:103EB0000298DDE90356800000F0A5FC8346284601
:103EC0000D9100F0B7FC6FF01D0201F0E6F9CDE9AD
:103ED0000E01304600F0AEFC6FF03D0201F0DDF95E
:103EE00080468A46384600F0A5FC6FF05D0201F07E
:103EF000D4F9074642465346119100F04DFADDE9E8
:103F00000E2300F049FA5A460D9B00F045FA0025B1
:103F10000E465A4628460D9B00F0AAFDDDE90E2309
:103F200000F0A6FD4246534600F0A2FD3A46119B22
:103F300000F092FDDFF898A0244A534600F08EFC72
:103F400007468846234A244B3146284600F086FC23
:103F50003A46434600F020FA074688464FF0A8420A
:103F600053463146284600F079FC3A46434600F075
:103F700013FA159A12F0004F04D0129A81F0004102
:103F800052421292C4E90001129817B0BDE8F08FB6
:103F9000FB21E93F7CD90240FB21F93F7370032EDE
:103FA0008A19A33B000040543163621A61B4D03DCA
:103FB000FB21394183C8C96D305FE43F0000E03F19
:103FC000D81500005415000036150000182D445473
:103FD000FB21F93D3326A611460B113C2DE9FF4D7F
:103FE00021F0004807460C46B8F1795F08DA00F086
:103FF000DBFB002801BF0020324904B0BDE8F08D92
:104000003A4623461046194600F028FC054602466B
:104010002D480E460B460621784400F05DF82A46EE
:10402000334600F01BFCDDE9022382468B4638460E
:10403000214600F013FC04460F4652465B462846D4
:10404000314600F00BFC22463B4600F011FD0746CE
:104050008A464FF0FF322846314601F01EF91B4ACE
:1040600090450ADA3A46534600F002FD04B00022B9
:10407000BDE8F04D134B00F0EFBC154A4245A8BF18
:10408000A8F500154FF00004B8BF124D22462B468C
:1040900000F0EEFC0646884622462B4600200949E1
:1040A00000F0E6FC04460D463A465346304641468B
:1040B00000F0DEFC04B022462B46BDE8F04D00F0D7
:1040C000CBBC00000000F03F0C1300003333D33FA3
:1040D0000000E93F0000D23F2DE9F0414F1E00EB08
:1040E000C7010446D1E9000115461E4637F0060215
:1040F0000DD02A46334600F0B1FB7F1E04EBC70308
:10410000D3E9002300F048F937F00602F1D1022F7D
:1041100025D0042F13D0062F18BFBDE8F0812A4602
:10412000334600F09BFBD4E90A2300F035F92A4618
:10413000334600F093FBD4E9082300F02DF92A461A
:10414000334600F08BFBD4E9062300F025F92A461C
:10415000334600F083FBD4E9042300F01DF92A461E
:10416000334600F07BFBD4E9022300F015F92A4620
:10417000334600F073FBD4E90023BDE8F04100F0C2
:104180000BB900002DE9FF4D054621F0004084B039
:104190000C46B0F1795F0BDA2846FFF746FD04289C
:1041A00008BF00F06FF8284608B02146BDE8F08D42
:1041B0002A460B46104600F051FB06460F462A469B
:1041C000234600F04BFB804626488A4632463B4653
:1041D00005217844FFF780FF83461098029160B371
:1041E000214A224B4046514600F038FBCDE9000100
:1041F0005A4640465146029B00F030FB82468846B4
:10420000DDE906014FF0FF3201F047F85246434620
:1042100000F02EFC32463B4600F020FBDDE9062391
:1042200000F026FCDDE9002300F022FC08B02A465D
:104230002346BDE8F04D00F00FBC0B465A46304611
:10424000394600F00BFB084A084B00F0A5F842463F
:10425000534600F003FB08B02A462346BDE8F04D64
:1042600000F09AB84A120000495555555555C5BF3A
:10427000012201F012B8002213461046114600F048
:104280003BB90000024A0020110701F006B8000007
:1042900001FDFFFF00B5254B21F0004287B09A4297
:1042A00003DC0022134600922BE0214B9A4208D1F6
:1042B00040B94FF00100FFF7F8FBFFF7DCFF07B054
:1042C00000BD03DBFFF7D4FF07B000BD02AAFFF774
:1042D000C1FC10F003014FF001000DD0012914D0F2
:1042E00002291AD00DF1080C9CE80F00FFF776FEAA
:1042F00007B081F0004100BD0DF1080C00909CE872
:104300000F00FFF73FFF07B000BD0DF1080C9CE860
:104310000F00FFF763FE07B000BD0DF1080C009021
:104320009CE80F00FFF72EFFE2E70000FB21E93FCA
:104330000000F07F21F00042A2F16052B2F5801F30
:1043400001F0004328BFD2F17F6C0BD95FEA001C5B
:1043500043EAC20242EB507018BF704728BF20F0FA
:1043600001007047B2F5801FBCBF184670474FEA86
:10437000410C1CF5001F02D2084600F0E2BE70B5E9
:1043800000F016FB00000089FFF7F6BF4FF0004079
:10439000A0F580007047000010B591EA030F48BFF8
:1043A00083F0004300F16C83841A71EB030C05D297
:1043B000121943EB0C03001B61EB0C01DFF824E145
:1043C0004FEA1154A4EB135C1EEA430F18BF9EEA98
:1043D000445F73D023EA0E03DCF1200E21EA04517E
:1043E00043F4801332D322FA0CFE10EB0E0023FAB2
:1043F0000CFE41EB0E01CCF1200E03FA0EFE10EB89
:104400000E0051F10001B1F5801FCCF1200E32D227
:1044100001EB045112FA0EF2BDE8104058BF70478C
:10442000401C38BF5FEA420218BF7047002814BF23
:1044300020F0010041F100014FEA410313F5001F94
:1044400038BF7047A1F1C04100F000BB012A43EB27
:104450000302ACF1200CDCF11F0E32BF4FF0000E56
:1044600023FA0CF310EB030041EB0451B4EB115FA2
:10447000D0D0A1EB045101F5801149085FEA30006A
:1044800001EB04510ED350F1000038BF12FA0EFEBA
:1044900008D1BDE81040C9E7401C38BF5FEA4202BE
:1044A000CAD1C3E7BDE810404FEA410313F5001F2E
:1044B00038BF7047A1F1C04100F0C8BA9EEA445F1E
:1044C00008D011EA5E0FBDE8104004BF01F00041C2
:1044D00000207047BDE8104070B500F069FA00BFD9
:1044E00064FBBE3E0000E0FF02494FF0000000F018
:1044F000A2BE00BF0000F87F2DE9C04130B4DFF854
:10450000A0C23CEA111418BF3CEA131400F0EC807E
:1045100081EA03051CEA111444EAD57418BF1CEAA9
:10452000131500F0C780A4EB05044FF0004545EAE1
:10453000C12145EAC32341EA505143EA525304F1F1
:104540007F74994204F500344FEAC0204FEAC2223A
:1045500008BF904200F09C804FEA13650FF24016AE
:10456000765D4FEA134506FB05F7C7F1807706FB3A
:1045700007F74FEAD737A7FB03687642C8F58038BC
:10458000A7FB06CE38BFA8F1010807FB08E64FF0ED
:10459000000EA6FB028CE6FB03CEDCF1000CCEF194
:1045A000004E38BFAEF1010EA6FB0C584FF00007CD
:1045B0004FF00005E6FB0E87A1FB08C6A0FB07CE67
:1045C00016EB0E0645F10005E1FB076515F1E04E1F
:1045D0007EBFA4F580345FEA46066D4116F1800780
:1045E00045F100054FEA17274FEA066647EA0567D7
:1045F000A6F1DE46B6F1805F4FEA15251FD9384691
:1046000024F0010C05EBC471BCF1FE6F01EB0C1141
:1046100002D8F0BCBDE8008124425CBF01F5801ED9
:104620009EEAC47F02D4F0BCBDE80081244238D4A5
:10463000F0BCA1F1C041BDE8004100F007BA4FEA6B
:10464000D22242EA43524FEAD323A7FB02864FEA23
:10465000D02040EA415007FB03661EEA0E0F4FEAE6
:10466000D12105FB026658BFA6EB0056B6EB0056FB
:104670004FEA520E4EEAC37E18EB0E0E56EB530E67
:10468000BDD518EB02085E417F1C55F10005B6E769
:104690004FF480154FF000074FF000064FF0000870
:1046A000ADE7F0BC4FF0000001F1C04101F0004166
:1046B000BDE8008111EA0C1F0CEA131500D00CE0D4
:1046C00013EA0C1F00F025804FF00000F0BC81EAD7
:1046D000030101F00041BDE80081F0BCBDE80041EC
:1046E00081EA030100F0B2B9F0BCBDE8004170B549
:1046F00000F05EF9097EFC3E00F007B881EA030194
:104700004FF0000001F00041704781EA030100F022
:104710009DB9F0BCBDE800414FF000002149704751
:10472000FFFDFBF9F7F5F4F2F0EEEDEBE9E8E6E476
:10473000E3E1E0DEDDDBDAD8D7D5D4D3D1D0CFCDFD
:10474000CCCBCAC8C7C6C5C4C2C1C0BFBEBDBCBB36
:10475000BAB9B8B7B6B5B4B3B2B1B0AFAEADACAB31
:10476000AAA9A8A8A7A6A5A4A3A3A2A1A09F9F9E0B
:104770009D9C9C9B9A9999989797969595949393BD
:10478000929191908F8F8E8E8D8C8C8B8B8A898954
:1047900088888787868585848483838282818180D7
:1047A0000000FF070000F87F4FEA41034FEA535330
:1047B000A3F58063D3F11E03C8BFD3F1210C0CDD38
:1047C0004FF0004242EAC12242EA505232FA03FC60
:1047D0008CEAE17CACEBE1707047102BC4BF002089
:1047E000704703F5787CBCF1FF3F04D06FF00042C6
:1047F00082EA2100704770B500F0DAF8499224800F
:1048000000207047F2E710F0004248BF4042B0FA83
:1048100080F310FA03F10AD0C3F11D0303F580639E
:104820004FEA415002EB035202EBD12170474FF0A7
:1048300000007047B0FA80F310FA03F10AD0C3F118
:104840001D0303F580634FEA41504FEA035202EB28
:10485000D12170474FF0000070470000DFF848C1D9
:1048600070B51CEA111E1EBF1CEA13159EEA0C0F40
:1048700095EA0C0F00F06F8081EA030423EA4C13E1
:104880004EEAD47E21EA4C1141F4801143F48013A6
:10489000AE44A1FB024CA0FB0365AEF17F7E36194E
:1048A00055EB0C05A1FB034C4CF10003A0FB021CD3
:1048B00016EB0C06654153F10003094218BF46F0A0
:1048C000010613F4007F0BD14FEA03314FEA0530A4
:1048D000340341EA155140EA16506FF003020AE032
:1048E0004FEAC3214FEAC520F40241EA555140EA9C
:1048F00056506FF0020202EB2E4201EB025585EAA0
:10490000CE710AD05FEA440C18BF24F0004450F185
:10491000000041F1000120EAD47040F2FE7C6245C3
:1049200000D270BDA84214BF4FF080444FF0404405
:10493000002E08BF0024BEF1806FA8BFA1F1C041C6
:10494000BDE8704080F282804FF0000001F1C0416C
:1049500001F0004170479EEA0C0F0CEA131518BFD6
:1049600095EA0C0F06D04FF0000081EA030E0EF01E
:10497000004170BD00F01CF88900013E00F007B84E
:1049800000F009B84FEA430C5FEA5C5C08D081EAAA
:10499000030100F05BB84FEA410C5FEA5C5CF6D1C2
:1049A0004FF00000014970470000FF070000F87F4A
:1049B0000EF1020E2EF0030E5EF8046B364205D4A3
:1049C000012A43EB030515F5001F12D8012841EB1E
:1049D000010C1CF5001F0CD80ED14FEAD17C15F547
:1049E000001F0CEB4C0C0CF1020C08BF4CEBD37C01
:1049F00004E04FF0080C01E04FEAD37C0CEB4C05CF
:104A000026FA05F606F00706B6F1040C06D20EEB00
:104A1000860CBDE870404CF0010C6047DFE80CF0FC
:104A2000090B02024FF000414FF00000A1F50021F8
:104A300070BD19461046012851EB010418BFD4F58A
:104A4000001484BF002001F0004170BD0808A0F5EB
:104A500000114FEA3101704791EA030F10B581F060
:104A600000413FF5A1AC83F0004300F009B800001D
:104A700010B591EA030F48BF83F000433FF594ACB3
:104A8000841A71EB030C07D212198CF0004C43EB23
:104A90000C03001B61EB0C01DFF8A4E14FEA115499
:104AA000A4EB135C1EEA430F18BF9EEA445F00F0BC
:104AB000B08023EA6E03524221EA0451C3EB6E0335
:104AC00038BF5B1EDCF1200E25D322FA0CFE10EB62
:104AD0000E0043FA0CFE41EB0E01CCF1200E03FA5E
:104AE0000EFE10EB0E0051F10001CCF1200E29D486
:104AF00012FA0EF201EB0451BDE8104058BF7047A6
:104B0000401C1CBFB2F1004F704700280CBF491C6D
:104B100020F00100704712EB020E43EB030218BFB6
:104B20004FF0010E4EEA4202ACF1200CDCF11E0EF9
:104B300054D943FA0CFE10EB0E0051F1FF31CCF1C9
:104B40001E0ED5D50EF1010E12FA0EFE404141EBBC
:104B5000010101EB445C5FEA5C5C10D910EBDE7094
:104B600001EB045138BFBEF1004FBDE8104018BF43
:104B7000704700280CBF491C20F00100704730D25C
:104B80004FEAD42C11F5001124F400641BD0B1FAC3
:104B900081F20B3AA41AA41ED2F12003914030FAFC
:104BA00003F31943904001EBCC71002C01EB04514D
:104BB000BDE81040A8BF704701F1C0414FF00000B0
:104BC00001F000417047B0FA80F310FA03F100D110
:104BD00010BDE41A173C4805C90AE4E701EB04518B
:104BE00010BD491001EB0451BDE810404FEA300000
:104BF00002E04FF0000170474A0008BF0042F8D0C1
:104C0000B2F5001F28BF704701F000414FF00000CF
:104C100070479EEA445F07D011EA5E0FBDE810407E
:104C200004BF002100207047BDE8104070B5FFF7B9
:104C3000BFFE00BF40DFF63E83F0004110467047E4
:104C40000000E0FF43004FEAD30C4FEA3C0C434026
:104C50001FBF40070CF1605113F0FE4F70471CF06E
:104C6000006F03D100200CF0004170470CF00043AE
:104C700043EA507010B540EACC0000F01CFA00BFC7
:104C8000000000924FEA0001FFF7E0BE4FF0004144
:104C90004FF00000A1F500217047000090EA010FDD
:104CA00048BF81F0004100F15882421A3CBF801A8F
:104CB00089184FEAD0524FF07F4C1CEA410FA2EB0B
:104CC000D15318BF9CEA026F00F03B804FF0004CBC
:104CD0004CEA00204CEA012121FA03FC10EB0C0CF9
:104CE0001ED202F1FF325FEA1C2040EBC25038BFF7
:104CF00070471CF07F0F4FEA400C18BFBCF17F4F8C
:104D000038BF7047C3F12003994008BF20F001006D
:104D1000BCF17F4F38BF7047A0F1C04000F011BA1E
:104D20004FEA3C00000A40EBC25028BF1CF0FF0FC6
:104D30004FEA400CE6D018BFBCF17F4F38BF704738
:104D4000EAE79CEA026F05D010EA5C0F08BF00F0AA
:104D50000040704710B500F0AEF900BF64FBBE3EE6
:104D60004FF47F0C1CEAD0121EBF1CEAD11392EA4A
:104D70000C0F93EA0C0F00F0858090EA010F48BFFA
:104D800042F4807240F4000C41F400002CF07F41AA
:104D900020F07F4000B58142A2EB03020FF2081C15
:104DA000ACEB504EC0F100009EF800E04FEA4E0E12
:104DB00000FB0EFC38BF49004FEA2C1C02F5FA023A
:104DC0000CFB0EF34FEACE1E4FEA112C4FEAC12125
:104DD0000EEB635E42EB22420EFB0CFC4FEA1C53CF
:104DE00000FB03114FEA112C4FEA01310EFB0CFCC2
:104DF0004FEADC4C00FB0C11C14228BF09184CEBF8
:104E000003335DF804EB10EB410143EBC250B2F504
:104E10007C0F38BF704729D512F0F00F1CBF00F18E
:104E2000C04000F0004070470081828384858687FF
:104E300088898B8C8D8E8F919293959697999A9C59
:104E40009D9FA0A2A3A5A7A8AAACAEB0B2B3B5B7C8
:104E5000B9BCBEC0C2C5C7C9CCCED1D4D7D9DCDF9E
:104E6000E2E6E9ECF0F3F7FAFE0000004FEA400C4E
:104E70000CF1807CBCF17E4F28BF7047B0F1C04080
:104E800000F05FB990EA010F0CEAD11348BF42F479
:104E90008072624538BF634507D213F47F0F16D086
:104EA00080EA010000F00040704710B500F003F9FF
:104EB000097EFC3E00F005B880EA010000F00040E9
:104EC000704780EA010000F0004000F03AB912F4A7
:104ED0007F0F04BF0248704780EA010000F031B93B
:104EE0000000C07F41000B0ED3F19E0208D950F4A0
:104EF00000034FEA032323FA02F048BF4042704701
:104F000010B500F0D8F800BF499224800020704707
:104F10006FF0004282EA200070470000C10DD1F11D
:104F20009E0206DB4FEA002343F0004323FA02F01F
:104F30007047004207D54FEA4001B1F1FE4F02D25F
:104F40004FF00000704710B500F0B5F8499224808A
:104F5000002070476FEA20007047000010F0004109
:104F600048BF4042B0FA80F310FA03F2C3F19D0348
:104F70000BD051EAC35101EB1220530638BF7047E2
:104F800000F1010008BF20F001007047B0FA80F383
:104F900010FA03F2C3F19D030AD0D90501EB1220E8
:104FA000530638BF704700F1010008BF20F0010030
:104FB000704700004FF47F0C1CEAD0121EBF1CEAA1
:104FC000D11392EA0C0F93EA0C0F00F0478090EA9D
:104FD000010F48BF42F480724FF0004C4CEA0020B1
:104FE0004CEA012102EB0302A0FB0113A2F500022F
:104FF000002918BF43F001035B0028BF4FEA3303C9
:1050000042EB22425FEA132C4CEBC2502EBFBCEBAA
:10501000436FB2F57C0F70474FEA036CBCF1004F51
:1050200008BF20F00100B2F57C0F38BF70470BD5E8
:1050300082F0FF0212F5803FC8BF704700F1C04008
:10504000D8BF00F00040704700F5000C5FEA4C0C40
:1050500048BF7047B0F1C04000F073B890EA010F4C
:105060000CEAD11348BF42F48072624538BF6345F1
:1050700004D280EA010000F00040704710B500F053
:105080001AF800BF8900013E00F007B800F009B827
:105090005FEA410C5FEA1C6C08D080EA010000F076
:1050A00050B85FEA400C5FEA1C6CF6D14FF000404C
:1050B000A0F5800070470EF1020E2EF0030E5EF890
:1050C000044B244204D44FEA4102B2F17F4F11D87D
:1050D0004FEA4003B3F17F4F0CD80ED14FEAD07C9A
:1050E000B2F17F4F0CEB4C0C0CF1020C08BF4CEBF7
:1050F000D17C04E04FF0080C01E04FEAD17C0CEBCE
:105100004C0324FA03F404F00704B4F1040C06D2AF
:105110000EEB840CBDE810404CF0010C6047DFE85A
:105120000CF0070802024FF00040A0F5800010BD0F
:105130000846420018BFD2F1807288BF00F00040DC
:1051400010BDFF2141EAD050C005704790EA010F21
:1051500048BF81F000413FF5A8AD421A04D882F063
:105160000042A0EB020011444FEAD0524FF07F4CB6
:105170001CEA410FA2EBD15318BF9CEA026F4AD040
:105180004FF0004C4CEA00204CEA012121FA03FCCC
:10519000B0EB0C0C0FD412F0FE0F36D05FEA4C00CF
:1051A0001DD5001240EBC25038BF70471CF03F0FB6
:1051B00018BF70470BE0A2F101025FEA1C2040EB30
:1051C000C25038BF70471CF07F0F18BF7047C3F143
:1051D0002003994014BF401E20F001007047800852
:1051E0004FEA122308BF7047B0FA80FCA2EB0C0212
:1051F000CCF1280C60FA0CF093EA122F04BF00EBFC
:10520000C25070474FEAC3707047130A5FEADC1060
:1052100008BF7047F6E79CEA026F04D010EA5C0F03
:1052200008BF0020704710B5FFF745FF40DFF63E8E
:1052300081F0004070470CF00F03092B08BF0820D5
:1052400000F059800A2B0BD0082B18BF704708BFFD
:105250001CF0400F0AD04FF000004FF000017047E3
:105260001CF0400F18BF4FF0004070471CF0100FAB
:1052700008D020F0704300F07F4242EAD3014FEAA9
:105280004370704700F0604021F07F4242EA000224
:1052900001F07F4040EA727070474FF0FF0C4CF411
:1052A000E06C1CEA11531CBF9CEA030C9445C2BF7E
:1052B000DA4201EB02517047002B0DD0BCF1000F18
:1052C0000FD0002A01F00041A4BF41F0E04141F0BD
:1052D0007F614FF00000704701F000414FF0000087
:1052E000704750EA01334FF09B0C18BF4CF0806CB4
:1052F0007FF4FAA870471CF4801F11D01CF4E02F33
:1053000003D06FEACC31490070474FF04050EFF3C3
:10531000008222F0704242EA000282F30088704765
:105320004FF00000704700004C5555555555A53FAE
:105330007751C1166CC156BF9015CB19A001FA3E2A
:10534000AD529C804F7E92BEC4B1B4BD9EEE213E54
:10535000D43888BEE9FAA8BD00004054FB21F93FCB
:105360003163621A61B4D03D0000601A61B4D03D6F
:105370007370032E8A19A33B0000002E8A19A33BE9
:10538000C14920259A837B390000000000000000FD
:105390006E83F9A22915444ED15727FCC0DD34F5A0
:1053A000999562DB4190433CAB6351FE61C5BBDE26
:1053B0003A6E24B7E0D24D42EA2E49061C92D1093A
:1053C0001CEB1DFE3EA729B1F53582E88444BB2EB7
:1053D00026709CE9417E5FB439D69139F439538304
:1053E0008B5F849C3B28F9BDFF97F81F0F9805DE63
:1053F0008B112FEF1F6D0A5ACF7E366DB709CB2761
:10540000663F464F2DEA5F9EC7BA27757BF1E5EBF5
:10541000F739073DEA92528AB15FFB6B085D8D1F39
:10542000A6F810111111813FD561C119A0012ABF41
:105430007DFEB157E31DC73EEB9C2B8AE6E55ABEC5
:105440007CD5CF5A3AD9E53D6854000800000020C9
:10545000580000006C010008C054000858000020EB
:1054600068A80000880100080000000000A24A04AB
:105470000000000000000000010203040607080904
:10548000000000000000000000000000000000001C
:10549000000000000000000000000000000000000C
:1054A00000000000000000000000000000000102F9
:1054B00003040102030406070809020406080000A9
:0400000508000131BD
:00000001FF
