:020000040800F2
:10000000D0A5012059020008A9710008955E0008DA
:10001000A57100080B0B00082592000800000000E5
:100020000000000000000000000000009D0100082A
:10003000AF0D000800000000F1010008758B0008FA
:1000400073020008730200087302000873020008BC
:1000500073020008730200087302000873020008AC
:10006000730200087302000873020008730200089C
:10007000730200087302000873020008730200088C
:10008000730200087302000873020008730200087C
:10009000730200087302000873020008730200086C
:1000A000730200087302000873020008730200085C
:1000B000058E00087302000873020008730200082E
:1000C000730200087302000873020008730200083C
:1000D000730200087302000873020008730200082C
:1000E000730200087302000873020008730200081C
:1000F000730200087302000873020008730200080C
:1001000073020008730200087302000873020008FB
:1001100073020008730200087302000873020008EB
:1001200073020008730200087302000873020008DB
:1001300073020008730200087302000873020008CB
:1001400073020008730200087302000873020008BB
:1001500073020008730200087302000873020008AB
:10016000730200087302000873020008730200089B
:10017000730200087302000873020008730200088B
:100180007302000873020008DFF80CD000F0EAF8F0
:1001900000480047D9430108D0A501202B4B19681E
:1001A0000868B0E8F04F80F30988BFF36F8F4FF015
:1001B000000080F3118870470000000006480068C6
:1001C000006880F3088862B661B6BFF34F8FBFF353
:1001D0006F8F00DF00BF00BF08ED00E0DFF80C000C
:1001E000016841F470010160704700BF88ED00E0D4
:1001F000EFF30980BFF36F8F144B1A681EF0100FD6
:1002000008BF20ED108A20E9F04F106008B44FF0CD
:10021000500080F31188BFF34F8FBFF36F8F15F03D
:1002200007FC4FF0000080F3118808BC19680868CB
:10023000B0E8F04F1EF0100F08BFB0EC108A80F34A
:100240000988BFF36F8F704700BF00007000002067
:10025000EFF30580704700000648804706480047D6
:10026000FEE7FEE7FEE7FEE7FEE7FEE7FEE7FEE766
:10027000FEE7FEE7A98B00088901000810B5431AC4
:10028000934209D28318881803E010F8011D03F87F
:10029000011D521EF9D210BD40EA01039B0703D095
:1002A00009E008C9121F08C0042AFAD203E011F8B5
:1002B000013B00F8013B521EF9D210BDD2B201E061
:1002C00000F8012B491EFBD270470022F6E710B55B
:1002D00013460A4604461946FFF7F0FF204610BDB4
:1002E000421C10F8011B0029FBD1801A70470346FD
:1002F00011F8012B00F8012B002AF9D1184670479C
:100300002DE9F05F0546002092469B46884606464A
:10031000814640241BE0284641464746224600F0DD
:1003200042F853465A46C01A914110D31146184616
:10033000224600F029F82D1A67EB01084F462246A5
:100340000120002100F020F817EB00094E41201E8B
:10035000A4F10104DFDC484631462A464346BDE8A5
:10036000F09F0000064C074D06E0E06840F00103F6
:1003700094E8070098471034AC42F6D3FFF708FF23
:100380006C0502088C050208202A04DB203A00FADA
:1003900002F1002070479140C2F1200320FA03F3DC
:1003A000194390407047202A04DB203A21FA02F0DA
:1003B0000021704721FA02F3D040C2F1200291409F
:1003C00008431946704770B58C1810F8015B15F09A
:1003D000070301D110F8013B2A1106D110F8012BB7
:1003E00003E010F8016B01F8016B5B1EF9D12B07DC
:1003F00005D40023521E0DD401F8013BFAE710F892
:10040000013BCB1A921C03E013F8015B01F8015B7E
:10041000521EF9D5A142D8D3002070BD1CB50020D2
:1004200000900346034A0A210190034802F06EFD42
:100430001CBD00006D320108386B01081CB500209E
:1004400000900346034A0A210190034802F05EFD32
:100450001CBD0000F9330108506C01081CB50020D8
:1004600000900346034A0A210190034802F04EFD22
:100470001CBD000085350108686D0108002800DCFE
:10048000404270471FB500200323CDE900300290A1
:1004900003464FF4FA7217A10390174815F0AEFE09
:1004A0000020164A0123CDE9012000930390034662
:1004B0004FF4FA7212A1144815F0A0FE0020022396
:1004C000CDE90030029003464FF4FA720FA1039079
:1004D000104815F093FE00200423CDE9003002906F
:1004E00003464FF4FA720CA103900D4815F086FEF6
:1004F0001FBD000047554900795201080400002043
:100500004E756D626572000055510108546F756338
:10051000680000005D5201085072696E74000000AE
:100520000153010810B504462146512007F0BAFDD9
:1005300010BD2DE9F04105460C4616461F46DDF874
:100540001880E9B2582007F0ADFD2912592007F0B4
:10055000A9FDE1B25A2007F0A5FDB8F1000F04D1C2
:1005600021125B2007F09EFD05E0802040EA242157
:100570005B2007F097FDF9B25C2007F093FD39127C
:100580005D2007F08FFDF1B25E2007F08BFD311288
:100590005F2007F087FDBDE8F081000010B5012065
:1005A00004490870502007F03BFD802007F05AFDF9
:1005B00010BD00005001002010B500BF07F01CFC6A
:1005C00000F040004028F9D000200149087010BD1B
:1005D0005001002038B5456804460146284608F019
:1005E0004BFE00282BD02068304A11280DD006DCA5
:1005F0000B2825D00E2833D00F2852D112E02828FE
:1006000049D0B0F5107F4CD108E09268002A16D08E
:100610002146284601B0BDE8304010472146284613
:100620005268F7E7284602F00BFB0090406E046822
:10063000684602F043FB002C01D02846A04738BD95
:10064000284602F0FDFA0090683002F04FFA009858
:1006500003216C3002F058FA684602F02FFB20E0CC
:10066000E168486809680D2902D0202913D105E006
:10067000002810DD28460FF08CFD06E0002804DD80
:100680002846BDE838400FF084BD2846BDE8384014
:1006900002210FF094BDE06818B90021284600F04F
:1006A000C9F92046BDE8384009F030BA20020020E0
:1006B0002DE9FF410AAF97E87000002703958DE808
:1006C000D00000F003F804B0BDE8F081F0B585B0CB
:1006D0000DF1280C9CE8F0004FF0000C8DE8F010B4
:1006E00000F024F805B0F0BDF0B5044685B080698F
:1006F000B4F90850668A0027CDE90265CDE90017F4
:100700000490B4F90C00B4F91060C118B4F90A00EF
:10071000B4F90E50104433462A4600F007F8054657
:10072000616800F0A6F905B02846F0BD2DE9F04F4C
:1007300085B01F46DDE911B4DDE90E5690468946C5
:10074000824603F0CFFA16484C34CDE90204CDE9D5
:1007500000563B4642464946504609F01FF9040000
:1007600018D002F06DFA10225946049008F0D0FF1C
:10077000049830220B493430FFF780FD094D04996D
:100780000C3D2868486604A802F098FA2868416879
:100790002046884704F08AFA05B02046BDE8F08F6D
:1007A000D50500082C020020F0B5044680688B496E
:1007B00089B051F82050606800287DD0052804D009
:1007C00006287AD0122879D1AEE0E86900284FD007
:1007D00095E80E008DE80F0004F110010FC904F038
:1007E00005FF002655F8260003F0E3FFA169E8693C
:1007F0000A1A216901446069304402F075FFA16959
:10080000E8690A1A21690144E069801B02F06CFF63
:10081000E169E8690A1A616901442069304403F01A
:1008200019F8E169E8690A1A61690144A069801B45
:1008300003F010F8761C022ED4DBA86803F0B9FF91
:10084000E069E9696669431A206942183144801CED
:10085000521E03F083F8E169E869A2690B1A616925
:100860000144101A401C921E03F078F8EE6913E060
:100870005FF0000655F8260003F09BFFE069831B3C
:10088000A069821B606981192069304402F0A2FFCF
:10089000761C022EEEDB0226D5E90301CDE900012C
:1008A0006169E06908444310A069891C821B2069C2
:1008B000304402F0DDFE02E089E012E08AE0D5E992
:1008C0000501CDE90001E36960690121184401EBEC
:1008D0006001A0699B1E821B2069304402F0C8FEA3
:1008E00078E0206802F0ACF9049020680AF048FC37
:1008F00040B1A06808B1002008E00498006F28B15A
:10090000012003E00498406F00B10220049901EB3C
:100910008000C56E04A802F0D1F900231A462846CB
:10092000216802F029FC55E0206802F089F9049062
:10093000866EEEB3B0F95C70A168D1B3032942D0E2
:100940005FF0000100EB8101406D0C6C03F048FF8B
:10095000204603F02EFF05A803F0C2F8BDF81410DE
:10096000A88B0144ADF81410BDF81810081AADF8A2
:100970001800BDF81600801CADF81600BDF81A006E
:10098000801EADF81A000498B0F96020B0F95E102E
:1009900005A803F009FE04A802F090F9022003F074
:1009A0008BFF304602F04CF93A4605A9079001E06A
:1009B0000BE006E002F0E4FC0DF11C0002F07EF911
:1009C00008E00121BEE70221BCE704A8F6E72068A1
:1009D0000AF088F809B00020F0BD0000D8D901085D
:1009E000044A0349116004494A6A48621046704744
:1009F0005C020020200200202C02002000294FF081
:100A0000100101D008F0C7BC08F00EBC38B50D4687
:100A100004000ED003F066F9204602F011F90090B0
:100A20004565684602F04AF9204609F051FD04F098
:100A30003DF938BD4FF480720029114601D008F00D
:100A4000AABC08F0F1BB08B50023009300F001F840
:100A500008BD70B516460C46054619463046049A40
:100A600002F06CFB024621462846BDE8704000F0CB
:100A70002DB82DE9FF410E4605004FF0010421D0AD
:100A800003F030F9284602F0DBF80190876E01A8E8
:100A9000009702F013F93146684605F0ADF878B1D9
:100AA00000980024B84208D0284602F0C9F8019006
:100AB0000099816601A802F001F9284609F008FDB5
:100AC00004F0F4F804B02046BDE8F081F8B515460E
:100AD0000C46060018D003F005F9304602F0B0F8D5
:100AE0000090032C0BD200EB84006C3001F0FEFF71
:100AF000009800EB8400C566304609F0E9FC6846C2
:100B000002F0DCF804F0D2F8F8BD00BFFEE7000008
:100B10002DE9FF470446006810B10AF031FB68B1C7
:100B20000022314850F8221060680A2841D007DCC2
:100B3000F0B306280DD0072854D106E00122F0E7D3
:100B400012280AD019284DD137E020460BF006FCB8
:100B500048E020460CF0E0FD44E0206802F070F828
:100B60000290B0F9548090F85650476C466B02A83A
:100B700002F0A4F8206800F039F88146684609F0D0
:100B8000E3F8BDF8001009EB05000844ADF80000DB
:100B9000246A304603F024FE022003F08DFE38461E
:100BA00003F007FE42466946204602F0E9FB19E0E1
:100BB00007E020460DF000F814E0886904B0BDE8B5
:100BC000F087206809F08EFF206802F039F8039062
:100BD000B0F90610B0F90220891A491CC16703A8B0
:100BE00002F06CF80020E9E7E8D9010838B50446BE
:100BF00003F078F8204602F023F80090C46F6846AE
:100C000002F05CF804F052F8204638BD044A03496B
:100C100011600449CA69C86110467047E8020020A3
:100C2000E4060020E806002000B589B024216846CB
:100C3000FFF74BFB1920019003480068806841686A
:100C40006846884709B000BDE406002070B5044638
:100C5000102007F0B1FE072006F060FB054629468C
:100C6000272006F0DBFC05F0400050B12022214691
:100C7000612006F029FBFF21E22006F0CFFC0020D6
:100C800070BD0120FCE700007CB509F08BF805463B
:100C9000002000902B46044A13210190034802F0E3
:100CA00035F9044620467CBD253701082469010832
:100CB000014800687047000034030020F8B505467D
:100CC000006801F0BDFF0090448ED0F8886068464F
:100CD00001F0F4FF06B1012604F0010428680AF0CF
:100CE0004FFA0EB1002006E00CB1012003E008B17C
:100CF000022000E003201B4951F82010686858B317
:100D000002280CD0052802D0122828D103E028465A
:100D10000BF050FB23E028460DF005FC1FE06A694C
:100D2000E8694FF0FF33801AA0F1080203EB620478
:100D3000421CAB69001B4510A3EB6206C86903F0B7
:100D400038FD06E03219311B284602F0CDFC641E46
:100D50006D1C002CF6DA02E0286809F0C3FE0020C2
:100D6000F8BD0000F0D90108044A034911600449A4
:100D70000A6B0863104670473803002024070020E0
:100D80002807002038B50D46002401F059FF0090D7
:100D9000C06B294601F0C2FF0546684601F08EFF90
:100DA0001DB1284601F04CFF0446204638BD70476F
:100DB0002DE9F04389B0984615460F4606004FF0DE
:100DC00000042CD000F0EAFB0446304600F0CDFBD6
:100DD000814602F087FF03A9304600F082FDF80744
:100DE00006D0BDF91C008221001B401B401C08E0FE
:100DF000B807BDF91800284402D540F2022100E0EE
:100E000002210096CDE9018123461A464946FFF7A3
:100E10004FFC04460021FFF7F1FD03F047FF09B046
:100E20002046BDE8F083000010B50523FFF7C0FFA2
:100E30000446054A0021FFF706FE0449204609F052
:100E400010FD204610BD0000F1C100081137010857
:100E500010B50723FFF7ACFF0446054A0021FFF752
:100E6000F2FD0449204609F0FCFC204610BD0000BC
:100E700089C20008513A010810B50823FFF798FF0E
:100E80000446054A0021FFF7DEFD0449204609F02B
:100E9000E8FC204610BD0000B9C20008873A0108EE
:100EA0002DE9F047456804468EB00027284601F03A
:100EB000C7FE0090B0F87CA0D0F86890D0F8808091
:100EC000D0F88860C06D00B10768684601F0F6FE92
:100ED00005E0716820468847002841D13668002E19
:100EE000F7D12068172852D00CDC0F283BD004DC47
:100EF0000B2874D00D283AD189E0112810D014287D
:100F000035D13AE0262845D004DC1E284FD02028D1
:100F10002DD188E02A2814D0B0F5107F27D127E002
:100F20002846E66801F08CFE0190717A39B9317A71
:100F3000012904D130F87C1F41F48071018001A89F
:100F40008EE0284601F07CFE0090E16811B1C0F807
:100F5000841002E0D0F88400E060684601F0AEFE44
:100F60000EB0BDE8F087002F7CD02846B84779E066
:100F7000214628460FF0B2F9F2E705A9284600F00D
:100F8000B0FCE0680699016007994160E8E7C4F8A1
:100F90000C90E5E7E0680228E2D10C95E0680D903E
:100FA00027200A900AA9A0680AF012FBD8E7E06897
:100FB000012804D00021284600F092FBD0E74046EB
:100FC00009F0E1FA60B1404609F006FD404609F03B
:100FD000ABF990B10121404608F0DDF90DE04BE09E
:100FE000484609F04DFD8046284601F029FE009054
:100FF000C0F88080684601F061FE0121284600F0BB
:101000006FFBB8F1000FABD10020E060A8E75FEA0A
:101010000A7027D4E068C06820B3007A10B328466D
:1010200009F0DAFC1EE0E668E6B1294670680AF0CD
:1010300090F820B10121284610F096FF12E000211F
:10104000284610F091FF294630680AF071F848B13F
:10105000284601F0F5FD03903168C0F8801003A820
:1010600001F02CFE2146284608F006F900288DD014
:10107000204608F04BFD73E7284601F0E1FD0090A3
:10108000703001F033FD6846EAE7F0B587B0B0F99B
:1010900008400DF10C0C0C9E876945688CE8F00047
:1010A000448A0025CDE900150294B0F90C10B0F97E
:1010B0001050B0F90E40B0F90A00194410442B4604
:1010C000224600F003F807B0F0BD00002DE9F04F14
:1010D0008BB09846DDE9155691468A468346149FA3
:1010E0001A9C02F0FFFD3348603445F48055CDE989
:1010F0000204CDE9007543464A465146584608F079
:101100004DFC04004FD001F09BFD30220490179954
:1011100008F0FEFA0498282227493430FFF7AEF889
:1011200004981999244F4166A0F87C600026C0F805
:101130008060C666083FC0F888607968C16504A809
:1011400001F0BCFD05A9204600F0CBFB1B4841F295
:10115000827103960094CDE90110BDF91E00BDF91E
:101160001A10BDF91C20431ABDF918005B1C121A95
:10117000521C08F013FC06467868416820468847F0
:10118000204601F05DFD0490866604A801F096FDFE
:1011900042F20400054202D1204608F057FD2046E5
:1011A000189900F024FB03F081FD0BB02046BDE848
:1011B000F08F0000A10E0008FC030020E91B0008CE
:1011C0002DE9F041044694B0006800F0B7F908B189
:1011D000D94D01E0D84D2C35606815281ED00CDCA7
:1011E0000B281FD004DC00287ED005287DD12FE1FC
:1011F0000E287BD01228F9D141E1162806D01728F5
:1012000008D0182808D01C28F0D109E0E86914B0EB
:10121000BDE8F081286AFAE7686AF8E7A86AF6E7A5
:101220006869F4E720680B901C200C90206801F09E
:1012300007FD0390016D0BA88847064603A801F03F
:101240003DFD022E0FDB95E807008DE80700D4E98D
:1012500004023346A16904F08FF920698719A06957
:10126000A0EB06082CE0286803F0A3FA2169E869DE
:101270000A18521E606902F037FAA269E869111A69
:10128000491C606902F030FAD4E904077F1C394632
:1012900002F07AFA3946A06902F076FA686803F03B
:1012A00088FA20693946401C02F06EFAA069394676
:1012B000401E02F069FAA0692769A0F10208BF1C6C
:1012C000286803F076FA42463946606902F00CFA63
:1012D000686803F06EFA606942463946401C02F0C5
:1012E00003FA686A022802E015E1B0E000E10BDDD4
:1012F000A86803F05EFA61696A6A881C8B18014667
:10130000424638465B1E27E0296AB14226DD606905
:10131000022E074600F1020801DB374401E007F125
:101320000207206901DB304401E000F1020022697C
:101330003B460A444146A2F1010202F00FFB022E95
:1013400002DBA069821B01E0A269921EA069E96923
:101350003B46401A4146401C02F000FB022E02DBD5
:101360006069064401E06669B61CE76928687F1E6B
:1013700003F01FFA3A463146206902F06BFA3A460A
:101380003146A06902F066FAE7696868BF1E03F09B
:1013900010FA20693A463146401C02F05BFAA06917
:1013A0003A463146401E02F055FAE869022802DC4E
:1013B000286A022823DDA86A022802DDE1690F1AE3
:1013C00001E0E769BF1EA86803F0F3F9E9690229A3
:1013D00009DD20693B46421800F1020C31466046A7
:1013E000521E02F0BBFA286A022808DDA269E869E9
:1013F0003B46101A3146401C921E02F0AFFA286894
:1014000003F0D7F9D4E90620216902F06DF9686884
:1014100003F0CFF9D4E906202169401E491C521E71
:1014200002F062F9A86A022811DDA1692669E4695F
:10143000A1F10208271AA41EB61C7F1CA86803F09D
:10144000B8F9234642463946304602F087FA71E041
:10145000208A00B2ADF81400A18A09B2ADF81610C6
:10146000228B12B2ADF81820A38B1BB2ADF81A3044
:101470002C69ED68CDE9005402F0FAF85AE0208AB0
:10148000298B0844ADF81400A08AADF81600208B13
:10149000298B401AADF81800A08BADF81A0020680F
:1014A00001F0CEFB0390006FF0B1022003F004FACC
:1014B000039890F87C10C1F3C00100EB8100006C30
:1014C00003F077F90398406B03F08AF90398006FF3
:1014D00001F0B6FB03990990B1F95A2005A901F072
:1014E0004FFF09A801F0EAFB03A801F0E7FB21E0A8
:1014F000208AADF81400A08AADF81600208BADF854
:101500001800A08BADF81A00A86803F052F905A8DE
:1015100002F050FA0EE0206801F092FB039030F8E0
:101520005A1F41F00C01018003A801F0C7FB20689D
:1015300009F0D8FA00206AE63804002038B5050022
:101540004FF000040FD002F0CDFB284601F078FBED
:10155000009090F87C00000700D50124684601F057
:10156000ADFB03F0A3FB204638BD38B505004FF0B6
:10157000000411D002F0B6FB284601F061FB009098
:10158000C06D00218068026828469047044668467E
:1015900001F094FB03F08AFB204638BD30B587B0DC
:1015A00005004FF0000413D002F09CFB01A928466F
:1015B00000F097F9284601F043FB0090B0F9544041
:1015C000684601F07BFB0CB9BDF9044003F06EFBEB
:1015D00007B0204630BD10B5040008D002F082FBF1
:1015E00020460EF000FDBDE8104003F05FBB10BDCB
:1015F00010B5040008D002F075FB20460EF042FD45
:10160000BDE8104003F052BB10BD30B504468BB0AE
:10161000006801F015FB009090F87C10246A006FC0
:10162000C1F3C00508B101F00BFB0690E068029021
:1016300020690390A088401EADF81000E089ADF845
:1016400012002089401CADF81400608AADF8160025
:10165000BDF80800401CADF80800BDF80A00401CA9
:10166000ADF80A00BDF80C00401EADF80C00009863
:10167000406B03F0B5F8009808AA02A9B0F95A30F7
:10168000069803F0D9FB009800EB8500806B05F00D
:101690001FFB009800EB8500006C05F051FB08ABC8
:1016A00002AA04A9069807F03FFF684601F006FB6E
:1016B000069810B106A801F001FB0BB0002030BD68
:1016C00010B504000BD002F00DFB204610F0D4FB47
:1016D000204610F0A5FBBDE8104003F0E7BA10BDAE
:1016E00070B50D46040009D002F0FCFA29462046E8
:1016F00010F03AFCBDE8704003F0D8BA70BDF8B500
:1017000015460C46060012D002F0ECFA304601F005
:1017100097FA0090022C05D200EB840085633046D6
:1017200008F0D6FE684601F0C9FA03F0BFFAF8BD2A
:10173000074A0649054B1160064A083BD1695860C3
:101740001B68C2E906300846704700002C040020E0
:10175000F8030020FC0300202DE9FC410D468046E3
:1017600002F0C0FA5FEA080028D001F069FA01909F
:10177000C16D8C6800F01CF907460198456301A80B
:1017800001F09CFA226801214046904706462268F3
:101790000321404690470546226800214046904775
:1017A0000446404600F0E9F92B46324639464046A9
:1017B000009400F072F9404608F08AFE03F076FAD1
:1017C000BDE8FC8138B50C46054602F08BFA55B1F0
:1017D000284601F035FA00900466684601F06EFA7A
:1017E000284608F075FEBDE8384003F05FBA7CB5C6
:1017F0000D4604001DD002F075FA204601F020FAD3
:101800000090006F0190684601F058FA294601A83F
:1018100004F0F2F958B1204601F012FA0090019953
:101820000167684601F04AFA204608F051FE03F0CD
:101830003DFA7CBD38B50C46050013D002F052FAD3
:10184000284601F0FDF90090B0F95A10A14204D0E9
:10185000A0F85A40284608F03BFE684601F02EFAF0
:1018600003F024FA38BD2DE9FC470D465FEA000974
:101870004FF0000432D002F035FA484601F0E0F9AA
:101880000190B0F95440A54223D000F091F8804671
:1018900001980121A0F85450C06D856848462A6817
:1018A000904707462A6803214846904706462A681B
:1018B0000021484690470546484600F05EF9334609
:1018C0003A4641464846009500F0E7F8484608F099
:1018D000FFFD01A801F0F2F903F0E8F92046BDE8A8
:1018E000FC872DE9F34F85B000270C46B8460598D4
:1018F00001F0A6F90090C06D0121856805982A685D
:10190000904782462A6803210598904704902A68E8
:1019100002210598904703902A6800210598904776
:101920000646009809F0AAFA8346009809F0ADFA35
:101930008146009890F83210890601D5B0F9588098
:1019400000F036F805460098C06E10B108F009FBAB
:10195000074625806780A4F804A0049AABEB020038
:1019600006EB0802401E2A4420813A44E280039B91
:10197000A9EB0302521E6281A4F80CA02082701908
:10198000E681401E6082684601F098F9B4F90C00C7
:101990000190B4F91000029002AA01A9059800F084
:1019A00039F80198A0810298208207B0BDE8F08F35
:1019B00010B50146002091F83220920607D5B1F902
:1019C0005400002803D1486B02F030F9801C10BD90
:1019D00070B58AB00C46054601F032F90990C06D29
:1019E000866809A801F06AF9009534B1012C06D087
:1019F000022C0BD0032C04D10AE0182000E01620A2
:101A000001907168684688470AB070BD1520F7E7F5
:101A10001720F5E72DE9FC4117468846044601F0FA
:101A20000FF90090C16D056868468E6801F046F9AF
:101A300032680021204690470646204608F0D9F932
:101A400027E000BF01F0FCF80190B0F900102AB2C5
:101A5000B0F90430891A9A1AB0F90230A3EB254381
:101A6000B34210D190F82800000605D538688842A6
:101A700009DB491E396006E0D8F80000904202DC1C
:101A8000521CC8F8002001A801F018F9204608F0FF
:101A9000F3F90400D6D1BDE8FC812DE9FF4F83B0F6
:101AA0000E460746DDF8409001F0CAF80190C16D7E
:101AB0008D68FFF77DFF044601A801F0FFF82A6852
:101AC00001213846904783462A68032138469047CB
:101AD00082462A680021384690470546B44207D11D
:101AE00005998B4504D106998A4501D14D4541D0D0
:101AF000A41B0026B046384608F07BF938E001F018
:101B00009FF80090806A010601D5800502E08105FA
:101B100028D50006002825DB24B122461146384688
:101B200008F0C5FD009890F8280000060AD5069830
:101B3000A5EB0902A0EB0A0004FB16013846761C4F
:101B400008F069FD0098008D80050BD50599A5EB7F
:101B50000902ABEB010004FB080108F1010838465B
:101B600008F059FD684601F0A9F8384608F084F9F4
:101B70000700C4D107B0BDE8F08F70B586B0064647
:101B800001F05EF80590D0E91A4505A801F096F835
:101B900054EA050026D069463046FFF7A2FEACB1F4
:101BA000BDF90620BDF90410204608F0F8FCBDF987
:101BB0000A00BDF90610421ABDF90800BDF904106B
:101BC000521C411A2046491C08F0B0FF002D09D0D4
:101BD000BDF90600BDF90210421ABDF904102846ED
:101BE00008F0DDFC06B070BD2DE9F0430446406806
:101BF00085B0064608F04DF9814601F021F80090C5
:101C0000D0F88080876C456E684601F057F82068F0
:101C1000172859D008DC0E2837D00F280BD01428ED
:101C200052D015283AD14FE01E2818D01F2827D0AF
:101C3000222833D146E06FF07040874204D0384606
:101C400005F046F801F016F9002D12D0D4E9021281
:101C50002068CDE90106CDE9031201A822E0E06881
:101C6000002806D05FEA080006D0B04504D008F08E
:101C7000B3FE05B0BDE8F083304608F001FF16E082
:101C80002146484607F0F8FAF3E7E0684168002982
:101C900004DD00680928EFD00A2805D0A5B1204648
:101CA000C4F80490A847E4E7304608F0F8FE04467C
:101CB000484600F0C5FF0090C0F88040684600F03C
:101CC000FDFFD6E7E760D4E7204607F01FFFD0E727
:101CD00051B18200A2F1C042126842F001038200B9
:101CE000A2F1C042136009E08200A2F1C042126872
:101CF000034B1A408300A3F1C0431A6070470000F1
:101D0000FEFF0F0030B50021002200230468A4006C
:101D1000A4F1C0442168444C2140D0E901452C4342
:101D2000C5682C4305692C4345692C4385692C43C0
:101D3000C5692C43056A2C43456A2C43856A2C43AC
:101D4000C56A2C43056B2C4321430468A400A4F10D
:101D5000C04421608468082C0BD10468A400A4F15D
:101D6000C044246844F040050468A400A4F1C044C1
:101D700025600468641CA400A4F1C044226802F039
:101D80004042446B2468456B6D6844EA0514456B1A
:101D9000AD6844EA0524456BAD8944EA0544456BCA
:101DA0002D8A44EA0554456B2D7D44EA0564456B54
:101DB000AD692C4322430468641CA400A4F1C04410
:101DC0002260C46AB4F5804F24D10468A400A4F151
:101DD000C044D4F8043103F04043846B2468856B1D
:101DE0006D6844EA0514856BAD6844EA0524856B8B
:101DF0002D8A44EA0554856B2D7D44EA0564856B84
:101E0000AD692C4323430468A400A4F1C044C4F882
:101E1000043107E06FF070450468A400A4F1C044E9
:101E2000C4F8045130BD00008000F7FF2DE9F043F5
:101E30000446C56887B090468946002002F0C4FC7D
:101E4000064625B1287910B146F0020001E026F0DF
:101E5000020002F0B9FC2069012558B1D4E9021250
:101E60008DE8260003956388228804684146484629
:101E7000A0471EE0124F134B214638681B68427C76
:101E8000E068984730B9E088012801D0002001E0DF
:101E90003868806BA288E388A1680095CDE90410BA
:101EA000CDE902320195638822884146484604F014
:101EB000FBFA07B03046BDE8F04302F085BC0000F5
:101EC0009C010020940100201CB50024019401AC69
:101ED000009400F0E7F81CBD2DE9FF4F83B0814668
:101EE00006988A46A0EB0A08109E00200090A2EBFC
:101EF00009043568934654EA080018D02046FEF7D6
:101F0000BDFA07464046FEF7B9FA87420BDA20468B
:101F1000444680464846D14682465846DDF818B0C9
:101F2000069001200090002C07DD204606E007B057
:101F30004846BDE8F04F00F03BB96042A0420AD0ED
:101F40004846D9466442C8F1000883464FF0FF373F
:101F5000DDF818A000E001275148B8F1000F11D0BA
:101F600004EBD4714FEA610B01DACBF1000B4C4862
:101F70000068807E88B3002F02DA30682044306029
:101F800000257BE000990029016821D0897E11B1EC
:101F90000027804615E007B05A4649465046BDE83E
:101FA000F04F04F0E3BB28466D1C10F0A5F838B9DB
:101FB000D8F8000009EB0701406E42685046904790
:101FC0007F1CA742EFDD6D1E356007B0BDE8F08FC6
:101FD0008A7E1AB10027804617E019E0486E5A46FB
:101FE0005146036807B04846BDE8F04F18472846F9
:101FF0006D1C10F081F838B9D8F8001009EB070013
:10200000496E4A68514690477F1CA742EFDDDAE7E8
:1020100000250FE008FB05B090FBF4F101EB0A008E
:10202000009951B11E4A09EB05011268526E5268BF
:1020300090476D1CA542EDDDC7E7194909EB050383
:102040000968496E4A6801461846F1E708FB05B081
:1020500090FBF4F101EB0A000190306838443060E5
:1020600010F04AF848B9009890B10D4809EB050105
:102070000068406E4268019890476D1CA542E5DDFE
:102080003068002F01DA20443060C01B30609CE7CC
:10209000034909EB05000968496E4A680199EBE7B5
:1020A0009C0100202DE9FF470F4640491646804617
:1020B00009680C981D460A7E012A1CD0A8EB060070
:1020C000791B50EA01031CD0A2F1010910F0BAFFFC
:1020D00000F58060824603F07EFE00FB09F4504666
:1020E00003F07EFE00FB09F1002C0CDAC4F5007051
:1020F000801240420AE00090324639464046FFF7DF
:10210000EBFEBDE8FF8704F50074A012002904DA95
:10211000C1F5007189124C4202E001F500718C1288
:10212000002804DD411C01EBD171491003E000EBF4
:10213000D0714910401E00EBD0704210002C04DD1D
:10214000601C00EBD070401003E004EBD470401032
:10215000641E04EBD47308EB0104ADF800403C1896
:10216000ADF80240A8EB02045B10B21AADF80440CF
:10217000ADF808203144FC1AEA1AADF80C102844D6
:10218000ADF80A20ADF80E000023ADF806401A465F
:102190000421684600F07AF8394640460BF046FFC5
:1021A000294630460BF042FFABE700009C010020BF
:1021B000064A13681A7E012A05D0521E02EBD2721B
:1021C000521000F005B85A6E526810479C0100206A
:1021D0002DE9F05F0646884640F2C32002FB00F17D
:1021E0004FF47A7091FBF0F702FB02F102EBD27030
:1021F00001EB600B1446B118234A301B7F1C126898
:10220000526E13680A4641469847012538E000BFE0
:1022100005FB05F004FB040159451CDDBC4219DD3A
:10222000194B06EB050AA6EB05091B68AAF101028A
:1022300008EB04015B6E09F101001B689847124B23
:10224000AAF10102A8EB04011B6809F101005B6E11
:102250001B689847641E0C4B3219301B1B68924652
:1022600008EB05015B6E81461B689847064B52469A
:10227000A8EB05011B6848465B6E1B6898476D1C00
:10228000BD42C5DDBDE8F09F9C0100202DE9FF4F58
:1022900043F6FF740F46664283B09B468146002199
:1022A0000BE000BF09EB8100B0F90200A04200DAA8
:1022B0000446B04200DD0646491CB942F2DB6748DD
:1022C0000068406900280DD0B0F906101A46A1EB4D
:1022D0000B01B14200DA0E46B0F90200801AA042AA
:1022E00000DD0446B4E0DFF878A100200546CAF816
:1022F000000088E0781E854201DA6B1C00E00023B4
:1023000009EB850C09EB8302BCF90200B2F902105B
:10231000A04244D1A14215D139F92330059A39F9A7
:10232000251003EB020C4D4A05981268084404EB93
:102330000B01526E6045136801DA62462AE00246DC
:10234000604627E02846A4464FF000087A1E0BE0BE
:1023500008B1401E00E0781E09EB8003B3F902309B
:10236000634504D108F101089045F1DB2346A342FF
:1023700048D01A1B39F92500A1EB040C059B92EA01
:102380000C0F09D4354A184404EB0B011268526E45
:1023900013680246984735E009F008FA32E0A14296
:1023A00030D001DBA04203DDA0422BDBA14229DCBF
:1023B000E04688420ADC0346A04223DC0846A142EC
:1023C00020DBB8F900C0B2F9001008E00B46A142CA
:1023D00018DCA04216DBB2F900C0B8F90010E21A0E
:1023E000A1EB0C0151430029A0EB030202DD01EB3C
:1023F000620102E0A1EB6201491CC01A91FBF0F0FE
:102400006044C9E76D1CBD42FFF674AF05980090AB
:1024100004EB0B00019000208046054613E01149B3
:10242000B8F1000F31F915A009D0009901EB0A02AB
:1024300008440A490968496E0B680199984788F071
:10244000010850466D1C064909688D42E7DB641C93
:10245000B4427FF748AF07B0BDE8F08F9C01002081
:1024600048080020A0A1012010B5002002F096F934
:102470006FF07F4002F09DF9012002F0FFF900208B
:1024800002F00AFA002002F017FA002002F09CF98C
:102490000448006802F0A4F9BDE81040002002F0F2
:1024A000BFB9000098010020F0B50A4600210023C2
:1024B000002400BF3DE0012505FA01F3156805EA97
:1024C00003049C4234D105684F000326BE40B54347
:1024D000056015794E00B5400668354305601579ED
:1024E000012D02D01579022D16D185684F000326E3
:1024F000BE40B543856055794E00B540866835438A
:102500008560456801268E40B543456045689679EB
:102510008E40B6B235434560C5684F000326BE40C5
:10252000B543C560D5794E00B540C6683543C56032
:10253000491C1029BFD3F0BDF0B5002300244D077E
:10254000ED0E02FA05F3CE1000F1200555F82650E5
:102550004E07F70E0F26BE40B543CF1000F1200600
:1025600046F82750CE1000F1200555F8265045EAD0
:102570000304CE1000F1200545F82640F0BD41834C
:102580007047000010B50020054948706A220549CF
:1025900040F2A26000F082F801200149087010BDED
:1025A00070860020D40000201CB50122694640F24C
:1025B000217000F041F89DF8000000F0010050B9D2
:1025C0004FF0FF301A490860486000200872084642
:1025D00002F028F81CBD05220DF1010140F2227025
:1025E00000F02AF89DF80000124988709DF801005B
:1025F000C8709DF803009DF8021000EB01200D4902
:1026000088809DF805009DF8041000EB0120094921
:10261000C8800846C0880649086006488088486027
:1026200001200872084601F0FDFF00BFD2E700005C
:1026300024870020708600202DE9F04105460E46D3
:10264000174611F081FEBA2011F056FE11F0A6FED9
:10265000281211F051FE11F0A1FEE8B211F04CFE6B
:1026600011F09CFE11F070FEBB2011F045FE11F040
:1026700095FE002406E011F01DFE305511F0CAFD54
:10268000601CC4B2781EA042F5DC11F013FE305578
:1026900011F0FCFD11F070FEBDE8F0812DE9F04174
:1026A00004460E46174611F04FFEBA2011F024FEE4
:1026B00011F074FE201211F01FFE11F06FFEE0B257
:1026C00011F01AFE11F06AFE002506E0705D11F0AF
:1026D00013FE11F063FE681CC5B2BD42F6DB11F0BB
:1026E0004BFEBDE8F08100002DE9F04FDFF828B186
:1026F00091B04FF0FF35DBF80030B3F922100691AE
:10270000DE69B3F92490F469A189814206D8E2898F
:10271000824203D3471AD4F8008012E0D4E9018141
:1027200000296FD00A8882426CD84D88854269D3CF
:10273000801A82B2486800EB8200B0F90070B0F9EC
:102740000250781C5ED0307EA17C10FB01FA217C07
:10275000CDE90701B3F92A60304604F003FBC0B2AB
:102760000E90DBF8000007FB0A81A37C826B012737
:10277000CDE90412CDE90273C069089AC17E807E5A
:10278000CDE90001DDE90603494603F08DFE681C32
:1027900018D046F0020004F0E5FADBF80000A37C54
:1027A00005FB0A81826BCDE90273CDE90412C06991
:1027B000089AC17E807ECDE90001DDE90603494625
:1027C00003F072FEDBF800005D46C069417E007ECA
:1027D000814214D9022E12D086F0040004F0C2FA0D
:1027E0002868C069027EC37E12FB0391437E857E0A
:1027F000089A06984B4412FB050204F01DF80E9847
:1028000004F0B0FADBF80000627C418C1144418492
:1028100011B0BDE8F08F00009C0100200448006862
:10282000C069C06909B1027C0A60407C7047000041
:102830009C010020022008807047C06982898A427A
:1028400002D8C2898A4210D2806880B102888A4246
:102850000DD843888B420AD3406800EB8100A0EB7F
:102860008200B0F90000002801DB01207047002041
:10287000704700002DE9F043304C034687B02068D4
:102880001946B0F92A60C069C06900F086F80028CE
:1028900050D041680088181A01EBC0053046AF7867
:1028A00004F060FA814620686A680123816BCDE9F3
:1028B0000237CDE90421C169CB7E8A7ECDE90023B0
:1028C0000B7EB0F924102A78B0F9220003F0ECFD59
:1028D0002068C069417E027E91421FD9C07E11FBF3
:1028E00000F812FB00F7022E18D001F0FEF80646A1
:1028F00001F0C4F801F05DFF21682A78CB69B1F9D5
:102900002200DB7E12FB0302B1F9241001EB080365
:10291000394403F091FF304601F04BFF484604F084
:1029200021FA20686A78C369B0F922109B7E12FBF5
:102930000311418407B0BDE8F08300009C01002032
:1029400030B50F4C05460B4620682946C069C06962
:1029500000F023F8002812D04168008824682A1A61
:102960000120E46900EBC200085CA47E10FB04F0C7
:10297000002B04D011F8321011FB04F1196030BDA6
:102980009C01002001200880704700B5C06900F05C
:1029900004F8002800D0012000BD06E002888A4229
:1029A00002D842888A4202D280680028F6D1704755
:1029B00070B500250F4C19E020690F49C5EB0516CD
:1029C00000EBC60070220968001DFDF757FC206966
:1029D000002140F8361000EBC60000F10C018161C7
:1029E000011D0A1DC0E90F126D1C4164A0688542DB
:1029F000E2DB70BDA00600209C01002070B50E49EE
:102A00000C480860084603F0EFF80B4C143CA06833
:102A1000C0EB0010C500284600F084F82A460021CB
:102A2000206103F05AF94FF0FF302060BDE870409C
:102A300002F07AB98D020108B406002010B5040036
:102A400009D001F04FF9204608F008FF044602F0D3
:102A50002DF9204610BD002010BD38B5054601F007
:102A600041F92846FFF7EAFF040009D000F0E8F832
:102A70002A460021009003F030F9684600F01EF964
:102A800002F014F9204638BD024A106021F003001C
:102A900050607047EC9F012010B5040016D001F083
:102AA00021F90B48006B10F8341059B1022909D2F2
:102AB000042101EBC4014158486808F093FE204608
:102AC0000FF0F4F8BDE8104002F0F0B810BD0000BF
:102AD000309F0120002805D0034A916B016001B1AD
:102AE0004860906370470000309F012010B5044695
:102AF00001F0F8F82068FFF7CFFF00202060BDE864
:102B0000104002F0D3B8000070B50D460646002410
:102B100005E000BF06EB8400FFF7E8FF641CAC4251
:102B2000F8DB70BD2DE9F04104460DF0A5F9284809
:102B3000E41C24F00305C16B2D1DA94200D90D46EC
:102B4000846B13E054F8042CAA420ED184B121689E
:102B500009B162684A60616809B122680A60826BE3
:102B6000A24231D1216881632EE02468002CE9D192
:102B70008046416B80680F1857F8040C3E1A306885
:102B800038B100200FF0FCF857F8040C3E1A3068FA
:102B9000D0B97068A84217DB3044441B3046241D6E
:102BA0000FF0A6F8D8F80810491BC8F80810D8F894
:102BB00010102944C8F810107068401B02D031462C
:102BC00008F010FE44F8045C2046BDE8F0810000E7
:102BD000309F012010B500240DF04EF90C490F2054
:102BE00001EBC002126C1AB101EBC000006C08E0EE
:102BF000401EF5D508E04168A14200D90C46806826
:102C000010B180680028F6D1A4F10C0010BD0000BE
:102C1000309F0120002138B10449042202EBC0009A
:102C2000096B085841680C3908467047309F0120ED
:102C300002484169491C416170470000309F0120F2
:102C400005498A69521C8A61096B01EBC0010A7847
:102C5000521C0A7000F04AB8309F012010B501F0F4
:102C600041F8FFF7B7FF64220849B0F5800F04D997
:102C700090FBF2F4C869444303E0C9694143B1FBE6
:102C8000F2F402F013F8204610BD0000309F01203E
:102C90000549102805D94A68B0EB520F02D35008F5
:102CA00000E0102088607047EC9F012002484169D5
:102CB000491E416170470000309F01200A490268A7
:102CC0000B6B52F8082C03EBC2021378022B03D3D0
:102CD0008B690BB15B1E8B611178491E117000214D
:102CE0000160084670470000309F0120002806D090
:102CF0000349042202EBC000096B085808307047F2
:102D0000309F012038B5002430B1FFF799FF0090C3
:102D100004886846FFF7D2FF204638BD38B50D4617
:102D2000002448B1FFF78CFF2946009000F016F808
:102D300004466846FFF7C2FF204638BD38B50D4649
:102D4000002448B1FFF77CFF2946009000F018F8F6
:102D500004466846FFF7B2FF204638BD38B50D4639
:102D600001880024A94209D9406838B1FFF768FFFB
:102D7000009050F825406846FFF7A0FF204638BD78
:102D800010B50024FFF7EAFF10B1FFF759FF044622
:102D9000204610BD10B5136808290DD85C181460C2
:102DA00000222270054A04E000F00F040009145DBF
:102DB0005C54491EC9B2F7D210BD000010040208CD
:102DC00070B514460D46064600F08CFF204600F014
:102DD00099FE0300174804EB840109D050F8210044
:102DE00041688068711A2A1A184601F009FD1CE032
:102DF00000EB8104A268B24201D0012200E000226F
:102E0000E368AB4201D0012300E000231A430CD059
:102E1000236943B150F82100816840686A1A311A69
:102E2000184601F07BFCC4E90265BDE8704001F082
:102E30003DBF000078A1012010B5C2B2CBB2D21ABA
:102E400000D5524293B25B43C0F30722C1F307247B
:102E5000121B00D55242000C92B2A0EB114002FBB3
:102E6000023200B2002801DA404200B280B200FB18
:102E7000002010BD10B50021084600F0EDFE43F61D
:102E8000FF725042BDE8104013460146AFF3008088
:102E90002DE9FC411C4615460E46074600F022FF70
:102EA000042003F05FFF80461248C068C16C006DCB
:102EB0000F4406440D440444ADF80070ADF80450CE
:102EC000ADF80260ADF80640684607F0E5FF07E0A0
:102ED00023462A463146384603F0AEFC07F090FF01
:102EE0000028F5D1404603F03DFF01F0DFFEBDE8CC
:102EF000FC81000090010020B0F90630B0F90420F8
:102F0000B0F90210B0F90000FFF7C2BF2DE9F84395
:102F10001C00DDE9089816460F46054602D106F06A
:102F200041FF044600962E6843464A4621462846FD
:102F3000B047060039D006F02AFF8146698A30463C
:102F400006F029FA304607F025FE484607F022FE33
:102F50004FF000080CE000BFCDF8008055F81CCF02
:102F600000231A4649462846E04700B307F012FE00
:102F70007F1E002FF0DC1D21484607F052FC601C2C
:102F800012D000F0AFFE06F041FF30B1FFF7AEFE09
:102F90008469B44201D02000F8D1B44202D0304656
:102FA00007F06EFD01F082FE3046BDE8F883304642
:102FB00006F0E4FD0020F8E72DE9F0411C46164636
:102FC0000D460746022B02DB0020BDE8F0811C20E5
:102FD000FFF7A8FD0028F8D00DB105610AE0094A05
:102FE00052F8241009B905E011460A68002AFBD1FD
:102FF0000969016184618682002101604160C0E944
:103000000217E2E7B401002070B51D46FFF7D4FFB8
:10301000040009D000F00EF8E068006820B9034809
:10302000006800EB85008465204670BD9C0100208F
:10303000FFF750BD70B590B38269022A30DA1E4C9A
:1030400054F8221019B944F8220032E019464B68AE
:10305000002BFBD106E0CB68C5681B682D68AB422E
:1030600003DD09680029F6D11AE0C1B1CB68C66852
:103070001B683668B3420CD1838A012B05D008E067
:103080001946DB681B68AB4203DB0B68002BF7D1EA
:1030900029B14B6833B118604A68426004E0FFE729
:1030A000012070BD44F822004860884200D1002110
:1030B0000160002070BD0000B401002010B503E0E5
:1030C0000468FFF7B7FF20460028F9D110BD0FF0C4
:1030D0005DBB00002DE9F0410026DFF834800D4F84
:1030E000354600BF58F8254009E0E0680068385CC4
:1030F00020B120460FF04AFB266026462468002CAB
:10310000F3D16D1C022DEDDB3046BDE8F0810000EF
:10311000B401002010700108022801DB0020704774
:10312000054951F8200004E0C16809680029F6D07B
:1031300000680028F8D17047B4010020F8B50746B0
:1031400015460E460C20FFF788FC04000FD000F057
:10315000C9FD2046FFF774FD06490090C0E900173D
:10316000068145816846FFF7A9FD01F09FFD2046D5
:10317000F8BD0000080302082DE9F8431D46164675
:10318000884604000CD0FFF75BFD009000680768DC
:103190006846FFF793FD2B46324641462046B84726
:1031A000BDE8F88338B504004FF000000AD020468F
:1031B000FFF746FD0090006845686846FFF77EFD12
:1031C0002046A84738BD38B504004FF000000AD0AB
:1031D0002046FFF735FD0090006885686846FFF7D8
:1031E0006DFD2046A84738BD2DE9F041044601F0A9
:1031F00095FD06191EE000BF00F096FB052F00DDCF
:10320000052700F06FFD11480568FFF711FD2C0040
:1032100017D000BF01F04AFD641EFBD1384601F013
:1032200071FD1DB100F05EFD6D1EFBD1FFF73EFD8F
:1032300001F03CFD01F072FD371A002FDCDCBDE827
:10324000F081384601F05EFDF0E70000AC0600209A
:103250002DE9FC4706005FD000F044FD00F06AFC59
:103260003C4C81462068B0F9228000F0C1FC216806
:1032700007468A8CD01B888441E000BF47F6FF7167
:10328000304602F047FB82460146304602F018FB0A
:103290002168054691F82C0000F00300012841D078
:1032A00002283BD000204A8C101A4884ADF8000058
:1032B0006A1E1044ADF80400888CADF80200A9F134
:1032C00001010844ADF806006A465146304601F057
:1032D00063FF2168BDF8020088845146304601F042
:1032E000D3FB064430780A281ED00D281CD0BDF828
:1032F0000000216828444884307818B1761C307862
:103300000028BBD12068818C39448184818D21F0D3
:103310000301818501F0CAFCBDE8FC8705EBD5708F
:103320004010C0E72846BEE7206890F82C1001F056
:10333000030101290BD0022909D0018C4184317885
:103340000A29D9D1828C02EB09018184D4E7A0F843
:103350002280F4E79C01002070B514460D46064615
:1033600000F0C0FC05480068458484843046FFF7BF
:103370006FFFBDE8704001F099BC00009C01002087
:1033800047F6FF73AFF300802DE9FC411F469046DE
:103390000D4606004FF000041AD000F0A3FC65B102
:1033A000284607F0E7FB040007D002462946684696
:1033B00002F01DFB684607F0DDFB3B46424629460E
:1033C000304601F041FF204607F0D4FB01F06EFCCF
:1033D000BDE8FC812DE9FF4F87B090468946070084
:1033E0007DD000F07FFCD9F80040D9F8045021B21C
:1033F00028B2401A401C029000F09CFB064618F0D0
:103400000C0F1ED038460A9A029901F059FC08F0B8
:103410000C01042904D0082902D00C2911D104E0A0
:10342000291400FB1610401C09E02114C1EB2542B1
:1034300000FB1620401C00EBD07001EB600060F335
:103440001F44484607F096FB5FEA000B09D002468E
:10345000494604A8CDE9044502F0C9FA04A807F0DA
:1034600089FBA6F1010A38460A9A029902F004FC87
:1034700003900AEB244060F31F45CDE90045384630
:10348000039902F01DFA18F003010ED001292CD087
:1034900002290ED1B9F90420B9F90010521A101AF4
:1034A00000EBD07001EB600001E0B9F80000ADF86E
:1034B00000006A463846039901F06EFE38460A9AC3
:1034C000029902F0CFFB074406EB244060F31F444F
:1034D00038780028C7D1584607F04CFB00E001E0DF
:1034E00001F0E4FB0BB0BDE8F08FB9F80410081A46
:1034F000401CDCE77CB514460D46064600F0F2FBA6
:1035000011480068C16C006D0D4404443188681E88
:103510000844ADF80400ADF800507188601E0844FE
:10352000ADF80600ADF80240684607F0B5FC06E0CD
:10353000224629463046FEF779FC07F061FC002858
:10354000F6D101F0B3FB7CBD9C0100201CB50A46FE
:103550000146684602F03AFB00F0C4FB2548BDF87E
:103560000010006830F84C2F1144ADF80010BDF881
:10357000021082881144ADF80210BDF804100288D0
:103580001144ADF80410BDF8061080880844ADF869
:103590000600684607F080FC27E000BFBDF9004048
:1035A0000BE000BFBDF90210204603F0ABF8BDF9F7
:1035B0000610204603F0A6F8A41CBDF90400A042A2
:1035C000F0DABDF902400AE0BDF90000214603F03F
:1035D00099F8BDF90400214603F094F8A41CBDF944
:1035E0000600A042F0DA07F00BFC0028D6D101F06B
:1035F0005DFB1CBD9C0100202DE9F04F87B09B4670
:10360000DDE9109892460C46054600F06BFB164823
:103610000168C86C096D47190E1900EB0A0501EB2A
:103620000B04ADF81070ADF81450ADF81260ADF8A1
:10363000164004A807F030FC88B1DFF830B04FF036
:10364000000ACDE90098CDE902BA2B462246394658
:1036500030460AF095FB07F0D3FB0028F1D101F0CA
:1036600025FB07B0BDE8F08F9C0100206D670008C6
:103670002DE9F04F87B09B46DDE9109892460C4645
:10368000054600F02FFB16480168C86C096D471904
:103690000E1900EB0A0501EB0B04ADF81070ADF844
:1036A0001450ADF81260ADF8164004A807F0F4FB12
:1036B00088B1DFF830B04FF0010ACDE90098CDE9CC
:1036C00002BA23462A46314638460AF059FB07F02B
:1036D00097FB0028F1D101F0E9FA07B0BDE8F08FBF
:1036E0009C010020AD6600082DE9FC4114460D4602
:1036F000064600F0F7FA114F3968C86C096D0544A9
:1037000004440E44ADF80050ADF80440ADF802603A
:10371000ADF80660684607F0BFFB08E0386822464F
:103720003146406E03682846984707F069FB002839
:10373000F4D101F0BBFABDE8FC8100009C0100203F
:103740002DE9F0411C4615460E46074600F0CAFA20
:103750000C480168C86C096D074405440E440C44CC
:10376000002007F099FB07E023462A4631463846F9
:10377000FEF7AAFB07F044FB0028F5D1BDE8F041B5
:1037800001F094BA9C0100207CB50C46064600F07E
:10379000A9FA0F4D2868C16C006D0E440444ADF8C1
:1037A0000460ADF80060ADF80640ADF80240684630
:1037B00007F072FB07E028682146406E42683046F9
:1037C000904707F01DFB0028F5D101F06FFA7CBD92
:1037D0009C0100202DE9FC411C4616460D4607467B
:1037E00000F080FA1A480168087ECA6C096D174417
:1037F0000D440C44401E391A1644ADF8001031181F
:10380000ADF80410291A2044ADF80600ADF80210F6
:10381000684607F041FB15E032462946384602F07B
:1038200045FF32462146384602F040FF621E691CC1
:10383000384602F09BFF621E691C304602F096FF7C
:1038400007F0DEFA0028E7D101F030FABDE8FC818C
:103850009C0100207CB514460D46064600F042FA55
:103860000F480068C16C006D0E4405440444ADF877
:103870000060ADF80460ADF80250ADF8064068464F
:1038800007F00AFB06E022462946304602F06EFFAA
:1038900007F0B6FA0028F6D101F008FA7CBD000066
:1038A0009C01002070B50C46054600F035F910B1BA
:1038B0000121C0E9001400F015FA284607F022FAA9
:1038C000BDE8704001F0F2B910B5044601F020FAED
:1038D00004490968002903D02046BDE81040084784
:1038E00010BD00008806002030B59DB00D4604468E
:1038F000CDF870D06F220021684602F0EEF9642204
:103900002146684608F042FA6846FCF7E9FC1C9933
:103910001CAA08441C900821284601F061FA684658
:10392000FFF7D2FF1DB030BD10B5002400E0012428
:1039300000F004F80028FAD1204610BD064810B562
:103940000068002410B1804700B1012406F090F90E
:1039500000B10124204610BDBC0100202DE9FC412E
:103960001C4615460E46074600F0BCF91048006894
:10397000C16C006D0F4406440D440444ADF8007062
:10398000ADF80450ADF80260ADF80640684607F0A7
:1039900083FA07E023462A463146384602F04CFFB8
:1039A00007F02EFA0028F5D101F080F9BDE8FC817E
:1039B0009C010020B0F90630B0F90420B0F90210E3
:1039C000B0F90000FFF7CABF08B50B46002805D0C4
:1039D000009281888268C08800F001F808BD10B5A7
:1039E0000828029C30D008DC04FB01F401280AD02E
:1039F000022813D0042804D11CE0102828D0202845
:103A00002CD0002010BD04EBD30003F00701105CA4
:103A1000C1F10701C84000F0010010BD04EB9300A4
:103A20000621105C01EA4301C1F10601C84000F023
:103A3000030010BD04EB5300D907105C02D000F066
:103A40000F0010BD000910BD04FB0130105C10BD5B
:103A5000481004FB003032F8100010BD881004FB41
:103A6000003052F8200010BD034951F82000C16811
:103A70008A6A082110470000B401002010B500F048
:103A800031F902F009FF02F0A7FF044601F00EF938
:103A9000204610BD10B5044600F024F90548002169
:103AA0000068C069426820469047044601F0FEF86D
:103AB000204610BD9C01002070B50C46054600F064
:103AC00011F9064821460068C069426828469047B7
:103AD000044601F0EBF8204670BD00009C01002078
:103AE000002801D006F030B9704710B500F0FAF8A0
:103AF00002F0DAFE02F070FF044601F0D7F820462B
:103B000010BD00000021022802D2024951F8201005
:103B100008467047980600201FB5002101910291C8
:103B200003912A210091694606F06CFE039804B0C7
:103B300010BD000010B500F0D5F804480068C06959
:103B4000447E01F0B3F8204610BD00009C01002027
:103B500070B50D46044600F0C5F814B90948006870
:103B6000C469294694F82000A87094F822002871AE
:103B700094F82100E870A26820469047BDE87040A4
:103B800001F094B89C01002010B500F0ABF801F0F2
:103B90008DFE044601F08AF8204610BD70B514462B
:103BA0000D46064600F09EF822462946304602F0B1
:103BB000B5FE10B1002028602060BDE8704001F023
:103BC00075B870B50C46054600F08CF821462846BD
:103BD00001F0CAFEBDE8704001F068B810B50446B7
:103BE00001F0B4FE01462046BDE8104001F068BE79
:103BF00010B5002400F076F80B48006890F82C10FF
:103C000001F00C01042904D0082906D00C2907D1A1
:103C100003E0C069047E641E02E0C069007E4408BF
:103C200001F044F8204610BD9C010020017EC07EBA
:103C300011FB00F070470000024951F820000069B4
:103C400000687047B4010020024951F82000006963
:103C500040687047B401002070B50D46044600F07E
:103C600041F820460CF03CF8044628460CF040F899
:103C7000044301F01BF8204670BD0000134810B546
:103C8000016821F0010101601148012181601149A1
:103C9000016000681049884200D0FEE701F060FA38
:103CA0000E492E20087001F03DF80D480CF096F8F2
:103CB00010F058FA04460021084600F0BFFD06F057
:103CC0005DFBFEF775FE204610BD0000002000E001
:103CD00000300240C2A507F4CDB5E8B59001002040
:103CE000F89F012070B5214CE06820B101F012F876
:103CF0006168884204D001F057F801F00BF8606069
:103D0000E068401CE06001282AD100250BE000BFDC
:103D100001F000F82269C5EB051152F8311081421B
:103D200005D0F1B16D1CA0688542F1DB002520684B
:103D3000854215D0002812DBFFF7CCF92168C1EBD2
:103D40000112216901EBC2025067C5EB0510084A58
:103D500001EBC000011D1160406FFFF7AFF9256056
:103D600070BDC5EB051142F83100E0E7A006002068
:103D70009C0100201CB5040004D10E480068046EAC
:103D8000002C16D0FFF7AEFF2046FEF759FF00903B
:103D900044696846FEF792FF4CB12046FEF750FF9B
:103DA000019081688968884701A8FEF787FF00F0C5
:103DB0007DFF1CBD9C01002001490A4600F002B8AD
:103DC00001F0FFFF2DE9F04387B015460C465FEA8E
:103DD000000846D0FFF786FF002000F0F5FC814682
:103DE00021480068066E4046FEF72AFF00900068F2
:103DF000806900F0BBFC074640F6FF70001904D153
:103E00000098B0F90440B0F906500098611E02898C
:103E1000ADF804401144ADF808104189681E08440B
:103E2000ADF80650ADF80A0005F060FD6846FEF7F3
:103E300045FF01A807F030F806E02A462146404633
:103E400000F068FB06F0DCFF0028F6D1384600F0F1
:103E50008DFC304600F074F9484600F0B5FC00F0E7
:103E600025FF07B0BDE8F0839C0100202DE9FE4F3F
:103E7000984691468A46834600270C9EFFF732FFFC
:103E8000174818490068407C51F82040E1680968EB
:103E9000042903D02468002CF8D100E014B9FFF7FE
:103EA0003BF904460121E068C26A204690470500BC
:103EB00011D02469A0688047401C02D10A4C46F00A
:103EC00001060096CDE9015443464A4651465846FC
:103ED00000F0CAF9074600F0E9FE3846BDE8FE8F5B
:103EE0009C010020B4010020E8F3010838B504006B
:103EF0001CD0FFF7F7FE0E480068006EA04201D10B
:103F000000F026FC2046FEF79BFE0090406908B1B9
:103F100000F0B5FE00980068FFF78AF86846FEF7E3
:103F2000CDFE2046FEF7B8FD00F0C0FE38BD000013
:103F30009C0100202DE9FF4F0746464883B0994673
:103F40000068DDF840B08A46447C434800570128A9
:103F5000204606DD02F00AFD8046204602F012FDF2
:103F600005E002F0F1FC8046204602F0F3FC044636
:103F700017B302A901A8FFF724FEB7F90060002ECD
:103F800000DA0026B7F90250002D00DA0025019969
:103F9000B7F904004144491E0CF070F880460298BD
:103FA0000119B7F90600491E0CF068F8A8EB0602E3
:103FB000441B521C641C02E0002635464246B9F1FF
:103FC000000F01D1C4F10009002A01DD002C03DC3F
:103FD000002007B0BDE8F08F4B4629463046CDF8AB
:103FE00000B0FFF743FF5FEA000909D000F062F874
:103FF0008046484600F0A4F80027DFF860B01FE0D4
:104000005146059888470120E3E7E11B414502DA64
:10401000484600F079F83FB1EA193146484600F0C9
:10402000B7F84846FFF7A6FE514605988847DBF8E3
:10403000001009B1002088474846FFF7BDFE4744FD
:10404000A742E2DB4846FFF751FF002000F078F876
:10405000BEE700009C010020D0010020DC0600200B
:1040600038B505004FF0000411D0FFF73BFE28469D
:10407000FEF7E6FD0090006800698068804703F065
:1040800067F804466846FEF719FE00F00FFE20466A
:1040900038BD38B50446FFF725FE2046FEF7D0FDB3
:1040A00000F1180400906846FEF708FE00F0FEFDDF
:1040B000204638BD38B504460025FFF713FE1CB96D
:1040C00008480068046E44B12046FEF7B9FD009030
:1040D000B0F90A506846FEF7F1FD00F0E7FD28460A
:1040E00038BD00009C01002070B50546002428461C
:1040F00007F07CFF641C18B1BDE8704000F07AB88E
:10410000052CF4DB70BD000038B50C46050004D169
:104110000A480068056E002D0FD0FFF7E3FD284622
:10412000FEF78EFD0090B0F90A10A14200DD448137
:104130006846FEF7C3FD00F0B9FD38BD9C010020C4
:10414000F8B50546FFF7CEFD104E3068046ECDB1D0
:104150000CB100F0FDFA05F0C9FC2846FEF770FD31
:10416000009031680D660068FEF764FF6846FEF750
:10417000A5FD02F055FE02F0D5FD00BF00F096FD52
:104180002046F8BD00F0E4FAF8E700009C010020AA
:104190007CB515460E46040004D115480068046E2F
:1041A000002C24D0FFF79EFD2046FEF749FD2DB2DE
:1041B0000090C58034B2848002F0B4FD009840695C
:1041C00080B1FEF73DFD009A0190B2F908108180A0
:1041D000B2F90A20C28011B10AB10480458001A859
:1041E000FEF76CFD6846FEF769FD00F05FFD7CBDE3
:1041F0009C01002001490A4600F002B801F0FFFFCF
:104200007FB515460C4606002DD0FFF76BFD3046F6
:10421000FEF716FD40F6FF710190091903D1B0F9C0
:104220000440B0F906500289611E1144ADF80840FF
:10423000ADF80C104189681E0844ADF80E00ADF8C9
:104240000A5001A8FEF73AFD02A806F025FE06E096
:104250002A462146304600F045F906F0D1FD0028F7
:10426000F6D100F023FD7FBD2DE9FF4FDFF8E0B070
:1042700083B01C46DBF80010DDE910609246002791
:104280004B7C3A461299FEF797FE05005DD02869EF
:104290008068804702F05CFF81460AFB09F0C01D80
:1042A0004FEAD008FEF7DAFCF10705D1C11700EBA1
:1042B0009170801000EB4000002C06DC1838B0FB39
:1042C000F8F06442A04200DC0446F00707D10090F9
:1042D000DDE903012346524600F056FC0746002C58
:1042E00003DC2846FEF7A4FE2FE004FB08F018309C
:1042F000F10702D0FEF7A2FB01E0FEF7AEFB0600DD
:104300001CD0FEF79DFC0190056003998180049903
:10431000C180A0F808A04481C0F80C80C0E90497CF
:1043200001A8FEF7CBFC1298AE602861DBF8000014
:10433000407CA861304607B0BDE8F08F2846FEF704
:1043400077FE17B13846FEF7A7FB0020F3E7000021
:104350009C0100202DE9F74F8EB0144689460E9837
:10436000FEF76EFC0990B0F908B0B0F90A60006879
:10437000006940680C9009A8FEF7A0FC564D574F05
:104380002868407C57F82000C1688A6A0821904755
:104390000790182801D3202007902868407C57F800
:1043A00020000069069003C80B904D48814201D05F
:1043B000012000E000200A90002000F020FD0028ED
:1043C0007DD1286809EB0B01B0F90C20891A491E30
:1043D000002902DDABEB010500E05D46B0F90810F5
:1043E000494505DDA1EB090189446D1A089101E0F9
:1043F00000210891002D6BDDB0F90E20A119891A5A
:10440000491E002902DDA6EB010800E0B046B0F924
:104410000A00A04204DD061B3444A8EB060800E0B5
:104420000026B8F1000F53DD089801900DA95F46F2
:10443000DDF830A00E980091FFF72BFE774300EBDC
:10444000870101982B4601EB800200994846CDE98F
:1044500000A1214600F0A8FF0090002838D00A985B
:10446000E8B1DDE906322946009800F0C7FDB0B991
:104470000698009FDA46D0F810C0BCF1000F05D0B6
:1044800004235A4639463846E04708E00B99386815
:10449000884701C7AAF101005FEA000AF6D1009936
:1044A0000020079ACDE90301059001200090CDE995
:1044B000010221460346641C2A46484600E007E004
:1044C00001F0F2FFA8F10100761C5FEA0008ABD111
:1044D00011B0BDE8F08F00009C010020B401002065
:1044E000F7690008F8B515460E460746FEF7A8FB23
:1044F000009000681621C068426A00209047044678
:104500006846FEF7DBFB002C03D02A4631463846CE
:10451000A047F8BDF8B515460E460746FEF790FBD6
:10452000009044696846FEF7C9FB3846FFF798FDDE
:104530000346082800DD2CB12A46314638460EF0E5
:1045400059F9F8BD2A46314638460EF0F3FAF8BD5F
:1045500010B5002821D009B30AB3B1F90040B2F96F
:1045600000309C4200DA23460380B1F90240B2F9E0
:1045700002309C4200DA23464380B1F90440B2F98C
:1045800004309C4200DD23468380B1F90610B2F965
:104590000620914200DC1146C18010BD11460A6818
:1045A00002604968416010BD00280BD003880B44AD
:1045B0000380838819448180418811444180C188E7
:1045C0001144C1807047000070B50E4D0446D5E916
:1045D0000001884209D10C49884201D13C3000E0F9
:1045E0000C3807C884E8070006E090E80E0084E86D
:1045F0000E000BF085FB2860207A002800D00120F7
:1046000070BD0000DC01002068A001200448D0E952
:104610000010814201D10120704700207047000046
:10462000DC010020054A10B5034911600DF0E4FFDC
:10463000BDE8104000F050B9919F0008C001002073
:1046400070B50025FFF74EFB094CD4E900208242EB
:104650000AD0D2E9005610460BF06AFB20603146C2
:10466000284605F0EFFF012500F020FB284670BD2D
:104670008C0600202DE9FC41154DDDE908742D68FC
:10468000B5F90860864200DD3046B5F90C60964207
:1046900000DA3246824219DBB5F90A608E4200DD4B
:1046A0003146B5F90E509D4200DA2B468B420DDBA8
:1046B00000E02C46E5682D6825B1042D02D0256860
:1046C000002DF6D1CDE9007402F016FABDE8FC81A8
:1046D0009C010020B0F90220B1F906309A4213DCA7
:1046E000B1F90220B0F906309A420DDCB0F9002091
:1046F000B1F904309A4207DCB1F90010B0F90400B6
:10470000814201DC012070470020704701460248C9
:1047100070220068FBF7B2BD9C01002070B5154601
:104720000E4604000AD0FFF7DDFA2A46314620463D
:104730000DF0ACFDBDE8704000F0B8BA70BD0000EF
:10474000024970220968FBF799BD00009C01002016
:1047500010B5FFF7C7FA02F09BFA02F061FB05F013
:10476000C5F8BDE8104000F0A1BA000070B5094DD1
:1047700004462868467CFFF7B5FA022C03D2286865
:104780004474FFF7E5FF0448046000F08FFA3046F8
:1047900070BD00009C0100201806002010B50446E2
:1047A000FFF7A0FA204602F093FABDE8104000F0AF
:1047B0007DBA10B50446FFF795FA204602F0C0FA1C
:1047C000BDE8104000F072BA10B50446FFF78AFA4F
:1047D000204602F0C7FA044600F068FA204610BDF1
:1047E00070B50446FFF77EFA04480068C56904B155
:1047F000C46100F05BFA284670BD00009C010020F7
:1048000070B514460D460646FFF76CFA2246294657
:10481000304602F0C3FA044600F048FA204670BD64
:1048200070B50546FFF75EFA03480068847E85761A
:1048300000F03CFA204670BD9C01002070B50C468B
:104840000546FFF74FFA09482246058008480480CC
:1048500008480068417C084850F82100C1680B6A8C
:1048600029469847BDE8704000F020BAD8010020E2
:10487000DA0100209C010020B401002070B505463B
:10488000FFF730FA03480068047E057600F00EFA60
:10489000204670BD9C01002070B50446FFF722FA47
:1048A00004480068B0F92C50848500F0FFF92846D0
:1048B00070BD00009C01002070B50446FFF712FA9D
:1048C00004480068B0F92A50448500F0EFF9284602
:1048D00070BD00009C01002002480068002800D044
:1048E00000477047BC06002002498A6802B9886008
:1048F000FFF7F2BF8C06002010B504000ED0FFF7C2
:10490000F1F920460DF00EFA20460DF017FF204673
:10491000FEF7C2F8BDE8104000F0C8B910BD38B5C8
:104920000C46050011D0FFF7DDF92846FEF788F99F
:1049300000908089204201D0012400E000246846D4
:10494000FEF7BCF900F0B2F900E00124204638BDC2
:1049500038B50546002028600648046844B1204662
:10496000FEF76EF90090006928606846FEF7A6F928
:10497000204638BD6C08002038B504004FF0000018
:104980000D46086011D02046FEF75AF90090846861
:1049900044B16846FEF792F92046FEF751F90090BF
:1049A000006928606846FEF789F9204638BD000096
:1049B0002DE9F84FDFF898800546264F98F8180043
:1049C0008B46410738680A9E9946407C924607D438
:1049D00001F0CCFF04463868407C01F0D3FF06E0CC
:1049E00001F0D0FF04463868407C01F0BFFF00278B
:1049F00085B1441EB9EB060000D54042142806DB01
:104A00005146BBEB0A0000D54042142804DA0120CD
:104A1000BDE8F88F641EEDE70A464B465946384616
:104A200000960BF0D5FA0C4F4B46524647F835002E
:104A30005946204600960BF0CBFA07EBC5014860BB
:104A40000DF096FB01210020C8F81C10E0E70000E3
:104A5000E40100209C010020B0A001202DE9F041DC
:104A6000084E0446056830680168284688470746AE
:104A70003068416828468847284420603846BDE8A9
:104A8000F0810000A00100202DE9F0410C4606460F
:104A90000025064F05E038684168304688470644DF
:104AA0000544641EF7D22846BDE8F081A00100202D
:104AB0002DE9F0411E46069C1746884605463A46B3
:104AC000A8687F1C3346D0F804C041462846E0471A
:104AD000641EF4D1BDE8F08170B5B0F90040091B47
:104AE000B0F904408C422CDD00F11404B0F90250FE
:104AF0000069521B02FB0040CA1800EBE104521E81
:104B0000D010B0EBE10501F007034FF0FF0102F018
:104B1000070221FA03F0C2F1070201FA02F1CEB254
:104B200021780FD001436D1E04F8011B002D05DD17
:104B3000FF2229462046FBF7C1FB2C442078304356
:104B4000207070BD30400143217070BD10B5B0F9C8
:104B50000030B0F90240C91A00F114030069121BB9
:104B600002FB003000EBE10001F007030278802136
:104B7000D9400A43027010BDB0F9061002695143D2
:104B80001430FBF7A2BB00002DE9F843804602F188
:104B90000F000011470003FB07F01C46154689462D
:104BA0001430FDF75AFF060018D0FFF79BF8304687
:104BB000FEF746F80090A0F80080A0F802908580EB
:104BC000C480074981600121818107616846FEF741
:104BD00075F800F06BF83046BDE8F8830020FBE77D
:104BE0007002020870B5B0F90660B0F904400B68B5
:104BF00000F1140596421BDD0069A34202FB005040
:104C000000EBE30214DA641EE010A0EBE30512F8F7
:104C1000010B03F00704A040C4B206E045B108331D
:104C200012F8014B23F007036D1E002CF6D004E0B0
:104C3000002070BD6006040E5B1C2006FAD5FF2C18
:104C400007D0184602E06406240E401C6606FAD41B
:104C500000E0D81DC443640705D006E012F8014BFC
:104C6000FF2C09D108306D1EF8D5C01A401C0B600E
:104C700070BD6206140E401C2206FAD4F5E738B562
:104C80000546FFF72FF82846FDF7DAFF00908189E7
:104C9000491E0CB284816846FEF710F814B9284604
:104CA000FDF7FAFE00F002F838BD00000348C168C5
:104CB000491EC16001D100F087B87047A0060020EE
:104CC0002DE9F04116460F4605460024FFF70AF885
:104CD00032463946284600F0C5FF054408B1641C39
:104CE000F6E7FFF7E3FF2046BDE8F08110B54FF48B
:104CF0008C310348FDF7C8FE8020FDF7C9FF10BDC9
:104D00003087002010B50446204610F019FB10BD76
:104D10007047704710B511F029FB10BD10B511F0A8
:104D20003BFB10BD7047000010B5012010F040FFA4
:104D30001B4908600846006808B1012000E0002017
:104D400050B900BF502080F31188BFF34F8FBFF3DD
:104D50006F8F00BF00BFFEE703220021012010F08B
:104D600059FF104908600846006830B100231A4610
:104D700019460C48006811F0B3F80A48006808B1F9
:104D8000012000E0002050B900BF502080F31188BE
:104D9000BFF34F8FBFF36F8F00BF00BFFEE710BDA3
:104DA000600100206401002010B50648006808B9C1
:104DB000FFF7BAFF00235A1E19460248006810F098
:104DC0006FFF10BD6001002010B500231A46194680
:104DD0000248006811F084F810BD00006001002056
:104DE00030B41368202403F8014B302403F8014B3E
:104DF000782403F8014B136030BCFDF7CBBF0EB530
:104E000008B102AA00E00022002301A9684600F0D0
:104E1000FFFC0EBD074910B5CC6818B10120C86071
:104E2000801E03E00020C8606FF07F4001F07AFA36
:104E3000204610BD4C0800202DE9F041984616464A
:104E40000C4688B3FEF7CAFE074608F003000128A7
:104E500025D0022817D0B4F9005000BFFEF76AFE33
:104E6000014608F00C0004282BD00C281DD0B4F902
:104E7000020035807080EA19521E0844B280401E3C
:104E8000F080BDE8F081B4F90400B4F90010401AD4
:104E9000C01B401C00EBD07001EB6005DEE7B4F9ED
:104EA0000400C51B6D1CD9E710E0B4F90600B4F985
:104EB0000220801A401A401C00EBD07002EB600008
:104EC000D7E7B4F90600401A401CD2E720683060EA
:104ED00060687060D5E7000010B5082A0EDC034654
:104EE000012A18D0022A56D0042A76D010F8042BB2
:104EF00003F8012B491EF9D1012010BD102A08DC4E
:104F00004FEA000230F8043B22F8023B491EF9D177
:104F1000F2E7002010BD10F8042BD207120E491E34
:104F200034D010F8044B491E04F0010442EA841204
:104F30002CD010F8044B491E04F0010442EA44123C
:104F400024D010F8044B491E04F0010442EA041274
:104F50001CD010F8044B491E04F0010442EAC402BC
:104F600014D010F8044B491E04F0010442EA8402F4
:104F70000CD010F8044B491E04F0010442EA44022C
:104F800004D010F8044B04F00104224303F8012B71
:104F90000029C0D1B0E710F8042B9207120E491E69
:104FA00015D010F8044B491E04F0030442EA041221
:104FB0000DD010F8044B491E04F0030442EA8402A9
:104FC00005D010F8044B04F003042243491E03F8F3
:104FD000012B0029DFD18FE7FFE710F8042B120720
:104FE000120E491E05D010F8044B04F00F042243A2
:104FF000491E03F8012B0029EFD17DE72DE9F0418F
:105000001E680D460446082A09DC0746012A1AD004
:10501000022A5BD0042A7DD0082A13D18DE0102A01
:1050200007DCD3F810C00746BCF1000F04D0022300
:1050300089E00020BDE8F08101CCB04727F8020BE1
:105040006D1EF9D18AE001CCB047C0074FEA106865
:105050006D1E36D001CCB04748EA801000F0FF0842
:105060006D1E2ED001CCB04748EA401000F0FF087A
:105070006D1E26D001CCB04748EA001000F0FF08B2
:105080006D1E1ED001CCB04748EAC00000F0FF08FA
:105090006D1E16D001CCB04748EA800000F0FF0832
:1050A0006D1E0ED001CCB04748EA400000F0FF086A
:1050B0006D1E06D001CCB04740EA080000F0FF08A2
:1050C0006D1E07F8018B002DBDD147E001CCB04724
:1050D00080074FEA10686D1E16D001CCB04748EA31
:1050E000001000F0FF086D1E0ED001CCB04748EA5A
:1050F000800000F0FF086D1E06D001CCB04740EAEA
:10510000080000F0FF086D1E07F8018B002DDDD1AF
:1051100024E0FFE701CCB04700074FEA10686D1E9E
:1051200006D001CCB04740EA080000F0FF086D1E31
:1051300007F8018B002DEDD110E0D3F810C0BCF1C1
:10514000000F05D001230A4601463846E04705E036
:1051500001CCB04707F8010B6D1EF9D1012069E7BA
:105160000B4810B58169002910D101218161FFF739
:10517000BDFDFDF743FC01F065FE054905481C3106
:105180000860BDE81040084600F02EBD10BD0000CC
:10519000900100202D0201087CB5064628480D46E6
:1051A000006868B1002005F077FE06E06A462946EF
:1051B000304606F0E3FF05F023FE0028F6D17CBD63
:1051C000106800901F4C506801902268BDF80000E4
:1051D00032F84C1F0844ADF80000BDF80200918879
:1051E0000844ADF80200BDF8040011880844ADF889
:1051F0000400BDF8060091880844ADF80600684632
:1052000005F04AFE0EE000BF2068BDF800106A46B7
:105210004184BDF8021081842946304606F0AEFF75
:1052200005F0EEFD0028EFD1206830F8221F428DF6
:10523000891A01804188C28D891A41807CBD000095
:10524000D40100209C0100202DE9FF4F85B09A4633
:1052500090460D46FEF76EFC4FF00009DDF814B0E5
:1052600006464C4625B1286800906868019002E027
:105270006846FEF735FC18F00C0F02D055460027A3
:1052800013E0BDF902402DE029467F1C059800F08F
:1052900041FB01466D1A0598FFF7F6FB0599084496
:1052A000059005A800F07AFB08B9002DECD108F0B4
:1052B0000C00042804D0082802D00C2812D105E0E4
:1052C000BDF9060007FB1604641C0BE0BDF90600DF
:1052D000BDF90210401A07FB1600401C00EBD0700D
:1052E00001EB60045546CDF814B043E0294605981B
:1052F00000F010FB07460146ED1B059800F0E0FAB0
:1053000018F003010ED0012939D002290DD1BDF9C1
:105310000410BDF90020891A091A01EBD17102EBC2
:10532000610101E0BDF900108946174A401E48445A
:1053300012683946A2F822909484ADF80C00A019A6
:10534000401EADF80890ADF80E00ADF80A4002AA74
:105350000598FFF721FF39460598FFF795FB05995A
:1053600008440590FEF7E6FB044405A800F016FB90
:10537000002801D1002DB9D109B0BDE8F08FBDF9E9
:105380000410091A491CCFE79C01002049B10028EC
:1053900002DAA0EB610001E000EB610090FBF1F0AC
:1053A00070470020704700002DE9FF4F8DB00020AE
:1053B000DDF86CA0164600901D4604460246CAF869
:1053C000000008AB03A902A800F022FA18B10020DF
:1053D00011B0BDE8F08F0898854200DD0546614FA9
:1053E0000B9561493868407C51F820100491096997
:1053F0000691FEF739FB05903868407CFEF724FCE7
:105400005A498146884204D05949894501D0012032
:1054100000E000200A9001CE1A9988478346000ECA
:10542000079077D0009870BB0D9800EB04084D48AA
:105430000068B0F90800404503DDA0EB080780468E
:1054400000E000270298049900EB840000EB87003D
:10545000CDE900010B990D98421809920E9B404628
:105460001946521EFFF706F90120009005981828EA
:105470000ADA0298DDE9052300EB840000EB8700DF
:10548000E91B00F0E9F812E00A9880B1029800EBFD
:10549000840000EB87070998A0EB080849463868A4
:1054A000884701C7A8F101005FEA0008F6D131483A
:1054B000C06980B3DDE9020700EB840007EB8402DA
:1054C000CDE902022B4C361F3046E4692B46029987
:1054D000A047FF213068B1EB106F02D1029800683D
:1054E00004E0029A1268B1EB126F01D1039A1060C6
:1054F000029806F10406001D02900398001D039017
:105500006D1EE7D10397DAF8000040F00101CAF8F8
:10551000001020E021E0FFE70798FF2811D0C0F13C
:10552000FF02029850F82410584600F0F5FA03994B
:1055300041F82400DAF8000040F00101CAF8001038
:1055400005E00298039950F8240041F82400641CF7
:105550006D1E7FF460AF03983AE7039941F824B0D9
:10556000E8E700009C010020B4010020F769000872
:10557000F56900081C0800202DE9F04F85B09B4616
:10558000DDE90F8792460C460546DDF83890FEF7B8
:10559000A9FB15480068C16C4E190D19016DABF1DE
:1055A000010001EB0A04ADF810502044ADF80C6086
:1055B000ADF81200ADF80E4003A805F06DFC0BE04D
:1055C000CDF80090CDE901875B462246294630465A
:1055D00009F042F905F014FC0028F1D1FFF766FB51
:1055E00005B0BDE8F08F00009C0100202DE9FF4FC1
:1055F00087B00C46DDE91698DDE914BA0546FEF7DA
:1056000071FB1448099A0168C86C096D471985181F
:105610000E190A98ADF810700C18ADF81450ADF8CA
:105620001260ADF8164004A805F036FC0BE0CDE999
:105630000298CDE900BA23462A463146384609F099
:105640008FF905F0DDFB0028F1D1FFF72FFB0BB040
:10565000BDE8F08F9C0100202DE9F05F0C1E16DDE7
:105660005E68014600EB8405082A12DC611E012AEF
:1056700026D0022A47D0042A6AD0082A07D107195F
:1056800017F8010DB04745F8040D641EF8D1BDE8C8
:10569000F09F102AFBDC5F693FB12246BC46BDE8A3
:1056A000F04F02235DF804EB604701EB440700BFB5
:1056B00037F8020DB04745F8040D641EF8D1E6E74F
:1056C00000EBE10001F0070710F801A981468020F6
:1056D00020FA07F8B5F104050AEA0800C7F1070146
:1056E000C840B04745F804093FB14FEA48604FEA67
:1056F00010687F1E641EEFD1C9E719F801A90727BA
:105700004FF00108F6E700EBA10001F0030710F8E5
:1057100001A981467900C02020FA01F84FF0060B5C
:10572000B5F104050AEA0800ABEB4701C840B047F1
:1057300045F804093FB14FEA88604FEA10687F1EC0
:10574000641EEFD1A3E7032719F801A9B846F7E7CC
:1057500000EB6100012710F801A9A7438146B900B9
:10576000F02020FA01F84FF0040B2D1F0AEA080080
:10577000ABEB8701C840B04745F804093FB14FEA99
:1057800008704FEA10687F1E641EEFD17FE719F89A
:1057900001A901274FF00F08F6E700002DE9F04FAF
:1057A00085B09B46DDE90F8716468A460446DDF83C
:1057B0003890FEF797FA15480068C16C0D19016D15
:1057C000A81901EB0A04401EADF81000A019401EF4
:1057D000ADF80C50ADF81200ADF80E4003A805F07E
:1057E0005BFB0BE0CDF80090CDE901875B463246CC
:1057F0002146284609F000FC05F002FB0028F1D103
:10580000FFF754FA05B0BDE8F08F00009C010020BE
:105810002DE9F047224C06461F46A069904689466E
:10582000002540B90120A06104F120011D48086055
:10583000084600F0D9F9606930B91B48006860611A
:1058400010B901F084F8606107B138604EB1A0680A
:1058500030B960698000FDF765F9A06000B90125E5
:105860003060B9F1000F0AD0E06830B9606980009B
:10587000FDF758F9E06000B90125C9F80000B8F15A
:10588000000F0AD0206930B960698000FDF74AF93D
:10589000206100B90125C8F800002846BDE8F0875E
:1058A0001C080020B5020108C80100200348006858
:1058B000C069017EC07E11FB00F070479C01002092
:1058C00073B5124A01A9009812689047002400900D
:1058D000C8B10F4900250968C969496959B10A6801
:1058E0004AB1019990477CBD6846FFF7B7F8054675
:1058F000FEF7D0F804440198401E0190F4D52846E4
:1059000000F040F8044420467CBD0000440800201C
:105910009C01002073B50D460098002490B10A49FF
:105920000968C969496959B14A684AB12946904725
:105930007CBD6846FFF792F820B10A2802D0641CAB
:10594000AC42F6DB20467CBD9C01002031B5002432
:10595000009808B905E0641C6846FFF77FF8002846
:10596000F9D1204638BD0000044AB2F90020026097
:105970000348B0F90000086070470000D80100201B
:10598000DA01002038B5002469460094FEF794F847
:105990000099814200DD0C1A204638BD016811F8DB
:1059A000012B12B10A2A02D002E0012070470160E7
:1059B00000207047B0F90030B1F90020934200DABE
:1059C0000280B0F90230B1F90220934200DA42803D
:1059D000B0F90430B1F90420934200DD8280B0F9BF
:1059E0000620B1F906108A4200DDC180704770B50B
:1059F000B1F90040B2F900309C4200DD234603803B
:105A0000B1F90250B2F90240A54200DD2C464480B3
:105A1000B1F90460B2F90450AE4200DA354685802F
:105A2000B1F90610B2F90620914200DB1146C1809F
:105A30009D4201DBA14201DA002070BD012070BD52
:105A4000014602480068407C00F002B89C0100203A
:105A50002DE9F843012604468946022857DADFF883
:105A6000B480080008F1040530D0012802D00229D2
:105A70004DD116E055F8240088B92046FDF74CFBBF
:105A8000009010B3C0680D21426A6846904702003A
:105A90003DD049460098904755F824000026401C08
:105AA00033E02046FDF738FB009070B1C0680D214F
:105AB000426A68469047040029D0D8F8000000B137
:105AC000804749460098A047002620E055F824006A
:105AD000012813D12046FDF71FFB009070B1C0686C
