:020000040800F2
:1000000010ED012015920008C51E0008C71E00084B
:10001000CB1E0008CF1E0008D31E00080000000001
:10002000000000000000000000000000D71E0008D3
:10003000D91E000800000000DB1E0008DD1E0008BD
:100040002F9200082F9200082F9200082F9200088C
:100050002F9200082F9200082F9200088F87000827
:100060002F9200082F9200082F9200082F9200086C
:100070002F9200082F9200082F9200082F9200085C
:100080002F9200082F9200082F9200082F9200084C
:100090002F9200082F9200082F9200082F9200083C
:1000A0002F9200082F9200082F9200082F9200082C
:1000B00045030008FB2000082F9200082F9200083B
:1000C0002F9200082F9200082F9200082F9200080C
:1000D0002F9200082F920008759100082F920008B7
:1000E0002F9200082F9200082F9200082F920008EC
:1000F0002F9200082F9200082F9200082F920008DC
:100100002F920008EF7400082F9200082F92000829
:100110002F9200082F9200082F9200082F920008BB
:10012000332300082F9200082F920008177500084B
:100130002F9200082F9200082F9200082F9200089B
:100140002F9200082F9200082F9200082F9200088B
:100150002F9200082F9200082F9200082F9200087B
:100160002F9200082F9200082F9200082F9200086B
:100170002F9200082F9200082F9200082F9200085B
:100180002F9200082F920008DFF80CD011F022FD0A
:1001900000480047C703000810ED0120F8B509F03A
:1001A00005FA012009F02BFA00BF09F04DFA0128E9
:1001B000FBD108244FF4C8750426092733462A4684
:1001C00021468005009709F082FA012009F08FFA94
:1001D000022009F0C7FA002009F0D4FA600209F001
:1001E000DBFA002009F0E2FAF8BDF0B504460D464E
:1001F000164627460021002200BF0CE0785C15F867
:1002000002C0604501D1521C00E000229A4201D197
:100210000846F0BD491CB142F0DB4FF0FF30F8E773
:100220000246002000BF02E000231354401C884215
:10023000FADB70472DE9F04105460E460024002701
:100240000A2008F0FDFE02F069FA0A2008F0F8FE24
:1002500000BF05E0FE48015DFE4AE01C1154641C2D
:10026000082CF7DB002406E0FB48015DF94A04F1A5
:100270000B001154641C082CF6DB2878F549C8746F
:1002800068780875002405E0315DF24A04F1150034
:100290001154641C082CF7DB002404E0ED48005DD9
:1002A0003844C7B2641C1E2CF8DBEA48C7771F200D
:1002B000E8490870084602F0BFF904460A2008F031
:1002C000BFFE02F005FA0A2008F0BAFE2046BDE89B
:1002D000F0811FB50121084609F08DFB4FF08040E9
:1002E00009F0BEFE6320ADF80400DC480290002057
:1002F000ADF80C00ADF8060001A94FF0804009F000
:100300005CFF012188070AF00DFC012211469007CD
:100310000AF0F4FB0121880709F0D8FF4FF4A06030
:1003200008F08AFF1C208DF8000001208DF80100E4
:1003300000208DF8020001208DF80300684608F0C7
:1003400080FF1FBD10B5012188070AF0EEFB0028D1
:1003500034D0C34800686430C1490860084600686A
:10036000B0F57A7F2AD308460068A0F57A70086055
:10037000BC480078401CBB490870084600783C28FF
:100380001CDB00200870B8480078401CB649087093
:10039000084600783C2811DB00200870B34800783C
:1003A000401CB249087008460078182806DB002077
:1003B0000870AF480078401CAD49087001218807DB
:1003C0000AF0C4FB10BDA0B00026002016901590C6
:1003D000834682464FF0FF08C14600270120049063
:1003E00000200290FFF7DAFE4FF4A06008F024FF2F
:1003F000FFF76FFF642008F0C1FD02F00BF8012049
:100400009C4908609C49C1F8B402462008F018FED7
:1004100008F058F908F073FC08F008FB102397A2C5
:100420000021084608F0E2FB02F04FF88024202269
:100430009749984808F07AFD954890F86400FF289D
:100440007ED101F065FE0020039008E0012001F05C
:10045000A6FF0299084402900398401C0390039859
:10046000B0F5806FF2DB029811F052F811F046F807
:100470001A2190FBF1F201FB12004130844981F80E
:10048000640011F03BF81A2190FBF1F201FB12001D
:100490004130C1B27E4880F8651011F02FF81A2162
:1004A00090FBF1F201FB12004130C1B2784880F8B4
:1004B000661011F023F81A2190FBF1F201FB1200F3
:1004C0004130C1B2724880F8671011F017F81A2154
:1004D00090FBF1F201FB12004130C1B26C4880F890
:1004E000681011F00BF81A2190FBF1F201FB1200D9
:1004F0004130C1B2664880F8691010F0FFFF1A2140
:1005000090FBF1F201FB12004130C1B2604880F86B
:100510006A1010F0F3FF1A2190FBF1F201FB1200B8
:100520004130C1B25A4880F86B10002180F86C103D
:1005300020220146574808F0B0FC4FF4904000E0FC
:100540000CE008F0C2FD4FF4FA6008F079FD52A00B
:1005500011F030FC4FF4FA6008F072FD4FF41030E7
:1005600008F0B3FD002406E049486430005D3A49D4
:100570000855601CC4B2082CF6DB0CE03D48001F97
:10058000006808B9012000E000203A49091F08600E
:10059000C82008F055FD02F004F80028EED16420D0
:1005A00008F04EFD02F094F8642008F049FD102395
:1005B00040A20221002008F019FB02F014FAC82022
:1005C00008F03EFD0CE02B48001F006808B9012030
:1005D00000E000202749091F0860C82008F030FD0E
:1005E00004F03DFB0028EED1102336A2042108F0D0
:1005F000FDFA00200BF0A3FF0FF0FEFA35490122AF
:10060000086835A10DF090FC0FE01A48001F006843
:1006100008B9012000E000201649091F0860C82021
:1006200008F00EFD2DA00EF0E0FA2CA117A80EF098
:10063000ECF80028E9D110232BA2062108F0D6FA05
:100640004FF4FA6008F0FCFC08F0F0F952E000000A
:100650005900002038000020620000209F86010021
:1006600018000020150000201400002013000020B6
:1006700012000020B8024142000041424368656315
:100680006B204E524632344C30312E2E000000008A
:10069000580600200400020841542B554152543D95
:1006A0003932313630302C382C312C302C300D0A88
:1006B00000000000436865636B204D5055363035AF
:1006C000302E2E00436865636B205344436172648F
:1006D0002E2E000084DE0120303A0000303A2F52E6
:1006E00045434F5244455200436865636B204F7643
:1006F000657221004FF4FA7008F0A2FC1023F7A2F3
:100700000021084608F072FA00BF01200490002082
:10071000F6490860F649C1F8B802D6E0F348001D72
:10072000006808B9012000E00020F049091D0860B8
:10073000EF48D0F8B40208B9012000E00020EB49EE
:100740000860322008F07CFC322008F079FC049824
:10075000012802D0E748007820B90121E64808F0D6
:10076000C3FE0490E348007808B10AF1010ABAF127
:10077000140F0CD94FF0000A08F058F90A2008F0BD
:100780005FFC1023DDA20021084608F02FFA05A81F
:1007900001F081FF00B198E00C232022DBA105A825
:1007A000FFF723FDDD490860169802286FDA084636
:1007B0000068401C00286AD00027084600780B38E3
:1007C000C4B205E005A8005D3844C7B2601CC4B2DD
:1007D000D24800680930A042F4DCD04800680930F3
:1007E00005A9085CB8426FD1002409E0CB48006835
:1007F000401C204405A9085CC9490855601CC4B2C6
:10080000082CF3DB1698012800D15EE01023C5A266
:100810000221002008F0EAF91023C14A0421002037
:1008200008F0E4F91023C3A20621002008F0DEF945
:1008300007F0B6FF40BB0120169008F0F7F80A2039
:1008400008F0FEFB1023BEA20021084608F0CEF9F6
:100850001023BEA20221002008F0C8F91023B04ADC
:100860000421002008F0C2F94FF4FA6008F0E8FB18
:1008700008F0DCF80A2008F0E3FB1023B6A2002100
:10088000084608F0B3F921E00027002405E01BE04A
:100890000020A3490855601CC4B2082CF8DB0024D2
:1008A00004E0002005A90855601CC4B2402CF8DB08
:1008B00008F0BCF80A2008F0C3FB102387A200212F
:1008C000084608F093F900E000BF27E700BFA648FC
:1008D0000078FF2857D008F0A9F80A2008F0B0FBEC
:1008E0001023A2A20021084608F080F910239E4A96
:1008F0000221002008F07AF910239B4A28320421B3
:10090000002008F073F910238AA20621002008F0C5
:100910006DF907F045FF58BB002405E09248005DE3
:1009200096490855601CC4B2142CF7DB002406E07D
:100930008D481430005D92490855601CC4B2142CD7
:10094000F6DB002406E088482830005D8D49085514
:10095000601CC4B2142CF6DB002406E082483C3054
:10096000005D89490855601CC4B2142CF6DB08E20E
:1009700008F05CF80A2008F063FB102376A200213F
:10098000084608F033F9012058490860002058490A
:10099000C1F8B802ECE15548001D006808B9012013
:1009A00000E000205149091D08605148D0F8B40208
:1009B00008B9012000E000204C490860192008F027
:1009C0003FFB01F085FE192008F03AFB01214A485F
:1009D00008F08AFD00B998E605A801F05CFE00B1B8
:1009E000C6E10523202269A105A8FFF7FEFB69499E
:1009F00008600523202268A105A8FFF7F6FB6849D7
:100A000008600523202267A105A8FFF7EEFB4349F4
:100A100008600523202265A105A8FFF7E6FB6549CC
:100A200008605C480068401CF0B30123202262A1EA
:100A300005A8FFF7DAFB5A490860084600685549DF
:100A40000968884200DA93E10027524800780C38A0
:100A5000C4B205E005A8005D3844C7B2601CC4B24A
:100A60004F480068401C8442F4DB05A94C480068EC
:100A7000401C085CB8421CD100240DE045480068C9
:100A80002044401C05A9085C3C4908550846005D07
:100A900035490855601CC4B2414800683D490968A1
:100AA000401A401EA04200E004E0E7DC00202E498E
:100AB00008554FE13A480068401C70B101232022DC
:100AC0003DA105A8FFF791FB324908600846006880
:100AD00033490968884272DA4AE1A4E057616974CF
:100AE000696E67204E6574776F726B00B402414285
:100AF00000004142AC0700200000024057616974C9
:100B0000696E672042696E64696E6700534552439F
:100B1000483A426567696E5F0000000030000020BF
:100B200059000020526571756573742066726F6D8F
:100B30003A000000436F6E6E6563743F0000000072
:100B4000436F6E6E656374696F6E00005375636307
:100B5000656564656421000057616974696E67208A
:100B60005749464900000000580600205769466969
:100B7000205365727665723A00000000BD070020C0
:100B8000D1070020E5070020F90700202457494637
:100B90004900000028000020245041535300000069
:100BA0002C000020244950414400000024504F52A2
:100BB00054000000340000200A000000FFE7002776
:100BC000FE4800780C38C4B205E005A8005D384442
:100BD000C7B2601CC4B2FA480068401C8442F4DB0F
:100BE00005A9F7480068401C085CB8421AD10024E7
:100BF0000DE0F24800682044401C05A9085CF1495A
:100C000008550846015DF0480155601CC4B2EC4827
:100C10000068EA490968401A401EA042E9DC002148
:100C2000E948015596E0E9480068401CF0B301230B
:100C30002022AFF27C0105A8FFF7D7FADF49086050
:100C400008460068E1490968884200DA90E0002718
:100C5000DE4800780C38C4B205E005A8005D3844D1
:100C6000C7B2601CC4B2D5480068401C8442F4DBA3
:100C700005A9D2480068401C085CB8426AD100242B
:100C80000EE0D24800682044401C05A9085CD04909
:100C900008550846015DCC4814300155601CC4B2AB
:100CA000C6480068C9490968401A00E007E0401ECC
:100CB000A042E6DC0021C448143001554AE0C54892
:100CC0000068401CF0B301232022AFF2141105A8E4
:100CD000FFF78BFAB949086008460068BD49096802
:100CE000884200DA44E00027BA4800780C38C4B2E1
:100CF00005E005A8005D3844C7B2601CC4B2AF4827
:100D00000068401C8442F4DB05A9AC480068401C24
:100D1000085CB8421ED100240EE0AE4800682044B2
:100D2000401C05A9085CAC4908550846015DA64869
:100D300028300155601CC4B2A0480068A549096864
:100D4000401A00E006E0401EA042E6DC00219E487A
:100D500028300155A148007848B19A48007830B150
:100D60009B48007818B19C48007800B101E000BFB2
:100D700011E600BF802294491439994808F08DF893
:100D800000BF07F053FE0A2008F05AF9102395A27D
:100D90000021084607F02AFF102396A20221002016
:100DA00007F024FF94A011F005F84FF47A7008F0D2
:100DB00047F900BF834A894993A010F0FBFFC8217F
:100DC0009748FFF72DFA01209649086041F28830D4
:100DD00008F036F900209449C1F8B80241F2883091
:100DE00008F02EF98E4991A010F0E4FF90480068B9
:100DF00010F0CCFB0346C82201908D48016888485A
:100E0000FFF7F3F9401C0028D4D0C8218448FFF72D
:100E100007FA07F00BFE0A2008F012F9102385A24A
:100E20000021084607F0E2FE102372A202210020F2
:100E300007F0DCFE00BF684A654982A010F0BAFFE7
:100E4000C8217748FFF7ECF901207649091F0860AF
:100E500040F6C41008F0F4F800207349C1F8B40259
:100E600040F6C41008F0ECF87D48006810F08EFBE6
:100E70000346C82201907A4801686948FFF7B5F92E
:100E8000401C0028D7D0C82008F0DAF875A010F070
:100E900091FFC82008F0D4F876A010F08BFFC8208E
:100EA00008F0CEF84848143890F85000FF286FD06A
:100EB00007F0BCFD0A2008F0C3F8102371A200213E
:100EC000084607F093FE10233F4A3C3202210020DF
:100ED00007F08CFE10236EA20621002007F086FE8C
:100EE00007F05EFC002853D1002405E06A48005D4D
:100EF0006A490855601CC4B2082CF7DB002408E0DE
:100F000031483C30015D654A04F108001154601C11
:100F1000C4B20C2CF4DB35E14248006808B901206A
:100F200000E000203F4908603F48D0F8B40208B90B
:100F3000012000E000203B49091F0860192008F04B
:100F40007FF8192008F07CF81723C82254A13448F0
:100F5000FFF74BF91D49086008460068401CC0B106
:100F600007F064FD0A2008F06BF81023AFF26C4222
:100F70000021084607F03AFE1023AFF2304202216A
:100F8000002007F033FE4FF4FA6008F059F8FAE059
:100F9000FBE00D483C3010F0F9FA084908603220B7
:100FA00008F04EF844A010F005FF00200749086043
:100FB00001210248C01C08F073F889E02C000020D1
:100FC00028000020D10700206C06002030000020FF
:100FD000E507002034000020F9070020BD070020AD
:100FE00004000208436F6E6E6563742057494649DA
:100FF000000000002E2E2E0041542B43574D4F442D
:10100000453D310D0A00000041542B43574A4150E1
:101010003D222573222C222573220D0A0000000098
:10102000020A0020B802414200004142257300003C
:101030006C000020436F6E6E65637420536572769A
:101040006572000041542B43495053544152543D62
:1010500022544350222C222573222C25730D0A0082
:101060007000002041542B4349504D4F44453D31C1
:101070000D0A000041542B43495053454E440D0A7C
:101080000000000042696E64204E616D653A000008
:1010900042696E643F000000620000209807002053
:1010A00042696E64696E6420436865636B20436FB8
:1010B0006E6669726D0D0A00446F2042696E646944
:1010C0006E64204368656B696E670D0A000000005E
:1010D0000121FE4807F0E4FF0121FC48401E07F013
:1010E000DFFF0121F948801E07F0DAFF002409E044
:1010F000AFF23C00005DF64909680844F449086015
:10110000601CC4B2142CF3D3002408E0F148005D45
:10111000EF4909680844EE490860601CC4B2082C15
:10112000F4DB00240AE0EC4904F10800085CE8491B
:1011300009680844E6490860601CC4B2E348801EA0
:1011400000688442EFDB0121E148C01C07F0A8FFE2
:101150000121DF48801C07F0A3FF0121DC48401C6F
:1011600007F09EFF0121DA4807F09AFF0821D948CD
:1011700007F096FFD548801E008881B2D648083017
:1011800007F08EFFC8E600BFAFE207F04FFC0A2071
:1011900007F056FF1023AFF29C620021084607F0CB
:1011A00025FD9AE2C82007F04BFF0121CB4808F04B
:1011B0009BF904901923C822C9A1D048FFF715F85C
:1011C000C349086008460068401CE8B3C4A010F09A
:1011D000F1FD0020BE4908600421BD4807F060FF12
:1011E000002408E0BEA0005DB94909680844B84978
:1011F0000860601CC4B2192CF4D3002408E0B54880
:10120000005DB34909680844B1490860601CC4B274
:10121000082CF4DB0121AE48C01C07F041FF01217E
:10122000AB48801C07F03CFF0121A948401C07F097
:1012300037FF0121A64807F033FF0821A54807F032
:101240002FFFC821AD4800E002E0FEF7E9FF44E2CD
:101250001123C822AAA1A948FEF7C7FF9C4908602C
:1012600008460068401C002870D0A44998480068CF
:10127000401C085C00069549891E08609F499448F7
:101280000068801C085C9149891E096841EA004099
:101290008E49891E086099498D480068C01C085C09
:1012A0008A49891E096841EA00208849891E086028
:1012B000924987480068001D085C8449891E0968B6
:1012C00008438249891E08608C4981480068401D96
:1012D000085C00068F49086088497D480068801DC9
:1012E000085C8C49096841EA00408A4908608349E2
:1012F00077480068C01D085C8649096841EA0020FB
:10130000844908607D49724800680830085C81495A
:10131000096808437F49086000207F49086000246D
:101320000CE06B480068093020447449085C7A4935
:101330000968084478490860601CC4B26348801E8C
:1013400000780830A042ECDC002409E058E16CA0F1
:10135000005D7149096808446F490860601CC4B2A7
:10136000112CF4D36C4800686A49096888427DD121
:10137000002405E05748005D57490855601CC4B279
:10138000082CF7DB00240FE051480068113020449E
:101390005A49095C504A04F1080011541146095C8D
:1013A0005E480155601CC4B24848801E00688442F3
:1013B000EADB0021594801558A46102358A204212E
:1013C000002007F013FC1023AFF6A8020221002032
:1013D00007F00CFC1023404A08320421002007F0DB
:1013E00005FC1023AFF258320621002007F0FEFB67
:1013F000C8214248FEF714FF0498012802D14D4944
:1014000008706AE107F012FB0A2007F019FE1023AA
:1014100049A20021084607F0E9FB10232E4A0832B2
:101420000221002007F0E2FBE7E04648006808B927
:10143000012000E00020434908604348D0F8B4028E
:1014400008B9012000E000203E49091F086019206A
:1014500007F0F6FD192007F0F3FD1723C822AFF2BD
:10146000C0312648FEF7C1FE194900E034E10860AA
:1014700008460068401CB8B107F0D8FA0A2007F007
:10148000DFFD1023AFF684120021084607F0AEFB03
:101490001023AFF648120221002007F0A7FB4FF4FB
:1014A000FA6007F0CDFDA9E0322007F0C9FDAFF2E8
:1014B000F83010F07FFC0020054908600121034846
:1014C000401C07F0EDFD012100483FE02E00002008
:1014D0003000002062000020980700200000024039
:1014E00053796E6368726F6E6F75732044657669A9
:1014F000636520496E666F0D0A000000020A002035
:10150000526571756573742042696E64696E670D0A
:101510000A0000002800002034000020A806002057
:1015200020202020202020202020202020202020BB
:10153000000000008000002042696E64696E672E22
:101540002E2E0000B80241420000414207F0A8FDE3
:101550000121FE4807F0A4FD0121FC48401E07F0D0
:101560009FFD002409E0AFF2B040005DF849096832
:101570000844F7490860601CC4B2142CF3D300245B
:1015800008E0F448005DF24909680844F049086041
:10159000601CC4B2082CF4DB00240AE0EE4904F11C
:1015A0000800085CEA4909680844E9490860601CC9
:1015B000C4B2E648401E00688442EFDB0121E448E3
:1015C000C01C07F06DFD0121E148801C07F068FD9B
:1015D0000121DF48401C07F063FD0121DC4807F0D2
:1015E0005FFD0821DB4807F05BFDD848401E0088FE
:1015F00081B2D948083007F053FD16E700BF6DE00F
:10160000D648007801280ED10020D449087007F090
:101610000DFA0A2007F014FD1023AFF62032002146
:10162000084607F0E3FACEA010F0C4FB0120C84939
:1016300008600121C648C01C07F032FD0121C448E2
:10164000801C07F02DFD0121C148401C07F028FD3A
:101650000121BF4807F024FD0020BD490860002497
:1016600008E0BFA0005DBA4909680844B8490860AD
:10167000601CC4B2102CF4D3002408E0B548005D0F
:10168000B34909680844B2490860601CC4B2082C18
:10169000F4DBAF480068401CAD4908600121AC484C
:1016A000C01C07F0FDFC0121A948801C07F0F8FCD4
:1016B0000121A748401C07F0F3FC0121A44807F0D2
:1016C000EFFC0821A34807F0EBFC0220A0490860CA
:1016D00001219F4807F0E4FC00BF63E500BF8022C2
:1016E000A449A54807F0D9FB00BFC821A348FEF7CD
:1016F00097FDC82007F0A4FC07F098F90A2007F02E
:101700009FFC10239EA20021084607F06FFA1023C9
:101710009FA20221002007F069FA10239E4A0221AD
:10172000382007F063FA10239CA20421002007F060
:101730005DFA1023874A0421382007F057FA012068
:101740009849086000209849C1F8B802B5E305A897
:1017500000F0A1FF00287DD194A105A80FF004FF9F
:101760000546EDB30027002404E0285D3844C7B2E5
:10177000601CC4B2152CF8DB687DB84240D100274C
:10178000002408E0281940798349095D884200D087
:101790000127601CC4B2082CF4DB0FBB8148001D7C
:1017A000006808B9012000E000207E49091D08609A
:1017B0007D48D0F8B40208B9012000E00020794942
:1017C0000860687B7B490870A87B7B490870E87BD0
:1017D0007A490870287C7A490870687C794900E069
:1017E0000EE00870A87C78490870002077490860EE
:1017F000E87C00020860287D096808437349086096
:1018000073A105A80FF0B0FE054675B100270024AE
:1018100009E0281910F8080C5F49095D884200D0DA
:101820000127601CC4B2082CF3DB002D12D0002F5E
:1018300010D1A879422819D1E8796C2816D1287AD4
:10184000692813D1687A6E2810D1A87A6B280DD137
:10185000F14300E012E1304661F30000064601204A
:101860005049086000205049C1F8B802A8794928B9
:101870006AD1E8796E2867D1287A692864D1687AB4
:10188000742861D105F10A000FF0ABFE1590E87BDA
:101890002D280FD105F110000FF0A3FE8346642020
:1018A000BBFBF0F0D0B905F112000FF09AFE4A49E7
:1018B000087013E0A87B2D280FD105F10F000FF061
:1018C00090FE83466420BBFBF0F038B905F11100AF
:1018D0000FF087FE4049087000E0EEE248F6A041B4
:1018E0001598884206D81598B0F5FA5F02D3BBF177
:1018F000000F00D1E1E2B9F1FF0F25D1B8F1FF0FE0
:1019000022D126F0010646F008060120254908608C
:101910002549C1F8B80207F089F80A2007F090FBC2
:1019200010232EA20021084607F060F9102318A208
:101930000221002007F05AF91023174A022138200B
:1019400007F054F9102351E05CE000002D00002066
:101950003000002062000020980700208000002056
:101960004465766963652069732049646C650D0A76
:10197000000000005806002004000208020A0020AF
:1019800057616974205265636F7264696E67000005
:10199000536F667449443A005900002048617264EC
:1019A00049443A00B40241420000414243414C499B
:1019B0004200000010000020110000201200002052
:1019C0001300002014000020150000201800002043
:1019D000424547494E3A0000C40500205265636FF6
:1019E0007264696E672E2E2E00000000AFF2540262
:1019F0000421002007F0FAF81023F84A04213820C7
:101A000007F0F4F8A87942281CD1E879652819D1A3
:101A1000287A672816D1687A692813D1A87A6E289F
:101A200010D1B9F1AB0F0DD1B8F1AB0F0AD126F03F
:101A3000010646F002060120E94908600020E94954
:101A4000C1F8B802A879452816D1E8796E2813D1D3
:101A5000287A642810D1B9F1800F0DD1B8F1800F28
:101A60000AD126F0010646F004060120DC49086090
:101A70000020DC49C1F8B80230202870B9F1800F8D
:101A80000BD1B8F1800F08D10022114603200FF0CE
:101A9000E1FB002103200FF077F806F0080090B179
:101AA00026F00806B9F1FF0F0DD1B8F1FF0F0AD1EA
:101AB00059460220159A0FF0CDFB81460220159958
:101AC0000FF062F8804606F0020070B326F00206BE
:101AD000B9F1AB0F29D1B8F1AB0F26D1C2480078CC
:101AE000C2490870C2480078C2490870C2480078EC
:101AF000C2490870C2480078C2490870C2480078DC
:101B0000C2490870C2480078C2490870C2480068DB
:101B1000C24908600022114604200FF09BFB814659
:101B2000002104200FF030F8804606F00400C0B316
:101B300026F00406B9F1800F33D1B8F1800F30D10F
:101B40000022114601200FF085FB81460021012073
:101B50000FF01AF8804606F069FF0A2007F070FAC5
:101B60001023AFF2E4120021084607F03FF81023DB
:101B7000AFF2E4120221002007F038F81023A84A3F
:101B80000221382007F032F81023AFF2F0120421BE
:101B9000002007F02BF81023904A0421382007F08A
:101BA00025F806F00100D8B1B9F1FF0F18D1B8F14E
:101BB000FF0F15D18A48001D006808B9012000E018
:101BC00000208749091D08608648D0F8B40208B98A
:101BD000012000E0002082490860FA2007F030FA76
:101BE000B8F1AB0F54D1B9F1AB0F51D17C48001D06
:101BF000006808B9012000E000207949091D08604B
:101C00007848D0F8B40208B9012000E000207449F7
:101C10000860642007F014FA82A010F0CBF80020CE
:101C2000874908600421864807F03AFA002408E052
:101C30007CA0005D82490968084481490860601CF5
:101C4000C4B2182CF4D3002408E06448005D7C4939
:101C5000096808447A490860601CC4B2082CF4DBA7
:101C600001217748C01C07F01BFA01217448801C31
:101C700007F016FA01217248401C07F011FA012101
:101C80006F4807F00DFA0821544807F009FA13E1EC
:101C9000B8F1800F16D1B9F1800F13D10AF1010A02
:101CA0004FF4FA50BAFBF0F100FB11A0F0BB4C4826
:101CB000001D006808B9012000E000204849091D06
:101CC0000860F9E00AF1010A4FF4FA40BAFBF0F1BA
:101CD00000FB11A050BB464802785AA15B4810F0A7
:101CE00079F81023594A0621002006F07FFF1023BF
:101CF00057A20621184606F079FF3F48027851A105
:101D0000524810F067F81023504A0621182006F0B8
:101D10006DFF10234FA20621282006F067FF3848E8
:101D2000027848A1494810F055F800E0C4E01023BB
:101D3000464A0621302006F059FF102346A206210C
:101D4000402006F053FF304802783EA13F4810F093
:101D500041F810233D4A0621482006F047FF102392
:101D60003DA20621582006F041FF2948027835A1FE
:101D7000364810F02FF81023344A0621602006F070
:101D800035FFAFF2244010F015F801202C4908600F
:101D900001212B48C01C07F083F901212848801C31
:101DA00007F07EF901212648401C07F079F901214E
:101DB000234807F075F9002021490860002409E054
:101DC000AFF26440005D1E49096808441C49086080
:101DD000601CC4B2102CF3D3002448E06200002041
:101DE000B402414200004142100000201C000020CB
:101DF000110000201D000020120000201E00002005
:101E0000130000201F0000201400002020000020EC
:101E100015000020210000201800002024000020D0
:101E200059000020526561647920546F2053746119
:101E30007274205265636F6465720D0A00000000C1
:101E40003000002025302E3264000000D80600202B
:101E50002D000000200000003A0000001748005D3F
:101E600017490968084416490860601CC4B2082C68
:101E7000F4DB13480068401C114908600121104838
:101E8000C01C07F00DF901210D48801C07F008F96E
:101E900001210B48401C07F003F90121084807F015
:101EA000FFF80821054807F0FBF801200449086005
:101EB0000121034807F0F4F800BF48E46200002065
:101EC00030000020704700BFFEE700BFFEE700BF04
:101ED000FEE700BFFEE7704770477047704700009D
:101EE0006048006840F080505E4908605E480068C5
:101EF00040F440405C4908605A4838380068594905
:101F0000383908600846006808600846006840F4F0
:101F1000805008605548091F0860081F006840F09D
:101F20008070091F086000BF4E484038006800F00C
:101F300000700028F8D040F202704D49086049480E
:101F40003838006820F003004649383908600846F0
:101F5000006840F00200086000BF4248383800685E
:101F600000F00C000828F8D1704710B5414800680F
:101F700040F470003F4908603A484038006840F03B
:101F80000100384940390860002036493839086076
:101F900034484038006838490840324940390860C0
:101FA0003648091D0860081F006820F48020091FBA
:101FB000086000202B4934390860FFF791FF4FF08B
:101FC00000602C498039086010BD70B500200021E8
:101FD000022200230224234D383D2D6805F00C0019
:101FE00020B1042806D0082829D107E0244D254E29
:101FF000356028E0244D234E356024E0194D3C3DEA
:102000002D68C5F38053174D3C3D2D6805F03F0406
:102010004BB91B4DB5FBF4F5124E3C3E3668C6F38A
:10202000881605FB06F10F4D3C3D2D68C5F30145B3
:102030006D1C6A00B1FBF2F5124E356003E0104DE5
:10204000104E356000BF00BF064D383D2D68C5F30A
:1020500003150E4E705D0B4D2D68C540094E356061
:1020600070BD00004038024000700040106401075D
:10207000003C024088ED00E0FFFFF6FE1030002437
:102080000024F4008400002000127A008800002060
:102090007FB505460C460121022007F0ACFC0295F5
:1020A000A0B2ADF804000020ADF80C00ADF80600B9
:1020B00001A9D14808F081F801221146CE4808F064
:1020C0001DFD0121CC4808F041FD2021CA4808F03F
:1020D000CDFD1D208DF8000000208DF801000320AB
:1020E0008DF8020001208DF80300684607F0A9F87A
:1020F0000121C14808F0EAF87FBD10B50121BE48B2
:1021000008F013FD18B10121BB4808F01FFD10BDF8
:1021100000B58DB00121084607F024FC012108021A
:1021200007F07AFC02200B9003208DF8300000208D
:102130008DF833000BA9B14807F074F901210802AA
:1021400007F0BFFC00214FF4807007F0BAFC0020BC
:1021500007900A9009904FF48030089007A809F082
:1021600057FB002001908DF808008DF809000390BE
:10217000059001208DF8180001A9A14809F019FB6C
:1021800001219F4809F05BFB0DB000BD30B52DED7E
:10219000048B8DB0044620460FF0C9FB41EC190BAF
:1021A00053EC192B9FED970B51EC100B0FF03FFBED
:1021B00041EC180B0FF0C8FB054629460120FFF73C
:1021C00067FF0121084607F0CDFB0121080207F057
:1021D00023FC02200B9003208DF8300000208DF8A6
:1021E00033000BA9854807F01DF90121080207F00B
:1021F00068FC00214FF4807007F063FC002007901A
:102200004FF4A0600A904FF480400990800008903D
:1022100007A809F0FDFA002001908DF808008DF85C
:1022200009004FF0006004904000039000200590EA
:1022300001208DF8180001A9714809F0BAFA0023AD
:10224000012211466E4809F03AFB01216C4809F061
:10225000E1FB01216A4809F0F2FA694809F08BFBB9
:102260000121674809F0D6FB0121654809F0C7FB49
:102270000DB0BDEC048B30BD2DE9F04391B00446A8
:102280000D4616461F46DDE918896048844204D988
:102290000121880507F066FB03E00121480507F0EE
:1022A00061FB204609F0A6F800BF204609F0CBF9F3
:1022B0000028FAD10195029603970490CDF8149066
:1022C00006904FF480600790400008900990C0107D
:1022D0000A9000020B9000200C9003200D9000202B
:1022E0000E900F9001A9204609F026F900224146E0
:1022F000204609F082F90121204609F08AF90122DD
:102300001021204609F0DFF90121204609F04EF99D
:1023100038208DF8400002208DF8410001208DF812
:1023200042008DF8430010A806F08BFF11B0BDE805
:10233000F08310B536493548103009F0E1F901282D
:1023400008D133493148103009F004FA0DF03EFD50
:102350000EF050FD10BD10B501212C48103009F0D1
:1023600025F910BD10B500212848103009F01EF9DC
:1023700010BD70B504460D460021204609F016F93F
:1023800000BF204609F05FF90028FAD1294620460F
:1023900009F02DF90121204609F008F970BD10B5AA
:1023A0000446072301222146154809F088FA1448FB
:1023B00009F0E1FA00BF0221114809F0FDFB0028F5
:1023C000F9D00F4809F013FB10BD2DE9F041074685
:1023D0000C460025002608E03846FFF7E0FF0544DC
:1023E000052006F02DFE701CC6B2A642F4DBB5FB3C
:1023F000F4F080B2BDE8F08100040040000002402B
:10240000002001400000000084D7874100640240A2
:10241000208000101CB50121042007F0A3FA01213F
:10242000080707F0E8FA012009F0F5FB002007F0A3
:1024300034F94FF4C040009001208DF804000020D2
:102440008DF806008DF805008DF8070069460848EC
:1024500006F0E8FF4FF4005005491A3108804000AB
:1024600008804FF4C041024807F058F81CBD000036
:102470000008024000B585B00021BE4808F0D2FD3A
:102480000020ADF800004FF48270ADF8020000208B
:10249000ADF80400ADF80600ADF808004FF4007088
:1024A000ADF80A003820ADF80C000020ADF80E00A1
:1024B0000720ADF810006946AE4808F0B9FC0121CC
:1024C000AC4808F0AFFD05B000BD1CB501210A20E5
:1024D00007F048FA4FF48860009001208DF804005E
:1024E00000208DF8060003208DF8050001208DF8EE
:1024F00007006946A04806F095FF042000900020E0
:102500008DF8040001208DF8070069469A4806F00E
:1025100089FF00F058F9FFF7ADFF002097490860E8
:1025200001209749C1F898021CBD2DE9F0410746EA
:102530000D4616460020914910390860384600F0D3
:1025400029F98046002405E0FF2000F023F92855F2
:10255000601CC4B2B442F7DB01208849103908601E
:102560004046BDE8F0812DE9F04107460C4615468E
:102570000020824910390860384600F00BF9804687
:10258000002605E014F8010B00F004F9701CC6B237
:10259000AE42F7DB01207949103908604046BDE8BA
:1025A000F0811CB577A103C9CDE90001102000F02E
:1025B00079F9052269463020FFF7D5FF05226946E3
:1025C0001020FFF7B2FF002406E01DF80400A52844
:1025D00000D003E0601CC4B2052CF6DB00BF052C64
:1025E00001D001201CBD0020FCE770B505460C465B
:1025F0000020624910390860284600F0CBF80646F2
:10260000204600F0C7F801205D49C1F89802304625
:1026100070BD70B504460020584910390860204646
:1026200000F0B8F8FF2000F0B5F805460120544945
:10263000C1F89802284670BD70B50546202000F00C
:1026400031F900204D49086020222946A020FFF7DB
:102650008AFF01204A49C1F8A80200BF4748A038B4
:1026600000680028FAD10720FFF7D3FF044621466F
:102670002720FFF7BAFF04F0100028B1FF21E12066
:10268000FFF7B3FF102070BD04F0200008B1202038
:10269000F9E7FF20F7E770B50446202000F002F9C3
:1026A0000720FFF7B6FF054629462720FFF79DFFC5
:1026B00005F0400050B1202221466120FFF735FF90
:1026C000FF21E220FFF791FF002070BD0120FCE711
:1026D00010B500202949086005222C492A20FFF75F
:1026E00042FF01212120FFF780FF01212220FFF777
:1026F0007CFF28212520FFF778FF20213120FFF7DC
:1027000074FF0F212620FFF770FF0F212020FFF715
:102710006CFF01201A49C1F8A80210BD10B50020B5
:102720001649086005221A493020FFF71CFF0522D0
:1027300016492A20FFF717FF01212120FFF755FF37
:1027400001212220FFF751FF1A212420FFF74DFF1E
:1027500028212520FFF749FF0F212620FFF745FFFD
:102760000E212020FFF741FF01200549C1F8A802F2
:1027700010BD00000030014000040240A882404229
:1027800000804042A5A5A5A5A5000000AF2D010829
:10279000AA2D010810B5044600BF02214A4808F0DE
:1027A0000BFD0028F9D02146474808F0BCFC00BFCB
:1027B0000121454808F000FD0028F9D0424808F002
:1027C000AFFCC0B210BD00B587B00121032007F0F7
:1027D000C9F80121080307F01FF910200590022015
:1027E0008DF8180000208DF81A0003208DF81900CC
:1027F00001208DF81B0005A9344806F013FEA02027
:10280000059002208DF8180000208DF81A00032092
:102810008DF8190001208DF81B0005A92C4806F041
:1028200001FE052207212A4806F087FE0522042121
:10283000264806F082FE05221146254806F07DFE58
:102840000121080307F03DF900214FF4805007F003
:1028500038F90020ADF800004FF48270ADF80200A6
:102860000020ADF804000220ADF806000120ADF80C
:1028700008004002ADF80A003820ADF80C00002036
:10288000ADF80E000720ADF8100069460E4808F0BC
:10289000CFFA01210C4808F0C5FBFF20FFF77AFFB3
:1028A00007B000BD10B50446074800884FF6C77151
:1028B0000840054908800846008820430880012117
:1028C000014808F0AFFB10BD003001400004024099
:1028D0000000024070B505460C4603F022FAD020F5
:1028E00003F0CBFA03F05EFA18B103F03CFA0120D2
:1028F00070BD284603F0C1FA03F054FA204603F0F5
:10290000BCFA03F04FFA18B103F02DFA0120EFE7FB
:1029100003F029FA0020EBE770B504460025BC2C33
:1029200001DB012510E0622C01DB02250CE02A2CE2
:1029300001DB032508E0142C01DB042504E00A2C4C
:1029400001DB052500E0062529461A20FFF7C2FF16
:1029500070BD70B50446B4F57A7F01DD4FF47A742A
:10296000042C00DA04244FF47A7090FBF4F0401E3B
:10297000C5B229461920FFF7ADFF0546264604EBF0
:10298000D671C1F34F00FFF7C7FF70BD70B50446A5
:1029900003F0C7F9D02003F070FA03F003FA2046E1
:1029A00003F06BFA03F0FEF903F0BBF9D12003F05A
:1029B00064FA03F0F7F9002003F08CFA054603F0FF
:1029C000D2F9284670BD10B50446E006010E1C2061
:1029D000FFF780FF10BD10B50446E006010E1B2076
:1029E000FFF778FF10BD10B503F07CF980216B2054
:1029F000FFF770FF642006F023FB00216B20FFF738
:102A000069FF0320FFF7E7FF0020FFF7DCFF32201C
:102A1000FFF79FFF00213820FFF75CFF00216A20AD
:102A2000FFF758FF00212320FFF754FF80213720B4
:102A3000FFF750FF7520FFF7A9FF0446682C0BD164
:102A400001216B20FFF746FF00216C20FFF742FFBA
:102A50003220FFF77EFF01E0012010BD0020FCE7DF
:102A60002DE9F04106460F4614461D4603F059F97C
:102A7000002141EA4601C8B203F0FFF903F092F9E0
:102A800020B103F070F90120BDE8F081384603F071
:102A9000F4F903F087F903F044F9012101EB460151
:102AA000C8B203F0EAF903F07DF90DE0012C04D17E
:102AB000002003F00FFA287003E0012003F00AFA67
:102AC0002870601EC4B26D1C002CEFD103F04BF9CE
:102AD0000020D9E710B52DED088B82B001AB0222A2
:102AE00041216820FFF7BCFF9DF805009DF8041008
:102AF00040EA012004B220460EF008FF41EC1B0B17
:102B00009FED500B53EC102B0EF091FE41EC1A0B85
:102B10009FED4E0B53EC102B0EF070FD41EC190B9A
:102B20000EF03EFF08EE100A9FED4A0A28EE000A5A
:102B3000BDEEC00A10EE100A00B202B0BDEC088B68
:102B400010BD2DE9FC4104460D4616466B46062293
:102B500043216820FFF784FF0746BFB99DF80100B5
:102B60009DF8001040EA012000B220809DF803008B
:102B70009DF8021040EA012000B228809DF805006F
:102B80009DF8041040EA012000B230803846BDE8CC
:102B9000FC812DE9FC4104460D4616466B46062293
:102BA0003B216820FFF75CFF0746BFB99DF8010095
:102BB0009DF8001040EA012000B220809DF803003B
:102BC0009DF8021040EA012000B228809DF805001F
:102BD0009DF8041040EA012000B230803846BDE87C
:102BE000FC812DE9F04105460E461746984603F054
:102BF00098F8002141EA4501C8B203F03EF903F01C
:102C0000D1F820B103F0AFF80120BDE8F0813046E3
:102C100003F033F903F0C6F800240CE018F80400C0
:102C200003F02BF903F0BEF818B103F09CF8012073
:102C3000EBE7601CC4B2BC42F0DB03F094F8002068
:102C4000E3E700000000000000407540A4703D0A6A
:102C5000D74342400000C84238B50446F74890F8D0
:102C60002400C0B114B10220009001E000200090C7
:102C7000F24A1268D17BF14A526810786B46012201
:102C8000FFF7AFFF10B14FF0FF3038BD9DF80010D7
:102C9000EA48417423E0E948807A10B94FF0FF30E8
:102CA000F3E724B1E548407C08B10020EDE714B11A
:102CB0000120009001E000200090E04A1268D17BE2
:102CC000DE4A526810786B460122FFF78AFF10B186
:102CD0004FF0FF30D9E79DF80010D848417400202C
:102CE000D3E738B500241FE0D4480068C07AA0427A
:102CF00004D0D2480068407DA04200D112E0CF4904
:102D0000496808786B4601222146FFF7A9FE10B1F9
:102D10004FF0FF3038BD9DF800202146C8A00FF0CD
:102D200049F800BF601CC4B2C44840680079A042A2
:102D3000DADC0020EEE770B504460D46BF480068B7
:102D4000C07AA04204D0BD480068407DA04202D1B4
:102D50004FF0FF3070BDB94840680079A04202DCF6
:102D60004FF0FF30F6E7B549496808782B46012255
:102D70002146FFF775FEEDE738B50446AF4890F8F9
:102D80002300A04201D1002038BD14B130200090B2
:102D900001E000200090A948807C20B19DF800004F
:102DA00040F002000090A54890F8220020B19DF864
:102DB000000040F080000090A04A1268117D9F4AF8
:102DC000526810786B460122FFF70BFF10B14FF0ED
:102DD000FF30D9E7994880F823400020D4E738B580
:102DE000044604F0700010B10120009005E014B119
:102DF0000020009001E040200090904A1268917CF1
:102E00008E4A526810786B460122FFF7EAFE20B125
:102E100000218A488172481E38BD9DF8000020F0CC
:102E20004001864801730020009004F0400020B962
:102E30009DF8000040F00400009004F0200020B94C
:102E40009DF8000040F00200009004F0100020B94E
:102E50009DF8000040F00100009004F0080020B947
:102E60009DF8000040F038000090744A1268D17C50
:102E7000724A526810786B460122FFF7B2FE20B109
:102E800000216E488172481EC6E724B1082C02D08A
:102E90000020FFF771FF694884720021017532201C
:102EA00006F0CEF80020B7E738B504466348807CCA
:102EB000A04201D1002038BD002C46D05F4A1268E4
:102EC00011795E4A526810786B460122FFF7C8FDFF
:102ED00010B14FF0FF30EEE79DF8000020F0200029
:102EE0000090564A12681179544A526810786B461D
:102EF0000122FFF776FE10B14FF0FF30DBE7032031
:102F000006F09EF8022000904C4890F8220020B174
:102F10009DF8000040F080000090484890F82300A1
:102F200020B19DF8000040F030000090434A126844
:102F3000117D424A526810786B460122FFF751FE1C
:102F4000002851D04FF0FF30B5E73C4A12681179A4
:102F50003A4A526810786B460122FFF781FD10B1A2
:102F60004FF0FF30A7E73548807A00F0010028B124
:102F70009DF8000040F02000009004E09DF8000063
:102F800020F0200000902D4A126811792B4A5268D7
:102F900010786B460122FFF724FE10B14FF0FF308E
:102FA00089E7032006F04CF8244890F8220010B17D
:102FB0008020009001E000200090204890F823003D
:102FC00020B19DF8000040F0300000901B4A1268CC
:102FD000117D1A4A526810786B460122FFF701FEF4
:102FE00010B14FF0FF3066E714488474002062E7A8
:102FF00008B51248807A10B94FF0FF3008BD0020A4
:1030000000900E4A1268D17B0C4A526810786B46C9
:103010000122FFF7E6FD10B14FF0FF30EEE7074A5F
:1030200012685179054A526810786B460122FFF701
:10303000D8FD68B14FF0FF30E0E7000098000020B5
:10304000252335783A20252335780D0A0000000025
:10305000F84A12681179F74A526810786B460122D3
:10306000FFF7BFFD10B14FF0FF30C7E7F14890F810
:103070002400002853D00C200090EE4A12681179E9
:10308000EC4A526810786B460122FFF7AAFD10B196
:103090004FF0FF30B2E7322005F0D2FFC0200090A1
:1030A000E448807A00F0010020B19DF8000040F073
:1030B00020000090DF4A12681179DE4A52681078C9
:1030C0006B460122FFF78DFD10B14FF0FF3095E701
:1030D000D848407C10B10220009001E00020009010
:1030E000D44A1268D17BD34A526810786B460122C9
:1030F000FFF777FD10B14FF0FF307FE70020009021
:10310000CC4A12685179CB4A526810786B4601223A
:10311000FFF767FD002855D04FF0FF306EE7042021
:103120000090C44A12681179C24A526810786B46FE
:103130000122FFF756FD10B14FF0FF305EE7BD48AA
:10314000807C20B9BB48807A00F0010010B9402093
:10315000009001E060200090B64A12681179B54AEB
:10316000526810786B460122FFF73BFD10B14FF01B
:10317000FF3043E7322005F063FFAE48407C10B1DA
:103180000120009001E000200090AA4A1268D17B43
:10319000A84A526810786B460122FFF722FD10B151
:1031A0004FF0FF302AE7A34A12685179A14A5268CA
:1031B0001078A04B10330122FFF713FD10B14FF030
:1031C000FF301BE7002019E770B50446002624F005
:1031D0000104984890F8240008B1002070BD95487B
:1031E000807A10B94FF0FF30F8E79248057C807A7A
:1031F0002040904908740846007CA04202D04FF05D
:10320000FF3600E0002614B98A48007D18B101207D
:10321000FFF722FD02E00020FFF71EFD3CB1FFF7A3
:10322000E7FE20B1834805744FF0FF30D6E7304603
:10323000D4E738B504467F48807A10B94FF0FF30A4
:1032400038BDBC2C02DB0120009015E0622C02DBB3
:103250000220009010E02A2C02DB032000900BE0FB
:10326000142C02DB0420009006E00A2C02DB05206F
:10327000009001E0062000906E48C07A9DF8001092
:10328000884201D10020DBE76A4A12689178694AD6
:10329000526810786B460122FFF7A3FC10B14FF083
:1032A000FF30CDE79DF800106248C1720020C7E7EB
:1032B00038B50446282C02DD4FF0FF3038BDDCB9AC
:1032C0000020FFF759FD00208DF8000007208DF841
:1032D0000100584A1268917C564A526810786B4631
:1032E0000222FFF77EFC10B14FF0FF30E6E700212D
:1032F000504801750020E1E70120FFF73DFD202047
:103300008DF80000012C06D100208DF80100052069
:10331000FFF78FFF17E0052C06DC01208DF8010078
:103320000520FFF786FF0EE0142C06DC02208DF846
:1033300001000A20FFF77DFF05E003208DF8010062
:103340001420FFF776FF9DF80100072101EB8010A4
:10335000C0B28DF80100374A1268917C354A526834
:1033600010786B460222FFF73CFC10B14FF0FF30A3
:10337000A4E708212F488172002101730121017502
:103380000020FFF721FF002098E738B504462948C0
:10339000807A10B94FF0FF3038BD264890F82400ED
:1033A00010B14FF0FF30F7E72248007D50B134B143
:1033B000282C04DCE0B2FFF77BFF0020ECE70020C4
:1033C000FFF776FF042C01DA042404E0B4F57A7FD9
:1033D00001DD4FF47A744FF47A7090FBF4F0401EE4
:1033E000C0B20090134A12685178124A526810789D
:1033F0006B460122FFF7F5FB10B14FF0FF30CBE732
:103400009DF80000401C4FF47A7191FBF0F081B2FE
:103410000848C1810146C9894810FFF70AFF00200A
:10342000BAE738B504460348807A28B94FF0FF3030
:1034300038BD000098000020022C06D0042C07D0D4
:10344000082C08D0102C0CD108E0002000900BE0D4
:103450000820009008E01020009005E0182000905F
:1034600002E04FF0FF30E3E700BFF748407A9DF8F5
:103470000010B0EBE10F01D10020D9E7F24A126849
:10348000D179F14A526810786B460122FFF7A9FB07
:1034900010B14FF0FF30CBE79DF80000C110EA48B3
:1034A00041720020C4E738B50446E748807A10B975
:1034B0004FF0FF3038BDFA2C09D0B4F5FA7F09D0AF
:1034C000B4F57A7F09D0B4F5FA6F0CD108E000208A
:1034D00000900BE00820009008E01020009005E02C
:1034E0001820009002E04FF0FF30E3E700BFD6481D
:1034F000007A9DF80010B0EBE10F01D10020D9E770
:10350000D14A12689179D04A526810786B460122EC
:10351000FFF767FB10B14FF0FF30CBE79DF80000DD
:10352000C010C94908720020C4E71CB580208DF87E
:103530000000C54A1268917CC34A526810786B46F5
:103540000122FFF74EFB10B14FF0FF301CBD64208D
:1035500005F076FD00208DF80000BB4A1268917CD2
:10356000B94A526810786B460122FFF73AFB10B156
:103570004FF0FF30EAE7B44A1268917DB24A5268D0
:1035800010786B460622FFF76BFA10B14FF0FF3050
:10359000DCE79DF80500C007400F9DF8031001F01F
:1035A000010140EA41009DF8011001F0010140EAEB
:1035B000010494B1012C03D10121A348C17431E06D
:1035C000022C03D10021A048C1742BE021469FA00A
:1035D0000EF0F0FB4FF0FF30B8E79B4A1268D1784D
:1035E000994A526810786B460122FFF739FA10B1F8
:1035F0004FF0FF30AAE79DF8000000F00F042CB94F
:103600009C480EF0D7FB4FF0FF309FE7042C06D10B
:1036100099A00EF0CFFB01218B48C17402E000217C
:103620008948C174FF2188488172FF208649087249
:10363000FF2185484172C1724FF6FF71C181FF21A0
:10364000017481740121017380F82210002180F837
:103650002310417501751630016041608160163894
:1036600080F8241080F82510C1844FF4FA60FFF729
:103670001AFF10B14FF0FF3068E70220FFF7D1FECC
:1036800010B14FF0FF3061E72A20FFF7D2FD10B1F3
:103690004FF0FF305AE73220FFF777FE10B14FF0BE
:1036A000FF3053E70020FFF78FFD10B14FF0FF30E0
:1036B0004CE70020FFF7F8FB10B14FF0FF3045E773
:1036C0000020FFF78CFB002040E770477CB50446E4
:1036D0000D465D48807A00F0700010B94FF0FF3061
:1036E0007CBD594A1268117B574A526810786B4664
:1036F0000622FFF7B5F910B14FF0FF30F0E79DF863
:1037000001009DF8001040EA012000B220809DF8E1
:1037100003009DF8021040EA012000B260809DF88D
:1037200005009DF8041040EA012000B2A08015B108
:103730002846FFF7CAFF0020D2E77CB504460D46B5
:103740004148807A00F0080010B94FF0FF307CBD8E
:103750003D4A1268517B3C4A526810786B460622FB
:10376000FFF77EF910B14FF0FF30F0E79DF8010050
:103770009DF8001040EA012000B220809DF803006F
:103780009DF8021040EA012000B260809DF805001B
:103790009DF8041040EA012000B2A08015B128462F
:1037A000FFF793FF0020D2E7F8B506460C462648FF
:1037B000807A10B94FF0FF30F8BD234A1268917B30
:1037C000214A526810786B460222FFF749F910B17E
:1037D0004FF0FF30F0E79DF801009DF8001040EA3F
:1037E000012005B214B12046FFF76FFF164840686C
:1037F000B0F9080000EE100AF8EEC00A00EE105A08
:10380000B8EEC00A70EE600A0F484068C08800EE4B
:10381000100AB8EE400A80EE801A9FED1F0A31EEC2
:10382000000ADFED1E0A20EE200ABDEEC00A86ED7A
:10383000000A0020C0E710B588B004461CB94FF05C
:10384000FF3008B010BD2BE098000020556E737556
:1038500070706F7274656420736F667477617265DF
:103860002070726F64756374207265762025642EF3
:103870000A0000006448010848616C662073656EA8
:103880007369746976697479207061727420666FE7
:10389000756E642E0A00000000000C420000804794
:1038A000206830B9606820B9A06810B9002008B05D
:1038B00010BDF9494968087806AB03221146FFF7A5
:1038C000CFF810B14FF0FF30F1E79DF81800082154
:1038D00001EB201000F00F00ADF800009DF819007A
:1038E00001EB201000F00F00ADF802009DF81A0067
:1038F00001EB201000F00F00ADF80400206841003B
:10390000BDF90000403091FBF0F000B2ADF81000BE
:1039100060684100BDF90200403091FBF0F000B258
:10392000ADF81200A0684100BDF90400403091FBE1
:10393000F0F000B2ADF81400D7494968087806AB3A
:1039400006221146FFF78CF810B14FF0FF30AEE7BA
:103950009DF819009DF8181040EA012000B2ADF85A
:1039600008009DF81B009DF81A1040EA012000B2E3
:10397000ADF80A009DF81D009DF81C1040EA0120DA
:1039800000B2ADF80C00BDF81000BDF808100844F6
:1039900000B2ADF81000BDF81200BDF80A100844DE
:1039A00000B2ADF81200BDF81400BDF80C100844C8
:1039B00000B2ADF81400BDF81000000A8DF8180030
:1039C000BDF81000C0B28DF81900BDF81200000A51
:1039D0008DF81A00BDF81200C0B28DF81B00BDF8BA
:1039E0001400000A8DF81C00BDF81400C0B28DF858
:1039F0001D00A9494968087806AB06221146FFF761
:103A0000F0F810B14FF0FF3051E700204FE70146CA
:103A1000A148007A30B1012807D0022809D0032834
:103A20000FD10AE0FA2008800EE04FF4FA70088007
:103A30000AE04FF47A70088006E04FF4FA600880DC
:103A400002E00020088000BF00BF00207047014650
:103A50009148407A30B1012807D0022808D00328C5
:103A60000CD108E0022008700BE00420087008E088
:103A70000820087005E01020087002E04FF0FF30C9
:103A8000704700BF8448C07C18B108784006000E1B
:103A900008700020F4E701467F48C07A082817D252
:103AA000DFE800F01704070A0D101318BC20088087
:103AB00013E06220088010E02A2008800DE0142026
:103AC00008800AE00A20088007E00520088004E05A
:103AD00000BF00BF0020088000BF00BF002070476B
:103AE00001466D4890F8240010B14FF0FF30704748
:103AF0006948C08908800020F9E701460020088055
:103B0000401E704701464FF0FF3070470146624843
:103B1000007A30B1012809D002280CD0032814D132
:103B20000EE09FED5E0A81ED000A11E09FED5C0A58
:103B300081ED000A0CE09FED5B0A81ED000A07E0D1
:103B40009FED590A81ED000A02E04FF0FF30704707
:103B500000BF0020FBE701464F48407A30B1012802
:103B600008D002280AD0032810D10BE04FF480407F
:103B700008800EE041F69C7008800AE04FF4805007
:103B8000088006E04FF40060088002E04FF0FF304C
:103B9000704700BF4048C07C10B1088840100880C2
:103BA0000020F5E701463C48007C08700020704783
:103BB00001463948807A10B10120087001E00020E8
:103BC00008700020704738B504463348807A10B931
:103BD0004FF0FF3038BD304A1268117C2E4A5268CF
:103BE00010786B460222FEF73BFF10B14FF0FF301A
:103BF000F0E79DF801009DF8001040EA012000B2B6
:103C000020800020E6E72DE9FE4F074688469246D1
:103C10001D46DDF830B0002600241F4890F824002F
:103C200010B1601EBDE8FE8F002028701A48807A0F
:103C300010B94FF0FF30F5E71748007C10B94FF08E
:103C4000FF30EFE71448007C00F0400008B1B01CE2
:103C5000C6B21148007C00F0200008B1B01CC6B20A
:103C60000D48007C00F0100008B1B01CC6B20A4834
:103C7000007C00F0080008B1B01DC6B2064A126808
:103C8000917A054A526810786B460222FEF7E8FEE8
:103C900060B14FF0FF30C5E79800002000000343FB
:103CA0000000834233330342333383419DF80100E4
:103CB0009DF8001040EA0129B14501DA0020B1E782
:103CC000FA4840684088B9EB600F17DDF74A126880
:103CD000517CF64A526810786B460122FEF7C0FE0E
:103CE00010B14FF0FF309DE79DF8000000F010008C
:103CF00020B1FFF77DF96FF0010093E75046FFF721
:103D0000E4FCEA4A1268D17AE84A526810786B46B5
:103D10003246FEF7A5FE10B14FF0FF3082E799FB67
:103D2000F6F0401E8BF8000000202870B4422AD024
:103D3000DE48007C00F0080028B3601C1DF800007D
:103D40001DF8041040EA012000B2A8F80000E01CB1
:103D50001DF80010A01C1DF8000041EA002000B270
:103D6000A8F80200601D1DF80010201D1DF80000BD
:103D700041EA002000B2A8F80400287840F00800CA
:103D80002870A01D84B2B44213D0C848007C00F053
:103D9000400070B1601C1DF800001DF8041040EADE
:103DA000012000B23880287840F040002870A01C24
:103DB00084B2B44213D0BD48007C00F0200070B142
:103DC000601C1DF800001DF8041040EA012000B23C
:103DD0007880287840F020002870A01C84B2B4427B
:103DE00013D0B248007C00F0100070B1601C1DF8C8
:103DF00000001DF8041040EA012000B2B8802878C5
:103E000040F010002870A01C84B200200AE7F8B52A
:103E100004460F461646A54890F8240010B94FF006
:103E2000FF30F8BDA148807A10B94FF0FF30F8E7B5
:103E30009E4A1268917A9D4A526810786B46022217
:103E4000FEF70EFE10B14FF0FF30EAE79DF80100DB
:103E50009DF8001040EA0125A54203DA00203070E9
:103E6000401EDEE7914840684088B5EB600F17DDE3
:103E70008E4A1268517C8D4A526810786B46012236
:103E8000FEF7EEFD10B14FF0FF30CAE79DF80000DD
:103E900000F0100020B1FFF7ABF86FF00100C0E7B1
:103EA000E2B2824B1B68D97A804B5B6818783B463C
:103EB000FEF7D6FD10B14FF0FF30B2E795FBF4F0FE
:103EC000401E30700020ACE70146784880F8221090
:103ED000002070477CB5054674494968087801ABF5
:103EE00004220D21FEF7BCFD08B107207CBD9DF822
:103EF0000700C0F301109DF8041001F0E00140EA52
:103F0000E1008DF800009DF80700C0F381009DF8E6
:103F1000051001F0E00140EAE1008DF801009DF894
:103F2000070000F003009DF8061001F0E00140EAF0
:103F3000E1008DF80200002427E01DF8040030B9EC
:103F40009FED5B0A05EB840080ED000A1BE09FED0E
:103F5000590A05EB840080ED000A0BE005EB8400B4
:103F600090ED000ADFED540A20EE200A05EB8400F4
:103F700080ED000A1DF80400401EC0B20DF80400D8
:103F80000028EBD100BF601CC4B2032CD5DB00209D
:103F9000ACE7F0B52DED028B83B006460F46002549
:103FA0006846FFF797FF002447E056F8241057F8BB
:103FB0002420881A002801DB014600E0414200EE7F
:103FC000101AB8EEC00ADFED3D0A80EE208A68467E
:103FD00000EB840090ED000AB5EEC00AF1EE10FA95
:103FE00018D0684600EB8400D0ED000A88EE200A65
:103FF000F7EE000A70EE608AB0EEE80A3048D0EDC5
:10400000090AB4EEE00AF1EE10FA15DD0120A04035
:10401000054311E02A4890ED070AB4EEC80AF1EE14
:1040200010FA06DC90ED080AB4EEC80AF1EE10FAB8
:1040300002D20120A0400543641C032CB5DB2846B6
:1040400003B0BDEC028BF0BDF0B52DED048B81B05B
:1040500006460F4600251549496808786B46032235
:104060000D21FEF7FDFC20B1072001B0BDEC048B53
:10407000F0BD9DF8000000F01F008DF800009DF8D5
:10408000010000F01F008DF801009DF8020000F013
:104090001F008DF80200002461E056F8241057F844
:1040A0002420881A00280DDB01460CE0980000202F
:1040B000000000007B14AE3E1D5A843F0000804784
:1040C000DC2D0108414200EE101AB8EEC00A5FED87
:1040D000050A80EE208A1DF8040068B3FE4890EDC2
:1040E000000AB8EE400ADFEDFD0A80EE801AF0EE1D
:1040F000418A05E09FEDFA0A28EE800AF0EE408A38
:104100001DF80400401EC0B20DF804000028F1D1D3
:1041100088EE280AF7EE000A30EE609AB0EEC90A7F
:10412000ED48D0ED060AB4EEE00AF1EE10FA15DD26
:104130000120A040054311E0E74890ED040AB4EEE9
:10414000C80AF1EE10FA06DC90ED050AB4EEC80AD2
:10415000F1EE10FA02D20120A0400543641C032CAA
:104160009BDB284681E72DE9F04F87B005460C46DA
:10417000914601208DF8100000208DF81100D94AD9
:104180001268917CD74A5268107804AB0222FEF77D
:1041900028FD20B14FF0FF3007B0BDE8F08FC820F8
:1041A00004F04EFF00208DF81000CE4A1268D17B3B
:1041B000CC4A5268107804AB0122FEF712FD10B110
:1041C0004FF0FF30E8E7C74A12685179C54A526894
:1041D000107804AB0122FEF704FD10B14FF0FF3060
:1041E000DAE7C04A1268917CBE4A5268107804AB84
:1041F0000122FEF7F6FC10B14FF0FF30CCE7B94AD0
:104200001268D17DB74A5268107804AB0122FEF7DC
:10421000E8FC10B14FF0FF30BEE7B24A12681179E6
:10422000B04A5268107804AB0122FEF7DAFC10B1F4
:104230004FF0FF30B0E70C208DF81000A94A12684B
:104240001179A84A5268107804AB0122FEF7C9FC24
:1042500010B14FF0FF309FE70F2004F0F1FEA148AE
:10426000806A407A8DF810009E4A126891789D4AC3
:104270005268107804AB0122FEF7B3FC10B14FF086
:10428000FF3089E79748806A007A8DF81000954AD8
:1042900012685178934A5268107804AB0122FEF7F5
:1042A000A0FC10B14FF0FF3076E7B9F1000F07D056
:1042B0008C48806A807A40F0E0008DF8100004E0BD
:1042C0008848806A807A8DF81000864A1268917951
:1042D000844A5268107804AB0122FEF782FC10B1C8
:1042E0004FF0FF3058E7B9F1000F07D07D48806AE2
:1042F000C07A40F0E0008DF8100003E07648C07A04
:104300008DF81000774A1268D179764A5268107891
:1043100004AB0122FEF765FC10B14FF0FF303BE724
:10432000B9F1000F02D0C82004F08AFE40208DF8B9
:1043300010006C4A126811796A4A5268107804AB0E
:104340000122FEF74EFC10B14FF0FF3024E7782039
:104350008DF81000634A12685179624A52681078E9
:1043600004AB0122FEF73DFC10B14FF0FF3013E724
:104370005949888904F064FE00208DF81000594ADC
:1043800012685179574A5268107804AB0122FEF73F
:1043900028FC10B14FF0FF30FEE6524A1268917AC5
:1043A000504A5268107804AB0222FEF759FB10B154
:1043B0004FF0FF30F0E69DF811009DF8101040EA34
:1043C000012B0C209BFBF0F0C6B20020A8606860B7
:1043D0002860A06060602060824665E0414A126803
:1043E000D17A404A5268107804AB0C22FEF738FBB1
:1043F00010B14FF0FF30CFE69DF811009DF810107E
:1044000040EA012000B2ADF808009DF813009DF8C5
:10441000121040EA012000B2ADF80A009DF8150024
:104420009DF8141040EA012000B2ADF80C00BDF96F
:104430000810206808442060BDF90A10606808442C
:104440006060BDF90C10A0680844A0609DF81700DA
:104450009DF8161040EA012000B2ADF800009DF86A
:1044600019009DF8181040EA012000B2ADF80200D2
:104470009DF81B009DF81A1040EA012000B2ADF82B
:104480000400BDF90010286808442860BDF9021036
:10449000686808446860BDF90410A8680844A8600A
:1044A0000AF1010000F0FF0AB24597DB0A48D0F894
:1044B00000C02868C117090441EA10410704624698
:1044C000002338460CF0E9FF32460023CDE9020113
:1044D0000CF0E3FF286007E0DC2D010800B04C453C
:1044E00054E3853F98000020F848D0F800C0686881
:1044F000C117090441EA1041070462460023384607
:104500000CF0CBFF32460023CDE902010CF0C5FFD1
:104510006860EE48D0F800C0A868C117090441EAF5
:10452000104107046246002338460CF0B6FF3246BD
:104530000023CDE902010CF0B0FFA860E348D0F8F9
:1045400004C02168C817000440EA11480F046246FD
:104550000023384641460CF0A0FF32460023CDE947
:1045600002010CF09AFF2060D848D0F804C06068BF
:10457000C117090441EA1041070462460023384686
:104580000CF08BFF32460023CDE902010CF085FFD1
:104590006060CE48D0F804C0A068C117090441EAA1
:1045A000104107046246002338460CF076FF32467D
:1045B0000023CDE902010CF070FFA060A068002884
:1045C00004DDA068A0F58030A06003E0A06800F5DD
:1045D0008030A0600020DFE538B50446BC4890F884
:1045E0002400A04201D1002038BD24B3B84890F87F
:1045F000250010B94FF0FF30F6E70020FEF72CFB46
:104600000020FEF751FCB249C88CFEF7BEFE002028
:104610000090AF49496808786B4601222321FEF7D4
:10462000E0FA0121AA4880F824100120FEF714FBCB
:10463000FEF7DEFC13E00020FEF70EFBA448007C32
:104640000090A349496808786B4601222321FEF7B0
:10465000C8FA00219E4880F82410FEF7C9FC00200B
:10466000C2E72DE9F04F8DB083460F4602200C9033
:10467000974890F8240020B10020FFF7ADFF0126F5
:1046800000E0002603A8FFF7C2F905A8FFF7DFF94D
:1046900001A8FFF700FA02A8FFF722FA8C4890F869
:1046A0000AA004A8FFF77EFA002407E0002239469A
:1046B0005846FFF758FD00B902E0641C022CF5DBF8
:1046C00000BF022C01D1002528E0002407E00122D0
:1046D00006A909A8FFF747FD00B902E0641C022CF7
:1046E000F5DB00BF022C01D1002517E006A93846F2
:1046F000FFF74FFC00F0FF0809A95846FFF7A4FC9C
:1047000000F0FF090025B9F1000F01D145F00105C6
:10471000B8F1000F01D145F0020500BFFF206C4940
:104720000872FF216A484172C1724FF6FF71C18160
:10473000FF218172017401210173BDF80C00FEF7A5
:10474000B2FE9DF81400FEF76CFEBDF80400FEF703
:1047500070FDBDF80800FEF718FE5046FEF73FFB5F
:104760009DF81000FEF730FD16B10120FFF734FF71
:1047700028460DB0BDE8F08FF8B504460D46164644
:1047800016B94FF0FF30F8BD5148807A10B94FF09C
:10479000FF30F8E720128DF80000E0B28DF801003C
:1047A0009DF8010028444A4949684989884202DD48
:1047B0004FF0FF30E7E7464A1268117E444A5268DC
:1047C00010786B460222FEF70CFA10B14FF0FF3062
:1047D000D9E7EAB23E4B1B68597D3D4B5B681878C0
:1047E0003346FEF7FEF910B14FF0FF30CBE7002063
:1047F000C9E7F8B504460D46164616B94FF0FF3026
:10480000F8BD3348807A10B94FF0FF30F8E7201236
:104810008DF80000E0B28DF801009DF801002844F9
:104820002B4949684989884202DD4FF0FF30E7E7AC
:10483000274A1268117E264A526810786B46022277
:10484000FEF7CFF910B14FF0FF30D9E7EAB2204BB5
:104850001B68597D1E4B5B6818783346FEF700F9DC
:1048600010B14FF0FF30CBE70020C9E72DE9F0434E
:1048700085B005460E4690469946154890F82500A5
:1048800020B14FF0FF3005B0BDE8F08316B94FF00E
:10489000FF30F8E7002428E0281B102801DD102055
:1048A00000E0281B87B2321939462046FFF764FF23
:1048B00010B14FF0FF30E6E701AA39462046FFF776
:1048C00098FF38B14FF0FF30DDE70000DC2D010824
:1048D0009800002030193A4601A90CF06CFE10B186
:1048E0006FF00100CFE7E01984B2AC42D4DB4FEAAD
:1048F00028208DF8000008F0FF008DF80100F94A2B
:104900001268917EF74A526810786B460222FEF7D1
:1049100068F910B14FF0FF30B5E70121F14880F898
:104920002510A0F826900020ADE70146ED4890F84C
:1049300024000870002070474FF0FF307047024697
:104940004FF0FF30704701464FF0FF307047F8B529
:1049500005460F461446002C70D0B5F5FF5F01DD0B
:10496000FF2605E0202D01DA012601E0C5F34716F8
:1049700007B90127282C02DD4FF0FF30F8BDD948D8
:10498000407D28BBD74890F8240038B10020FFF7BD
:1049900023FE0121D34880F8201003E00021D148F4
:1049A00080F82010CF481630FFF731F8CD48183086
:1049B000FFF74DF8CB481A30FFF76DF8C9481C30A7
:1049C000FFF78EF8C748817A81771F30FFF7EAF842
:1049D0000020FEF741F90020FEF76AFC00208DF868
:1049E0000000C04A12689178BE4A526810786B463F
:1049F0000122FEF7F6F810B14FF0FF30BEE740207D
:104A00008DF80000B74A1268D17BB64A5268107818
:104A10006B460122FEF7E5F800B165E08DF8006015
:104A20008DF80170AF4A1268117AAE4A5268107858
:104A30006B460222FEF7D5F808B155E047E00520A5
:104A400004F0FEFAA748407A072101EBC000C0B28B
:104A50008DF80000A34A1268D179A24A52681078F2
:104A60006B460122FEF7BDF800B13DE020208DF835
:104A70000000012C03D100208DF801000EE0052C70
:104A800003DC01208DF8010008E0142C03DC022077
:104A90008DF8010002E003208DF801009DF801006F
:104AA000072101EB8010C0B28DF801008D4A126819
:104AB000917C8C4A526810786B460222FEF791F87E
:104AC00000B111E0012187484175002056E7854A71
:104AD0001632002103E0505C00B105E0491C0C29AE
:104AE000F9D34FF0FF3049E7FF207E490872FF21DC
:104AF0007C484172C1724FF6FF71C181FF21817202
:104B00000174012101730146887FFEF768F9754938
:104B1000C88AFEF7C8FC7349087EFEF782FC71491B
:104B2000488BFEF786FB6F49888BFEF72EFC6D499C
:104B3000C87FFEF749FB6B4890F8200010B10120B8
:104B4000FFF74AFD002167484175002016E710B5C0
:104B500088B002A905A8FFF784FD0446032C41D1C3
:104B600001A8FEF7D3FF9DED050AB8EEC00ADDED02
:104B7000010A20EE200ABDEEC00A8DED050A9DED6A
:104B8000060AB8EEC00ADDED010A20EE200ABDEEED
:104B9000C00A8DED060A9DED070AB8EEC00ADDEDEC
:104BA000010A20EE200ABDEEC00A8DED070A05A815
:104BB00000F06BFA6846FEF7CEFFBDF800100298D1
:104BC00048430290BDF80010039848430390BDF895
:104BD000001004984843049002A800F0E9FA00206D
:104BE00008B010BD0120FBE7014691F90020002A22
:104BF00001DD00201EE091F90020002A01DA0420E6
:104C000018E091F90120002A01DD012012E091F95C
:104C10000120002A01DA05200CE091F90220002A87
:104C200001DD022006E091F90220002A01DA0620C7
:104C300000E00720704710B504462046FFF7D4FF78
:104C40000346E01CFFF7D0FF43EAC00083B2A01D7B
:104C5000FFF7CAFF43EA801083B2184610BD70B553
:104C6000002401F03FF8FEF760FC002845D17820D1
:104C7000FEF7B5F8C4B20CB1012070BD7820FEF784
:104C8000A3FAC4B20CB10220F7E7C820FEF77DFBFF
:104C9000C4B20CB10320F0E700F05CF9C4B20CB16F
:104CA0000420EAE71048FFF7C6FF054600F05CF96C
:104CB000C4B20CB10520E0E740F2731000F0A5FD8E
:104CC000C4B20CB10620D8E7C82000F007FBC4B27C
:104CD0000CB10720D1E7FFF73AFF044634B10820B2
:104CE000CBE7000098000020C40000200120FFF75F
:104CF00073FCC4B20CB10920BFE70020BDE72DE969
:104D0000F04F2DED0C8B8DB004460D4616461F4618
:104D1000DDE924ABDDE92289B7EE000AF0EE409A26
:104D20009FED880AB0EE408A9FED860AF0EE408A39
:104D30009FED840AB0EE409A06A807A90CAB02AA20
:104D4000CDE9001008A90AA800F0BEFE28B1012094
:104D50000DB0BDEC0C8BBDE8F08FBDF81C0000F46D
:104D6000807000287DD09DED020AB8EEC00ADFED0C
:104D7000760A80EE201AF0EE419A9DED030AB8EE15
:104D8000C00ADFED710A80EE201AB0EE418A9DED77
:104D9000040AB8EEC00ADFED6C0A80EE201AF0EECD
:104DA000418A9DED050AB8EEC00ADFED670A80EE84
:104DB000201AB0EE419AB8EE000A28EE000A20EE62
:104DC000090AF0EE000A69EEA00A00EEA80A10EE49
:104DD000101A08460CF0D1FD41EC1C0BB0EE4C0A49
:104DE000F0EE6C0A0DF028F8B0EE40BAF0EE60BAC2
:104DF0009FED560B53EC102B51EC1B0B0CF0A5FC4C
:104E000041EC1A0B0CF0CCFDCAF80000B8EE000A19
:104E100028EE000A20EE080AF0EE000A68EEA00A6A
:104E200000EEE80AF7EE000A30EE200A10EE101A43
:104E300008460CF0A2FD41EC1C0BB0EE000A28EE77
:104E4000800A20EE090AF0EE000A69EEA00A00EEE0
:104E5000880A10EE101A08460CF08FFD41EC1D0B6D
:104E600000E06AE0B0EE4C1AF0EE6C1AB0EE4D0ABB
:104E7000F0EE6D0A0DF0FCFAB0EE40BAF0EE60BA5A
:104E80009FED320B53EC102B51EC1B0B0CF05DFC27
:104E900041EC1A0B0CF084FDCBF8000029EEA90AB6
:104EA00008EE080A08EEE80A09EE490A10EE101AA0
:104EB00008460CF062FD41EC1C0B28EE280A09EEB6
:104EC000890AF0EE000A20EE200A10EE101A0846B9
:104ED0000CF053FD41EC1D0BB0EE4C1AF0EE6C1AC9
:104EE000B0EE4D0AF0EE6D0A0DF0C2FAB0EE40BA27
:104EF000F0EE60BA9FED150B53EC102B51EC1B0B31
:104F00000CF023FC41EC1A0B0CF04AFD26990860CA
:104F1000BDF828002080BDF82A002880BDF82C00AC
:104F20003080BDF820003880BDF82200A8F80000CD
:104F3000BDF82400A9F8000001E0022008E70020E5
:104F400006E70000000000000000804E666666660E
:104F500066A64C4010B5C8234FF48062F74940F66E
:104F6000F630FFF783FC10BD10B586B00446F4A000
:104F700000680390F3A000680290F3A0006801901D
:104F8000F2A00068009004F0030003A9085C8DF80B
:104F9000140003A8C4F3C101405C8DF8150003A8F8
:104FA000C4F38111405C8DF8160004F0030002A9DF
:104FB000085C8DF8100002A8C4F3C101405C8DF8B4
:104FC000110002A8C4F38111405C8DF8120005AAFB
:104FD000032140F22640FFF7CFFB18B14FF0FF301E
:104FE00006B010BD04AA032140F22A40FFF7C4FB1B
:104FF00010B14FF0FF30F3E701980590009804904E
:1050000004F0040058B19DF8140040F001008DF840
:1050100014009DF8100040F001008DF8100004F01D
:10502000200058B19DF8150040F001008DF81500E2
:105030009DF8110040F001008DF8110004F480701B
:1050400058B19DF8160040F001008DF816009DF84B
:10505000120040F001008DF8120005AA03214FF460
:105060008860FFF789FB10B14FF0FF30B8E704AA62
:10507000032140F23140FFF77FFB10B14FF0FF30CA
:10508000AEE7B34804810020AAE71FB50446B04844
:10509000007A00F0030054F820000190AC48007A38
:1050A00000F0040010B1019840420190A848007A35
:1050B000C0F3C10054F820000290A548007A00F027
:1050C000200010B1029840420290A148007AC0F33B
:1050D000811054F8200003909D48008900F48070EE
:1050E00010B10398404203909A49019880FB010156
:1050F000800F40EA810001909649029880FB0110E0
:10510000820042EA917002909249039880FB01105C
:10511000820042EA917003900198000E8DF8000021
:105120000198000C8DF801000198000A8DF802002A
:105130000198C0B28DF803006A4604214FF47470E0
:10514000FFF71AFB18B14FF0FF3004B010BD029802
:10515000000E8DF800000298000C8DF801000298F6
:10516000000A8DF802000298C0B28DF803006A466A
:1051700004214FF47570FFF7FFFA10B14FF0FF30C4
:10518000E3E70398000E8DF800000398000C8DF8FB
:1051900001000398000A8DF802000398C0B28DF850
:1051A00003006A4604214FF47670FFF7E5FACCE776
:1051B00070B588B0064601A8FEF7CDFCBDF8040026
:1051C0000021C90341EA5045C4036148007A00F058
:1051D000030056F8200005905D48007A00F00400B6
:1051E00010B10598404205905948007AC0F3C100BB
:1051F00056F8200006905648007A00F0200010B1C2
:105200000698404206905248007AC0F3811056F842
:10521000200007904E48008900F4807010B1079874
:10522000404207900598C117A0FB042301FB0431FD
:1052300000FB0510810041EA927005900698C117A5
:10524000A0FB042301FB043100FB0510810041EAAF
:10525000927006900798C117A0FB042301FB04314C
:1052600000FB0510810041EA927007900598000E3E
:105270008DF808000598000C8DF809000598000AC3
:105280008DF80A000598C0B28DF80B000698000E44
:105290008DF80C000698000C8DF80D000698000A99
:1052A0008DF80E000698C0B28DF80F000798000E1A
:1052B0008DF810000798000C8DF811000798000A6F
:1052C0008DF812000798C0B28DF8130002AA0C21C5
:1052D0004FF42570FFF750FA08B070BD30B585B0B7
:1052E00004461DA207CA02AB07C3C82C03DD4FF05A
:1052F000FF3005B030BDC82090FBF4F0401E85B2F1
:10530000280A8DF80000E8B28DF801006A460221F3
:1053100040F21620FFF730FA10B14FF0FF30E8E707
:1053200002AA0C2140F6C120FFF726FA10B14FF077
:10533000FF30DEE7064884810020DAE7042E01080A
:105340004CCD6C000CC92C00365676002646660003
:105350001008002009E3CA02FEF2ABC4AAF1DFDFA5
:10536000BBAFDFDF0146F948808908800020704725
:10537000F0B52DED028B83B006460F4606F0070010
:1053800010B1B7F5C86F05DD4FF0FF3003B0BDECCD
:10539000028BF0BD00EE107AB8EE400ADFEDEC0AA9
:1053A00080EE208A01A8FEF752FB9DF80400022837
:1053B00006D0042817D0082828D010284CD138E06F
:1053C0009FEDE40A28EE000ABCEEC00A10EE100AB7
:1053D00084B29FEDE10A28EE000ABCEEC00A10EE8E
:1053E000100A85B23BE09FEDDD0A28EE000ABCEE14
:1053F000C00A10EE100A84B29FEDD90A28EE000A06
:10540000BCEEC00A10EE100A85B228E09FEDD50A66
:1054100028EE000ABCEEC00A10EE100A84B29FED1E
:10542000D20A28EE000ABCEEC00A10EE100A85B2BD
:1054300015E09FEDCE0A28EE000ABCEEC00A10EE81
:10544000100A84B29FEDCA0A28EE000ABCEEC00A18
:1054500010EE100A85B202E04FF0FF3096E700BF71
:1054600020128DF80800E0B28DF8090028128DF89E
:105470000A00E8B28DF80B0006F00100A0B102AA04
:1054800002214FF4EA70FFF777F910B14FF0FF30C7
:105490007CE70DF10A0202214FF49270FFF76CF9DC
:1054A00010B14FF0FF3071E706F00200A0B102AA80
:1054B00002214FF4EC70FFF75FF910B14FF0FF30AD
:1054C00064E70DF10A0202214FF49470FFF754F9DA
:1054D00010B14FF0FF3059E706F00400A0B102AA66
:1054E00002214FF4EE70FFF747F910B14FF0FF3093
:1054F0004CE70DF10A0202214FF49670FFF73CF9D8
:1055000010B14FF0FF3041E700203FE738B50446C7
:105510000020009004F0010020B19DF8000040F050
:105520003000009004F0020020B19DF8000040F02F
:105530000C00009004F0040020B19DF8000040F041
:10554000030000906A4601214FF4A470FFF714F99C
:1055500038BD38B50446012C01DA012402E0042CE0
:1055600000DD0424601EC0B200906A46012140F2B2
:105570004F10FFF701F938BD38B50446052094FBFC
:10558000F0F085B228128DF80000E8B28DF8010025
:105590006A4602214FF4EF70FFF7EEF838BD38B5D8
:1055A0000446052094FBF0F085B228128DF8000027
:1055B000E8B28DF801006A4602214FF4ED70FFF762
:1055C000DBF838BDF8B505460E464FF47A7095FB0A
:1055D000F0F000FB06F4200E8DF80000200C8DF892
:1055E0000100200A8DF80200E0B28DF803006A463F
:1055F00004214FF4AE70FFF7BFF8F8BD38B504468C
:10560000052094FBF0F084B220128DF80000E0B287
:105610008DF801006A4602214FF4AD70FFF7ACF837
:1056200038BD38B50446052094FBF0F084B2201252
:105630008DF80000E0B28DF801006A4602214FF4B7
:10564000AC70FFF799F838BD38B5044614B94FF07F
:10565000FF3038BD6A4604214FF45870FFF7C9F88F
:1056600010B14FF0FF30F4E79DF8000000069DF800
:10567000011040EA01409DF8021040EA01209DF827
:105680000310084320600020E3E738B50446200EED
:105690008DF80000200C8DF80100200A8DF8020022
:1056A000E0B28DF803006A4604214FF45870FFF70A
:1056B00063F838BD38B5044614B94FF0FF3038BD33
:1056C0006A4604214FF47170FFF793F810B14FF060
:1056D000FF30F4E79DF8000000069DF8011040EA55
:1056E00001409DF8021040EA01209DF80310084394
:1056F00000EB8000800020600020E0E738B5044621
:105700001420B4FBF0F4200E8DF80000200C8DF86E
:105710000100200A8DF80200E0B28DF803006A460D
:1057200004214FF47170FFF727F838BD38B50446EF
:1057300004B320208DF8000028208DF801003020CF
:105740008DF8020038208DF8030018E010080020C2
:10575000000048430000804600004046000000462C
:105760000000C045000080450000404500000045A5
:105770000000C044A322042168460BF0E3FE6A4601
:10578000042140F69E20FEF7F7FFFDF731FC38BDFF
:1057900038B5044664B1C0208DF80000C2208DF8F1
:1057A0000100C4208DF80200C6208DF8030004E03B
:1057B0008B22042168460BF0C5FE6A46042140F6A0
:1057C0009820FEF7D9FFFDF713FC38BD3EB504461F
:1057D0006CB1FDA1D1E900208968CDE900200291DA
:1057E0006A4609214FF49760FEF7C6FF3EBDF9A255
:1057F000D2E900109268CDE9010200916A460921C0
:105800004FF49760FEF7B8FFF0E73EB5044602207C
:105810008DF80000CA208DF80100E3208DF8020009
:1058200009208DF803006A4604216820FEF7A4FFD2
:10583000A3208DF8000004F0400048B1C0208DF88E
:105840000100C8208DF80200C2208DF8030006E098
:10585000A3208DF801008DF802008DF8030004F4F8
:10586000C07048B1C4208DF80400CC208DF805002C
:10587000C6208DF8060006E0A3208DF804008DF800
:1058800005008DF80600A3208DF807008DF80800AC
:105890008DF809006A460A2140F6A720FEF76CFF42
:1058A00004F0030018B120208DF8000002E0D82099
:1058B0008DF800006A46012140F6B620FEF75CFF35
:1058C00004F0200018B10120FFF780FF02E0002063
:1058D000FFF77CFF04F4C07008B304F4807060B17B
:1058E000B2208DF800008B208DF80100B6208DF8D5
:1058F00002009B208DF803000BE0B0208DF8000023
:1059000080208DF80100B4208DF8020090208DF8E1
:1059100003006A46042140F6A220FEF72DFF04F0A2
:10592000010020B3F8208DF800006A4601214FF4F1
:105930000B60FEF721FFFA210720FFF719FD072072
:10594000FFF7E4FD0120FFF704FE6420FFF714FEDB
:105950004FF4FA70FFF723FEC821A148FFF732FE8B
:105960002820FFF74BFE0A20FFF75BFE08E0D82057
:105970008DF800006A4601214FF40B60FEF7FCFE33
:1059800004F0020018B1D9208DF8000002E0D82000
:105990008DF800006A46012140F23D70FEF7ECFEF2
:1059A00004F0040018B10120FFF7F2FE02E000202D
:1059B000FFF7EEFE04F0100018B10120FFF7B6FE6D
:1059C00002E00020FFF7B2FE44F00800854948815C
:1059D000FDF70EFB00208349887304F0400018B1E6
:1059E0000846807B801D887304F4C07020B17D4818
:1059F000807B801D7B49887304F0140020B17948B6
:105A0000807B10307749887304F0030020B175481B
:105A1000807B001D7349887300203EBD014671489C
:105A200040890880002070472DE9F0410446E07865
:105A300000F0C006E07800F03F05607800F001005B
:105A400098B1EF102846E91705EB5171C910A5EB85
:105A5000C101491C01F0FF086248006820B161489B
:105A6000414602683846904700BF607800F0080061
:105A700030B15C48406818B1B0115A4A5168884743
:105A80000020BDE8F08110B586B0044656A207CAD2
:105A900003AB07C357A207CA8DE80700012C09D042
:105AA000022C0ED103AA0B2140F68220FEF764FEE1
:105AB00006B010BD6A460B2140F68220FEF75CFE60
:105AC000F6E74FF0FF30F3E72DE9F04F8DB00746D2
:105AD000884615469946DDE9166B00240020308083
