:020000040800F2
:1000000008A6012059020008CD750008C162000849
:10001000C97500082B0B00081196000800000000AD
:100020000000000000000000000000009D0100082A
:10003000930D000800000000F1010008618F000826
:1000400073020008730200087302000873020008BC
:1000500073020008730200087302000873020008AC
:10006000730200087302000873020008730200089C
:10007000730200087302000873020008730200088C
:10008000730200087302000873020008730200087C
:10009000730200087302000873020008730200086C
:1000A000730200087302000873020008730200085C
:1000B000F19100087302000873020008730200083F
:1000C000730200087302000873020008730200083C
:1000D000730200087302000873020008730200082C
:1000E000730200087302000873020008730200081C
:1000F000730200087302000873020008730200080C
:1001000073020008730200087302000873020008FB
:1001100073020008730200087302000873020008EB
:1001200073020008730200087302000873020008DB
:1001300073020008730200087302000873020008CB
:1001400073020008730200087302000873020008BB
:1001500073020008730200087302000873020008AB
:10016000730200087302000873020008730200089B
:10017000730200087302000873020008730200088B
:100180007302000873020008DFF80CD000F0EAF8F0
:1001900000480047994A010808A601202B4B19681E
:1001A0000868B0E8F04F80F30988BFF36F8F4FF015
:1001B000000080F3118870470000000006480068C6
:1001C000006880F3088862B661B6BFF34F8FBFF353
:1001D0006F8F00DF00BF00BF08ED00E0DFF80C000C
:1001E000016841F470010160704700BF88ED00E0D4
:1001F000EFF30980BFF36F8F144B1A681EF0100FD6
:1002000008BF20ED108A20E9F04F106008B44FF0CD
:10021000500080F31188BFF34F8FBFF36F8F16F03C
:10022000A9F84FF0000080F3118808BC196808682D
:10023000B0E8F04F1EF0100F08BFB0EC108A80F34A
:100240000988BFF36F8F704700BF00007000002067
:10025000EFF30580704700000648804706480047D6
:10026000FEE7FEE7FEE7FEE7FEE7FEE7FEE7FEE766
:10027000FEE7FEE7958F00088901000810B5431AD4
:10028000934209D28318881803E010F8011D03F87F
:10029000011D521EF9D210BD40EA01039B0703D095
:1002A00009E008C9121F08C0042AFAD203E011F8B5
:1002B000013B00F8013B521EF9D210BDD2B201E061
:1002C00000F8012B491EFBD270470022F6E710B55B
:1002D00013460A4604461946FFF7F0FF204610BDB4
:1002E000421C10F8011B0029FBD1801A70470346FD
:1002F00011F8012B00F8012B002AF9D1184670479C
:100300002DE9F05F0546002092469B46884606464A
:10031000814640241BE0284641464746224600F0DD
:1003200042F853465A46C01A914110D31146184616
:10033000224600F029F82D1A67EB01084F462246A5
:100340000120002100F020F817EB00094E41201E8B
:10035000A4F10104DFDC484631462A464346BDE8A5
:10036000F09F0000064C074D06E0E06840F00103F6
:1003700094E8070098471034AC42F6D3FFF708FF23
:10038000180E0208380E0208202A04DB203A00FA70
:1003900002F1002070479140C2F1200320FA03F3DC
:1003A000194390407047202A04DB203A21FA02F0DA
:1003B0000021704721FA02F3D040C2F1200291409F
:1003C00008431946704770B58C1810F8015B15F09A
:1003D000070301D110F8013B2A1106D110F8012BB7
:1003E00003E010F8016B01F8016B5B1EF9D12B07DC
:1003F00005D40023521E0DD401F8013BFAE710F892
:10040000013BCB1A921C03E013F8015B01F8015B7E
:10041000521EF9D5A142D8D3002070BD1CB50020D2
:1004200000900346034A0A210190034802F084FF2A
:100430001CBD000031370108E47301081CB5002021
:1004400000900346034A0A210190034802F074FF1A
:100450001CBD000049390108FC7401081CB50020CE
:1004600000900346034A0A210190034802F064FF0A
:100470001CBD0000613B010814760108002800DC67
:10048000404270471FB500200423CDE900300290A0
:1004900003464FF4FA721DA103901E4816F050FB5C
:1004A00000200323CDE90030029003464FF4FA7296
:1004B00019A103901A4816F043FB00200223CDE94E
:1004C0000030029003464FF4FA7216A103901648CA
:1004D00016F036FB00200123CDE9003002900346E0
:1004E0004FF4FA7211A10390124816F029FB002074
:1004F0000523CDE90030029003464FF4FA720EA1B5
:1005000003900F4816F01CFB1FBD00004E756D6276
:1005100065720000BD570108546F756368000000E4
:10052000155B010847554900315B01085072696E3F
:1005300074000000B95B010832344C303100000017
:10054000F95B010810B504462146512007F0FAFE78
:1005500010BD2DE9F04105460C4616461F46DDF854
:100560001880E9B2582007F0EDFE2912592007F053
:10057000E9FEE1B25A2007F0E5FEB8F1000F04D120
:1005800021125B2007F0DEFE05E0802040EA2421F6
:100590005B2007F0D7FEF9B25C2007F0D3FE3912DA
:1005A0005D2007F0CFFEF1B25E2007F0CBFE3112E6
:1005B0005F2007F0C7FEBDE8F081000010B5012004
:1005C00004490870502007F07BFE802007F09AFE57
:1005D00010BD00005001002010B500BF07F05CFD09
:1005E00000F040004028F9D000200149087010BDFB
:1005F0005001002038B5456804460146284609F0F8
:1006000031F800282BD02068304A11280DD006DCA4
:100610000B2825D00E2833D00F2852D112E02828DD
:1006200049D0B0F5107F4CD108E09268002A16D06E
:100630002146284601B0BDE83040104721462846F3
:100640005268F7E7284602F011FD0090406E0468FA
:10065000684602F049FD002C01D02846A04738BD6D
:10066000284602F003FD0090683002F055FC009827
:1006700003216C3002F05EFC684602F035FD20E09C
:10068000E168486809680D2902D0202913D105E0E6
:10069000002810DD28460FF0CAFF06E0002804DD20
:1006A0002846BDE838400FF0C2BF2846BDE83840B4
:1006B00002210FF0D2BFE06818B90021284600F0EF
:1006C000C9F92046BDE8384009F016BC14020020E4
:1006D0002DE9FF410AAF97E87000002703958DE8E8
:1006E000D00000F003F804B0BDE8F081F0B585B0AB
:1006F0000DF1280C9CE8F0004FF0000C8DE8F01094
:1007000000F024F805B0F0BDF0B5044685B080696E
:10071000B4F90850668A0027CDE90265CDE90017D3
:100720000490B4F90C00B4F91060C118B4F90A00CF
:10073000B4F90E50104433462A4600F007F8054637
:10074000616800F0A6F905B02846F0BD2DE9F04F2C
:1007500085B01F46DDE911B4DDE90E5690468946A5
:10076000824603F0D5FC16484C34CDE90204CDE9AD
:1007700000563B4642464946504609F005FB0400F8
:1007800018D002F073FC10225946049009F0B6F913
:10079000049830220B493430FFF770FD094D04995D
:1007A0000C3D2868486604A802F09EFC2868416851
:1007B0002046884704F090FC05B02046BDE8F08F45
:1007C000F505000820020020F0B5044680688B493A
:1007D00089B051F82050606800287DD0052804D0E9
:1007E00006287AD0122879D1AEE0E86900284FD0E7
:1007F00095E80E008DE80F0004F110010FC905F017
:100800000BF9002655F8260004F0E9F9A169E8691A
:100810000A1A216901446069304403F07BF9A16937
:10082000E8690A1A21690144E069801B03F072F942
:10083000E169E8690A1A616901442069304403F0FA
:100840001FFAE169E8690A1A61690144A069801B1D
:1008500003F016FA761C022ED4DBA86804F0BFF968
:10086000E069E9696669431A206942183144801CCD
:10087000521E03F089FAE169E869A2690B1A6169FD
:100880000144101A401C921E03F07EFAEE6913E038
:100890005FF0000655F8260004F0A1F9E069831B1B
:1008A000A069821B606981192069304403F0A8F9AE
:1008B000761C022EEEDB0226D5E90301CDE900010C
:1008C0006169E06908444310A069891C821B2069A2
:1008D000304403F0E3F802E089E012E08AE0D5E971
:1008E0000501CDE90001E36960690121184401EBCC
:1008F0006001A0699B1E821B2069304403F0CEF882
:1009000078E0206802F0B2FB049020680AF02EFE26
:1009100040B1A06808B1002008E00498006F28B139
:10092000012003E00498406F00B10220049901EB1C
:100930008000C56E04A802F0D7FB00231A462846A3
:10094000216802F02FFE55E0206802F08FFB049032
:10095000866EEEB3B0F95C70A168D1B3032942D0C2
:100960005FF0000100EB8101406D0C6C04F04EF96A
:10097000204604F034F905A803F0C8FABDF81410B5
:10098000A88B0144ADF81410BDF81810081AADF882
:100990001800BDF81600801CADF81600BDF81A004E
:1009A000801EADF81A000498B0F96020B0F95E100E
:1009B00005A804F00FF804A802F096FB022004F04A
:1009C00091F9304602F052FB3A4605A9079001E042
:1009D0000BE006E002F0EAFE0DF11C0002F084FBE1
:1009E00008E00121BEE70221BCE704A8F6E7206881
:1009F0000AF06EFA09B00020F0BD000084E20108A0
:100A0000044A0349116004494A6A48621046704723
:100A100050020020140200202002002000294FF084
:100A2000100101D008F0ADBE08F0F4BD38B50D4698
:100A300004000ED003F06CFB204602F017FB009080
:100A40004565684602F050FB204609F037FF04F088
:100A500043FB38BD4FF480720029114601D008F0E5
:100A600090BE08F0D7BD08B50023009300F001F850
:100A700008BD70B516460C46054619463046049A20
:100A800002F072FD024621462846BDE8704000F0A3
:100A90002DB82DE9FF410E4605004FF0010421D08D
:100AA00003F036FB284602F0E1FA0190876E01A8B8
:100AB000009702F019FB3146684605F0B3FA78B1A9
:100AC00000980024B84208D0284602F0CFFA0190DE
:100AD0000099816601A802F007FB284609F0EEFEA6
:100AE00004F0FAFA04B02046BDE8F081F8B51546E6
:100AF0000C46060018D003F00BFB304602F0B6FAA5
:100B00000090032C0BD200EB84006C3002F004FA4E
:100B1000009800EB8400C566304609F0CFFE6846B9
:100B200002F0E2FA04F0D8FAF8BD00BFFEE70000D8
:100B30002DE9FF470446006810B10AF017FD68B1BF
:100B40000022314850F8221060680A2841D007DCA2
:100B5000F0B306280DD0072854D106E00122F0E7B3
:100B600012280AD019284DD137E020460BF044FE58
:100B700048E020460DF01EF844E0206802F076FAC6
:100B80000290B0F9548090F85650476C466B02A81A
:100B900002F0AAFA206800F039F88146684609F0A8
:100BA000C9FABDF8001009EB05000844ADF80000D3
:100BB000246A304604F02AF8022004F093F83846FC
:100BC00004F00DF842466946204602F0EFFD19E0B8
:100BD00007E020460DF03EFA14E0886904B0BDE855
:100BE000F08720680AF074F9206802F03FFA039059
:100BF000B0F90610B0F90220891A491CC16703A890
:100C000002F072FA0020E9E794E2010838B50446E0
:100C100003F07EFA204602F029FA0090C46F68467D
:100C200002F062FA04F058FA204638BD044A03493B
:100C300011600449CA69C86110467047DC0200208F
:100C4000D8060020DC06002000B589B024216846C3
:100C5000FFF73BFB1920019003480068806841685A
:100C60006846884709B000BDD80600207CB509F069
:100C70008FFA0546002000902B46044A152101906A
:100C8000034802F059FB044620467CBD8D3D010817
:100C9000987101080148006870470000280300208F
:100CA000F8B50546006802F0E1F90090448ED0F8EE
:100CB0008860684602F018FA06B1012604F00104C3
:100CC00028680AF053FC0EB1002006E00CB10120A8
:100CD00003E008B1022000E003201B4951F8201076
:100CE000686858B302280CD0052802D0122828D1F1
:100CF00003E028460BF0ACFD23E028460DF061FE32
:100D00001FE06A69E8694FF0FF33801AA0F108021A
:100D100003EB6204421CAB69001B4510A3EB6206A7
:100D2000C86903F05CFF06E03219311B284602F067
:100D3000F1FE641E6D1C002CF6DA02E028680AF051
:100D4000C7F80020F8BD00009CE20108044A0349EE
:100D5000116004490A6B0863104670472C03002099
:100D6000180700201C07002038B50D46002402F0AB
:100D70007DF90090C06B294602F0E6F90546684609
:100D800002F0B2F91DB1284602F070F9044620467F
:100D900038BD704770B50446002500F0FDF8FF220D
:100DA0000021104600F0FAF903E0681C85B213F048
:100DB00031FD1D2000F0C5F800F0010010B9B5F5B7
:100DC000FA7FF2DBB5F5FA7F01DB012070BD002070
:100DD0004B4908600021082000F0D4F900210920C7
:100DE00000F0D0F900210C2000F0CCF900210D20FA
:100DF00000F0C8F910210A2000F0C4F91A210B20D4
:100E000000F0C0F91121042000F0BCF91A210520DE
:100E100000F0B8F9FF21062000F0B4F91F210720E7
:100E200000F0B0F9B021382000F0ACF93F212820C3
:100E300000F0A8F93021292000F0A4F9F921302090
:100E400000F0A0F9F721312000F09CF90D21C0201D
:100E500000F098F90021C12000F094F93322C2215A
:100E6000802000F09BF91221C62000F08BF90C21A4
:100E7000C72000F087F91521C42000F083F9EE2186
:100E8000CA2000F07FF90521CB2000F07BF9217802
:100E9000E42000F077F96178E52000F073F9A1789B
:100EA000E22000F06FF9E178E32000F06BF921799E
:100EB000E02000F067F96179E12000F063F94FF478
:100EC0008071002000F01EF84FF48071102000F0B7
:100ED00019F81F2000F03CF9C0221B21802000F0EF
:100EE0005DF904221F21802000F058F9E42000F071
:100EF00028F82178884201D1002067E7012065E7C2
:100F00003800002070B505460C4600262946D4203E
:100F100000F038F9E1B2D62000F034F9C4F307212B
:100F2000D72000F02FF901E0701C86B2EA2000F013
:100F300008F800F0010018B140F6FF708642F3DBBC
:100F400070BD10B50446204600F002F9214600208D
:100F500000F002F810BD000070B505460C460026F2
:100F600000200C49086004F01F0040EA05063046E6
:100F700007F010FFFF2007F00DFF064604F0800089
:100F800018B1FF2007F006FF06460120014908605E
:100F9000304670BD9402424200B500200F490860FF
:100FA00013F038FC13F036FC13F034FC13F032FC71
:100FB00013F030FC13F02EFC01200949C1F898020F
:100FC00013F028FC13F026FC13F024FC13F022FC91
:100FD00013F020FC13F01EFC00BD000098024242FA
:100FE0000000424200B587B00121142007F03AFA10
:100FF0000121C80307F056FA6020059001208DF802
:10100000180000208DF81A0001208DF81B00032025
:101010008DF8190005A94B4801F05AFC6021494898
:1010200001F0C3FC02208DF8180000208DF81A0092
:101030004FF4E050059001208DF81B0002208DF840
:10104000190005A9404801F043FC06220A213E4848
:1010500001F086FC06220B213B4801F081FC0622B0
:101060000C21394801F07CFC0021384807F0AEFE25
:101070000020ADF800004FF48270ADF802000020AF
:10108000ADF80400ADF80600ADF808004FF40070AC
:10109000ADF80A001820ADF80C000020ADF80E00E5
:1010A0000720ADF810006946284807F0A9FE012185
:1010B000264807F08BFE13F0ADFB13F0ABFB13F0EB
:1010C000A9FBFF2007F066FEFF2007F063FEFF206C
:1010D00007F060FE00211D4807F078FE0020ADF803
:1010E00000004FF48270ADF802000020ADF804005B
:1010F000ADF80600ADF808004FF40070ADF80A0036
:101100001820ADF80C000020ADF80E000720ADF857
:10111000100069460D4807F073FE01210B4807F0E7
:1011200055FE13F077FB13F075FB13F073FBFF20F4
:1011300007F030FEFF2007F02DFEFF2007F02AFE0B
:1011400007B000BD0010024000080240003C004013
:1011500010B5044604F060000949097888420ED0B1
:1011600003221F21A02000F019F8C4F341121F210F
:10117000802000F013F804F060000149087010BDF1
:101180003400002070B504460D462046FFF7E0FF0E
:101190002A462146402000F001F870BD2DE9F041BB
:1011A00004460D461646002700200949086005F050
:1011B0001F0040EA0407384607F0ECFD304607F010
:1011C000E9FD01200349C1F89402BDE8F081000067
:1011D00094024242000042422DE9F04389B0984611
:1011E00015460F4606004FF000042CD000F0EAFB35
:1011F0000446304600F0CDFB814602F089FF03A98A
:10120000304600F082FDF80706D0BDF91C008221AF
:10121000001B401B401C08E0B807BDF9180028441B
:1012200002D540F2022100E002210096CDE90181C1
:1012300023461A464946FFF74BFA04460021FFF7BA
:10124000EDFB03F049FF09B02046BDE8F083000044
:1012500010B50523FFF7C0FF0446054A0021FFF73C
:1012600002FC0449204609F0F2FC204610BD0000B3
:101270008DC60008793D010810B50723FFF7ACFFC4
:101280000446054A0021FFF7EEFB0449204609F019
:10129000DEFC204610BD000025C700080141010802
:1012A00010B50823FFF798FF0446054A0021FFF711
:1012B000DAFB0449204609F0CAFC204610BD0000B4
:1012C00055C70008374101082DE9F0474568044635
:1012D0008EB00027284601F0C9FE0090B0F87CA02F
:1012E000D0F86890D0F88080D0F88860C06D00B1E8
:1012F0000768684601F0F8FE05E0716820468847F7
:10130000002841D13668002EF7D12068172852D026
:101310000CDC0F283BD004DC0B2874D00D283AD10C
:1013200089E0112810D0142835D13AE0262845D07C
:1013300004DC1E284FD020282DD188E02A2814D084
:10134000B0F5107F27D127E02846E66801F08EFE31
:101350000190717A39B9317A012904D130F87C1FB2
:1013600041F48071018001A88EE0284601F07EFEE4
:101370000090E16811B1C0F8841002E0D0F8840058
:10138000E060684601F0B0FE0EB0BDE8F087002FC7
:101390007CD02846B84779E0214628460FF0ECF982
:1013A000F2E705A9284600F0B0FCE0680699016064
:1013B00007994160E8E7C4F80C90E5E7E068022887
:1013C000E2D10C95E0680D9027200A900AA9A06848
:1013D0000AF0F4FAD8E7E068012804D00021284692
:1013E00000F092FBD0E7404609F0C3FA60B14046F6
:1013F00009F0E8FC404609F08DF990B10121404622
:1014000008F0BFF90DE04BE0484609F02FFD80469B
:10141000284601F02BFE0090C0F88080684601F05D
:1014200063FE0121284600F06FFBB8F1000FABD13D
:101430000020E060A8E75FEA0A7027D4E068C0688F
:1014400020B3007A10B3284609F0BCFC1EE0E66821
:10145000E6B1294670680AF072F820B101212846E9
:1014600010F0D0FF12E00021284610F0CBFF2946F3
:1014700030680AF053F848B1284601F0F7FD0390B0
:101480003168C0F8801003A801F02EFE21462846DE
:1014900008F0E8F800288DD0204608F02DFD73E70D
:1014A000284601F0E3FD0090703001F035FD6846FC
:1014B000EAE7F0B587B0B0F908400DF10C0C0C9ECE
:1014C000876945688CE8F000448A0025CDE900155D
:1014D0000294B0F90C10B0F91050B0F90E40B0F908
:1014E0000A00194410442B46224600F003F807B0C6
:1014F000F0BD00002DE9F04F8BB09846DDE91556A0
:1015000091468A468346149F1A9C02F001FE334896
:10151000603445F48055CDE90204CDE900754346B9
:101520004A465146584608F02FFC04004FD001F0BF
:101530009DFD30220490179908F0E0FA04982822C3
:1015400027493430FEF79AFE04981999244F4166D2
:10155000A0F87C600026C0F88060C666083FC0F82E
:1015600088607968C16504A801F0BEFD05A9204620
:1015700000F0CBFB1B4841F2827103960094CDE949
:101580000110BDF91E00BDF91A10BDF91C20431A47
:10159000BDF918005B1C121A521C08F0F5FB064638
:1015A0007868416820468847204601F05FFD049036
:1015B000866604A801F098FD42F20400054202D1BB
:1015C000204608F039FD2046189900F024FB03F06E
:1015D00083FD0BB02046BDE8F08F0000C912000863
:1015E000F0030020112000082DE9F041044694B0DA
:1015F000006800F0B7F908B1D94D01E0D84D2C359D
:10160000606815281ED00CDC0B281FD004DC0028D5
:101610007ED005287DD12FE10E287BD01228F9D16C
:1016200041E1162806D0172808D0182808D01C2811
:10163000F0D109E0E86914B0BDE8F081286AFAE762
:10164000686AF8E7A86AF6E76869F4E720680B902B
:101650001C200C90206801F009FD0390016D0BA87F
:101660008847064603A801F03FFD022E0FDB95E8F0
:1016700007008DE80700D4E904023346A16904F0AD
:1016800091F920698719A069A0EB06082CE0286869
:1016900003F0A5FA2169E8690A18521E606902F090
:1016A00039FAA269E869111A491C606902F032FA34
:1016B000D4E904077F1C394602F07CFA3946A06958
:1016C00002F078FA686803F08AFA20693946401C0B
:1016D00002F070FAA0693946401E02F06BFAA06968
:1016E0002769A0F10208BF1C286803F078FA424677
:1016F0003946606902F00EFA686803F070FA6069B2
:1017000042463946401C02F005FA686A022802E0A7
:1017100015E1B0E000E10BDDA86803F060FA616953
:101720006A6A881C8B180146424638465B1E27E0D1
:10173000296AB14226DD6069022E074600F10208DF
:1017400001DB374401E007F10207206901DB304487
:1017500001E000F1020022693B460A444146A2F141
:10176000010202F011FB022E02DBA069821B01E0E4
:10177000A269921EA069E9693B46401A4146401C95
:1017800002F002FB022E02DB6069064401E066699A
:10179000B61CE76928687F1E03F021FA3A463146F5
:1017A000206902F06DFA3A463146A06902F068FA03
:1017B000E7696868BF1E03F012FA20693A463146AD
:1017C000401C02F05DFAA0693A463146401E02F024
:1017D00057FAE869022802DC286A022823DDA86A91
:1017E000022802DDE1690F1A01E0E769BF1EA8685F
:1017F00003F0F5F9E969022909DD20693B46421841
:1018000000F1020C31466046521E02F0BDFA286A11
:10181000022808DDA269E8693B46101A3146401CDF
:10182000921E02F0B1FA286803F0D9F9D4E9062033
:10183000216902F06FF9686803F0D1F9D4E9062054
:101840002169401E491C521E02F064F9A86A022850
:1018500011DDA1692669E469A1F10208271AA41E15
:10186000B61C7F1CA86803F0BAF9234642463946E5
:10187000304602F089FA71E0208A00B2ADF8140017
:10188000A18A09B2ADF81610228B12B2ADF8182059
:10189000A38B1BB2ADF81A302C69ED68CDE900546A
:1018A00002F0FCF85AE0208A298B0844ADF81400B5
:1018B000A08AADF81600208B298B401AADF81800CD
:1018C000A08BADF81A00206801F0D0FB0390006FE8
:1018D000F0B1022003F006FA039890F87C10C1F3EF
:1018E000C00100EB8100006C03F079F90398406BB4
:1018F00003F08CF90398006F01F0B8FB039909908D
:10190000B1F95A2005A901F051FF09A801F0ECFB3B
:1019100003A801F0E9FB21E0208AADF81400A08AB9
:10192000ADF81600208BADF81800A08BADF81A00AA
:10193000A86803F054F905A802F052FA0EE02068F6
:1019400001F094FB039030F85A1F41F00C01018024
:1019500003A801F0C9FB206809F0BAFA00206AE682
:101960002C04002038B505004FF000040FD002F021
:10197000CFFB284601F07AFB009090F87C0000072E
:1019800000D50124684601F0AFFB03F0A5FB20461B
:1019900038BD38B505004FF0000411D002F0B8FB97
:1019A000284601F063FB0090C06D0021806802684A
:1019B000284690470446684601F096FB03F08CFBEE
:1019C000204638BD30B587B005004FF0000413D075
:1019D00002F09EFB01A9284600F097F9284601F085
:1019E00045FB0090B0F95440684601F07DFB0CB90E
:1019F000BDF9044003F070FB07B0204630BD10B5C0
:101A0000040008D002F084FB20460EF03AFDBDE849
:101A1000104003F061BB10BD10B5040008D002F007
:101A200077FB20460EF07CFDBDE8104003F054BB70
:101A300010BD30B504468BB0006801F017FB009074
:101A400090F87C10246A006FC1F3C00508B101F062
:101A50000DFB0690E068029020690390A088401E6C
:101A6000ADF81000E089ADF812002089401CADF8F7
:101A70001400608AADF81600BDF80800401CADF8EF
:101A80000800BDF80A00401CADF80A00BDF80C00C3
:101A9000401EADF80C000098406B03F0B7F80098BA
:101AA00008AA02A9B0F95A30069803F0DBFB0098A7
:101AB00000EB8500806B05F01DFB009800EB8500B6
:101AC000006C05F04FFB08AB02AA04A9069807F0CA
:101AD00021FF684601F008FB069810B106A801F046
:101AE00003FB0BB0002030BD10B504000BD002F09A
:101AF0000FFB204610F00EFC204610F0DFFBBDE887
:101B0000104003F0E9BA10BD70B50D46040009D0CD
:101B100002F0FEFA2946204610F074FCBDE8704041
:101B200003F0DABA70BDF8B515460C46060012D0BF
:101B300002F0EEFA304601F099FA0090022C05D23C
:101B400000EB84008563304608F0B8FE684601F07B
:101B5000CBFA03F0C1FAF8BD074A0649054B1160FC
:101B6000064A083BD16958601B68C2E9063008463E
:101B70007047000020040020EC030020F003002048
:101B80002DE9FC410D46804602F0C2FA5FEA0800EA
:101B900028D001F06BFA0190C16D8C6800F01CF93F
:101BA00007460198456301A801F09EFA22680121C9
:101BB0004046904706462268032140469047054626
:101BC00022680021404690470446404600F0E9F96B
:101BD0002B46324639464046009400F072F94046A2
:101BE00008F06CFE03F078FABDE8FC8138B50C46CD
:101BF000054602F08DFA55B1284601F037FA0090FB
:101C00000466684601F070FA284608F057FEBDE801
:101C1000384003F061BA7CB50D4604001DD002F0D7
:101C200077FA204601F022FA0090006F0190684692
:101C300001F05AFA294601A804F0F4F958B12046F7
:101C400001F014FA009001990167684601F04CFA1E
:101C5000204608F033FE03F03FFA7CBD38B50C4651
:101C6000050013D002F054FA284601F0FFF9009065
:101C7000B0F95A10A14204D0A0F85A40284608F002
:101C80001DFE684601F030FA03F026FA38BD2DE952
:101C9000FC470D465FEA00094FF0000432D002F025
:101CA00037FA484601F0E2F90190B0F95440A542F4
:101CB00023D000F091F8804601980121A0F85450FB
:101CC000C06D856848462A68904707462A68032100
:101CD0004846904706462A680021484690470546F0
:101CE000484600F05EF933463A464146484600957C
:101CF00000F0E7F8484608F0E1FD01A801F0F4F92A
:101D000003F0EAF92046BDE8FC872DE9F34F85B0E2
:101D100000270C46B846059801F0A8F90090C06D60
:101D20000121856805982A68904782462A68032120
:101D30000598904704902A680221059890470390DF
:101D40002A680021059890470646009809F08CFA09
:101D50008346009809F08FFA8146009890F8321077
:101D6000890601D5B0F9588000F036F8054600988C
:101D7000C06E10B108F0EBFA074625806780A4F822
:101D800004A0049AABEB020006EB0802401E2A44B2
:101D900020813A44E280039BA9EB0302521E628138
:101DA000A4F80CA020827019E681401E608268466B
:101DB00001F09AF9B4F90C000190B4F91000029006
:101DC00002AA01A9059800F039F80198A0810298AB
:101DD000208207B0BDE8F08F10B50146002091F8D1
:101DE0003220920607D5B1F95400002803D1486B80
:101DF00002F032F9801C10BD70B58AB00C46054661
:101E000001F034F90990C06D866809A801F06CF9F9
:101E1000009534B1012C06D0022C0BD0032C04D138
:101E20000AE0182000E01620019071686846884793
:101E30000AB070BD1520F7E71720F5E72DE9FC4142
:101E400017468846044601F011F90090C16D0568F7
:101E500068468E6801F048F93268002120469047B4
:101E60000646204608F0BBF927E000BF01F0FEF867
:101E70000190B0F900102AB2B0F90430891A9A1A08
:101E8000B0F90230A3EB2543B34210D190F82800FB
:101E9000000605D53868884209DB491E396006E02E
:101EA000D8F80000904202DC521CC8F8002001A8BB
:101EB00001F01AF9204608F0D5F90400D6D1BDE8A2
:101EC000FC812DE9FF4F83B00E460746DDF84090B8
:101ED00001F0CCF80190C16D8D68FFF77DFF0446DD
:101EE00001A801F001F92A6801213846904783468C
:101EF0002A6803213846904782462A6800213846DE
:101F000090470546B44207D105998B4504D10699FF
:101F10008A4501D14D4541D0A41B0026B046384624
:101F200008F05DF938E001F0A1F80090806A010640
:101F300001D5800502E0810528D50006002825DBB3
:101F400024B122461146384608F0A7FD009890F8C3
:101F5000280000060AD50698A5EB0902A0EB0A00A6
:101F600004FB16013846761C08F04BFD0098008DE6
:101F700080050BD50599A5EB0902ABEB010004FB2D
:101F8000080108F10108384608F03BFD684601F0F9
:101F9000ABF8384608F066F90700C4D107B0BDE8D1
:101FA000F08F70B586B0064601F060F80590D0E974
:101FB0001A4505A801F098F854EA050026D06946AC
:101FC0003046FFF7A2FEACB1BDF90620BDF9041002
:101FD000204608F0DAFCBDF90A00BDF90610421AE5
:101FE000BDF90800BDF90410521C411A2046491CD5
:101FF00008F092FF002D09D0BDF90600BDF90210CE
:10200000421ABDF90410284608F0BFFC06B070BDA6
:102010002DE9F0430446406885B0064608F02FF9E4
:10202000814601F023F80090D0F88080876C456EDF
:10203000684601F059F82068172859D008DC0E28A6
:1020400037D00F280BD0142852D015283AD14FE0A2
:102050001E2818D01F2827D0222833D146E06FF041
:102060007040874204D0384605F044F801F018F972
:10207000002D12D0D4E902122068CDE90106CDE985
:10208000031201A822E0E068002806D05FEA0800F9
:1020900006D0B04504D008F095FE05B0BDE8F08349
:1020A000304608F0E3FE16E02146484607F0DAFA2B
:1020B000F3E7E0684168002904DD00680928EFD0F3
:1020C0000A2805D0A5B12046C4F80490A847E4E743
:1020D000304608F0DAFE0446484600F0C7FF00909C
:1020E000C0F88040684600F0FFFFD6E7E760D4E71D
:1020F000204607F001FFD0E751B18200A2F1C042B3
:10210000126842F001038200A2F1C042136009E0AC
:102110008200A2F1C0421268034B1A408300A3F16F
:10212000C0431A6070470000FEFF0F0030B5002169
:10213000002200230468A400A4F1C0442168444C98
:102140002140D0E901452C43C5682C4305692C4347
:1021500045692C4385692C43C5692C43056A2C438A
:10216000456A2C43856A2C43C56A2C43056B2C4376
:1021700021430468A400A4F1C04421608468082CB1
:102180000BD10468A400A4F1C044246844F04005C5
:102190000468A400A4F1C04425600468641CA40081
:1021A000A4F1C044226802F04042446B2468456BAD
:1021B0006D6844EA0514456BAD6844EA0524456B37
:1021C000AD8944EA0544456B2D8A44EA0554456BC4
:1021D0002D7D44EA0564456BAD692C4322430468B8
:1021E000641CA400A4F1C0442260C46AB4F5804F0A
:1021F00024D10468A400A4F1C044D4F8043103F04D
:102200004043846B2468856B6D6844EA0514856BD4
:10221000AD6844EA0524856B2D8A44EA0554856B34
:102220002D7D44EA0564856BAD692C432343046826
:10223000A400A4F1C044C4F8043107E06FF0704575
:102240000468A400A4F1C044C4F8045130BD0000E7
:102250008000F7FF2DE9F0430446C56887B090463B
:102260008946002002F0C6FC064625B1287910B147
:1022700046F0020001E026F0020002F0BBFC2069FB
:10228000012558B1D4E902128DE826000395638830
:102290002288046841464846A0471EE0124F134B6F
:1022A000214638681B68427CE068984730B9E0886E
:1022B000012801D0002001E03868806BA288E38803
:1022C000A1680095CDE90410CDE90232019563883B
:1022D00022884146484604F0FBFA07B03046BDE884
:1022E000F04302F087BC000090010020880100202C
:1022F0001CB50024019401AC009400F0E7F81CBD6B
:102300002DE9FF4F83B0814606988A46A0EB0A0864
:10231000109E00200090A2EB09043568934654EA11
:10232000080018D02046FEF7A9F807464046FEF7F9
:10233000A5F887420BDA2046444680464846D146F7
:1023400082465846DDF818B0069001200090002C17
:1023500007DD204606E007B04846BDE8F04F00F034
:102360003BB96042A0420AD04846D9466442C8F10F
:10237000000883464FF0FF37DDF818A000E0012782
:102380005148B8F1000F11D004EBD4714FEA610B42
:1023900001DACBF1000B4C480068807E88B3002F37
:1023A00002DA30682044306000257BE00099002983
:1023B000016821D0897E11B10027804615E007B061
:1023C0005A4649465046BDE8F04F04F0E3BB284664
:1023D0006D1C10F0DFF838B9D8F8000009EB0701E0
:1023E000406E4268504690477F1CA742EFDD6D1E4D
:1023F000356007B0BDE8F08F8A7E1AB100278046AD
:1024000017E019E0486E5A465146036807B048463F
:10241000BDE8F04F184728466D1C10F0BBF838B9DE
:10242000D8F8001009EB0700496E4A6851469047FA
:102430007F1CA742EFDDDAE700250FE008FB05B0BF
:1024400090FBF4F101EB0A00009951B11E4A09EB2F
:1024500005011268526E526890476D1CA542EDDD71
:10246000C7E7194909EB05030968496E4A6801463F
:102470001846F1E708FB05B090FBF4F101EB0A0008
:10248000019030683844306010F084F848B9009802
:1024900090B10D4809EB05010068406E4268019853
:1024A00090476D1CA542E5DD3068002F01DA20441D
:1024B0003060C01B30609CE7034909EB05000968E8
:1024C000496E4A680199EBE7900100202DE9FF472A
:1024D0000F4640491646804609680C981D460A7EFC
:1024E000012A1CD0A8EB0600791B50EA01031CD07E
:1024F000A2F1010910F0F4FF00F58060824603F0BC
:1025000080FE00FB09F4504603F080FE00FB09F159
:10251000002C0CDAC4F50070801240420AE00090F2
:10252000324639464046FFF7EBFEBDE8FF8704F52B
:102530000074A012002904DAC1F5007189124C421E
:1025400002E001F500718C12002804DD411C01EB52
:10255000D171491003E000EBD0714910401E00EB2F
:10256000D0704210002C04DD601C00EBD0704010D5
:1025700003E004EBD4704010641E04EBD47308EB4A
:102580000104ADF800403C18ADF80240A8EB02048D
:102590005B10B21AADF80440ADF808203144FC1AC3
:1025A000EA1AADF80C102844ADF80A20ADF80E0078
:1025B0000023ADF806401A460421684600F07AF878
:1025C000394640460BF080FF294630460BF07CFF31
:1025D000ABE7000090010020064A13681A7E012A2A
:1025E00005D0521E02EBD272521000F005B85A6E9E
:1025F00052681047900100202DE9F05F064688469A
:1026000040F2C32002FB00F14FF47A7091FBF0F727
:1026100002FB02F102EBD27001EB600B1446B11821
:10262000234A301B7F1C1268526E13680A464146CB
:102630009847012538E000BF05FB05F004FB0401C5
:1026400059451CDDBC4219DD194B06EB050AA6EB0A
:1026500005091B68AAF1010208EB04015B6E09F190
:1026600001001B689847124BAAF10102A8EB040174
:102670001B6809F101005B6E1B689847641E0C4BD8
:102680003219301B1B68924608EB05015B6E8146D0
:102690001B689847064B5246A8EB05011B68484645
:1026A0005B6E1B6898476D1CBD42C5DDBDE8F09FA1
:1026B000900100202DE9FF4F43F6FF740F4666425C
:1026C00083B09B46814600210BE000BF09EB8100EF
:1026D000B0F90200A04200DA0446B04200DD06462E
:1026E000491CB942F2DB67480068406900280DD0F8
:1026F000B0F906101A46A1EB0B01B14200DA0E4602
:10270000B0F90200801AA04200DD0446B4E0DFF810
:1027100078A100200546CAF8000088E0781E8542AE
:1027200001DA6B1C00E0002309EB850C09EB830246
:10273000BCF90200B2F90210A04244D1A14215D165
:1027400039F92330059A39F9251003EB020C4D4A6B
:1027500005981268084404EB0B01526E604513683B
:1027600001DA62462AE00246604627E02846A4468F
:102770004FF000087A1E0BE008B1401E00E0781E02
:1027800009EB8003B3F90230634504D108F1010875
:102790009045F1DB2346A34248D01A1B39F92500A6
:1027A000A1EB040C059B92EA0C0F09D4354A18449E
:1027B00004EB0B011268526E13680246984735E02D
:1027C00009F042FA32E0A14230D001DBA04203DD41
:1027D000A0422BDBA14229DCE04688420ADC03460A
:1027E000A04223DC0846A14220DBB8F900C0B2F9C0
:1027F000001008E00B46A14218DCA04216DBB2F93B
:1028000000C0B8F90010E21AA1EB0C0151430029F5
:10281000A0EB030202DD01EB620102E0A1EB620129
:10282000491CC01A91FBF0F06044C9E76D1CBD4221
:10283000FFF674AF0598009004EB0B0001900020A8
:102840008046054613E01149B8F1000F31F915A093
:1028500009D0009901EB0A0208440A490968496E47
:102860000B680199984788F0010850466D1C06498D
:1028700009688D42E7DB641CB4427FF748AF07B0BC
:10288000BDE8F08F900100203C080020D8A1012075
:1028900010B5002002F098F96FF07F4002F09FF928
:1028A000012002F001FA002002F00CFA002002F0F0
:1028B00019FA002002F09EF90448006802F0A6F917
:1028C000BDE81040002002F0C1B900008C010020DA
:1028D000F0B50A4600210023002400BF3DE0012599
:1028E00005FA01F3156805EA03049C4234D1056832
:1028F0004F000326BE40B543056015794E00B54034
:102900000668354305601579012D02D01579022D31
:1029100016D185684F000326BE40B54385605579C2
:102920004E00B540866835438560456801268E4077
:10293000B5434560456896798E40B6B235434560EB
:10294000C5684F000326BE40B543C560D5794E002B
:10295000B540C6683543C560491C1029BFD3F0BDDA
:10296000F0B5002300244D07ED0E02FA05F3CE105A
:1029700000F1200555F826504E07F70E0F26BE40F1
:10298000B543CF1000F1200646F82750CE1000F1D5
:10299000200555F8265045EA0304CE1000F1200525
:1029A00045F82640F0BD4183704701837047000021
:1029B00010B50020054948706A22054940F2A2601E
:1029C00000F082F801200149087010BDA88600209F
:1029D000D40000201CB50122694640F2217000F0AD
:1029E00041F89DF8000000F0010050B94FF0FF30B1
:1029F0001A490860486000200872084602F028F86A
:102A00001CBD05220DF1010140F2227000F02AF8F0
:102A10009DF80000124988709DF80100C8709DF86B
:102A200003009DF8021000EB01200D4988809DF8FD
:102A300005009DF8041000EB01200949C8800846F4
:102A4000C0880649086006488088486001200872EE
:102A5000084601F0FDFF00BFD2E700005C870020C0
:102A6000A88600202DE9F04105460E46174611F0D4
:102A7000CBFFBA2011F0A0FF11F0F0FF281211F0E7
:102A80009BFF11F0EBFFE8B211F096FF11F0E6FFAB
:102A900011F0BAFFBB2011F08FFF11F0DFFF00240F
:102AA00006E011F067FF305511F014FF601CC4B24E
:102AB000781EA042F5DC11F05DFF305511F046FFA5
:102AC00011F0BAFFBDE8F0812DE9F04104460E4651
:102AD000174611F099FFBA2011F06EFF11F0BEFFFA
:102AE000201211F069FF11F0B9FFE0B211F064FF9C
:102AF00011F0B4FF002506E0705D11F05DFF11F0EC
:102B0000ADFF681CC5B2BD42F6DB11F095FFBDE814
:102B1000F08100002DE9F04FDFF828B191B04FF0BF
:102B2000FF35DBF80030B3F922100691DE69B3F906
:102B30002490F469A189814206D8E289824203D3B4
:102B4000471AD4F8008012E0D4E9018100296FD03F
:102B50000A8882426CD84D88854269D3801A82B235
:102B6000486800EB8200B0F90070B0F90250781CA0
:102B70005ED0307EA17C10FB01FA217CCDE90701FB
:102B8000B3F92A60304604F0FFFAC0B20E90DBF8C9
:102B9000000007FB0A81A37C826B0127CDE90412A8
:102BA000CDE90273C069089AC17E807ECDE900013B
:102BB000DDE90603494603F08BFE681C18D046F099
:102BC000020004F0E1FADBF80000A37C05FB0A81B7
:102BD000826BCDE90273CDE90412C069089AC17E07
:102BE000807ECDE90001DDE90603494603F070FE71
:102BF000DBF800005D46C069417E007E814214D949
:102C0000022E12D086F0040004F0BEFA2868C069D3
:102C1000027EC37E12FB0391437E857E089A06984E
:102C20004B4412FB050204F019F80E9804F0ACFABC
:102C3000DBF80000627C418C1144418411B0BDE896
:102C4000F08F00009001002004480068C069C0694E
:102C500009B1027C0A60407C7047000090010020AE
:102C6000022008807047C06982898A4202D8C289DE
:102C70008A4210D2806880B102888A420DD8438887
:102C80008B420AD3406800EB8100A0EB8200B0F9D0
:102C90000000002801DB0120704700207047000081
:102CA0002DE9F043304C034687B020681946B0F94F
:102CB0002A60C069C06900F086F8002850D04168D9
:102CC0000088181A01EBC0053046AF7804F05CFAB2
:102CD000814620686A680123816BCDE90237CDE91E
:102CE0000421C169CB7E8A7ECDE900230B7EB0F939
:102CF00024102A78B0F9220003F0EAFD2068C069A8
:102D0000417E027E91421FD9C07E11FB00F812FB6A
:102D100000F7022E18D001F0FEF8064601F0C4F8C4
:102D200001F05DFF21682A78CB69B1F92200DB7ED2
:102D300012FB0302B1F9241001EB0803394403F03C
:102D40008DFF304601F04BFF484604F01DFA206825
:102D50006A78C369B0F922109B7E12FB031141848B
:102D600007B0BDE8F08300009001002030B50F4CA3
:102D700005460B4620682946C069C06900F023F863
:102D8000002812D04168008824682A1A0120E469CA
:102D900000EBC200085CA47E10FB04F0002B04D002
:102DA00011F8321011FB04F1196030BD90010020C0
:102DB00001200880704700B5C06900F004F80028C1
:102DC00000D0012000BD06E002888A4202D8428875
:102DD0008A4202D280680028F6D1704770B500257B
:102DE0000F4C19E020690F49C5EB051600EBC60032
:102DF00070220968001DFDF741FA2069002140F8A2
:102E0000361000EBC60000F10C018161011D0A1DA6
:102E1000C0E90F126D1C4164A0688542E2DB70BD01
:102E2000940600209001002070B50E490C480860FF
:102E3000084603F0EFF80B4C143CA068C0EB001000
:102E4000C500284600F084F82A460021206103F0DE
:102E50005AF94FF0FF302060BDE8704002F07AB9B7
:102E600029070108A806002010B5040009D001F0C8
:102E70004FF9204608F040FF044602F02DF92046A5
:102E800010BD002010BD38B5054601F041F92846B7
:102E9000FFF7EAFF040009D000F0E8F82A46002115
:102EA000009003F030F9684600F01EF902F014F9C2
:102EB000204638BD024A106021F003005060704780
:102EC00024A0012010B5040016D001F021F90B4810
:102ED000006B10F8341059B1022909D2042101EB1A
:102EE000C4014158486808F0CBFE20460FF02CF989
:102EF000BDE8104002F0F0B810BD0000689F01204E
:102F0000002805D0034A916B016001B148609063CD
:102F100070470000689F012010B5044601F0F8F8E2
:102F20002068FFF7CFFF00202060BDE8104002F0CE
:102F3000D3B8000070B50D460646002405E000BF7A
:102F400006EB8400FFF7E8FF641CAC42F8DB70BDC1
:102F50002DE9F04104460DF0DDF92848E41C24F089
:102F60000305C16B2D1DA94200D90D46846B13E0EA
:102F700054F8042CAA420ED184B1216809B16268C8
:102F80004A60616809B122680A60826BA24231D14D
:102F9000216881632EE02468002CE9D18046416BD2
:102FA00080680F1857F8040C3E1A306838B10020BA
:102FB0000FF034F957F8040C3E1A3068D0B9706835
:102FC000A84217DB3044441B3046241D0FF0DEF8C6
:102FD000D8F80810491BC8F80810D8F81010294470
:102FE000C8F810107068401B02D0314608F048FE47
:102FF00044F8045C2046BDE8F0810000689F012091
:1030000010B500240DF086F90C490F2001EBC00229
:10301000126C1AB101EBC000006C08E0401EF5D53F
:1030200008E04168A14200D90C46806810B1806870
:103030000028F6D1A4F10C0010BD0000689F01200B
:10304000002138B10449042202EBC000096B085882
:1030500041680C3908467047689F01200248416961
:10306000491C416170470000689F012005498A6939
:10307000521C8A61096B01EBC0010A78521C0A706C
:1030800000F04AB8689F012010B501F041F8FFF741
:10309000B7FF64220849B0F5800F04D990FBF2F421
:1030A000C869444303E0C9694143B1FBF2F402F04B
:1030B00013F8204610BD0000689F01200549102824
:1030C00005D94A68B0EB520F02D3500800E0102037
:1030D0008860704724A0012002484169491E41616F
:1030E00070470000689F01200A4902680B6B52F884
:1030F000082C03EBC2021378022B03D38B690BB1AC
:103100005B1E8B611178491E117000210160084619
:1031100070470000689F0120002806D00349042260
:1031200002EBC000096B085808307047689F012007
:1031300038B5002430B1FFF799FF00900488684645
:10314000FFF7D2FF204638BD38B50D46002448B100
:10315000FFF78CFF2946009000F016F804466846F9
:10316000FFF7C2FF204638BD38B50D46002448B1F0
:10317000FFF77CFF2946009000F018F804466846E7
:10318000FFF7B2FF204638BD38B50D460188002450
:10319000A94209D9406838B1FFF768FF009050F89C
:1031A00025406846FFF7A0FF204638BD10B5002433
:1031B000FFF7EAFF10B1FFF759FF0446204610BDA4
:1031C00010B5136808290DD85C181460002222700D
:1031D000054A04E000F00F040009145D5C54491E28
:1031E000C9B2F7D210BD0000BC0C020870B514467D
:1031F0000D46064600F08CFF204600F099FE0300C5
:10320000174804EB840109D050F821004168806818
:10321000711A2A1A184601F009FD1CE000EB81041E
:10322000A268B24201D0012200E00022E368AB4272
:1032300001D0012300E000231A430CD0236943B1DD
:1032400050F82100816840686A1A311A184601F066
:103250007BFCC4E90265BDE8704001F03DBF0000A1
:10326000B0A1012010B5C2B2CBB2D21A00D55242E1
:1032700093B25B43C0F30722C1F30724121B00D5AE
:103280005242000C92B2A0EB114002FB023200B29B
:10329000002801DA404200B280B200FB002010BDDD
:1032A00010B50021084600F0EDFE43F6FF725042D3
:1032B000BDE8104013460146AFF300802DE9FC4104
:1032C0001C4615460E46074600F022FF042003F078
:1032D0005BFF80461248C068C16C006D0F44064415
:1032E0000D440444ADF80070ADF80450ADF8026030
:1032F000ADF80640684607F0C5FF07E023462A46BA
:103300003146384603F0AAFC07F070FF0028F5D1DB
:10331000404603F039FF01F0DFFEBDE8FC8100000C
:1033200084010020B0F90630B0F90420B0F9021091
:10333000B0F90000FFF7C2BF2DE9F8431C00DDE93A
:10334000089816460F46054602D106F021FF0446AE
:1033500000962E6843464A4621462846B047060056
:1033600039D006F00AFF8146698A304606F009FA2C
:10337000304607F005FE484607F002FE4FF0000811
:103380000CE000BFCDF8008055F81CCF00231A4692
:1033900049462846E04700B307F0F2FD7F1E002FA4
:1033A000F0DC1D21484607F032FC601C12D000F012
:1033B000AFFE06F021FF30B1FFF7AEFE8469B442E4
:1033C00001D02000F8D1B44202D0304607F04EFDC3
:1033D00001F082FE3046BDE8F883304606F0C4FDB9
:1033E0000020F8E72DE9F0411C4616460D46074639
:1033F000022B02DB0020BDE8F0811C20FFF7A8FDB6
:103400000028F8D00DB105610AE0094A52F82410ED
:1034100009B905E011460A68002AFBD10969016172
:1034200084618682002101604160C0E90217E2E701
:10343000A801002070B51D46FFF7D4FF040009D095
:1034400000F00EF8E068006820B90348006800EB5F
:1034500085008465204670BD90010020FFF750BDB7
:1034600070B590B38269022A30DA1E4C54F82210EB
:1034700019B944F8220032E019464B68002BFBD101
:1034800006E0CB68C5681B682D68AB4203DD0968A0
:103490000029F6D11AE0C1B1CB68C6681B6836684E
:1034A000B3420CD1838A012B05D008E01946DB68B2
:1034B0001B68AB4203DB0B68002BF7D129B14B68CB
:1034C00033B118604A68426004E0FFE7012070BD34
:1034D00044F822004860884200D1002101600020A9
:1034E00070BD0000A801002010B503E00468FFF7DC
:1034F000B7FF20460028F9D110BD0FF095BB0000A2
:103500002DE9F0410026DFF834800D4F354600BF2D
:1035100058F8254009E0E0680068385C20B1204692
:103520000FF082FB266026462468002CF3D16D1C28
:10353000022DEDDB3046BDE8F0810000A80100203F
:10354000BC780108022801DB00207047054951F8CA
:10355000200004E0C16809680029F6D0006800284E
:10356000F8D17047A8010020F8B5074615460E4669
:103570000C20FFF788FC04000FD000F0C9FD2046A6
:10358000FFF774FD06490090C0E9001706814581E8
:103590006846FFF7A9FD01F09FFD2046F8BD000039
:1035A000B40B02082DE9F8431D4616468846040070
:1035B0000CD0FFF75BFD0090006807686846FFF7D6
:1035C00093FD2B46324641462046B847BDE8F88376
:1035D00038B504004FF000000AD02046FFF746FD42
:1035E0000090006845686846FFF77EFD2046A847C2
:1035F00038BD38B504004FF000000AD02046FFF770
:1036000035FD0090006885686846FFF76DFD20462F
:10361000A84738BD2DE9F041044601F095FD061993
:103620001EE000BF00F096FB052F00DD052700F02F
:103630006FFD11480568FFF711FD2C0017D000BF82
:1036400001F04AFD641EFBD1384601F071FD1DB149
:1036500000F05EFD6D1EFBD1FFF73EFD01F03CFD6D
:1036600001F072FD371A002FDCDCBDE8F08138462E
:1036700001F05EFDF0E70000A00600202DE9FC4708
:1036800006005FD000F044FD00F06AFC3C4C81462F
:103690002068B0F9228000F0C1FC216807468A8CBE
:1036A000D01B888441E000BF47F6FF71304602F02E
:1036B00047FB82460146304602F018FB216805466A
:1036C00091F82C0000F00300012841D002283BD0E3
:1036D00000204A8C101A4884ADF800006A1E10447D
:1036E000ADF80400888CADF80200A9F1010108448E
:1036F000ADF806006A465146304601F063FF216886
:10370000BDF8020088845146304601F0D3FB0644E0
:1037100030780A281ED00D281CD0BDF80000216882
:1037200028444884307818B1761C30780028BBD102
:103730002068818C39448184818D21F00301818549
:1037400001F0CAFCBDE8FC8705EBD5704010C0E76E
:103750002846BEE7206890F82C1001F003010129EB
:103760000BD0022909D0018C418431780A29D9D1A2
:10377000828C02EB09018184D4E7A0F82280F4E76F
:103780009001002070B514460D46064600F0C0FCBE
:1037900005480068458484843046FFF76FFFBDE824
:1037A000704001F099BC00009001002047F6FF73C3
:1037B000AFF300802DE9FC411F4690460D46060000
:1037C0004FF000041AD000F0A3FC65B1284607F0C2
:1037D000C7FB040007D002462946684602F01DFBDD
:1037E000684607F0BDFB3B4642462946304601F09D
:1037F00041FF204607F0B4FB01F06EFCBDE8FC8100
:103800002DE9FF4F87B09046894607007DD000F034
:103810007FFCD9F80040D9F8045021B228B2401AF0
:10382000401C029000F09CFB064618F00C0F1ED0C6
:1038300038460A9A029901F059FC08F00C01042953
:1038400004D0082902D00C2911D104E0291400FB6E
:103850001610401C09E02114C1EB254200FB162084
:10386000401C00EBD07001EB600060F31F44484641
:1038700007F076FB5FEA000B09D00246494604A830
:10388000CDE9044502F0C9FA04A807F069FBA6F1E6
:10389000010A38460A9A029902F004FC03900AEBE6
:1038A000244060F31F45CDE900453846039902F0F6
:1038B0001DFA18F003010ED001292CD002290ED1D7
:1038C000B9F90420B9F90010521A101A00EBD0709F
:1038D00001EB600001E0B9F80000ADF800006A46B5
:1038E0003846039901F06EFE38460A9A029902F0B2
:1038F000CFFB074406EB244060F31F4438780028D0
:10390000C7D1584607F02CFB00E001E001F0E4FBD2
:103910000BB0BDE8F08FB9F80410081A401CDCE7C2
:103920007CB514460D46064600F0F2FB11480068CF
:10393000C16C006D0D4404443188681E0844ADF824
:103940000400ADF800507188601E0844ADF8060010
:10395000ADF80240684607F095FC06E0224629468D
:103960003046FEF777FC07F041FC0028F6D101F065
:10397000B3FB7CBD900100201CB50A460146684699
:1039800002F03AFB00F0C4FB2548BDF800100068C7
:1039900030F84C2F1144ADF80010BDF802108288A9
:1039A0001144ADF80210BDF8041002881144ADF8BE
:1039B0000410BDF8061080880844ADF8060068467B
:1039C00007F060FC27E000BFBDF900400BE000BF3E
:1039D000BDF90210204603F0A9F8BDF906102046F3
:1039E00003F0A4F8A41CBDF90400A042F0DABDF96C
:1039F00002400AE0BDF90000214603F097F8BDF946
:103A00000400214603F092F8A41CBDF90600A04270
:103A1000F0DA07F0EBFB0028D6D101F05DFB1CBD0E
:103A2000900100202DE9F04F87B09B46DDE910980A
:103A300092460C46054600F06BFB16480168C86CC0
:103A4000096D47190E1900EB0A0501EB0B04ADF8DF
:103A50001070ADF81450ADF81260ADF8164004A81F
:103A600007F010FC88B1DFF830B04FF0000ACDE964
:103A70000098CDE902BA2B462246394630460AF074
:103A8000CDFB07F0B3FB0028F1D101F025FB07B017
:103A9000BDE8F08F90010020956B00082DE9F04FF4
:103AA00087B09B46DDE9109892460C46054600F02B
:103AB0002FFB16480168C86C096D47190E1900EBF9
:103AC0000A0501EB0B04ADF81070ADF81450ADF819
:103AD0001260ADF8164004A807F0D4FB88B1DFF8F7
:103AE00030B04FF0010ACDE90098CDE902BA234683
:103AF0002A46314638460AF091FB07F077FB00284A
:103B0000F1D101F0E9FA07B0BDE8F08F9001002093
:103B1000D56A00082DE9FC4114460D46064600F022
:103B2000F7FA114F3968C86C096D054404440E4416
:103B3000ADF80050ADF80440ADF80260ADF8066095
:103B4000684607F09FFB08E0386822463146406E21
:103B500003682846984707F049FB0028F4D101F094
:103B6000BBFABDE8FC810000900100202DE9F04186
:103B70001C4615460E46074600F0CAFA0C48016876
:103B8000C86C096D074405440E440C44002007F03E
:103B900079FB07E023462A4631463846FEF7A8FB64
:103BA00007F024FB0028F5D1BDE8F04101F094BAFC
:103BB000900100207CB50C46064600F0A9FA0F4D96
:103BC0002868C16C006D0E440444ADF80460ADF883
:103BD0000060ADF80640ADF80240684607F052FBC1
:103BE00007E028682146406E42683046904707F05B
:103BF000FDFA0028F5D101F06FFA7CBD900100209C
:103C00002DE9FC411C4616460D46074600F080FA99
:103C10001A480168087ECA6C096D17440D440C44AB
:103C2000401E391A1644ADF800103118ADF80410D2
:103C3000291A2044ADF80600ADF80210684607F0D6
:103C400021FB15E032462946384602F043FF324652
:103C50002146384602F03EFF621E691C384602F0DB
:103C600099FF621E691C304602F094FF07F0BEFA0D
:103C70000028E7D101F030FABDE8FC819001002076
:103C80007CB514460D46064600F042FA0F4800681F
:103C9000C16C006D0E4405440444ADF80060ADF8FD
:103CA0000460ADF80250ADF80640684607F0EAFA45
:103CB00006E022462946304602F06CFF07F096FAED
:103CC0000028F6D101F008FA7CBD00009001002028
:103CD00070B50C46054600F035F910B10121C0E978
:103CE000001400F015FA284607F002FABDE870400B
:103CF00001F0F2B910B5044601F020FA0449096850
:103D0000002903D02046BDE81040084710BD000040
:103D10007C06002030B59DB00D460446CDF870D02D
:103D20006F220021684602F0EEF9642221466846BF
:103D300008F07AFA6846FCF7D3FA1C991CAA0844E2
:103D40001C900821284601F061FA6846FFF7D2FF6F
:103D50001DB030BD10B5002400E0012400F004F8CF
:103D60000028FAD1204610BD064810B5006800248E
:103D700010B1804700B1012406F070F900B10124B0
:103D8000204610BDB00100202DE9FC411C4615461F
:103D90000E46074600F0BCF910480068C16C006D83
:103DA0000F4406440D440444ADF80070ADF80450CF
:103DB000ADF80260ADF80640684607F063FA07E028
:103DC00023462A463146384602F048FF07F00EFAED
:103DD0000028F5D101F080F9BDE8FC8190010020B8
:103DE000B0F90630B0F90420B0F90210B0F90000C3
:103DF000FFF7CABF08B50B46002805D0009281889E
:103E00008268C08800F001F808BD10B50828029C3F
:103E100030D008DC04FB01F401280AD0022813D0BA
:103E2000042804D11CE0102828D020282CD0002001
:103E300010BD04EBD30003F00701105CC1F10701D2
:103E4000C84000F0010010BD04EB93000621105C97
:103E500001EA4301C1F10601C84000F0030010BDB2
:103E600004EB5300D907105C02D000F00F0010BD26
:103E7000000910BD04FB0130105C10BD481004FBAC
:103E8000003032F8100010BD881004FB003052F8EA
:103E9000200010BD034951F82000C1688A6A08213A
:103EA00010470000A801002010B500F031F902F021
:103EB00005FF02F0A3FF044601F00EF9204610BDF5
:103EC00010B5044600F024F9054800210068C069D7
:103ED000426820469047044601F0FEF8204610BD97
:103EE0009001002070B50C46054600F011F9064817
:103EF00021460068C069426828469047044601F0A0
:103F0000EBF8204670BD000090010020002801D091
:103F100006F010B9704710B500F0FAF802F0D6FEBE
:103F200002F06CFF044601F0D7F8204610BD0000F7
:103F30000021022802D2024951F820100846704799
:103F40008C0600201FB500210191029103912A21C6
:103F50000091694606F04CFE039804B010BD0000C5
:103F600010B500F0D5F804480068C069447E01F03F
:103F7000B3F8204610BD00009001002070B50D463A
:103F8000044600F0C5F814B909480068C469294618
:103F900094F82000A87094F82200287194F8210069
:103FA000E870A26820469047BDE8704001F094B8E0
:103FB0009001002010B500F0ABF801F08DFE044632
:103FC00001F08AF8204610BD70B514460D4606462D
:103FD00000F09EF822462946304602F0B1FE10B1AC
:103FE000002028602060BDE8704001F075B870B511
:103FF0000C46054600F08CF82146284601F0CAFE22
:10400000BDE8704001F068B810B5044601F0B4FE98
:1040100001462046BDE8104001F068BE10B50024FE
:1040200000F076F80B48006890F82C1001F00C01B5
:10403000042904D0082906D00C2907D103E0C0695F
:10404000047E641E02E0C069007E440801F044F86A
:10405000204610BD90010020017EC07E11FB00F0C3
:1040600070470000024951F820000069006870475D
:10407000A8010020024951F82000006940687047FB
:10408000A801002070B50D46044600F041F8204616
:104090000CF074F8044628460CF078F8044301F05C
:1040A0001BF8204670BD0000134810B5016821F0D0
:1040B000010101601148012181601149016000681E
:1040C0001049884200D0FEE701F060FA0E492E2028
:1040D000087001F03DF80D480CF0CEF810F0A3FB8D
:1040E00004460021084600F0BFFD06F03DFBFEF748
:1040F00075FE204610BD0000002000E000300240A8
:10410000C2A507F4CDB5E8B58401002030A0012098
:1041100070B5214CE06820B101F012F86168884266
:1041200004D001F057F801F00BF86060E068401C23
:10413000E06001282AD100250BE000BF01F000F863
:104140002269C5EB051152F83110814205D0F1B159
:104150006D1CA0688542F1DB00252068854215D0E2
:10416000002812DBFFF7CCF92168C1EB01122169AD
:1041700001EBC2025067C5EB0510084A01EBC00015
:10418000011D1160406FFFF7AFF9256070BDC5EBF1
:10419000051142F83100E0E794060020900100206C
:1041A0001CB5040004D10E480068046E002C16D023
:1041B000FFF7AEFF2046FEF759FF009044696846BE
:1041C000FEF792FF4CB12046FEF750FF0190816848
:1041D0008968884701A8FEF787FF00F07DFF1CBDB6
:1041E0009001002001490A4600F002B801F0FFFFEB
:1041F0002DE9F04387B015460C465FEA000846D02B
:10420000FFF786FF002000F0F5FC8146214800689A
:10421000066E4046FEF72AFF00900068806900F0B5
:10422000BBFC074640F6FF70001904D10098B0F9B6
:104230000440B0F906500098611E0289ADF80440B0
:104240001144ADF808104189681E0844ADF80650C5
:10425000ADF80A0005F040FD6846FEF745FF01A8ED
:1042600007F010F806E02A462146404600F068FBB9
:1042700006F0BCFF0028F6D1384600F08DFC304631
:1042800000F074F9484600F0B5FC00F025FF07B0D7
:10429000BDE8F083900100202DE9FE4F984691463D
:1042A0008A46834600270C9EFFF732FF17481849BD
:1042B0000068407C51F82040E1680968042903D077
:1042C0002468002CF8D100E014B9FFF73BF904464C
:1042D0000121E068C26A20469047050011D0246998
:1042E000A0688047401C02D10A4C46F001060096A7
:1042F000CDE9015443464A465146584600F0CAF9B2
:10430000074600F0E9FE3846BDE8FE8F9001002028
:10431000A801002094FC010838B504001CD0FFF768
:10432000F7FE0E480068006EA04201D100F026FCA6
:104330002046FEF79BFE0090406908B100F0B5FEF4
:1043400000980068FFF78AF86846FEF7CDFE204621
:10435000FEF7B8FD00F0C0FE38BD0000900100205F
:104360002DE9FF4F0746464883B099460068DDF8BF
:1043700040B08A46447C434800570128204606DD69
:1043800002F006FD8046204602F00EFD05E002F038
:10439000EDFC8046204602F0EFFC044617B302A96C
:1043A00001A8FFF724FEB7F90060002E00DA00260E
:1043B000B7F90250002D00DA00250199B7F9040081
:1043C0004144491E0CF0A8F8804602980119B7F93B
:1043D0000600491E0CF0A0F8A8EB0602441B521C74
:1043E000641C02E0002635464246B9F1000F01D1B7
:1043F000C4F10009002A01DD002C03DC002007B015
:10440000BDE8F08F4B4629463046CDF800B0FFF7A7
:1044100043FF5FEA000909D000F062F88046484691
:1044200000F0A4F80027DFF860B01FE051460598BF
:1044300088470120E3E7E11B414502DA484600F0E6
:1044400079F83FB1EA193146484600F0B7F84846D6
:10445000FFF7A6FE514605988847DBF8001009B122
:10446000002088474846FFF7BDFE4744A742E2DBED
:104470004846FFF751FF002000F078F8BEE7000043
:1044800090010020C4010020D006002038B50500AE
:104490004FF0000411D0FFF73BFE2846FEF7E6FD83
:1044A0000090006800698068804703F063F8044664
:1044B0006846FEF719FE00F00FFE204638BD38B5FD
:1044C0000446FFF725FE2046FEF7D0FD00F1180454
:1044D00000906846FEF708FE00F0FEFD204638BD5D
:1044E00038B504460025FFF713FE1CB908480068DC
:1044F000046E44B12046FEF7B9FD0090B0F90A50B1
:104500006846FEF7F1FD00F0E7FD284638BD0000E3
:104510009001002070B505460024284607F0B4FF3E
:10452000641C18B1BDE8704000F07AB8052CF4DBCB
:1045300070BD000038B50C46050004D10A4800687B
:10454000056E002D0FD0FFF7E3FD2846FEF78EFD28
:104550000090B0F90A10A14200DD44816846FEF7E0
:10456000C3FD00F0B9FD38BD90010020F8B5054647
:10457000FFF7CEFD104E3068046ECDB10CB100F0E7
:10458000FDFA05F0A9FC2846FEF770FD00903168A1
:104590000D660068FEF764FF6846FEF7A5FD02F0B1
:1045A00051FE02F0D1FD00BF00F096FD2046F8BD9F
:1045B00000F0E4FAF8E70000900100207CB5154611
:1045C0000E46040004D115480068046E002C24D067
:1045D000FFF79EFD2046FEF749FD2DB20090C580F5
:1045E00034B2848002F0B0FD0098406980B1FEF7DB
:1045F0003DFD009A0190B2F908108180B2F90A20BD
:10460000C28011B10AB10480458001A8FEF76CFD9B
:104610006846FEF769FD00F05FFD7CBD900100205B
:1046200001490A4600F002B801F0FFFF7FB51546C8
:104630000C4606002DD0FFF76BFD3046FEF716FD49
:1046400040F6FF710190091903D1B0F90440B0F9A7
:1046500006500289611E1144ADF80840ADF80C10F7
:104660004189681E0844ADF80E00ADF80A5001A853
:10467000FEF73AFD02A806F005FE06E02A462146AE
:10468000304600F045F906F0B1FD0028F6D100F003
:1046900023FD7FBD2DE9FF4FDFF8E0B083B01C465E
:1046A000DBF80010DDE91060924600274B7C3A46AB
:1046B0001299FEF797FE05005DD028698068804753
:1046C00002F058FF81460AFB09F0C01D4FEAD008EE
:1046D000FEF7DAFCF10705D1C11700EB91708010ED
:1046E00000EB4000002C06DC1838B0FBF8F0644208
:1046F000A04200DC0446F00707D10090DDE9030189
:104700002346524600F056FC0746002C03DC2846A0
:10471000FEF7A4FE2FE004FB08F01830F10702D0EA
:10472000FEF7A2FB01E0FEF7AEFB06001CD0FEF791
:104730009DFC01900560039981800499C180A0F8D7
:1047400008A04481C0F80C80C0E9049701A8FEF7D6
:10475000CBFC1298AE602861DBF80000407CA861B9
:10476000304607B0BDE8F08F2846FEF777FE17B158
:104770003846FEF7A7FB0020F3E700009001002079
:104780002DE9F74F8EB0144689460E98FEF76EFC61
:104790000990B0F908B0B0F90A6000680069406893
:1047A0000C9009A8FEF7A0FC564D574F2868407C96
:1047B00057F82000C1688A6A082190470790182896
:1047C00001D3202007902868407C57F8200000691A
:1047D000069003C80B904D48814201D0012000E0B3
:1047E00000200A90002000F020FD00287DD12868DC
:1047F00009EB0B01B0F90C20891A491E002902DDD2
:10480000ABEB010500E05D46B0F90810494505DD58
:10481000A1EB090189446D1A089101E0002108917A
:10482000002D6BDDB0F90E20A119891A491E00294F
:1048300002DDA6EB010800E0B046B0F90A00A04294
:1048400004DD061B3444A8EB060800E00026B8F19E
:10485000000F53DD089801900DA95F46DDF830A0E8
:104860000E980091FFF72BFE774300EB870101982C
:104870002B4601EB800200994846CDE900A1214674
:1048800000F0A8FF0090002838D00A98E8B1DDE9D0
:1048900006322946009800F0C7FDB0B90698009F7F
:1048A000DA46D0F810C0BCF1000F05D004235A46F8
:1048B00039463846E04708E00B993868884701C711
:1048C000AAF101005FEA000AF6D100990020079AD8
:1048D000CDE90301059001200090CDE901022146B8
:1048E0000346641C2A46484600E007E001F0F0FF5A
:1048F000A8F10100761C5FEA0008ABD111B0BDE859
:10490000F08F000090010020A80100201B6E00081D
:10491000F8B515460E460746FEF7A8FB009000685E
:104920001621C068426A0020904704466846FEF798
:10493000DBFB002C03D02A4631463846A047F8BDA1
:10494000F8B515460E460746FEF790FB0090446901
:104950006846FEF7C9FB3846FFF798FD034608286E
:1049600000DD2CB12A46314638460EF091F9F8BDEB
:104970002A46314638460EF02BFBF8BD10B500280C
:1049800021D009B30AB3B1F90040B2F900309C421A
:1049900000DA23460380B1F90240B2F902309C42AA
:1049A00000DA23464380B1F90440B2F904309C4256
:1049B00000DD23468380B1F90610B2F9062091424A
:1049C00000DC1146C18010BD11460A6802604968CA
:1049D000416010BD00280BD003880B4403808388FE
:1049E00019448180418811444180C1881144C180AB
:1049F0007047000070B50E4D0446D5E900018842AD
:104A000009D10C49884201D13C3000E00C3807C87C
:104A100084E8070006E090E80E0084E80E000BF042
:104A2000BDFB2860207A002800D0012070BD000066
:104A3000D0010020A0A001200448D0E9001081424C
:104A400001D101207047002070470000D0010020F4
:104A5000054A10B5034911600EF01CF8BDE810407E
:104A600000F050B97DA30008B401002070B5002506
:104A7000FFF74EFB094CD4E9002082420AD0D2E96C
:104A8000005610460BF0A2FB20603146284605F088
:104A9000CFFF012500F020FB284670BD80060020D6
:104AA0002DE9FC41154DDDE908742D68B5F9086064
:104AB000864200DD3046B5F90C60964200DA324697
:104AC000824219DBB5F90A608E4200DD3146B5F944
:104AD0000E509D4200DA2B468B420DDB00E02C4647
:104AE000E5682D6825B1042D02D02568002DF6D18A
:104AF000CDE9007402F012FABDE8FC8190010020BB
:104B0000B0F90220B1F906309A4213DCB1F9022063
:104B1000B0F906309A420DDCB0F90020B1F904304A
:104B20009A4207DCB1F90010B0F90400814201DCBF
:104B3000012070470020704701460248702200683B
:104B4000FBF79CBB9001002070B515460E46040093
:104B50000AD0FFF7DDFA2A46314620460DF0E4FD83
:104B6000BDE8704000F0B8BA70BD00000249702284
:104B70000968FBF783BB00009001002010B5FFF728
:104B8000C7FA02F097FA02F05DFB05F0A5F8BDE860
:104B9000104000F0A1BA000070B5094D0446286825
:104BA000467CFFF7B5FA022C03D228684474FFF75D
:104BB000E5FF0448046000F08FFA304670BD000045
:104BC000900100200C06002010B50446FFF7A0FA63
:104BD000204602F08FFABDE8104000F07DBA10B513
:104BE0000446FFF795FA204602F0BCFABDE81040F3
:104BF00000F072BA10B50446FFF78AFA204602F0B8
:104C0000C3FA044600F068FA204610BD70B50446A9
:104C1000FFF77EFA04480068C56904B1C46100F07A
:104C20005BFA284670BD00009001002070B5144664
:104C30000D460646FFF76CFA22462946304602F03A
:104C4000BFFA044600F048FA204670BD70B505462C
:104C5000FFF75EFA03480068847E857600F03CFA30
:104C6000204670BD9001002070B50C460546FFF748
:104C70004FFA094822460580084804800848006821
:104C8000417C084850F82100C1680B6A29469847C2
:104C9000BDE8704000F020BACC010020CE01002019
:104CA00090010020A801002070B50546FFF730FAFA
:104CB00003480068047E057600F00EFA204670BDB9
:104CC0009001002070B50446FFF722FA04480068FE
:104CD000B0F92C50848500F0FFF9284670BD000023
:104CE0009001002070B50446FFF712FA04480068EE
:104CF000B0F92A50448500F0EFF9284670BD000055
:104D00009001002002480068002800D0004770474A
:104D1000B006002002498A6802B98860FFF7F2BF36
:104D20008006002010B504000ED0FFF7F1F92046F0
:104D30000DF046FA20460DF04FFF2046FEF7C2F870
:104D4000BDE8104000F0C8B910BD38B50C460500EC
:104D500011D0FFF7DDF92846FEF788F90090808929
:104D6000204201D0012400E000246846FEF7BCF98F
:104D700000F0B2F900E00124204638BD38B5054600
:104D8000002028600648046844B12046FEF76EF90A
:104D90000090006928606846FEF7A6F9204638BDF5
:104DA0006008002038B504004FF000000D46086090
:104DB00011D02046FEF75AF90090846844B1684645
:104DC000FEF792F92046FEF751F90090006928603D
:104DD0006846FEF789F9204638BD00002DE9F84FF6
:104DE000DFF898800546264F98F818008B46410753
:104DF00038680A9E9946407C924607D401F0C8FF65
:104E000004463868407C01F0CFFF06E001F0CCFF9B
:104E100004463868407C01F0BBFF002785B1441E82
:104E2000B9EB060000D54042142806DB5146BBEB27
:104E30000A0000D54042142804DA0120BDE8F88FAA
:104E4000641EEDE70A464B465946384600960BF07D
:104E50000DFB0C4F4B46524647F83500594620464D
:104E600000960BF003FB07EBC50148600DF0CEFB8D
:104E700001210020C8F81C10E0E70000D801002044
:104E800090010020E8A001202DE9F041084E0446E1
:104E900005683068016828468847074630684168D9
:104EA00028468847284420603846BDE8F081000045
:104EB000940100202DE9F0410C4606460025064FDE
:104EC00005E0386841683046884706440544641E5A
:104ED000F7D22846BDE8F081940100202DE9F04189
:104EE0001E46069C1746884605463A46A8687F1C1B
:104EF0003346D0F804C041462846E047641EF4D14A
:104F0000BDE8F08170B5B0F90040091BB0F904406C
:104F10008C422CDD00F11404B0F902500069521BE0
:104F200002FB0040CA1800EBE104521ED010B0EBA7
:104F3000E10501F007034FF0FF0102F0070221FA3B
:104F400003F0C2F1070201FA02F1CEB221780FD0CC
:104F500001436D1E04F8011B002D05DDFF222946CB
:104F60002046FBF7ABF92C4420783043207070BD0D
:104F700030400143217070BD10B5B0F90030B0F978
:104F80000240C91A00F114030069121B02FB003031
:104F900000EBE10001F0070302788021D9400A43C9
:104FA000027010BDB0F90610026951431430FBF7CE
:104FB0008CB900002DE9F843804602F10F00001182
:104FC000470003FB07F01C46154689461430FDF7E1
:104FD0005AFF060018D0FFF79BF83046FEF746F858
:104FE0000090A0F80080A0F802908580C480074956
:104FF00081600121818107616846FEF775F800F044
:105000006BF83046BDE8F8830020FBE71C0B020874
:1050100070B5B0F90660B0F904400B6800F11405F2
:1050200096421BDD0069A34202FB005000EBE30245
:1050300014DA641EE010A0EBE30512F8010B03F094
:105040000704A040C4B206E045B1083312F8014B92
:1050500023F007036D1E002CF6D004E0002070BD85
:105060006006040E5B1C2006FAD5FF2C07D01846FC
:1050700002E06406240E401C6606FAD400E0D81D47
:10508000C443640705D006E012F8014BFF2C09D198
:1050900008306D1EF8D5C01A401C0B6070BD62064A
:1050A000140E401C2206FAD4F5E738B50546FFF782
:1050B0002FF82846FDF7DAFF00908189491E0CB2CF
:1050C00084816846FEF710F814B92846FDF7FAFE09
:1050D00000F002F838BD00000348C168491EC160F5
:1050E00001D100F087B87047940600202DE9F04107
:1050F00016460F4605460024FFF70AF832463946A1
:10510000284600F0C5FF054408B1641CF6E7FFF728
:10511000E3FF2046BDE8F08110B54FF48C31034821
:10512000FDF7C8FE8020FDF7C9FF10BD688700208D
:1051300010B50446204610F063FE10BD704770475E
:1051400010B511F0B5FD10BD10B511F0C7FD10BDC3
:105150007047000010B5012011F0CCF91B49086020
:105160000846006808B1012000E0002050B900BFE7
:10517000502080F31188BFF34F8FBFF36F8F00BFB4
:1051800000BFFEE703220021012011F0E5F91049DC
:1051900008600846006830B100231A4619460C48DA
:1051A000006811F03FFB0A48006808B1012000E0E8
:1051B000002050B900BF502080F31188BFF34F8FFB
:1051C000BFF36F8F00BF00BFFEE710BD600100207E
:1051D0006401002010B50648006808B9FFF7BAFF5F
:1051E00000235A1E19460248006811F0FBF910BD51
:1051F0006001002010B500231A46194602480068D5
:1052000011F010FB10BD00006001002030B41368E5
:10521000202403F8014B302403F8014B782403F8D1
:10522000014B136030BCFDF7CBBF0EB508B102AA2D
:1052300000E00022002301A9684600F0FFFC0EBD3B
:10524000074910B5CC6818B10120C860801E03E082
:105250000020C8606FF07F4001F078FA204610BD52
:10526000400800202DE9F041984616460C4688B3C8
:10527000FEF7CAFE074608F00300012825D00228E1
:1052800017D0B4F9005000BFFEF76AFE014608F0DF
:105290000C0004282BD00C281DD0B4F90200358056
:1052A0007080EA19521E0844B280401EF080BDE8AA
:1052B000F081B4F90400B4F90010401AC01B401C7E
:1052C00000EBD07001EB6005DEE7B4F90400C51B0C
:1052D0006D1CD9E710E0B4F90600B4F90220801A79
:1052E000401A401C00EBD07002EB6000D7E7B4F925
:1052F0000600401A401CD2E7206830606068706089
:10530000D5E7000010B5082A0EDC0346012A18D0A4
:10531000022A56D0042A76D010F8042B03F8012B69
:10532000491EF9D1012010BD102A08DC4FEA000205
:1053300030F8043B22F8023B491EF9D1F2E7002085
:1053400010BD10F8042BD207120E491E34D010F8ED
:10535000044B491E04F0010442EA84122CD010F8D8
:10536000044B491E04F0010442EA441224D010F810
:10537000044B491E04F0010442EA04121CD010F848
:10538000044B491E04F0010442EAC40214D010F890
:10539000044B491E04F0010442EA84020CD010F8C8
:1053A000044B491E04F0010442EA440204D010F800
:1053B000044B04F00104224303F8012B0029C0D15F
:1053C000B0E710F8042B9207120E491E15D010F802
:1053D000044B491E04F0030442EA04120DD010F8F5
:1053E000044B491E04F0030442EA840205D010F87D
:1053F000044B04F003042243491E03F8012B002947
:10540000DFD18FE7FFE710F8042B1207120E491EB9
:1054100005D010F8044B04F00F042243491E03F892
:10542000012B0029EFD17DE72DE9F0411E680D46E3
:105430000446082A09DC0746012A1AD0022A5BD052
:10544000042A7DD0082A13D18DE0102A07DCD3F876
:1054500010C00746BCF1000F04D0022389E00020F1
:10546000BDE8F08101CCB04727F8020B6D1EF9D1E1
:105470008AE001CCB047C0074FEA10686D1E36D0F5
:1054800001CCB04748EA801000F0FF086D1E2ED016
:1054900001CCB04748EA401000F0FF086D1E26D04E
:1054A00001CCB04748EA001000F0FF086D1E1ED086
:1054B00001CCB04748EAC00000F0FF086D1E16D0CE
:1054C00001CCB04748EA800000F0FF086D1E0ED006
:1054D00001CCB04748EA400000F0FF086D1E06D03E
:1054E00001CCB04740EA080000F0FF086D1E07F845
:1054F000018B002DBDD147E001CCB04780074FEABA
:1055000010686D1E16D001CCB04748EA001000F0BC
:10551000FF086D1E0ED001CCB04748EA800000F0B5
:10552000FF086D1E06D001CCB04740EA080000F02D
:10553000FF086D1E07F8018B002DDDD124E0FFE789
:1055400001CCB04700074FEA10686D1E06D001CCB1
:10555000B04740EA080000F0FF086D1E07F8018B15
:10556000002DEDD110E0D3F810C0BCF1000F05D034
:1055700001230A4601463846E04705E001CCB04722
:1055800007F8010B6D1EF9D1012069E70B4810B532
:105590008169002910D101218161FFF7BDFDFDF76F
:1055A00043FC01F061FE054905481C310860BDE877
:1055B0001040084600F02EBD10BD00008401002000
:1055C000C90601087CB5064628480D46006868B142
:1055D000002005F057FE06E06A462946304607F0EF
:1055E0001BF805F003FE0028F6D17CBD1068009082
:1055F0001F4C506801902268BDF8000032F84C1F23
:105600000844ADF80000BDF8020091880844ADF8E8
:105610000200BDF8040011880844ADF80400BDF88C
:10562000060091880844ADF80600684605F02AFE99
:105630000EE000BF2068BDF800106A464184BDF846
:10564000021081842946304606F0E6FF05F0CEFDC3
:105650000028EFD1206830F8221F428D891A01807E
:105660004188C28D891A41807CBD0000C80100209C
:10567000900100202DE9FF4F85B09A4690460D46D7
:10568000FEF76EFC4FF00009DDF814B006464C46FC
:1056900025B1286800906868019002E06846FEF72E
:1056A00035FC18F00C0F02D05546002713E0BDF969
:1056B00002402DE029467F1C059800F041FB014681
:1056C0006D1A0598FFF7F6FB05990844059005A8A3
:1056D00000F07AFB08B9002DECD108F00C0004288A
:1056E00004D0082802D00C2812D105E0BDF906002C
:1056F00007FB1604641C0BE0BDF90600BDF902109F
:10570000401A07FB1600401C00EBD07001EB600450
:105710005546CDF814B043E02946059800F010FB3B
:1057200007460146ED1B059800F0E0FA18F003016A
:105730000ED0012939D002290DD1BDF90410BDF9CF
:105740000020891A091A01EBD17102EB610101E015
:10575000BDF900108946174A401E48441268394670
:10576000A2F822909484ADF80C00A019401EADF868
:105770000890ADF80E00ADF80A4002AA0598FFF7B0
:1057800021FF39460598FFF795FB059908440590D8
:10579000FEF7E6FB044405A800F016FB002801D143
:1057A000002DB9D109B0BDE8F08FBDF90410091A78
:1057B000491CCFE79001002049B1002802DAA0EB94
:1057C000610001E000EB610090FBF1F07047002008
:1057D000704700002DE9FF4F8DB00020DDF86CA070
:1057E000164600901D4604460246CAF8000008AB63
:1057F00003A902A800F022FA18B1002011B0BDE8F8
:10580000F08F0898854200DD0546614F0B95614990
:105810003868407C51F82010049109690691FEF720
:1058200039FB05903868407CFEF724FC5A498146D4
:10583000884204D05949894501D0012000E0002068
:105840000A9001CE1A9988478346000E079077D0B8
:10585000009870BB0D9800EB04084D480068B0F943
:105860000800404503DDA0EB0807804600E0002764
:105870000298049900EB840000EB8700CDE9000159
:105880000B990D98421809920E9B40461946521EDC
:10589000FFF706F901200090059818280ADA029807
:1058A000DDE9052300EB840000EB8700E91B00F035
:1058B000E9F812E00A9880B1029800EB840000EB4E
:1058C00087070998A0EB080849463868884701C748
:1058D000A8F101005FEA0008F6D13148C06980B341
:1058E000DDE9020700EB840007EB8402CDE9020248
:1058F0002B4C361F3046E4692B460299A047FF2106
:105900003068B1EB106F02D10298006804E0029A8F
:105910001268B1EB126F01D1039A1060029806F180
:105920000406001D02900398001D03906D1EE7D130
:105930000397DAF8000040F00101CAF8001020E0F7
:1059400021E0FFE70798FF2811D0C0F1FF0202987D
:1059500050F82410584600F0F5FA039941F8240055
:10596000DAF8000040F00101CAF8001005E00298E2
:10597000039950F8240041F82400641C6D1E7FF444
:1059800060AF03983AE7039941F824B0E8E70000D4
:1059900090010020A80100201B6E0008196E00086D
:1059A000100800202DE9F04F85B09B46DDE90F87F8
:1059B00092460C460546DDF83890FEF7A9FB1548DF
:1059C0000068C16C4E190D19016DABF1010001EBBE
:1059D0000A04ADF810502044ADF80C60ADF8120088
:1059E000ADF80E4003A805F04DFC0BE0CDF800909B
:1059F000CDE901875B4622462946304609F07AF90F
:105A000005F0F4FB0028F1D1FFF766FB05B0BDE817
:105A1000F08F0000900100202DE9FF4F87B00C4669
:105A2000DDE91698DDE914BA0546FEF771FB144866
:105A3000099A0168C86C096D471985180E190A98EA
:105A4000ADF810700C18ADF81450ADF81260ADF848
:105A5000164004A805F016FC0BE0CDE90298CDE94C
:105A600000BA23462A463146384609F0C7F905F000
:105A7000BDFB0028F1D1FFF72FFB0BB0BDE8F08F85
:105A8000900100202DE9F05F0C1E16DD5E680146D6
:105A900000EB8405082A12DC611E012A26D0022AA6
:105AA00047D0042A6AD0082A07D1071917F8010D30
:105AB000B04745F8040D641EF8D1BDE8F09F102AE8
:105AC000FBDC5F693FB12246BC46BDE8F04F0223D4
:105AD0005DF804EB604701EB440700BF37F8020DA7
